:020000040000FA
:0600000002011D021D3E7D
:03002B000221FEB1
:030033000221E0C7
:03005300021DB4D7
:03006B000221B7B8
:10008300021C2FE5C754F84401F5C779012200008B
:100093000080FB120086B90003020107E4791B7894
:1000A30002B800028004F709D8FCE4791D7802B88D
:1000B30000028004F709D8FCE49002817804790EE9
:1000C3008002F0A3D8FCD9FA781A90014D7A01BACC
:1000D30000028007E493A3F608DAF9900F84AA825A
:1000E300AB8390014E78D079018015E493A3AC8261
:1000F300AD838A828B83F0A3AA82AB838C828D83A8
:10010300D8E9D9E77582E17583BE740312012F75AF
:100113008291758300740012012F75D00075813FA1
:10012300751881751902759F00020096C09FF59F8F
:10013300E473D09F22D083D082C09FE493C0E07445
:100143000193C0E0740293F59F2201A903BB03E569
:1001530003AF03FF0000B400002800280028307517
:10016300A000A000A000A00000080008E001F0002B
:10017300100010001000100010001000500050007C
:10018300500010001000D0070000000000000F0016
:10019300307507001000010081FF0000FF0202021A
:1001A300EA90010000DB9002EE90010000D60F02FE
:1001B300E090010000B10202EE90010000D70F02AF
:1001C300DE90010000C702FFFF0100FF2002EA905A
:1001D300010000D89002EE90010000051002E490A7
:1001E300000000000002E290030000A403890B89D1
:1001F3000B890B890B890B890B890B890B890B895C
:100203000B890B890B890BA50DC30D9F0DFFFF01F7
:10021300E803053F1002FF00FEFF12013819B60381
:100223001201382FB6031201385CB6031201388C61
:10023300B603120138A3B603120138C4B603120180
:1002430038F5B60312013846B7031201385DB70318
:10025300120138A6AF03120138BDAF03120138EC07
:10026300AF0312013825B0031201384DB003120158
:10027300387BB00312013892B003120138A9B003DE
:10028300120138BFB003120138E6B003120138F986
:10029300B0031201380FB10312013837B103120151
:1002A30038228D02120138218E021201384B8E0240
:1002B300120138A08E02120138C18E02120138DAFF
:1002C3008E02120138DC8E02120138FD8E021201F9
:1002D30038009002120138BD90021201388A91024F
:1002E300120138EE91021201388592021201388808
:1002F30092021201380E9302120138519302120135
:1003030038A39302120138A69302120138DD930237
:100313001201380494021201389A9402120138230C
:1003230095021201386C9502120138799502120177
:10033300387C9502120138DA9502120138F29502DF
:100343001201386C96021201386F9602120138922C
:1003530096021201389596021201383C9702120157
:10036300385F9702120138779702120138A7970274
:10037300120138B49702120138B7970212013823D9
:100383009802120138119902120138C79902120119
:1003930038FCAE02120138D7AF0212013805B002A1
:1003A30012013885B002120138A5B002120138E3F8
:1003B300B00212013836B1021201389EB1021201A5
:1003C300382FB202120138FAB20212013809B6020A
:1003D30012013875B70212013898B7021201381C9E
:1003E300FC01120138B0FD011201380FFE011201A8
:1003F300386EFE011201387CFE01120138A5FE01A0
:100403001201380DF40212013835F4021201386377
:10041300F4021201389AF40212013802F5021201B1
:10042300384BF50212013896F502120138D4F50261
:1004330012013811F6021201383FF602120138E6B2
:10044300F602120138F0F602120138FDF60212012B
:100453003830F702120138F2F702120138FEF702C0
:1004630012013816F80212013820F8021201389EE0
:10047300F8021201387CBA031201388ABA03120156
:1004830038A2BA03120138BABA03120138D2BA0336
:10049300120138D5D20112013873D301120138EB9E
:1004A300D30112013800D5011201383AD5011201E6
:1004B30038E3D501120138B8D6011201381CD8012E
:1004C30012013873D801120138FAD801120138E148
:1004D300D9011201382EDA01120138BCDA011201F6
:1004E30038E0DA01120138B5DC01120138F6DC011B
:1004F30012013818DD01120138DDDD01120138A3C4
:10050300DE01120138D8E001120138B09103120163
:1005130038C69103120138EC910312013814930386
:100523001201381E930312013877940312013877AE
:1005330095031201387C7B001201381E7C001201E6
:1005430038527C00120138947C001201384E7E0030
:10055300120138FB90011201387991011201388997
:1005630091011201386C9201120138769201120145
:1005730038A49201120138AF920112013888930115
:10058300120138EA93011201388694011201388A64
:100593009601120138419801120138BD98011201E8
:1005A300389A9901120138C89C01120138669D01DD
:1005B300120138C39E0112013836A001120138DF3F
:1005C300A00112013828A1011201385FA101120113
:1005D3003804A20112013882A20112013855B50173
:1005E300120138AAB501120138EFB601120138FF22
:1005F300B60112013822B7011201386DB701120199
:100603003812B80112013808B901120138D2B90100
:100613001201384ABB011201388CBB011201382A7E
:10062300BC0112013850BC011201383EBE01120157
:100633003843BE0112013824C00112013878C001C9
:10064300120138DAC00112013802C101120138A6C1
:10065300C10112013868C20112013899C2011201A5
:10066300389CC201120138E4C20112013826C301C9
:100673001201388DC3011201381BA9031201382E50
:10068300A90312013837A90312013850A903120133
:10069300389BA90312013876AA0312013805AB036C
:1006A30012013850AB031201382C22001201383CDE
:1006B30022001201389F2200120138E422001201A5
:1006C300389423001201386D240012013896240057
:1006D300120138C62400120138DA2600120138B696
:1006E3002800120138962A00120138CE2B0012017D
:1006F30038472E00120138332F00120138793000A9
:10070300120138863100120138C831001201380055
:1007130032001201381A32001201388232001201FB
:10072300381C3700120138BD370012013811380068
:100733001201383838001201387638001201389522
:100743003800120138E93800120138F1390012017A
:10075300387A3A0012013886E70212013890E7022C
:1007630012013857E80212013899E802120138BF22
:10077300E80212013806E9021201383EE9021201C9
:100783003867E902120138EBE90212013825EA025F
:100793001201386AEB021201388DEB02120138A004
:1007A300EB02120138E2EB02120138B5EC0212013E
:1007B30038EFEC0212013868ED02120138B1ED0294
:1007C300120138DBED0212013800EE02120138C4C7
:1007D3008D031201388E8E03120138718F031201BB
:1007E30038E78F0312013829900312013856910319
:1007F300120138E7E00112013810E1011201382932
:10080300E1011201386EE2011201384CE3011201D9
:10081300386BE301120138F8E3011201383BE401BC
:1008230012013873E501120138DFE501120138D5F1
:10083300E70112013863EA01120138F6EA011201F5
:1008430038CAEB011201386DEC0112013880ED0159
:1008530012013816EE0112013874B703120138DDA4
:10086300B70312013831B80312013860B80312011B
:10087300386F8903120138DC8903120138278A0390
:100883001201381C8B03120138188C031201380231
:100893008D0312013800DA0212013847DA0212011D
:1008A3003820DB021201381BDC02120138FADC02A9
:1008B30012013866DD0212013882DE02120138E9C4
:1008C300DE02120138ECDE0212013817DF021201D8
:1008D3003888DF021201382BE00212013840E002AF
:1008E30012013888E002120138A1E002120138A493
:1008F300E002120138DC9C03120138189D03120137
:1009030038569D03120138209E03120138939E032B
:10091300120138CE9E031201380C9F031201383C9A
:100923009F03120138639F03120138CE9F03120104
:100933003810A0031201389B67001201385D69006B
:10094300120138006B00120138A76B00120138EE58
:100953006B00120138326C00120138686C0012010E
:1009630038CB6C00120138E16C001201382C6D0099
:100973001201386C6D001201388F6D00120138E0DE
:100983006D00120138456E00120138956F00120197
:10099300387E70001201382A7200120138BE7600C8
:1009A3001201381177001201384E770012013862B4
:1009B300790012013875A603120138E7A603120164
:1009C300383DA70312013881A703120138A1A703F9
:1009D300120138EEA70312013836A8031201388931
:1009E300A803120138DAA803120138E13A00120110
:1009F300382A3B00120138573B001201388A3B006A
:100A03001201389A3B00120138A63B00120138B795
:100A13003B001201388C3C00120138EA3C00120101
:100A2300381F3D00120138BB3E00120138073F005A
:100A3300120138633F001201385F4000120138E5AC
:100A43004100120138BC4200120138CC42001201AD
:100A530038E84200120138EB4200120138A5430086
:100A63001201386E44001201381445001201387324
:100A73004500120138FB450012013860460012019F
:100A830038EF4600120138B84700120138554800C4
:100A9300120138DC4800120138334900120138943E
:100AA3004900120138CE49001201387C4A00120174
:100AB30038744C00120138C44C00120138074D0041
:100AC3001201387C4D00120138084E0012013853D0
:100AD3004E00120138784E00120138C94E0012013F
:100AE30038EB4E00120138304F001201389F4F008F
:100AF300120138E14F00120138E150001201386948
:100B030051001201383A52001201385352001201B7
:100B130038D0B80212013823B9021201382FB902B2
:100B230012013804BA021201382BBA0212013866D4
:100B3300BA02120138D2BA0212013806BB021201FC
:100B4300383FBB0212013857BB02120138B0BB0257
:100B5300120138C9BB0212013812BC021201382536
:100B6300BC021201383FBC0212013855BC0212010B
:100B73003871BD0212013882BE02120138CFBF02A2
:100B8300120138B4C002120138F17F00120138009B
:100B930080031201387283031201388A840312011D
:100BA30038008002120138F38502120138F98502F8
:100BB3001201387988021201382FF902120138DA4A
:100BC300F9021201388AFA02120138AFFA0212014D
:100BD30038A6FC02120138F9FD0212013836A301CE
:100BE3001201386AA301120138BEAB011201380A9F
:100BF300AD0112013827AE01120138B1AF01120164
:100C03003893B001120138CDB001120138F0B001B0
:100C130012013832B1011201387CB1011201388658
:100C2300B10112013832B20112013806B3011201C7
:100C3300385AB301120138BCB3011201380FB401A1
:100C43001201383EB4011201387DB4011201384655
:100C53009903120138BC9903120138D29903120186
:100C6300380F9A03120138479A03120138C49A03C2
:100C7300120138FF9A031201387A9B03120138B626
:100C83009B03120138BF9B03120138CB9B03120154
:100C930038E59B031201380A9C03120138209C0398
:100CA300120138499C03120138AC9C03120138C865
:100CB300E002120138DBE002120138F5E002120112
:100CC300381EE10212013861E102120138A0E1028B
:100CD300120138DEE10212013843E20212013858F0
:100CE300E2021201386FE2021201387DE2021201C0
:100CF300388CE202120138A1E202120138B6E20294
:100D0300120138C1E202120138CDE202120138DACF
:100D1300E202120138EDE202120138F8E202120196
:100D2300381DE302120138C6E302120138DBE30285
:100D3300120138F0E3021201380AE40212013825E5
:100D4300E40212013842E4021201384DE4021201B6
:100D53003809E502120138F5E5021201381AE602F4
:100D630012013824E60212013838E602120138571C
:100D7300E602120138B8E602120138BEE602120199
:100D830038C4E602120138CAE602120138D6E60276
:100D930012013809E702120138C5A402120138F121
:100DA300A402120138D5A5021201386FA80212015C
:100DB3003885A902120138A2AA0212013845AB02F2
:100DC300120138EBAB0212013892EE011201381412
:100DD300EF01120138BDEF0112013805F1011201D3
:100DE3003813F301120138F9F3011201382EF4011B
:100DF30012013850F401120138F9F401120138C913
:100E0300F601120138F2F6011201386AF7011201F4
:100E1300389CF701120138A9F701120138F4F701E0
:100E230012013818F80112013869FA0112013873F6
:100E3300FB01120138CFFB0112013857C401120123
:100E43003868C5011201384CC60112013856C60173
:100E530012013878C60112013884C60112013828FC
:100E6300C80112013855C8011201386BC9011201BA
:100E730038C0C9011201380FCB01120138E4CB018C
:100E830012013840CC01120138ABCC01120138E019
:100E9300CC0112013823CD01120138EDCF0112012B
:100EA3003805D00112013896D001120138A4D001BF
:100EB300120138F1D001120138FFD0011201386B51
:100EC300D101120138E6D1011201383DD2011201DC
:100ED3003830FE0212013855FE02120138CBFE02F1
:100EE30012013811D3021201381AD3021201382326
:100EF300D302120138FBD302120138ACD50212011E
:100F030038DCD50212013807D60212013837D6026F
:100F130012013862D60212013896D602120138C283
:100F2300D60212013805D70212013830D702120156
:100F33003877D702120138CCD7021201380ED80203
:100F430012013868D80212013893D802120138E22C
:100F5300D80212013812D9021201383DD902120106
:100F63003860D90212013896BD03120138C2BD039D
:100F7300120138EFBD03120138F9BD03120138091C
:100F8300BE0312013871C2021201387BC202120180
:100F930038B9C20212013802C3021201383CC3023B
:100FA30012013896C302120138B7C3021201388FF7
:100FB300C60212013898C602120138E5C6021201B0
:100FC300380EC70212013818C70212013884C7024B
:100FD30012013816C80212013860C802120138968D
:100FE300C80212013822C90212013863C902120170
:100FF300389AC902120138ACC902120138CBC902AE
:10100300120138D4C902120138A1CA02120138856B
:10101300B903120138B5AD03120138EBAD03120168
:101023003821AE031201386CAF03120138FEBC0342
:1010330012013814BD031201381EBD0312013868B2
:10104300BD03120138D58403120138EA8403120167
:10105300389A8503120138DA8503120138F38503C0
:101063001201382E86031201387B8603120138AD34
:101073008603120138EF8603120138F08803120148
:101083003862890312013882BE031201387FB40328
:10109300120138A8B403120138D7B4031201386F10
:1010A300B50312013887B503120138C9B50312011C
:1010B3003828EE021201386AEE02120138ECEE0211
:1010C300120138FFEE0212013850EF02120138A468
:1010D300EF02120138E9EF02120138F8EF021201B0
:1010E30038ACF00212013807F10212013856F1024E
:1010F300120138ACF102120138A1F2021201389840
:10110300F302120138D5F30212013813BE031201A0
:10111300388552001201387F5400120138195600E5
:10112300120138CF5600120138595700120138DE28
:10113300570012013807580012013859580012019C
:1011430038775C00120138FD5C00120138245E0020
:101153001201385E5E001201389F5E00120138E70B
:101163005F001201381B6000120138786000120121
:1011730038C16000120138286100120138A16100F2
:10118300120138D06100120138E8610012013814ED
:101193006300120138246300120138D7640012017E
:1011A30038EE6400120138206500120138CF660062
:1011B3001201385C67001201384DBC031201385E1E
:1011C300BC0312013839BF0312013878BF0312017F
:1011D30038E9FF021201386BBB031201387BBB03F2
:1011E30012013893BB0312013847BC031201388143
:1011F300B80312013806B9031201386CB90312019E
:101203003849B10312013872B103120138D8B1035E
:10121300120138F8B10312013849B203120138A49C
:10122300B203120138DEB203120138E1B203120134
:101233003858A0031201386DA00312013898A10396
:1012430012013814A20312013888A203120138A232
:10125300A203120138B9A203120138CCA20312016E
:1012630038E6A203120138FDA20312013823A303B7
:1012730012013874A30312013881950312013898BF
:101283009503120138129603120138F696031201E0
:1012930038CD9803120138329903120138F87F00D0
:1012A3001201387AAB031201380BAD031201386C0B
:1012B300AD03120138B2AD03120138EBB2031201D0
:1012C300383DB303120138B0B30312013819B40324
:1012D300120138A9A303120138D3A303120138A1C1
:1012E300A4031201387CA50312013803A6031201DB
:1012F30038CFCA0212013896CB02120138CDCB0285
:10130300120138F7CB0212013857CC02120138AD63
:10131300CC0212013812CD02120138AACD021201F9
:1013230038B9CE0212013850D002120138DDD00292
:1013330012013844D1021201385BD102120138750F
:10134300D202120138B3D2021201383F9A021201BB
:1013530038499B02120138279C02120138589E0219
:10136300120138249F02120138479F021201387D6F
:10137300A102120138CFA1021201386DA20212019B
:10138300389EA30212013843A402120138B8BF03E6
:1013930012013882BF03120138E4BF031201380C73
:1013A300C003E066701008A3E066700A08A3E06655
:1013B300700408A3E06622C3E7960809E7960809C4
:1013C300E7960809E79622C3E09608A3E09608A3E8
:1013D300E09608A3E09622C008C3E096F50808A3A8
:1013E300E096420808A3E096420808A3E096450861
:1013F3007001D3D00822080808EAC0E0EBC0E086F9
:10140300F0E7A4FA180986F0E7A42AFA180986F087
:10141300E7A42AFA180986F0E7A42AFA1986F0E75E
:10142300A4FBE5F02AFA190886F0E7A42BFBE5F004
:101433003AFA190886F0E7A42BFBE5F03AFA1818F4
:101443000986F0E7A4C5F02BFBE43AFA1908E7C5CF
:10145300F0C6A426F6E5F03BFBE43AFA1886F0E77B
:10146300A4F6E5F00826F6E43B08F6E43A08F6D0DD
:10147300E0FBD0E0FA22E4CFC0E0E4CEC0E0E4CD6C
:10148300C0E0E4CCC0E075F020C3E633F608E633F1
:10149300F608E633F608E633F6181818EC33FCEDD5
:1014A30033FDEE33FEEF33FFC3EC9709ED9709EEFF
:1014B3009709EF97191919400FFFEC97FC09ED975E
:1014C300FD09EE97FE191906D5F0BEECF709EDF705
:1014D30009EEF709EFF7191919D0E0FCD0E0FDD0B8
:1014E300E0FED0E0FF226016080808C6C313C61842
:1014F300C613C618C613C618C613C6D5E0EA2270AB
:1015030009080808226016181818C6C333C608C687
:1015130033C608C633C608C633C6D5E0EA22E62773
:10152300F60809E637F60809E637F60809E637F656
:1015330022E026F608A3E036F608A3E036F608A371
:10154300E036F622E026F008A3E036F008A3E03602
:10155300F008A3E036F022C3E697F60809E697F60B
:101563000809E697F60809E697F622C3E096F0081D
:10157300A3E096F008A3E096F008A3E096F022E635
:1015830057F60809E657F60809E657F60809E65735
:10159300F622E056F608A3E056F608A3E056F6084E
:1015A300A3E056F622E056F008A3E056F008A3E0C5
:1015B30056F008A3E056F022E066F608A3E066F6CC
:1015C30008A3E066F608A3E066F622E0F608A3E0C7
:1015D300F608A3E0F608A3E0F622E6F008A3E6F097
:1015E30008A3E6F008A3E6F022E0FAA3E0FBA3E0F9
:1015F300FCA3E0FD22EAF0A3EBF0A3ECF0A3EDF0F3
:1016030022CAC0E0E6F0A308DAFAD0E0FA22CAC0A0
:10161300E0E0A3C582CCC582C583CDC583F0A3C555
:1016230082CCC582C583CDC583DAE6D0E0CA22C3A6
:10163300E498F8E499F91216738026C3E49AFAE45D
:101643009BFBE920E7E9121673E498F8E499F92281
:10165300C3E498F8E499F9121673E498F8E499F955
:10166300C3E49AFAE49BFB22EB20E7CFE920E7E00F
:10167300B90010BB0008E88AF084F8AAF022E4FB62
:10168300C8FA22EB70227B10C833C8C933C9335060
:1016930007C39AC3DBF280069A50012ADBEAC833F8
:1016A300F4C8C933F4C9FA2275F008E4C833C8C9C9
:1016B30033C933C99AC99B5004C92AC93BD5F0EC35
:1016C300FBC833F4C8E4C9FA22600D08C6A2E713C5
:1016D300C618C613C6D5E0F322600C08C6C313C6EA
:1016E30018C613C6D5E0F422700422600D18C6C3D1
:1016F30033C608C633C6D5E0F41822251810AF0840
:10170300F518400215198008F51840021519D2AFD3
:1017130022C0D0251810AF08F5185002051980080B
:10172300F51850020519D2AFD0D0222518F5821032
:10173300AF08F518400215198008F518400215196D
:10174300D2AF851983222518F582E43519F5832252
:10175300E4732518C582C0E0E51934FFC583C0E0F2
:10176300E518C3958224F810AF088583198582187C
:101773008008858319858218D2AFCEF0A3E520F0C7
:10178300A37808E608F0A3DEFAEFF0A3E58124FAD4
:10179300F8E608F0A3E608F0A3E608F0A30808E6D5
:1017A30008F0A3E608F0A315811581D0E0FED0E090
:1017B300F8158115811581E8C0E0EEC0E0222518F7
:1017C300C582C0E0E51934FFC583C0E0E518C395C1
:1017D3008224F910AF0885831985821880088583D0
:1017E30019858218D2AFCEF0A3E520F0A37808E6DE
:1017F30008F0A3DEFAEFF0A3E58124FBF8E608F096
:10180300A3E608F0A30808E608F0A3E608F0A3158A
:10181300811581D0E0FED0E0F815811581E8C0E0A4
:10182300EEC0E022851983851882E0A3FEE0A3F5CC
:10183300207808E0A3F608DFFAE0A3FFE0A3C0E006
:10184300E0A3C0E0E0A3C0E0E0A3C0E0E0A3C0E009
:1018530010AF0885821885831980088582188583CF
:1018630019D2AFD083D082020135851983851882BE
:10187300E0A3FEE0A3F5207808E0A3F608DFFAE092
:10188300A3FFE0A3C0E0E0A3C0E0E0A3C0E0E0A3C7
:10189300C0E010AF088582188583198008858218F7
:1018A300858319D2AFD083D08222C0D02518C582B8
:1018B300C0E0E51934FFC583C0E0E518C395822471
:1018C300F310AF08858319858218800885831985ED
:1018D3008218D2AFC8F0A3E9F0A3EAF0A3EBF0A318
:1018E3007908E709F0A3D8FAECF0A3EDF0A3EEF042
:1018F300A3EFF0A3D0E0F0A3D0E0F0A3D0E0F0A3F7
:10190300E520F0A3E5F0F0A322851983851882E092
:10191300C0E0A3E0F9A3E0FAA3E0FBA37808E0F6B4
:1019230008A3DFFAE0FCA3E0FDA3E0FEA3E0FFA32E
:10193300E0C0E0A3E0C0E0A3E0F5D0A3E0F520A37E
:10194300E0A3F5F010AF0885831985821880088518
:101953008319858218D2AFD082D083D0E0F8D0E04B
:101963003274048006740280027401C0E0F404122D
:10197300172ED0E01216042274048004740280002F
:10198300CCC0E0EDC0E0E518C39CCCAD1950011DFF
:1019930010AF068C188D1980068C188D19D2AF12D2
:1019A3001611D0E0FDD0E0FC22D083D082E9C0E064
:1019B300E493A3C386F0C5F095F0F908E493A386F6
:1019C300F0C5F095F0700BE493A3C3994005E904C7
:1019D3008002A3E475F002A42582F582E5F0358345
:1019E300F583D0E0F9E493A3C0E0E493C0E022D010
:1019F30083D082ECC0E0EDC0E0E493A3FCE493A3C6
:101A0300FDED4C600D121A3EEC24FFFCED34FFFD9E
:101A130080EFE493A3FCE493A3FDED4C600D121A55
:101A23007DEC24FFFCED34FFFD80EFD0E0FDD0E042
:101A3300FCE493A3C0E0E493C0E022C0E0C3E493DA
:101A430096087401939618400FE49366700808741F
:101A53000193661870007019A3A3C3E493960874E6
:101A630001939618A3A3400DD0E0D0E0D0E0021A72
:101A73002EA3A3A3A3A3A3D0E022C0E0C0F088F0C9
:101A8300E4936670080874019366187000A8F0A3C5
:101A9300A3700BD0F0D0E0D0E0D0E0021A2EA3A3C5
:101AA300D0F0D0E02274F51217C1EAFEEBFFEE246A
:101AB30034F8EF3400F988088909EE2435121BE065
:101AC300F8EE2437121BE0F50AEC850AF0A4FCAA11
:101AD300F0850AF0EDA42AFDE82CF8E43DF97A2517
:101AE3007B00121673EA850882850983F05407F890
:101AF3007401B800028004C333D8FCC0E0E01313C0
:101B030013541FF8EE28F8EF3400F9E8245DF5824A
:101B1300E93400F583D0E0F8E05860088508828551
:101B23000983801DEE2436121BE0F5F0EA84A8F049
:101B3300EE28F8EF3400F9E82438F582E93400F5AB
:101B430083E0F97F0402186D74F51217C1EAFEEB06
:101B5300FFEE2434121BE0C0E0EE2435F582EF34AF
:101B630000F583D0E0F08E828F83A3A3A3A3A3E029
:101B7300FAA3E0FB8E828F83A3A3A3A3A3A3A3E073
:101B8300FCA3E0FDECC39AF50AED9BF50BEE248074
:101B9300F508EF3400F509850882F583E0640170E8
:101BA3002BEE2481F582EF3400F58312197F121B8B
:101BB300E97402121714E960137CE27D07EEFAEF71
:101BC300FB120AA5850882850983E4F0AC0AAD0BF4
:101BD300EEFAEFFB121AA81221A9021B46F582EFB7
:101BE3003400F583E022C082C0838518828519837F
:101BF300E0F8A3E0F9C3EA9CEB9D5012C3EC98ED27
:101C0300994019C3EA98EB99501279018010C3EAFD
:101C130098EB9940F5C3EC98ED9950EE7900D08399
:101C2300D082220000851B87851CC622C0E074EF8A
:101C33001218AD759B00906182E0A2E64003021C7E
:101C4300F0E591A2E64003021CF07591BF90049960
:101C5300E064057008120C7F120C8B8003120C8554
:101C6300751B00120CFDE990049AF07900120CDF49
:101C7300120A0F7A017B00900498E0F9120FE590A5
:101C83007803E064426003021D39900817E014F002
:101C93006003021D39C2AF121C9D00781ED0E0F60E
:101CA30018D0E0F6E59F5407F97005909070800313
:101CB3009090D478081215CEE9C4C0E0781DE6559B
:101CC30008F50808E65509F509740B78081216DCBF
:101CD300D0E02508F8906270E0A2E740F8E8C3334B
:101CE300906272F0906270E0D2E0F08049E0A2E589
:101CF3005024E591A2E5501E7591DF900499E064AC
:101D03000D70139004BBE004F064287002E4F07AD1
:101D130000E0F9120D8D906181E0A2E35009E5E93D
:101D2300A2E3500375E9F7A3E0A2E75009E591A206
:101D3300E7500375917F7F0402190CC0E0C0D0C047
:101D430082C083906183E0A2E05009E5BFA2E05026
:101D53000375BFFEE0A2E15009E5BFA2E1500375A0
:101D6300BFFDE0A2E25009E5BFA2E2500375BFFB4D
:101D7300E0A2E35009E5BFA2E3500375BFF7E0A279
:101D8300E45009E5BFA2E4500375BFEFE0A2E550BC
:101D930009E5BFA2E5500375BFDFE0A2E65009E500
:101DA300BFA2E6500375BFBFD083D082D0D0D0E0AE
:101DB30032C0E074F21218ADE5A7A2E4500FE5A11A
:101DC300A2E4500953A7EF75A1EF121E08E5A7A2DD
:101DD300E5500CE5A1A2E5500653A7DF75A1DFE5A9
:101DE300A7A2E15009E5A1A2E1500375A1FDE5A772
:101DF300A2E2500CE5A1A2E2500653A7FB75A1FB9A
:101E03007F0102190C74F81217C1751B0190049914
:101E1300E0640670077A007B00120C67A2AFE4331C
:101E2300FED2AF90049FE0640170187A207B00908B
:101E33000498E0F91210697A207B00900498E0F985
:101E4300120FEB906182E0D2E6F0900816E0602179
:101E530085C61C801690049EE064017008E5C65494
:101E6300F84405F5C653BEFC121C287401651B60BB
:101E7300E4EEA2E092AF7F0102186D74E91217C17C
:101E830074FA1216FEEAFEEBFF8C088D0990049992
:101E9300E024F7C3940550069090C4021FA5120CCA
:101EA300078A0A8B0BEA450B7003021FA2120C9DD3
:101EB3008A0C8B0D120C9DEA650C7003EB650D60AB
:101EC300ECEEFCEFFD851882851983AA82AB8312A1
:101ED3000CA3850A82850B83A3A3780C1215CE90DD
:101EE3009054780C121595851882851983781412ED
:101EF30015CE9090547814121595780C791412130A
:101F0300BA501F780C791412155A909030780C122D
:101F130013DA4047850C10850D11850E12850F13BA
:101F230080418514108515118516128517137810B5
:101F3300790C12155A90903078101213DA501C75E0
:101F430010007511007512007513017810791412C1
:101F5300155A7810790C12152180089090C47810C6
:101F63001215CE74097810121502909080780C1215
:101F730015CE7810790C121479900499E0640860F6
:101F83000AE064066005E06405701C909084781094
:101F93001213DA50129090BC781012153480089006
:101FA30090B478101215CE850882850983781012B3
:101FB30015DD74061217147F1002186D74F71217CB
:101FC300C1120CB5900814E064017010906245E4EE
:101FD300F0A3F053F4F343FE0C5390F3120C55E5C6
:101FE300C654804449F5C6E59E547F644970F89011
:101FF3006185740FF0900812E0F47002A3E0602C86
:10200300750801750900900812E078081216EBE5CF
:1020130008F4FAA3E0600814600A14600C800DEA67
:1020230052808008EA52908003EA52A079007F022E
:1020330002186D74F71217C1E9FEEAFF74016E709E
:102043000C7A807B00900498E0F9120FE59022242B
:10205300E493F46008E493F91209F1800953C6800C
:10206300E59E547F70FA120C5B900814E0640170D3
:1020730003120A27900812E0F47002A3E0602A75A5
:102083000801750900900812E078081216EBAA08F7
:10209300A3E0600814600A14600C800DEA4280809B
:1020A30008EA42908003EA42A0120C078A088B09CF
:1020B300A808A909E8496017E5E170FCE82414F5CC
:1020C30082E93400F583E0F874FF68600288E17404
:1020D300016F700A7A01900498E0F9121039022016
:1020E3003174F11217C18A088B098C0A8D0B740F96
:1020F300121749780C1215CE909054780812159542
:10210300909054780C1215957808790C1213BA50E4
:10211300157808790C12155A90903078081213DA52
:10212300401579018013780C790812155A90903074
:10213300780C1213DA40EB79007F0802186D74ED06
:102143001217C18A088B098C0A8D0B741312174955
:10215300780C1215CE9090547808121595909054DF
:10216300780C121595780C79081213BA4011780877
:10217300790C12155AAA08AB09AC0AAD0B8022756B
:1021830010007511007512007513017810790C1287
:10219300155A78107908121521AA10AB11AC12AD9B
:1021A300137F0C02186DC082C083E9906000F0D0E9
:1021B30083D08222C0E074F21218ADA2AFE433FEE2
:1021C300D2AFE589A2E1500312121F758900C2C57F
:1021D300751A00EEA2E092AF7F0102190CC0E07401
:1021E300F21218ADA2AFE433FED2AFE58BA2E050FA
:1021F3000312121F758B00C2E880D5C0E0C0D0E87F
:10220300C0E0E9C0E0E5A8D2AFC2C7751A00A2E7F3
:0F221300A2E792AFD0E0F9D0E0F8D0D0D0E0321F
:10222400FFFFFFFFFFFFFFFFC082C083E9901004A0
:10223400F0D083D08202013574F6121755E9900369
:1022440064F07CA47D037AFF7BFF1207337A008A53
:1022540008750900740278081216EB74652508F8ED
:102264007403350912228BA3F00AEAC3940340DFF6
:1022740079051206C1900364E0F91205E97A4B7BF3
:10228400071208FB02380CF98882898374FF122232
:1022940098E4F022F0A3123699A32274F41217558D
:1022A4008A088B09EB54806030900364E0F9120FC4
:1022B400CD8A0A8B0BAE0AAF0BEE4F60138E828F62
:1022C40083E064B070031206D3EEFAEFFB120FBB87
:1022D400AA08E5096480FB80047A007B0002246874
:1022E40074F212175574FC1216FEEAFEEBFF741218
:1022F4001217491236E2EE4F70030223877402125A
:102304001749EEF0A3EF1226C3ECF0A3ED1226C397
:10231400AA82AB831205E3E9F50A706AE508450968
:1023240060648E828F831236C3EE4F60567A067BCA
:10233400001210218A0C8B0DA80CA90DE849700518
:10234400750A13804188828983E4122298EEF0A3EF
:10235400EF1236F3E508F0A3E509F09003721224B6
:10236400629003727005123180801B12316E8003FB
:10237400EAFCEBFD8C828D8312246270F38C828DD7
:102384008380E3750A02A90A74041217140238D66A
:1023940074F2121755890AE975F045A4FEAFF0905E
:1023A4000371E4F090036712246260281210277905
:1023B400008908750900740278081216EB74672501
:1023C40008F58274033509F583E4F0A3F009E9C341
:1023D400940340DDEEFAEFFB1210218A088B09EA20
:1023E40045096075EEFCEFFD7900120FA37D008DA9
:1023F4000C750D007402780C1216EB7467250CF83A
:102404007403350DF9E50AF5F0EDA475F017A4FA97
:10241400ABF0E5082AFAE5093BFB88828983EAF0F8
:10242400A3EBF07E00801BEE75F017A4FAABF088E6
:10243400828983E02AFCA3E03B8C82F583E4F0A349
:10244400F00EEEC3950A40DF0DEDC3940340A0E502
:102454000A900371F07900800279130238D6122EA3
:1024640012EA4B227F0402182774F41217557900DC
:10247400EAA2E0501B75080E7509907808121968D5
:102484007C047D007A067B101206BB7402121714BA
:1024940080D2C082C0839003721236DD49601C88EA
:1024A400828983A3A3E06A7003A3E06B8882898393
:1024B40070E7A3A3A3A3122E0E80047A007B00026C
:1024C400223574EE12175574FC1216FEEAFEEBFF69
:1024D400851882851983E4F0A3F0EE24021231609A
:1024E400EE24051236A0EE2404F50EEF122A6DE058
:1024F40024FE603924FC604624FE605224FE605EA3
:1025040024FE70030225D924FE700302263D24FE16
:10251400700302264C24FE700302265B24FC700325
:1025240002266A24FE70030226790226B690038BE3
:102534007417F0A3E41226CB1202590226B68518AA
:1025440082851983AC82AD831206D902268685184A
:1025540082851983AC82AD831206DF022686850C40
:1025640008850D097402121749AC82AD838508826F
:10257400850983122E0E1206078A0C8B0DAC0CAD46
:102584000DEC4D603BE4F50CF50D780C12196875F3
:102594000C8B750D03780C121968750C8C750D0372
:1025A400780C121968740812174912197F1239E04D
:1025B400121714E9F50C700B122E04120271800F1D
:1025C400750C018508828509831226B9123180852C
:1025D4000C080226897402121749AC82AD83850C5B
:1025E40082850D83122BC0603C850C82850D83A3EC
:1025F400A312197F75108B75110378101219687561
:10260400108C751103781012196874081217491286
:10261400197F1239E0121714E9F509700B122E0410
:10262400120277800F750901850C82850D831226AD
:10263400B9123180850908804C851882851983ACCC
:1026440082AD831206E5803A851882851983AC82AF
:10265400AD831206EB802B851882851983AC82AD7D
:10266400831206F1801C851882851983AC82AD83A0
:102674001206F7800D851882851983AC82AD83120A
:1026840006FDE9F508E50860298E828F83A3E064DE
:1026940014601F850E82850F83E090038B1226C37E
:1026A4001239B890038C123180E508A31226CB129C
:1026B400025302306F1239BC85188285198322F0C7
:1026C40085188285198322F07C8B7D03850A828597
:1026D4000B83122E122274EE12175574FC1216FE7E
:1026E4008A0A8B0B8C0E8D0FEA2405F508EB340057
:1026F400F5097C157D0079007A8B7B03120FA3E525
:10270400082402F50CE5091236A38518828519837D
:1027140085821085831178101219688508828509CD
:1027240083A3A3A3A3122BB7121968E5082405F504
:1027340010E5093400F5117810121968850C8285AA
:102744000D83122F2512060174061217148A108B9A
:1027540011AE10AF11E50A2402F50AE50B1231633C
:10276400EE4F700302289880177402121749122E34
:102774000E88828983EAF0A3EBF090038BE004F0E7
:1027840090038BE0C394054003022898E4F510F508
:1027940011781012196875107475110378101219D4
:1027A400687510757511037810121968740612177C
:1027B4004912197F7910EEFCEFFD1239E212171459
:1027C400E9705E850882850983A3A3A3A3A3A3A3B9
:1027D400E0F8900374E0687048122BB71219687C13
:1027E400757D03E5082408FAE5093400FB120F9D02
:1027F4007402121714E960298E828F83A3A3A3A302
:10280400122E0E90038BE0F510740278101216EB62
:10281400748C2510F58274033511F583EAF0A3EB6B
:10282400F0740212174985821085831178101219E9
:1028340068740212174912197F850C82850D831260
:102844002E341217148A108B11AE10AF1190038B13
:10285400E0F510751100740278101216EB748B25D4
:1028640010F874033511F988828983A312246270E5
:1028740003022764E82403080808E93400F9EE4F4A
:10288400600302276D8882898374FFF0A3F09003AC
:102894008BE004F090038BE0600A122E04120265B0
:1028A4007900800B850882850983123177790A02C1
:1028B400306F74EA12175574FE1216FE8C128D13C3
:1028C400EA2405F50CEB1239CA1236C775080075EF
:1028D4000900EA2402F510EB3400F511851882850D
:1028E400198385820A85830B780A121968850C82FC
:1028F400850D83A3A3A3A3122A83121968E50C24CC
:1029040005F50AE50D123163780A121968850C82FF
:10291400850D83122A8712060174061217148A0A77
:102924008B0BEA450B7003022A38EA2404F50EEBFC
:10293400122A6D1236C78A828B83A3A3A3E0F9857A
:102944001082851183122E186003022A38E4F514CC
:10295400F515781412196875147475150378141222
:1029640019687514757515037814121968740612AC
:10297400174912197F7913AC0AAD0B8510828511A2
:10298400831239E8121714E9F5096003022A389012
:102994000374E0F8E5087009E0240290038CF080E9
:1029A4001790038CE0FCE82402FAE43400FBEA6CA0
:1029B4007001EB6003022A3C850882AA82122BAEC6
:1029C4009414122BA6506D850E82850F83E0C0E00F
:1029D400122DDED0E0F00508850E82850F83A3E07A
:1029E400C0E085080A748D250AF58274033400F565
:1029F40083D0E0F00508900374122A831219687CCE
:102A0400757D0385080A748D250A122A7712171416
:102A1400900374E02508F50874FF6E700374FF6F6B
:102A24006012EE24010EEF3400FFE508C394145045
:102A3400030228E0E5086013122E22851082851116
:102A440083122E0E12026B79008014E5097003754F
:102A5400090A851282851383EEF0A3EFF0A90974A5
:102A6400021217147F0E0218273400F50F850E8208
:102A7400F58322FA74033400FB120F8B74022212C2
:102A8400370222A3A3122A8D2212316EFDEEFAEF31
:102A9400FB2274EE12175574FE1216FE8C0E8D0F67
:102AA400EA2405F50CEB1236A3750B0090038BE4B6
:102AB400F0F50AEA2402F508EB3400F509804490A5
:102AC400038BE0FA900374E0F8122BAE9417122BE8
:102AD400A6400D90038BE0F87416C398900374F02D
:102AE400122BB71219687C757D03748C2AFA74034F
:102AF400122A7A121714900374E0F890038BE028DA
:102B0400F0050AE50C2416F582E50D3400F583E0A2
:102B1400F8E50AC398507490038BE0C39416506B85
:102B2400E50AC333F8E433F9E50C28FEE50D39FF73
:102B3400851882851983AC82AD838E828F83122B94
:102B4400C07008750B011231738050E4F510F51153
:102B540078101219687510747511037810121968B9
:102B640075107575110378101219687406121749D7
:102B740012197F79168508828509831239E812179C
:102B840014E9F50B7003022AC380BB7C8B7D03859B
:102B94000882850983122E0E12027DA90B7402028B
:102BA4003071E99400C365D03322EA28F8E4340094
:102BB400F9E822E0F5107511007810221230668AC7
:102BC400108B11AC10AD11EC4D2274EA1217557430
:102BD400FC1216FE8A0C8B0D8C128D13EA2405F55B
:102BE4000AEB123163750800750900E50A2402F541
:102BF40010E50B3400F511740212174985820E8515
:102C0400830F780E121968850A82850B83A3A3A308
:102C1400A31236A8121968E50A2405F50EE50B344B
:102C240000F50F780E121968851082851183123110
:102C340069122E0812060174061217148A0E8B0FDD
:102C4400AE0EAF0FE50C2402F50EE50D3400F50FC2
:102C540080388882898374FFF00508122DEA74FF96
:102C6400F00508900374E0F50C750D00780C12194A
:102C7400687C757D0385080C748D250C122A7712E7
:102C84001714900374E02508F508EE4F60278E8230
:102C94008F83A3A3A3E0F9850E82850F83122E18D8
:102CA400EE24041236A0E96027850C82850D831278
:102CB4002DFA123180E5087003022DC4122E2285EC
:102CC4000E82850F83122E0E1202837900022DD9F3
:102CD400E4F514F515781412196875147475150350
:102CE4007814121968751475751503781412196817
:102CF400740812174912197F7911EEFCEFFD850E45
:102D040082850F831239E8121714E9F509709A8540
:102D14000882AA82EA9003747009E0240490038C68
:102D2400F08025E0F890038CE0F514E82404FCE43A
:102D34003400FDEC65147001ED7081122BAE941219
:102D4400122BA64003022CC0850C82850D83E0C0A3
:102D5400E0122DDED0E0F00508850C82850D83A3FA
:102D6400E0C0E0122DEAD0E0122E3D85820C85836E
:102D74000D780C121968740412174912197F851002
:102D840082851183122E341217148A0C8B0DAE0C0B
:102D9400AF0D85080C748D250CF874033400F9EE1E
:102DA4004F7003022C56851882851983E088828926
:102DB40083122E3DA3E0C0E0122DEAD0E0022C6481
:102DC400E509700375090A850A82850B83122DFAB9
:102DD400123180A9097404022A65748D2AF582745B
:102DE400033400F5832285080C748D250CF5827458
:102DF400033400F583221239BC85128285138322A1
:102E04007C8B7D03850A82850B83122E1222E0FAC5
:102E1400A3E0FB22122E121205EFE9F5092290031A
:102E24008CE0F5F0E5088490038BF07C8B7D032225
:102E3400122A8D12060D740422F005088518828565
:102E440019832274EC12175574FE1216FE8A088B2D
:102E5400098C0E8D0FEA2405FEEB3400FF1230506E
:102E6400EE24181236A0EA450B7003022EF312303A
:102E7400395029122F188A108B11EA4511606B7989
:102E840012AC0AAD0B850882850983122E0E8510BB
:102E940082851183121753E9F50A7058E4F50AF58F
:102EA4000B780A1219688E828F83A3A3E0F50A783F
:102EB4000A121968EE2403123160780A1219688E16
:102EC400828F83122F251207217406121714E9F535
:102ED4000A7021850C82850D83E0701F8508828528
:102EE4000983122E0E1202898011750A0E8009754B
:102EF4000A018004E50A6003123173850C82850D92
:102F040083E0600479008002A90A74021217147F16
:102F14000C021827851882851983122E1212070FA6
:102F24002212316EFD850882850983122E122274C5
:102F3400EE12175574FE1216FE8A088B098C0C8D3E
:102F44000DEA2405FEEB3400FF750E00123050EA42
:102F5400450B7003023017123039502C122F188A87
:102F64000E8B0FEA450F604A7912AC0AAD0B850847
:102F740082850983122E0E850E82850F83121753C4
:102F8400E9F50E600302301A85088285098312323E
:102F94007AAA0AFB12302B70147AFF7BFF12302BB3
:102FA400606C88828983E50AF0A3E50BF0750A005A
:102FB4008007750E0E805F050A900371E0FAE50A3A
:102FC400C39A504AE50A75F017A4FAABF0888289CF
:102FD40083A3A3E02AFAA3E03BFB8A828B8312310A
:102FE40069EC4D70D2750A17750B00780A121968CE
:102FF400EEFCEFFD120F8B7402121714EEFCEFFDC2
:10300400850882850983122E0E12028F8014750E94
:10301400098003750E011239B4850C82850D831263
:103024003180A90E022BA11207038A108B11A8105C
:10303400A911E84922E5082402F508E5093400F558
:10304400098A828B83A3A3A3E0A2E5228518828543
:103054001983AC82AD838E828F831230668A0A8B89
:103064000B22E0FAA3E0FB120607227404121714E1
:103074007F0A02182774EC1217558C108D11EA245C
:1030840005F50CEB1236A3750F00EA2402F50AEBE2
:10309400123163850A82F583122E0E123A6F700381
:1030A400023155750E008071850C82850D83E064B4
:1030B40001704F8E828F83A3A312197F8E828F8318
:1030C400A3A3A3A3E0F5127513007812121968EEF6
:1030D4002405F512EF3400F5137812121968122E34
:1030E400081207217406121714E9F50F6014850CF1
:1030F40082850D83E4F01239B48510828511831220
:1031040031807C177D007900EEFAEFFB120FA38E5D
:10311400828F83E4F0A3F0050E900371E0F8E50ECE
:10312400C398501EE50E75F017A4F8A9F08508821F
:10313400850983A3A31239D4123169EC4D600302CB
:1031440030AC85088285098374FFF0A3F0E50F7025
:1031540006122E08120295A90F022F13F50AEF3456
:1031640000F50B22A312316EFD22E0FCA3E0228EB7
:10317400828F831239BC850E82850F83E8F0A3E920
:10318400F02274F61217557C008C0875090074023D
:1031940078081216EB1231B86A7003A3E06B70065C
:1031A400E8FAE9FB800B0CECC3940340DC7A007B67
:1031B4000002380C74652508F874033509F988820F
:1031C4008983E02274F71217557F00EF75F003A48A
:1031D400F8A9F0EC28F8ED39F988828983E06A705F
:1031E40003A3E06B7006E8FAE9FB800B0FEFC394CE
:1031F4000440D87A007B007F0102182774F6121766
:10320400551237B170067A007B008007A3A3A3A3ED
:10321400122E0E02380C74F2121755E9FE740E12B7
:10322400174912327A74101217491236E28C828DC1
:1032340083E06402703BA31239B888828983E0F585
:103244000CA3E0F9A80C7402687003742969702156
:10325400750C02750D00780C12196878081219683B
:10326400780A121968EEF9120745740612171480C9
:103274000279010238D6E0F50AA3E0F50B2274E8DE
:1032840012175574FB1216FEE9851882851983F00E
:103294008A168B178C0E8D0F741F1217491236E283
:1032A400742112174912327A74231217491236C73D
:1032B4007510008C828D83A3A3A3E0A2E4502A742A
:1032C4001D121749122F1E8A828B83E58245837053
:1032D4000302338E790AAC0EAD0FAA16AB17121780
:1032E40053E9F5106003023391850E82850F83E064
:1032F40064026003023647A31239B885088285093F
:1033040083A3858212858313E50E2406F50CE50F4D
:103314001236A388828983E0FAA3E0F9EA2400F54F
:1033240014E439F51578141219F201000028012863
:103334005633070002282D3403289D3300295735BE
:1033440001297F3502292635032957350429E83513
:103354004736EE4F703E850C82850D831236DDFABA
:10336400E9FB8A828B83E0850A82850B831236F916
:103374001219688A828B83A312316EFDAA08AB09E5
:10338400120F8B7402121714800375100EA9107497
:10339400050239C275100B80F4EE4F70F7850A826E
:1033A400850B837401F01236CD850882850983F07C
:1033B4007C007D00850E82850F83A3A3A3A3E02454
:1033C40001FAA3E03400FB120607EA4B60418A824B
:1033D4008B83E02402F8850A82850B83E028F0EAD7
:1033E4002404F8EB3400F988828983E0851282850D
:1033F400138312370B1236F91219688A828B8312DF
:103404003168E5082403FAE5093400FB02338485B6
:103414000A82850B83E02404F07C047D007900AAF1
:1034240012AB13120FA3023391EE4F6003023398D1
:103434001236CDFEA3E0FF850A82850B837404F067
:10344400EE850882850983F0EF851282851383F067
:103454007403121749AC82AD83EEFAEFFB12379F67
:1034640070030235038A828B83A3A31236C37401CB
:1034740012174985820E85830F780E121968740518
:1034840012174912197F7CFF7DFF12060D74041276
:1034940017148B0FEA450F7033850C82850D831248
:1034A40036A8121968850C82850D83A312197F7CB6
:1034B400027D007AE87B901203857404121714E9E4
:1034C400700A740112174974FFF0A3F08E828F837F
:1034D400E064027034750C02750D00780C121968E2
:1034E4008E828F83123168E5082404FAE509122AD2
:1034F4007A121714850A82850B83E02402800974EA
:1035040001121749EEF0A3EFF074011217491236B5
:10351400B9F07401121749A31236B1A3A3A3F002A0
:103524003391EE4F6003023398850C82850D83122C
:103534003169AA16AB17120739850A82850B837481
:1035440002F0EA850882850983F085128285138357
:10355400EB80CBEE4F60030233981236CDF8A3E034
:10356400F9850A82850B837402F0E885088285094F
:1035740083F0E985128285138380A3850C82850DEF
:1035840083122E0E120F85EAFC8C82A882C39EE45D
:103594009F404BE86E7001EF70047C00801F85181B
:1035A40082851983E0FAEE2AFAEF3400FBC3EA9825
:1035B400EB94005003E08004EECCC39CFCEC850A41
:1035C40082850B83F08C0A750B00780A12196885C2
:1035D4000C82850D83E02EFCA3E03F02337F75103F
:1035E40007023391EE4F6003023398850C82850DF8
:1035F400831239B8850A82850B837407F08882891F
:10360400831236B1123699E0851282851383F0E86D
:103614002402FAE93400FB8A828B831236B1123613
:10362400EA1236B9A31236F31236BDF0E82405F8CF
:10363400E93400F9888289831236BDA312370BA3BB
:1036440002351F741D1217491237AA700302338EF4
:103654001239B8880C890DE8450D700302338E8E3B
:10366400108F117810121968780A121968780812E4
:1036740019687406121749E0F9AC0EAD0FAA16AB1F
:1036840017850C82850D831217537406121714E9DB
:10369400F510023391F088828983A322F50CEF346C
:1036A40000F50D22E0F50E750F00780E22E0850876
:1036B400828509832212371222123712A3A322A36E
:1036C400A3A3A3E0FEA3E0FF22850C82850D83E083
:1036D400F8A3E0F5838882E0221239BCE822E0F501
:1036E40008A3E0F50922A3A3F08A828B83A3221204
:1036F400229AA3A322F08A828B8312370222E0F556
:103704000A750B00780A2212369912371222E085C4
:103714000882850983A3A32274EE12175574FE123E
:1037240016FE8A0A8B0BECFAEDFB7414121749E0AF
:10373400F510A3E0F5117416121749E0FE7418127F
:103744001749E0F50EA3E0F50F851882851983ACBF
:1037540082AD8312379F603E8518828519831237A4
:10376400AA602FA3A31236E2E50845096024780E67
:103774001219687810121968EEF9AC0CAD0DAA0A8A
:10378400AB0B85088285098312175374041217142E
:103794008006790E80027901022BA11206078A0C99
:1037A4008B0DEA450D22122E121237B1221206CDCC
:1037B4008A828B83E58245832274F612175574FE40
:1037C4001216FE740C1217491236DD8518828519FB
:1037D40083F07401121749E9F0E4F508F509780853
:1037E40012196875080278081219687404121749C6
:1037F40085820885830978081219681207217406DE
:1038040012171474021217147F0202182774F71285
:103814001755EAFEEBFF89087CA47D03120739EAF9
:103824005402600BA908EEFAEFFB1205FB80027943
:10383400010231FB74F612175574FF6A700374FFAA
:103844006B701B7B00EB75F003A4F8A9F0EC28F86F
:10385400ED3912228B0BEBC39404501480E712074A
:10386400098A088B09A808A909E849600312228C6F
:10387400809674F61217551207098A828B83E582A3
:1038840045836006A3A3E0FA80027A007B00023835
:103894000C74F21217558A088B09ECFEEDFF740EB6
:1038A400121749E0F50A1238DB701CEEFCEFFD7AC2
:1038B400FF7BFF1238DB70047911801688828983BC
:1038C400E508F0A3E509F088828983A3A3E50AF05B
:1038D40079007F060218271207098A0C8B0DA80CA1
:1038E400A90DE8492274EE121755EAFEEBFF8C0885
:1038F4008D09890C74121217491239B874141217ED
:10390400491231697416121749122E0E750D00EC06
:103914004D60030239AC7402650C60030239A78858
:1039240082898312316EF9EC2400F50EE439F50F27
:10393400EAF4F8EBF4F9EC58F8E50F59F9E84970B2
:103944005DE5082406F8E5093400F9880A890B883E
:1039540082F583122A891207398A108B11E50E65C4
:10396400107004E50F65116042780E121968850A1B
:1039740082850B83122A8912073F7402121714E9F5
:10398400F50D7027780E121968850882850983A3BE
:10399400A3122A871207517402121714800D750D91
:1039A400808008750D0D8003750D0BA90D02307410
:1039B4008E828F831239BC22E0F8A3E0F922121719
:1039C400147F100218273400F50D850C82F583222C
:1039D400E028FEA3E039FF8E828F83227916850AC0
:1039E40082850B83122E1212071B74082274F212A2
:1039F4001755EAFEEBFF890B7401650B600E740228
:103A0400650B70647901120919E9705CEEFAEFFB39
:103A1400123A6F6048750A00800B7C177D007900AC
:103A2400120FA3050A900371E0F8E50AC398502227
:103A3400E50A75F017A4F8A9F0850882850983A31F
:103A4400A3E028FAA3E039FB8A828B831236DD498E
:103A540070C885088285098374FFF0A3F07CA47D77
:103A640003EEFAEFFB1207330238D61207038A0873
:103A74008B09EA45092274F21217558A088B09EC5E
:103A8400FEEDFF740E12174912327A901004E0F41E
:103A9400603D7A097B00120FB5EA4B60328A828B53
:103AA4008374B1F0A3E41236ECA31236EAA3E5085A
:103AB400F0A3E509123AD6EEF0A3EF123AD6A3A387
:103AC400E50AF0A3E50BF0901004E0F9120FC1022F
:103AD40038D6F08A828B83A3A3A3A3A322C082C077
:103AE400839061907404F0A37448F0A3E4F09061AF
:103AF400807440F09061BC7407F09061877469F041
:103B04009061B67416F07900120A157902120A1B34
:103B1400902224E493F46006E493F91209F1790500
:103B2400120D6F023EEEC082C083E9540FF990611A
:103B340085E0696012E5C654804449F5C6E59E54A3
:103B44007F644970F8E9F053C680E59E547F70FAAB
:103B5400023EEE74F7121755E5A8FE53A87E12092B
:103B6400FDC2BA539AFEC289759B00C2C2120A03EF
:103B740075A91175B905120A09D2BA439A0174805C
:103B84005E42A8024DF6C082C083906181E4F0A336
:103B9400F0A3F0023EEE75E90075910075BF0002D6
:103BA4000135C082C083906181E4F0A374C0F0A3A6
:103BB400E480DFC082C08374F81216FE90049B1266
:103BC4004569E8497003023C6E90049BE0544060F0
:103BD400237908851882851983AA82AB83120B1D69
:103BE400851882851983AA82AB831207B790049B38
:103BF400E054BFF0E054806010790C7A387B0812EE
:103C04000B1D90049BE0547FF0E0A2E05008790083
:103C1400123C7654FEF0E0540260087901123C76BE
:103C240054FDF0E0540460087900123C8154FBF028
:103C3400E0540860087901123C8154F7F0E0541014
:103C440060087902123C8154EFF0E0542060087956
:103C540003123C8154DFF0A3E05401600D120A27E3
:103C64001207C990049CE054FEF074081217140261
:103C74003EEE120A151207BD90049BE022120A1BA5
:103C84001207C390049BE022C082C083E96005143C
:103C9400602A804F90619A7433F0A37455F0906158
:103CA400A0743AF0900814E064017009C291900481
:103CB4009D7467802D90049D7461802690619A7430
:103CC4003FF0A3745AF09061A0747FF0900814E060
:103CD40064017009D29190049D7471800590049DD3
:103CE400746AF0023EEEC082C083E9600B14600D7A
:103CF40014600F14601180209022288015902229CE
:103D0400801090222A800B900814E0640160F390E4
:103D1400222BE493906186F0023EEE74EE12175566
:103D240074F41216FE851882851983AC82AD8375EE
:103D34008390758234740412161190222893F460CF
:103D440003023EB1907808E0C394025003023E910E
:103D54007404121749AC82AD8375838F7582F7742E
:103D640008121611F97AFF7BFF7FFF7E0089828596
:103D74008210801874086E7003023E4674096E70D7
:103D840003023E46740A6E7003023E46E510C333D6
:103D9400FCE433FD7404121749E5822CF582E583B3
:103DA4003DF583E0F50EA3E0F50F8E087509007468
:103DB4000278081216EB74482508FC74783509FD5E
:103DC4008C828D8378081215CE740878081214E951
:103DD40085080C85090D8C828D8378081215CE74A4
:103DE4001878081214E9E50C4508F508E50DF509FD
:103DF400C3E50E9508E50F95098C828D837808122A
:103E040015CE8C828D8378081215CE7418780840EC
:103E1400141214E9E50C4508FCAD0DE50EC39CFC39
:103E2400E50F9D800F1214E9E50C4508C3950EFCBF
:103E3400E50D950FFDC3EC9AED9B5006ECFAEDFBF6
:103E4400EEFF0EEEC394135003023D7874FF6A70C4
:103E54000374FF6B602D8F08740278081216EB74DC
:103E640048124A7774783509F58378081215CE8597
:103E74001882851983E5822510F582E5831249B5F8
:103E8400E508F009E9C394045003023D697508018B
:103E940075090078081219687402121749AC82ADCA
:103EA400837A8A7B081211F57402121714740C12A7
:103EB40017147F0A021827C082C08390618674D5C4
:103EC400F09061AE7468F0A3746AF090624574FB7C
:103ED400F0A304F053F4FD43FE029008147401F0BF
:103EE4007900120A158003124050D083D082020157
:103EF400357F040218271245C1940622E0C43333E7
:103F040054C022C082C0839007FC7425F09007FA45
:103F14007401F0A3E4F07A01FB120CEB9007E8E0E3
:103F24002416123F547445F0A3740AF09007F9E084
:103F3400640170169007F8E070107901120D4B12AD
:103F44000D1B120D457900120D57023EEEE02414AC
:103F5400F8A3E0123F5B223400F98882898322743B
:103F6400F612175574FA1216FE9007F1E064017008
:103F740008120A2D9007F1E4F075E1F19007E8E0EA
:103F84002415123F547401F09007F3E06401705358
:103F9400909020C082851882851983AC82AD837588
:103FA4008390D082740612161175D90D9007EA1207
:103FB4003F004403F5D97800880874EB124A7774FB
:103FC40007123EFA40F27800880885188285198322
:103FD400E582124A77E583123EFA40EC75E1957961
:103FE4000180027900120CF190102612405674BF21
:103FF400F0A3740BF0A31240561240561241B5744C
:10400400C5F0A3740B1241CA9007EAE0F97AEB7B7E
:1040140007120CCD9007FC1240507901120CF79056
:1040240090401215EC120D0F9090641215EC120CC6
:10403400D97900120D639007E8123F517416F0907D
:1040440004997405F004121714024652E0F912217F
:10405400A92274B9F0A3740BF0A32274F4121755B7
:104064008908A808124199900801E0F97A027B08AE
:10407400120CCD90080FE0701A7900120D2D9007E4
:10408400DBE0700B79007ADC7B07120CD3800979B2
:104094000180F37901120D2D75E1F175D923900892
:1040A40001123F004405F5D97800880A7402250AF4
:1040B400F5827408123EFA40F175D90075D900757D
:1040C400D90075D90075D90075D9007A0012522526
:1040D40024221244E440F67A001252252426F58262
:1040E400E912465A0AEAC3940340EEEE242B124620
:1040F400577A00125225242C1244EA40F67A001210
:104104005225242E1244EA40F67A00125225243015
:104114001244EA40F67A0012522524321244EA404C
:10412400F67A008A0AEE250AF8EF124A651244F775
:10413400940540EFEE2437124CB7541FF8EE242AAE
:10414400124CB7C43354E048F5D975E19590102664
:10415400748FF0A3740BF0A37495F0A3740B124145
:10416400AC749BF0A3740B1241CA90080E12405019
:104174009090401215EC120D0F9090641215EC12F1
:104184000CD990600DE4F07901120D6390049974D8
:1041940006F0023EF5E875F006A4C8AAF02AF97400
:1041A400C928FE740439FF22F0A31241B51241B5A7
:1041B400221241B9227489F0A3740BF0A37489F01C
:1041C400A3740BF0A3221241CE22F09010341241BA
:1041D400DAA31241DA221241B97489F0A3740BF004
:1041E4002274EC1217559007FF124D6D78101215BA
:1041F400CE900810E0FAF875F006A4C8ACF02CF9DB
:1042040074F728F582740439F583E0FEA3E0FFEE29
:10421400C333FEEF33FF8E0CF50D750E00750F00E2
:1042240085100885110985120A85130B90902C7846
:104234000812153478081219648510088511098547
:10424400120A85130B7808790C1215217810790C51
:10425400121479E4F50EF50F7808790C12155A8AC0
:104264000C750D007403780C1216EB7808790C1297
:1042740015219090547808121595AA08AB09AC0A38
:10428400AD0B12214174041217148A088B09A80873
:10429400A909C3EE98EF995006E82EF8E93FF9E82A
:1042A40090600EF0E9A3F0EEA3F0EFA3F090600DA0
:1042B40074C1F07F0C021827C082C0839007E812F3
:1042C40042DC9007FC023EEBC082C0839007FF12E1
:1042D40042DC90080E023EEB124D71A3A3A3A3E4AB
:1042E400F0A3F02202013574F2121755124436F588
:1042F4000AEF1247AD6004780480027800E8240EC7
:10430400F8EAC398500302439475080C900818E423
:10431400F0EE2477124CB7900819F07902EE247865
:10432400FCEF3400FD7A1A7B08120B0B7902EE24A1
:104334007A124399247C124399247EFCEF3400FDC5
:10434400120B0BEE247512444C850A82850B83E014
:10435400601675081875090878081219687C0C121B
:1043640048C112171475081074012508F5D975D9B8
:104374000378008009880A7418250A12442BE8C3BC
:10438400950840F175E1957904120D1579018002C3
:104394007900024A60FCEF3400FD120B0B7902EE47
:1043A4002274F2121755124436F508EF3400F50959
:1043B400850882F583E06004780480027800E824AC
:1043C4000AF8EAC3984055750A089008187401F071
:1043D40079057CE27D077A197B08120B0BEE2481A8
:1043E40012444C850882850983E0601675081875A7
:1043F400090878081219687C081248C11217147544
:104404000A0C1246B48003124425E8C3950A40F707
:1044140075E1957904120D15790180027900024A3B
:1044240060880874182508F5827408124CBEF5D902
:10443400082212443A22EAFEEBFF9061D0E0F874BD
:1044440080C398FAEE248322FCEF3400FD8E828F21
:1044540083A3A3A3A3A312456D8C828D83E028F0CC
:10446400A3E039F07902120B0B2274F6121755EA05
:10447400FEEBFF9061D0E0706275D91875D90375B1
:10448400D9037A008A08EE250812522A249C124580
:104494000E40F17A008A08EE250812522A24A4124A
:1044A40044EA40F17A008A08EE250812522A24943C
:1044B40012450E40F17A008A08EE250812522A2489
:1044C400881244E440F175E1957908EE249412458C
:1044D4000724881244FE1245D9800279000246520C
:1044E4001244F09404221244F0940222F582E93436
:1044F40000F583E0F5D90AEAC322FAEF3400FB128F
:104504000B11221244FE7904EE221244F094082284
:1045140074F6121755EAFEEBFF900818740612455C
:10452400CC1219687C0179031248C712171475D983
:104534000675D90378001245B140FB75E1959004E6
:1045440099E064087017EE2470F582EF124566EE68
:104554002472F582EF1249B5E8F0A3E9F07901027B
:104564004652124A7212456D22E0F8A3E0F9227411
:10457400F6121755EAFEEBFF9061D0E0702A90081E
:1045840018740A1245CC1219687C0179031248C7C1
:1045940012171475D90675D90378001245B140FB7A
:1045A40075E1951245DE800279000246528808744E
:1045B400182508F58274081245C19405223400F5C3
:1045C40083E0F5D908E8C322F0750818750908785E
:1045D400082275E1957904120D15EE2470F582EF29
:1045E400124A7212456DEE2472F582EF124A72E895
:1045F400F0A3E9F079012274F6121755EAFEEBFFF5
:104604009061D0E070437901900818740BF0900425
:1046140099E0640770177508187509087808121965
:10462400687C0109091248C7121714790574012915
:10463400F5D975D90378008003124425E8C399405D
:10464400F875E1951245DE800279008001F07F0261
:10465400021827F582EF124CBEF5D92274F5121711
:10466400551246E36004780480027800E8240BF8CD
:10467400EAC3984036750A099008187408F0F912CC
:1046840046CC601475081875090878081219681260
:1046940048BF121714750A0D1246B480031244253C
:1046A400E8C3950A40F71245D68002790002492EE4
:1046B4007401250AF5D975D903780022EE241DF575
:1046C40082EF1249C7A3F022EE24E5FCEF3400FD8B
:1046D4007A197B08120B0B850882850983E0221264
:1046E400443AF8EF124E41F583E02274F312175561
:1046F4008A088B091248D2FAE5082483F50AEB12DA
:1047040047AD6004780480027800E82408F8EAC31E
:104714009850030247A6750C06900818740CF09084
:1047240004B6E0900819F07402C0E0F97CB77D0487
:104734007A1A7B08120B0BD0E0F97CB97D04120BBA
:104744000B850A82850B83E0601C750A18750B08BB
:10475400780A1219687C067903AA08AB091248C7BB
:10476400121714750C0A7401250CF5D975D9037840
:10477400008009880A7418250A12442BE8C3950C92
:1047840040F175E1957904120D15E5082470F58260
:10479400E509124566E5082472F582E5091245F03B
:1047A400800279007F050218273400F50B850A8200
:1047B400F583E02274F6121755EAFEEBFF1248D295
:1047C400FCEE2483F8EF1248CD60047A0480027A68
:1047D40000EA2404FAECC39A405E7A02900818EACC
:1047E400F0EE24F7F582EF12484860197508187541
:1047F400090878081219687C027903EEFA1248C78E
:104804001217147A0674012AF5D975D90378008031
:1048140003124425E8C39A40F875E195EE24741216
:104824004841EE24801248411246C07904120D1505
:10483400EE240D1245E180027900024652F582EF22
:104844001249C722124CBE900819F088828983E06D
:104854002274F61217551248D2FEEA2483F8EB129A
:1048640048CD60047C0480027C00EC2404FCEEC38C
:104874009C40437C029008187407F0EA24F8F582FF
:10488400EB1248486015750818750908780812195C
:104894006879031248C71217147C0674012CF5D9E1
:1048A40075D90378008003124425E8C39C40F87549
:1048B400E1957901800279000246527C097903EE80
:1048C400FAEFFB120B7D740222123F5BE02290612F
:1048D400D0E0F87480C3982274F5121755E9FEA24B
:1048E400AFE433F50AC2AF7F00EA246FF8EB34007B
:1048F400F980010F88828983E0FCEFC39C50188FF4
:1049040008EA2508FCEB3400FDEC246BF582ED127B
:104914004CBA6E70DE800DEA2CFAEB124C4AEE12A1
:10492400484E04F0E50AA2E092AF7F030218277410
:10493400F6121755A2AFE433FFC2AFEA246FF8EBC7
:1049440012522CFCE9FD8C828D83E014F07E0080F1
:104954001E8E08EA2508F8EB12522C246CF582E925
:10496400124CBAC0E0E8246B1249B2D0E0F00E8CCD
:10497400828D83E0F8EEC39840D7EA246EF582EB8B
:104984001249B574FF1249B9EFA2E092AF02465240
:10499400C082C083E5A8F8C2AFEA246BF582EB12AB
:1049A40049B5E91249B9E8A2E792AF023EEEF582B1
:1049B400E9124A7222F0EA246AF582EB1249C7220C
:1049C400F582E93400F583E4F02274F21217558C71
:1049D400828D83A3A3A3A3E0541FF0EA2436124FCD
:1049E400748E828F83E4F0F50C850C8285820AEC48
:1049F400250AF8ED124E3DF583E0C0E0EA250AF8F9
:104A0400EB124A65D0E0F0750D00850882850983B4
:104A1400E0F50A750B00E50D780A1216CCE50AA23A
:104A2400E05027E50C33333354F8250DC0E08E8273
:104A34008F83E0F8EA28F8EB12522C24381249B29A
:104A4400D0E0F08E828F83E004F0050DE50DC39471
:104A54000840B7050CE50CC39405408D7F06021889
:104A6400273400F9E8245D124A6F22F582E9340004
:104A7400F583222508F5822274F61217559004C591
:104A8400E0640370077A007B000246527C00ECF875
:104A940075F006A4C8AAF02AF974CB28F582740428
:104AA40039F583E06003024C2E124EB6124C5CE4DE
:104AB400F0E82404FAE93400FBEAFEEBFFEC8E8212
:104AC4008F83F0E82462124C3B2465124C6B2468FB
:104AD4001249B2124C5CA3A3E4F0A3124D00A3123A
:104AE4004C6F240F124C3B2435124C431215ECE846
:104AF40024181249B21215F8E8241C124C57241D2C
:104B0400124C6B2480124C572474124C5724691293
:104B140049B27480F0E8246A124C57246F124C573F
:104B24002467124C5724ED124C5724EE124C572490
:104B3400EF124C5724F0124C5724F1124C6B24F30F
:104B4400124C6B24F6124C572483124C5724D31264
:104B54004C5724D4124C431215ECE824D51249B214
:104B64001215F89090B41215ECE824D91249B21237
:104B740015F8E824DF124C5724E1124C5724DD12B7
:104B84004C5724E2124C5724E3124C5724F9124C8C
:104B94006B24FB124C6B24FD124C6B24FFF582E951
:104BA4001246C6FC8C08E82508FAE9124C4A74FF40
:104BB400F00CECC3940440EC7C008C82AA8274E276
:104BC4002AF5827407124CBAC0E0E82AFAE93400E4
:104BD400FBEA245DF582EB1249B5D0E0F00CECC39E
:104BE400940540D67C008C82AA8274AD2AF5827426
:104BF40004124CBAC0E0E82AFAE93400FBEA24E5DE
:104C0400F582EB1249B5D0E0F00CECC3940840D621
:104C14009004C5E004F0640170098E828F83E090F3
:104C240004C7F0E8FAE9FB024A8D0CECC394034094
:104C340003024A89024A92124A6F7401F0E822126E
:104C440049C49090B4223400FBEA246BF582EB1241
:104C54004A72221249C4E8227401124C6222F0887A
:104C6400828983A3A3A322124A6FE4F0A3F0E8226B
:104C7400C082C083EA2403F582EB124CBA6008E4D4
:104C8400F09004C6E014F09004C5E014F0700690AF
:104C940004C774FFF08A828B83A3A3E4F09007E730
:104CA400E0700D9004C6E0640170057900120CDF19
:104CB400023EEEF582EF124CBE223400F583E02270
:104CC400C082C0837B00EBF875F006A4C8AAF02A62
:104CD400F974C528F87404124EC0A3A3A3A3A3E4D3
:104CE400124D00F00BEBC3940340DB9004C5E4F0D9
:104CF400A3F0A374FFF075E1F1023EEE124C62A33F
:104D0400A3A32274F5121755750800750900750AD6
:104D140000A80A1241998E828F83A3A3A3E0602D79
:104D2400E5084509700AEEF8EFF988088909801D3D
:104D3400850882850983124D6D12197B124D691203
:104D440015EC1220E47404121714E960D9050AE57D
:104D54000AC3940340BB850882850983A3A3A3A344
:104D6400E0F902492E8E828F83124D7122E0F8A35E
:104D7400E0F5838882A3A32274F712175578FF798C
:104D8400FF7F00EFFC75F006A4CCAEF02EFD74C9D5
:104D94002CFC74043DFD8C828D83A3A3A3E06040AE
:104DA400EC2474F582ED124CBAFE74FF687003743F
:104DB400FF69701574016E700BEC247AF582ED12A4
:104DC4004566801CEC242E80F374016E700AEC247A
:104DD4007A124DFB500A80E1EC242E124DFB40E484
:104DE4000FEFC39403409CC3EA98EB994004E8FA9C
:104DF400E9FB7F01021827F582ED124A72C3E0989D
:104E0400A3E0992274F6121755EAFEEBFF120AB1D9
:104E1400EE2465F8EF124E3D124E4BEC4D601090AF
:104E240004C7125161850882850983E4F0A3F0EE7A
:104E3400FAEFFB120C01024652124E41223400F9E1
:104E440088088909888222F583E0FCA3E0FD2274A6
:104E5400F7121755EAFEEBFF8E828F83A3A3A3A359
:104E6400E0FA7B00120835EEFAEFFB120AC9120BC6
:104E7400E3024DF6C082C0837B00EBF875F006A414
:104E8400C8AAF02AF9124EB6A3E0601AE8246FF516
:104E940082E9124CBA600FE8246BF582E9124CBA2D
:104EA4007004790180090BEBC3940340CD790002AF
:104EB4003EEE74C928F87404124EC02239F988826F
:104EC4008983A3A32274F61217557800880874AD59
:104ED400124A77740412484408E8C3940840ED90D9
:104EE40004AD7401024651C082C08374FC1216FEE4
:104EF4009090B41215EC8518828519831215F81256
:104F04000B17E9851882851983F0120B17740112A7
:104F14001749E9F0120B177402121749E9F08518C2
:104F2400828519831215EC7404023C7074F612170E
:104F340055EA240D124F74EC2403F8ED3400F9887B
:104F4400088909EC2407F8ED12522CFCE9FD124FF4
:104F54007E1216738E828F83E8F0A3E9F0124F7EDF
:104F64001216738B09EA45096003124F91024652E7
:104F7400F8EB3400F9E8FEE9FF228C828D831245B8
:104F84006D850882850983E0FAA3E0FB228E828F77
:104F940083E02401F0A3E03400F02274F6121755E4
:104FA400EA242EF582EB3400124E4BEA2470124FA1
:104FB40074780079FAECFAEDFB1216738E828F8303
:104FC400E8F0A3E9F0780079FAECFAEDFB12167335
:104FD4008B09EA45096003124F9102465274F0129C
:104FE4001755EAFEEBFF741012174978081215CE14
:104FF400120C978A0C8B0D8C0E8D0F909048780CA8
:10500400121534909054780C121595780C1219647A
:10501400124D691215EC1220E47404121714E9609D
:10502400030250C58E828F83E02402F8A3E012525B
:105034002CFAE9FB8A828B837808121547909054E6
:1050440078081215CE8A828B8378081215A8EE246C
:105054000BF582EF1249B5C082C0838E828F83A381
:10506400A3A3A3A3E02401F8A3E03400F9D083D0E0
:1050740082E0687003A3E069700479018045EE243E
:1050840007F8EF123F5B124F95EE24741252317001
:1050940014EE24751250CC7003A3E06D70078A825D
:1050A4008B83124F95EE24801252317014EE2481BA
:1050B4001250CC7003A3E06D70078A828B83124F69
:1050C4009579007F08021827FAEF3400FB8A828B57
:1050D40083E0FCA3E0FD88828983E06C2274F312F0
:1050E40017559004C7E0F812419AEE2404F50AEF2C
:1050F4003400F50BEE2465F508EF3400F509801053
:10510400124E4D850882850983E4F0A3F012515BA9
:10511400850882850983124E4DEC4D6030EE24647F
:10512400124CB7F50C780C12196CEE2463124CB7C0
:10513400F9EEFAEFFB120AFF7401121714E985085D
:105144008285098360BA124569E84970077C007D4D
:105154000012515B0247A8850A82850B83E0FA7B23
:10516400001207ED2274F2121755EAFEEBFF890ACA
:10517400740E121749E0FAEE2462125231600302EF
:1051840052201248D2F50CEE2483124CB7FB600473
:105194007804800278008908E928F8E412522C2463
:1051A400020808E93400F9E50C98E499A2D265D024
:1051B400334065EA7005750B028003750B01EB60E3
:1051C4003375090078081219687A187B08120B479E
:1051D40074021217147508187509087808121968EA
:1051E400AC0AA90B1248C31217147404250AF50A51
:1051F4007C187D087401250AF5D9850BD9780080BF
:105204000A8808EC124A77ED12442FE8C3950A4045
:10521400F075E195790080067907800279FF024AEA
:10522400608A0AEE250AF8EF3400F9E822F582EFE5
:10523400124CBE640122C082C0838003125268E90A
:10524400F874FF28190470F4ECFAEDFB023EEEC08A
:1052540082C0838003125268E9F874FF281904702D
:10526400F4023EEE8C828D83E08A828B83F08C8202
:105274008D83A3AC82AD838A828B83A3AA82AB8302
:105284002274F4121755E9FF7E008A088B09780806
:105294001219AC00040F4854BC52D952F2520953AB
:1052A40026533D535E5375538853B153CE53DE5347
:1052B400F4530D5448542D5474016F600302544444
:1052C4008C828D83E0F8C394034003025444E89035
:1052D400104802544174026F60030254448C828D5E
:1052E40083125C59901049E8F0A3E9025441740117
:1052F4006F600302544412546B4003025444E89018
:105304000DDC02544174016F60030254448C828D9D
:1053140083E0F8C394054003025444E8900DDD0291
:10532400544174016F600302544412546B400302ED
:105334005444E8900DDE02544174106F600302542B
:10534400447508108E0978081219687ADF7B0D12EB
:105354000F8B740212171402546674016F600302F7
:10536400544412546B4003025444E8900DEF025429
:105374004174016F60030254448C828D83E0901069
:105384004C02544174046F60030254448C828D8334
:1053940078081215CE90905078081213DA50030250
:1053A4005444900DF178081215DD025466EF600341
:1053B40002544412051DE9700A1211837950121324
:1053C400458061900E847401807374016F70711252
:1053D400546B506CE8900DF0806374016F70618CB5
:1053E400828D83E0F8C3940A5056E890104B804DA8
:1053F40074016F704B8C828D83E0F874F928C39428
:105404000A503DE890104D803474016F7032900E54
:1054140083E0F88C828D83E0900E83F0E87043E0A3
:105424006401703E121177803974016F70128C829E
:105434008D83E0F8C394045007E890104EF0802266
:105444007E18801EC3EA9424EB9400501374026FF8
:10545400700E8C828D83125C53120403E9FE800269
:105464000E0EEEF902547A8C828D83E0F8C3940216
:1054740022740E1217147F0402182774F21217559F
:1054840074DA1216FE890AECFEEDFF742012174935
:10549400AC82AD8375839075821A740612161174EA
:1054A40020121749AC82AD8312111DE9F50874343A
:1054B400121749E0F50BE9C3940A40030255DA12C6
:1054C400115FE9F509901048E064027004740180EA
:1054D40001E4F50C780C12196CAD0BAC09A908EEBB
:1054E400FAEFFB1211AD74011217147C147D0079CC
:1054F40000740C121749AA82AB83120FA375F0062D
:10550400E508A4F50B740C121749AC82AD837A102C
:105514007424250BF912133FE9703D7C1079FF7454
:105524000C121749AA82AB83121009E9702A741C61
:10553400121749AC82AD837A047425250BF9121332
:105544003F740C121749AC82AD83E509A2E0E43341
:10555400F9EEFAEFFB120499851882851983AC825F
:10556400AD837A0C74702508F912133FE9705385E2
:105574001882851983AA82AB83121153750800E53A
:105584000875F003A4F8A9F0851882851983E582CB
:1055940028F8E583125E57125FDF601D88828983D5
:1055A400A3A3E0F50C750D00780C121968EEFAEF60
:1055B400FB12072774021217140508E508C39404A4
:1055C40040BDE509A2E15046900DDBE0F9EEFAEFAB
:1055D400FB12072D80387408650B7032901048E078
:1055E4006402702A7C007D00A90AEEFAEFFB121116
:1055F400A7125C5F6018125C6A88828983E5824521
:1056040083600B7C007900EEFAEFFB1217537900EC
:1056140074260264C374F0121755EAFEEBFF8C087B
:105624008D09750A0AE9600C146009146037146066
:10563400790256C812116BE9F50AC3940A400302B1
:1056440056C8E5084509607C750E06750F00780E8E
:10565400121968EEFCEFFDAA08AB09120F8B740255
:10566400121714805F750B00750E06750F00780E07
:10567400121968EEFCEFFDE50B75F00EA4F8A9F025
:1056840074FD28FA740D39FB120F9D74021217145D
:10569400E9600C850B0AE50AC3940A5027801605B5
:1056A4000BE50BC3940A501C80BE121171E9F50A74
:1056B400C3940A500FE50845096009AA08AB09A973
:1056C4000A121165A90A7F0802182774F4121755E3
:1056D400890875091574FF6A700374FF6B70277E5F
:1056E40000AC087A027B00EEF9121141E9600375FF
:1056F40009000EEEC3940A40E8E50860537A9B7BE8
:105704001112092B804A12090D8A0A8B0BAE0AAFBB
:105714000BEE4F60387C007D00EE2405FAEF340078
:10572400FB8E828F83A3A3A3A3E0F912111DE9C307
:10573400940A500CAC087A027B00121141750900DE
:10574400E508600CEEFAEFFB12119B800375091457
:10575400A90902547A74F2121755ECFEEDFF75088C
:1057640015740E121749E0F50AA3E0F50B74FF6AED
:10577400700374FF6B7021750900AC0AAD0BEEFA6F
:10578400EFFBA909121147E960037508000509E553
:1057940009C3940A503F80E212090D8A828B83E583
:1057A400824583602D7C007D00E5822405FAE58333
:1057B4003400FBA3A3A3A3E0F912111DE9C3940AC7
:1057C4005013AC0AAD0BEEFAEFFB1211477508004B
:1057D4008003750814A9080264C6C082C083900DB2
:1057E400F5EAF0A3EBF0900DDBE0FC7D007A237B7F
:1057F40000120403900DDBE0F91206A9D083D082D5
:1058040002013574EC1217558A088B09E9FE7414E9
:10581400121749780C1215CE7F00EE702E780812FC
:10582400196890905078101215CE780C79101214D3
:1058340079AA10AB11AC12AD131204AB7402121797
:1058440014E9FF60097901AA08AB091204A5EFF96C
:105854007F0C02182774EA12175574EC1216FEEA2C
:10586400FEEBFFEE240CF514EF3400F5158E828F59
:1058740083A3858210858311EE240AF50AEF340090
:10588400F50BEE2403F50EEF3400F50F8E828F83B3
:10589400A3A3E024FA7003025C2624FD7003025BD8
:1058A4003D14700302593D146010147003025B72BE
:1058B40024FE7003025AB7025C44EE2409F508EF93
:1058C4003400F509125C5F6045E0F5838882125C60
:1058D40059880A890BE8450B603485148285158341
:1058E400E0F50C780C12196CEE240BF582EF340001
:1058F400F583E0F9850882850983125C530A0A0A54
:10590400AB0F850A82850B83121753025BF7850858
:105914008285098312197F900DF11215EC1204ABE4
:105924007402121714E97003025C44790185088239
:105934008509831264D1025C0A851082851183E093
:105944006003025A8DEE2405F508EF3400F509854D
:105954000882F583E0A2E04003025A8D7C0E7D00AC
:105964007900851882851983AA82AB83120FA3EE6E
:105974002408F512EF3400F513851282F5831264BE
:10598400D1EA4B6010750C06750D00780C1219687D
:10599400EA2410801B1264CB12090DEA4B70030237
:1059A4005C44750C06750D00780C121968EA240520
:1059B400FCEB3400FD7402121749AA82AB83120F68
:1059C4008B7402121714850882850983E0A2E250C1
:1059D40004D2F08002C2F0A2F0E433F8740C12177F
:1059E40049E048F0850A82850B83E0F50CA3E0F5D5
:1059F4000DE50C450D6013E50C2410F582E50D341E
:105A040000F58378081215CE800C7508FF7509FF20
:105A1400750AFF750BFFE50C450D7006750C0075D6
:105A24000D00851282851383E0F512A3E0F513E5DA
:105A34001245137006751200751300780812196464
:105A4400780C1219687812121968851482851583E6
:105A540012197F8E828F83A3125C4E740A12174927
:105A6400AA82AB83121159740A121714850E828507
:105A74000F83125C59900E85E8F0A3E9F07A017B5C
:105A840000900DDBE0F9120FE5125C5F7003025C1D
:105A940044125C6AE8FEE9FFEE4F7003025C448541
:105AA4001082851183E0FC79011264CB8E828F838E
:105AB400025B37851082851183E06406704F12649F
:105AC400CB12090D8A088B09EA4509604090104EF3
:105AD400E014600814602814601880317C007D0094
:105AE4008A828B83A3A3A3A3E0F91264CB1211A728
:105AF400801B7C007D0079007A097B04121111124D
:105B040064CB850882850983E0F9120493125C5FF3
:105B14007003025C44125C6A8909E8450970030257
:105B24005C448E828F83A3E0FC79021264CB88826A
:105B3400850983121753025C447C007D00EE240423
