:020000040000FA
:0600000002011D02255261
:03002B00022BF0B5
:030053000225C8BB
:03006B00022BBCA9
:10008300022443E5C754F84401F5C779012200006F
:100093000080FB120086B90003020107E47921788E
:1000A30008B800028004F709D8FCE479297802B87B
:1000B30000028004F709D8FCE490028178F97908FA
:1000C3008002F0A3D8FCD9FA781A90014D7A01BACC
:1000D30000028007E493A3F608DAF9900A79AA826A
:1000E300AB8390014E78E679088015E493A3AC8244
:1000F300AD838A828B83F0A3AA82AB838C828D83A8
:10010300D8E9D9E775823E75838E740412012F7581
:100113008291758300740012012F75D00075813FA1
:10012300751881751902759F00020096C09FF59F8F
:10013300E473D09F22D083D082C09FE493C0E07445
:100143000193C0E0740293F59F2201FF0000B40005
:100153000028002800283075A000A000A000A000FF
:1001630000080008E001F00010001000100010006B
:100173001000100050005000500010001000D00775
:100183000000000000000F003075070010000100A0
:1001930081FF0000FFC10BDF0BC70BFF02020A0A3E
:1001A300025000A0000000E803026A900100001959
:1001B30090027090010000CA0A027690010000B21A
:1001C30002027090010000CB0A027890010000C87F
:1001D30002027090010000CC0A027A90030000CA68
:1001E30002027090010000CD0A027C90030000CB54
:1001F30002027090010000CE0A027E90010000CF3F
:100203000AFFFF0100FF20026A900100001F900215
:100213007090010000340B02809000000000000287
:1002230074900300005A037B127B127B127B127BB8
:10023300127B127B127B127B127B127B127B127B53
:1002430012511569154B15FFFF0A416363656C2055
:10025300456E61626C650000021400416363656C66
:100263002052616E67650000101010416363656C76
:1002730020582D436F6F7264696E6174650000418D
:100283006363656C20592D436F6F7264696E61748B
:10029300650000416363656C205A2D436F6F726480
:1002A300696E61746500000A320000004163636592
:1002B3006C2053616D706C6520506572696F6400CA
:1002C30000026A9001000022900270900100007702
:1002D3000B029C90030000BC07027290010000789F
:1002E3000B027090010000860B029A9001000087B8
:1002F3000B027290010000890B02709001000096BE
:100303000B029690000000BD07027490030000C02A
:1003130007027290010000990B0270900100009790
:100323000B029490000000BE07027490030000C605
:1003330007027290010000AD0B027090010000985B
:100343000B029290000000BF07027490030000CCE0
:1003530007027290010000C10B027090010000D5EA
:100363000B029890030000D60B027290010000DA92
:100373000B48414E435320456E61626C650000108B
:10038300414E4353204D65737361676500004A44D2
:1003930061746120536F7572636520456E61626C91
:1003A3006500104461746120536F75726365204D5D
:1003B300657373616765004A414E435320436F6E13
:1003C30074726F6C20506F696E7400026A90010042
:1003D3000013900270900100009F0C028C900A00A1
:1003E30000D407027290010000A00C02709001007B
:1003F30000AD0C028A90000000D507027490030040
:1004030000EA07027290010000AE0C027090010036
:1004130000BC0C0288900B0000F0070272900100F0
:1004230000BD0C027090010000D00C028690000009
:1004330000F10702749003000006080272900100A5
:1004430000D10C027090010000E50C0284900B00B7
:10045300000C08027290010000E60C110199010FD3
:100463001264026A9001000016900270900100006D
:100473008E0D0262900100008F0D02749003000044
:10048300290810424C454354524C205374617475EF
:1004930073000010424C454354524C20556E636C1C
:1004A3006173736966696564000A424C454354523B
:1004B3004C20436F6D6D616E64000A10424C4543DE
:1004C30054524C20536572762055554944204C654F
:1004D3006E000AD0002D121E4B0FA4994ECEB531DB
:1004E300F40579424C454354524C205365727620AF
:1004F30055554944000A0100424C454354524C208F
:10050300536572762053746172742048646C000AD8
:10051300FFFF424C454354524C20536572762045AD
:100523006E642048646C000A10424C454354524C9C
:1005330020436861722055554944204C656E000A7A
:10054300BD1DA299E625588CD94201630D12BF9FA8
:10055300424C454354524C204368617220555549DF
:1005630044000A424C454354524C20436861722074
:1005730048616E646C6572000A424C454354524CA8
:100583002044617461204C656E000A424C4543541B
:10059300524C204461746100026A900100001C9077
:1005A300027090010000B00D025890000000320864
:1005B3000274900300003508027290010000B10D2F
:1005C300027090010000C10D0290900000003B08F2
:1005D3000274900300005008027290010000C20DE3
:1005E300027090010000D70D0254900300005608DA
:1005F300027290010000D80D027090010000E80D16
:10060300025290030000E90D027290010000EA0D0E
:10061300027090010000000E023A90030000010EE8
:10062300027290010000110E027090010000230E6F
:10063300023290030000240E027290010000260E85
:100643000270900100003D0E025A900300003E0E1E
:10065300027290010000400E027090010000550EDE
:10066300026090030000560E027290010000570EC4
:100673000270900100006D0E02A2900300006E0E46
:100683000272900100007E0E027090010000900E35
:100693000282900300005708027290010000910E3D
:1006A300027090010000A60E02A8900300005908F2
:1006B300027290010000A70E027090010000B80EB4
:1006C300025C900300005A08027290010000B90E08
:1006D3000A41505020436F6E6E656374000252539B
:1006E30053492056616C75650010414E43532053A6
:1006F3007461746500000A47656E6572616C20431E
:100703006C6F636B00026A900100002B9002709083
:10071300010000FE0F025090030000700802729067
:10072300010000FF0F0270900100000B10023890CF
:1007330001000071080272900100000C1002709019
:10074300010000171002309000000072080274903C
:1007530003000073080272900100001810027090E9
:100763000100002410022E90030000790802729009
:100773000100002510084C6564204374726C00006E
:10078300026A900100002890027090010000A310FB
:100793000236900200007F08027290010000A4104C
:1007A300020202020202020202010D000000100115
:1007B300026A900100002590027090010000CE10A3
:1007C300023E900100008608027090010000CF10E5
:1007D300024090010000138F027090010000D010BE
:1007E300024290010000058F027090010000D110B9
:1007F300024490010000B58E027090010000D210F7
:100803000246900100007F8E027090010000D31019
:10081300024890010000918E027090010000D410F4
:10082300024A90010000A38E027090010000D510CF
:10083300024C90010000F78E027090010000D61068
:10084300024E90010000D71001E803053F10FF009E
:1008530001307503020106000000000000000000E3
:100863000000000000000000000000000000000085
:10087300000000FFFF0600800CE803140953696DB4
:10088300706C65424C455065726970686572616C45
:10089300051250002003020A000201050302F0FFC3
:1008A3004A756467656D656E742042696E64696E2E
:1008B300677320200032000000BD1DA299E6255871
:1008C3008CD94201630D12BF9FFB7B7CCE6AB3447C
:1008D300BEB54BD624E9C6EA22D9D9AAFDBD9B21D0
:1008E30098A849E145F3D8D169751B7B1B8D1B87FC
:1008F3001B931B991B9F1B104B65792050726573CB
:100903007320537461746500026A900100001090B3
:10091300027090010000251202A690000000720AE6
:10092300027490030000730A027290010000261201
:100933001201381183041201382783041201385439
:1009430083041201388483041201389B8304120147
:1009530038BC8304120138ED83041201383E840449
:100963001201385584041201383AFE03120138513A
:10097300FE0312013880FE03120138B9FE0312018F
:1009830038E1FE031201380FFF0312013826FF037B
:100993001201383DFF0312013853FF031201387A65
:1009A300FF031201388DFF03120138A3FF03120165
:1009B30038B6FF03120138DBFF03120138B6AA026F
:1009C300120138B5AB02120138DFAB021201383421
:1009D300AC0212013855AC021201386EAC0212019E
:1009E3003870AC0212013891AC0212013894AD0296
:1009F30012013851AE021201381EAF0212013882C1
:100A0300AF0212013819B0021201381CB0021201F0
:100A130038A2B002120138E5B00212013837B10230
:100A23001201383AB10212013871B1021201389839
:100A3300B1021201382EB202120138B7B20212010A
:100A43003800B3021201380DB30212013810B30299
:100A53001201386EB30212013886B3021201380054
:100A6300B40212013803B40212013826B40212018F
:100A73003829B402120138D0B402120138F3B40297
:100A83001201380BB5021201383BB5021201384886
:100A9300B5021201384BB502120138B7B502120183
:100AA30038A5B6021201385BB702120138EECD0346
:100AB30012013816CE0312013844CE031201387BDB
:100AC300CE03120138E3CE031201382CCF031201F7
:100AD3003877CF03120138B5CF03120138F2CF03B1
:100AE30012013820D003120138C7D003120138D1C4
:100AF300D003120138DED00312013811D1031201E1
:100B030038D3D103120138DFD103120138F7D103EF
:100B130012013801D203120138668A0412013874B3
:100B23008A041201388C8A04120138A48A0412013F
:100B3300380080021201389E8002120138168102A9
:100B43001201382B82021201386582021201380E1B
:100B53008302120138E3830212013847850212012E
:100B6300389E85021201382586021201380C87024D
:100B7300120138598702120138E787021201380B34
:100B83008802120138E08902120138218A02120117
:100B930038438A02120138C48A02120138AE8B022A
:100BA300120138748C02120138D49803120138A64A
:100BB30099031201384F9A03120138929A031201D2
:100BC300381F9B03120138AB9B031201388C9C0323
:100BD300120138BB9C03120138B79D03120138FF81
:100BE3009D03120138019F03120138459F0312012F
:100BF300386B9F03120138388D0412013864DA030D
:100C03001201387ADA03120138A0DA03120138C864
:100C1300DB03120138D2DB031201382BDD0312018F
:100C2300382BDE0312013839C40312013846C503D9
:100C33001201387AC503120138BCC5031201387694
:100C4300C70312013858C801120138E1C801120163
:100C530038F1C801120138CCC901120138E3C901C6
:100C630012013809CA0112013814CA01120138ED00
:100C7300CA011201384FCB01120138EBCB0112012B
:100C830038EFCD01120138A6CF0112013822D0016D
:100C9300120138FFD0011201382DD401120138CBD3
:100CA300D40112013828D6011201389BD701120151
:100CB3003844D8011201388DD801120138C4D80143
:100CC30012013869D901120138E7D9011201389BA1
:100CD300DA01120138FEDA0112013843DC01120194
:100CE3003853DC0112013876DC01120138C1DC0112
:100CF30012013866DD011201385CDE01120138266B
:100D0300DF011201389EE001120138E0E001120117
:100D1300387EE101120138CBE101120138F1E10122
:100D2300120138DFE301120138E4E301120138C58F
:100D3300E50112013819E6011201387BE6011201BF
:100D430038A3E60112013847E70112013809E80127
:100D53001201383AE8011201383DE80112013885E1
:100D6300E801120138C7E8011201382EE901120126
:100D7300383DF80312013850F80312013859F803CB
:100D830012013872F803120138BDF80312013898C2
:100D9300F90312013827FA0312013872FA03120118
:100DA30038AD4700120138B94700120138F2470045
:100DB300120138374800120138EE48001201387426
:100DC3004900120138D94900120138054A001201BD
:100DD300383E4A00120138524C001201382E4E00A0
:100DE300120138195000120138505100120138B065
:100DF30053001201389C5400120138E255001201CD
:100E030038EF56001201380C5700120138445700CE
:100E13001201385E5700120138C6570012013860BC
:100E23005C00120138015D00120138525D001201AD
:100E330038795D00120138C75D00120138E55D00A5
:100E4300120138395E00120138125F00120138991D
:100E53006000120138216100120138ABB3031201A3
:100E630038B5B30312013880B403120138C4B40394
:100E7300120138EAB40312013836B5031201386E91
:100E8300B50312013897B503120138D4B603120122
:100E93003801B7031201382EB70312013879B703AB
:100EA30012013894B703120138DFB703120138195E
:100EB300B80312013853B803120138A8B80312015A
:100EC3003813B9031201385CB90312013886B90328
:100ED300120138ABB90312013896D20312013860FC
:100EE300D30312013843D403120138B9D4031201D6
:100EF30038FBD40312013828D603120138B9C402CF
:100F0300120138E2C402120138FBC4021201384054
:100F1300C6021201381EC7021201383DC702120170
:100F230038CAC7021201380DC8021201385AC90261
:100F3300120138F9C90212013878CC021201380FB4
:100F4300CD02120138E3CD02120138C5CE021201DF
:100F53003831D002120138C4D00212013858880443
:100F6300120138C188041201381589041201383C72
:100F7300890412013873FB02120138E0FB021201EB
:100F8300382BFC0212013820FD021201381CFE022C
:100F930012013806FF02120138C58803120138070F
:100FA3008903120138E18903120138BA8A03120155
:100FB30038B58B03120138948C03120138008D036A
:100FC300120138C78D03120138328E03120138998A
:100FD3008E03120138C48E03120138358F031201B8
:100FE30038C88F0312013831900312013846900339
:100FF3001201388E9003120138A790031201380CA6
:1010030091031201380F910312013860E5031201B5
:101013003888E503120138C6E50312013884E60374
:10102300120138EFE6031201380BE70312013833DC
:10103300E70312013863E70312013872E703120171
:1010430038ECE70312013812E803120138F8E9011A
:1010530012013895EB011201386AED01120138349F
:10106300EE011201387BEE01120138C2EE011201CA
:1010730038E0EE0112013822EF0112013838EF0196
:1010830012013884EF01120138BCEF01120138EF6D
:10109300EF0112013840F001120138AAF0011201E8
:1010A30038A4F30112013846F5011201388CF50119
:1010B300120138E6F60112013843F701120138B87C
:1010C300F7011201380CF80112013839F801120145
:1010D3003870F2021201388DF20212013827F80239
:1010E30012013829F902120138A3FA021201385108
:1010F300FB02120138886100120138D1610012012C
:1011030038FE61001201383162001201383E62007C
:101113001201384A62001201385C62001201383150
:1011230063001201388F6300120138C46300120197
:10113300386065001201389A6500120138086600AC
:10114300120138AD6600120138696700120138E8F0
:101153006700120138AC6800120138BB6800120145
:10116300383C6900120138DB69001201380D6A004E
:10117300120138A86A00120138066B0012013840C8
:101183006B00120138C16B001201388A6C00120126
:1011930038336D00120138BA6D00120138126E0037
:1011A300120138736E001201389C6E00120138521E
:1011B3006F001201389C7000120138DF70001201B9
:1011C30038FC70001201381B71001201386671007F
:1011D3001201388B7100120138B4710012013823E7
:1011E300720012013865720012013869730012012E
:1011F30038037400120138CF7400120138E8740008
:10120300120138CFE80212013822E9021201382E06
:10121300E90212013803EA021201382AEA02120132
:101223003865EA02120138D1EA0212013805EB02ED
:101233001201383EEB0212013856EB02120138AFAD
:10124300EB02120138C8EB0212013811EC02120151
:101253003824EC021201383EEC0212013854EC023D
:1012630012013870ED0212013881EE02120138CEFC
:10127300EF02120138B3F002120138F37F001201BA
:1012830038D3B70212013807B80212013872BB0211
:10129300120138BCBC0212013886BD02120138109B
:1012A300BF02120138EBBF0212013825C00212013E
:1012B3003848C0021201388AC00212013893C002B2
:1012C300120138DDC002120138E7C002120138935F
:1012D300C10212013867C202120138BBC2021201F5
:1012E300381DC30212013870C3021201389FC302B2
:1012F300120138DEC30212013808B6011201386246
:10130300BE0112013868BE0112013823C401120163
:101313003809C80112013835DE03120138ABDE0388
:10132300120138C1DE03120138FEDE031201383622
:10133300DF03120138B3DF03120138EEDF031201BA
:101343003869E003120138A5E003120138AEE00367
:10135300120138BAE003120138D4E003120138F95C
:10136300E0031201380FE10312013838E1031201DF
:10137300389BE1031201382CC9031201383FC9031A
:1013830012013859C90312013882C903120138C541
:10139300C90312013804CA0312013842CA031201F5
:1013A30038A7CA03120138BCCA03120138C7CA03DB
:1013B300120138D4CA03120138EBCA03120138F9F7
:1013C300CA0312013804CB0312013810CB031201F4
:1013D3003823CB031201382ECB0312013851CB0330
:1013E300120138FACB031201380ACC031201382454
:1013F300CC0312013841CC031201385DCC03120136
:101403003882CC031201388CCC03120138A0CC03F0
:10141300120138BFCC0312013820CD031201382644
:10142300CD031201382CCD0312013832CD03120142
:10143300383ECD0312013871CD031201382C9D02C1
:10144300120138AE9D02120138579E021201389FD5
:101453009F02120138ADA10212013893A2021201B8
:1014630038C8A202120138EAA20212013893A30279
:1014730012013863A5021201388CA5021201380447
:10148300A60212013836A60212013843A60212013F
:10149300388EA602120138B2A60212013803A9023D
:1014A3001201380DAA0212013869AA02120138A9E1
:1014B3008E02120138BA8F021201389E9002120175
:1014C30038A89002120138CA9002120138D690024D
:1014D3001201387A9202120138A79202120138BD22
:1014E300930212013812940212013861950212011B
:1014F30038369602120138929602120138FD96028E
:101503001201383297021201387597021201383FDF
:101513009A02120138579A02120138E89A0212010C
:1015230038F69A02120138439B02120138519B028A
:10153300120138BD9B02120138389C021201388F08
:101543009C02120138B1DD02120138D3DD0212010F
:1015530038E4DF02120138A3E202120138CDE302BC
:101563001201388BE40212013877E5021201388147
:10157300FC03120138A6FC031201381CFD031201FF
:1015830038D5F801120138DEF801120138E7F80105
:10159300120138BFF90112013870FB01120138A0A2
:1015A300FB01120138CBFB01120138FBFB011201D5
:1015B3003826FC011201385AFC0112013886FC015D
:1015C300120138C9FC01120138F4FC011201383B45
:1015D300FD0112013890FD01120138D2FD01120103
:1015E300382CFE0112013857FE01120138A6FE0104
:1015F300120138D6FE0112013801FF011201382F02
:10160300FF0112013852FF01120138C18D0412018A
:1016130038ED8D041201381A8E04120138248E0419
:10162300120138348E041201383391031201384801
:101633009103120138A0910312013807920312019A
:10164300384F9203120138C59203120138F4920302
:10165300120138029303120138669303120138A46E
:101663009303120138BF93031201385794031201F5
:1016730038009503120138839503120138BC950392
:101683001201384796031201389E9603120138FD62
:1016930096031201380F970312013835970312018D
:1016A300383E97031201389D9803120138A0810434
:1016B3001201387F8204120138DB8204120138F5EB
:1016C3008204120138DBF50312013820F6031201FC
:1016D3003866F603120138F9F7031201383D8B041B
:1016E300120138588B04120138688B04120138BF79
:1016F3008B041201380B8C041201386DAD031201F7
:10170300388DAD0312013891AE03120138DDAE03FB
:10171300120138FDAE0312013850AF03120138BD78
:10172300AF0312013803B00312013867B00312018B
:101733003819B3031201389AB30312013816870418
:10174300120138468704120138768704120138964D
:101753008704120138F08704120138BCA603120172
:101763003825A70312013842A7031201388BA803B7
:1017730012013806A903120138CCAA031201381A40
:10178300AD03120138E09F031201383EA00312019A
:10179300385BA003120138ACA1031201387FA20306
:1017A3001201381BA403120138EAA50312013832CF
:1017B300A603120138CBE10312013800E203120140
:1017C3003823E203120138D4E203120138B8E303E9
:1017D30012013844E4031201384EE5031201383B89
:1017E300D10212013899D102120138B6D102120185
:1017F300383AD402120138CAD502120138C4D702CA
:1018030012013897DA02120138DFDA021201383195
:10181300DB0212013860DB02120138EEDB02120137
:10182300382FDC02120138BBDC0212013834DD022E
:10183300120138D3B90312013826BA03120138430F
:10184300BA03120138DDBA031201380DBB031201CA
:1018530038A6BC03120138EBBE031201381BBF03C9
:101863001201382FBF031201385AE803120138A2BC
:10187300E803120138BFE80312013859E9031201E2
:1018830038A7EA03120138D7EA03120138C58504E1
:101893001201383086041201384E86041201386C66
:1018A30086041201389A8604120138EB8604120169
:1018B30038F9860412013843BF0312013868BF03A5
:1018C300120138A3BF03120138AE8C041201382071
:1018D3002C001201388B2E001201384B30001201FC
:1018E30038F630001201389A3100120138333200D1
:1018F300120138623200120138C8370012013873FE
:101903003800120138E339001201384B3A00120152
:1019130038FF3A001201387F3C00120138BE3C0008
:10192300120138323D00120138913D00120138F0A6
:101933003D001201385F3E00120138523F00120190
:1019430038983F00120138DD3F0012013800400093
:10195300120138504100120138634100120138D599
:1019630041001201380C42001201383842001201C2
:10197300388B4200120138AC4200120138F04200A9
:101983001201384245001201388345001201382EF6
:1019930046001201389946001201386D890412017C
:1019A300387E8904120138568A0412013828EE035E
:1019B300120138C3F00312013800800312013822E8
:1019C300800312013858820312013807830312017E
:1019D30038B68303120138658403120138FA84038D
:1019E300120138EA8503120138478803120138A728
:1019F3008803120138837F00120138B68E04120166
:101A0300380080041201381080041201382A80043F
:101A13001201389A81041201384BEB03120138F199
:101A2300EB031201380DEE031201386C840412012A
:101A3300389984041201380485041201381B850483
:101A4300120138778504120138B48504120138B7BE
:101A53008504120138F87F00120138D1F003120116
:101A630038BEF2031201382AF30312013871F3036B
:101A73001201389CFA03120138FBFA03120138A948
:101A8300FB0312013828FC0312013882D60312012A
:101A930038B4D603120138BCD703120138E1D80396
:101AA3001201389DD9031201381A7500120138004A
:101AB30076001201384D760012013890760012013B
:101AC30038057700120138667700120138DB77009A
:101AD300120138B77800120138C279001201384375
:101AE3007A00120138EA7B00120138807C0012016F
:101AF30038F37C001201386F7D00120138867D00B7
:101B0300120138BD7E00120138177F00120138AB75
:101B13009001120138359501120138F7970112012E
:101B2300382098011201384F9801120138019901A8
:101B3300120138099B011201380A9C011201385F16
:101B4300A10112013898A1011201389FA3011201CA
:101B53003848A6011201381CA80112013854A80103
:101B630012013855AA01120138C7AC01120138A677
:101B7300AF011201383DB001120138E8B201120180
:101B83003817B3011201381AB30112013877B301C0
:101B9300120138C8B301120138CBB301120138C0A6
:101BA300B4011201380CB50112013874F3031201A8
:101BB30038C7F3031201382CF403120138F4F40389
:101BC3001201389EF503120138C8FF02120138983A
:101BD3008E04E066701008A3E066700A08A3E0664E
:101BE300700408A3E06622C3E7960809E79608098C
:101BF300E7960809E79622C3E09608A3E09608A3B0
:101C0300E09608A3E09622C008C3E096F50808A36F
:101C1300E096420808A3E096420808A3E096450828
:101C23007001D3D00822080808EAC0E0EBC0E086C0
:101C3300F0E7A4FA180986F0E7A42AFA180986F04F
:101C4300E7A42AFA180986F0E7A42AFA1986F0E726
:101C5300A4FBE5F02AFA190886F0E7A42BFBE5F0CC
:101C63003AFA190886F0E7A42BFBE5F03AFA1818BC
:101C73000986F0E7A4C5F02BFBE43AFA1908E7C597
:101C8300F0C6A426F6E5F03BFBE43AFA1886F0E743
:101C9300A4F6E5F00826F6E43B08F6E43A08F6D0A5
:101CA300E0FBD0E0FA22E4CFC0E0E4CEC0E0E4CD34
:101CB300C0E0E4CCC0E075F020C3E633F608E633B9
:101CC300F608E633F608E633F6181818EC33FCED9D
:101CD30033FDEE33FEEF33FFC3EC9709ED9709EEC7
:101CE3009709EF97191919400FFFEC97FC09ED9726
:101CF300FD09EE97FE191906D5F0BEECF709EDF7CD
:101D030009EEF709EFF7191919D0E0FCD0E0FDD07F
:101D1300E0FED0E0FF226016080808C6C313C61809
:101D2300C613C618C613C618C613C6D5E0EA227072
:101D330009080808226016181818C6C333C608C64F
:101D430033C608C633C608C633C6D5E0EA22E6273B
:101D5300F60809E637F60809E637F60809E637F61E
:101D630022E026F608A3E036F608A3E036F608A339
:101D7300E036F622E026F008A3E036F008A3E036CA
:101D8300F008A3E036F022C3E697F60809E697F6D3
:101D93000809E697F60809E697F622C3E096F008E5
:101DA300A3E096F008A3E096F008A3E096F022E003
:101DB30056F608A3E056F608A3E056F608A3E05645
:101DC300F622E056F008A3E056F008A3E056F00828
:101DD300A3E056F022E0F608A3E0F608A3E0F60835
:101DE300A3E0F622E6F008A3E6F008A3E6F008A3D2
:101DF300E6F022E0FAA3E0FBA3E0FCA3E0FD22EA85
:101E0300F0A3EBF0A3ECF0A3EDF022CAC0E0E6F000
:101E1300A308DAFAD0E0FA22CAC0E0E0A3C582CC74
:101E2300C582C583CDC583F0A3C582CCC582C583D6
:101E3300CDC583DAE6D0E0CA22C3E498F8E499F981
:101E4300121E7D8026C3E49AFAE49BFBE920E7E9AE
:101E5300121E7DE498F8E499F922C3E498F8E49912
:101E6300F9121E7DE498F8E499F9C3E49AFAE49B25
:101E7300FB22EB20E7CFE920E7E0B90010BB000825
:101E8300E88AF084F8AAF022E4FBC8FA22EB702275
:101E93007B10C833C8C933C9335007C39AC3DBF2B5
:101EA30080069A50012ADBEAC833F4C8C933F4C95F
:101EB300FA2275F008E4C833C8C933C933C99AC9CB
:101EC3009B5004C92AC93BD5F0ECFBC833F4C8E4E2
:101ED300C9FA22600D08C6A2E713C618C613C6D5F1
:101EE300E0F322600C08C6C313C618C613C6D5E0B8
:101EF300F422700422600D18C6C333C608C633C665
:101F0300D5E0F41822251810AF08F518400215196A
:101F13008008F51840021519D2AF22C0D025181039
:101F2300AF08F518500205198008F5185002051975
:101F3300D2AFD0D0222518F58210AF08F518400291
:101F430015198008F51840021519D2AF8519832297
:101F53002518F582E43519F58322E4732518C58223
:101F6300C0E0E51934FFC583C0E0E518C3958224BA
:101F7300F810AF0885831985821880088583198531
:101F83008218D2AFCEF0A3E520F0A37808E608F0DC
:101F9300A3DEFAEFF0A3E58124FAF8E608F0A3E65E
:101FA30008F0A3E608F0A30808E608F0A3E608F0A3
:101FB300A315811581D0E0FED0E0F81581158115B8
:101FC30081E8C0E0EEC0E0222518C582C0E0E51933
:101FD30034FFC583C0E0E518C3958224F910AF0828
:101FE3008583198582188008858319858218D2AF65
:101FF300CEF0A3E520F0A37808E608F0A3DEFAEF1D
:10200300F0A3E58124FBF8E608F0A3E608F0A308B3
:1020130008E608F0A3E608F0A315811581D0E0FED9
:10202300D0E0F815811581E8C0E0EEC0E022851903
:1020330083851882E0A3FEE0A3F5207808E0A3F6E9
:1020430008DFFAE0A3FFE0A3C0E0E0A3C0E0E0A361
:10205300C0E0E0A3C0E0E0A3C0E010AF08858218B1
:102063008583198008858218858319D2AFD083D0E0
:1020730082020135851983851882E0A3FEE0A3F56A
:10208300207808E0A3F608DFFAE0A3FFE0A3C0E0AE
:10209300E0A3C0E0E0A3C0E0E0A3C0E010AF088588
:1020A30082188583198008858218858319D2AFD059
:1020B30083D08222C0D02518C582C0E0E51934FF41
:1020C300C583C0E0E518C3958224F310AF08858368
:1020D300198582188008858319858218D2AFC8F0C4
:1020E300A3E9F0A3EAF0A3EBF0A37908E709F0A3CF
:1020F300D8FAECF0A3EDF0A3EEF0A3EFF0A3D0E059
:10210300F0A3D0E0F0A3D0E0F0A3E520F0A3E5F046
:10211300F0A322851983851882E0C0E0A3E0F9A328
:10212300E0FAA3E0FBA37808E0F608A3DFFAE0FCFB
:10213300A3E0FDA3E0FEA3E0FFA3E0C0E0A3E0C0B3
:10214300E0A3E0F5D0A3E0F520A3E0A3F5F010AF02
:10215300088583198582188008858319858218D29A
:10216300AFD082D083D0E0F8D0E03274048006741C
:102173000280027401C0E0F404121F38D0E0121E82
:102183000E227404800474028000CCC0E0EDC0E031
:10219300E518C39CCCAD1950011D10AF068C188DEA
:1021A3001980068C188D19D2AF121E1BD0E0FDD0FA
:1021B300E0FC22D083D082E9C0E0E493A3C386F09D
:1021C300C5F095F0F908E493A386F0C5F095F07097
:1021D3000BE493A3C3994005E9048002A3E475F0DB
:1021E30002A42582F582E5F03583F583D0E0F9E496
:1021F30093A3C0E0E493C0E022D083D082ECC0E09C
:10220300EDC0E0E493A3FCE493A3FDED4C600D1259
:102213002248EC24FFFCED34FFFD80EFE493A3FCA4
:10222300E493A3FDED4C600D122287EC24FFFCED3B
:1022330034FFFD80EFD0E0FDD0E0FCE493A3C0E0E9
:10224300E493C0E022C0E0C3E4939608740193963C
:1022530018400FE4936670080874019366187000C1
:102263007019A3A3C3E49396087401939618A3A3C8
:10227300400DD0E0D0E0D0E0022238A3A3A3A3A373
:10228300A3D0E022C0E0C0F088F0E49366700808B1
:1022930074019366187000A8F0A3A3700BD0F0D05C
:0F22A300E0D0E0D0E0022238A3A3D0F0D0E022B8
:1022B40074F5121FCBEAFEEBFFEE2434F8EF340082
:1022C400F988088909EE24351223ECF8EE24371234
:1022D40023ECF50AEC850AF0A4FCAAF0850AF0EDDB
:1022E400A42AFDE82CF8E43DF97A257B00121E7D32
:1022F400EA850882850983F05407F87401B800025E
:102304008004C333D8FCC0E0E0131313541FF8EE69
:1023140028F8EF3400F9E8245DF582E93400F58308
:10232400D0E0F8E0586008850882850983801DEEB6
:1023340024361223ECF5F0EA84A8F0EE28F8EF3402
:1023440000F9E82438F582E93400F583E0F97F04E4
:1023540002207774F5121FCBEAFEEBFFEE24341251
:1023640023ECC0E0EE2435F582EF3400F583D0E0B1
:10237400F08E828F83A3A3A3A3A3E0FAA3E0FB8E32
:10238400828F83A3A3A3A3A3A3A3E0FCA3E0FDECF8
:10239400C39AF50AED9BF50BEE2480F508EF3400A3
:1023A400F509850882F583E06401702BEE2481F53C
:1023B40082EF3400F5831221891223F57402121F6F
:1023C4001EE960137C3F7D05EEFAEFFB1211A9852F
:1023D4000882850983E4F0AC0AAD0BEEFAEFFB1238
:1023E40022B4122BAE022352F582EF3400F583E0BF
:1023F40022C082C083851882851983E0F8A3E0F99E
:10240400C3EA9CEB9D5012C3EC98ED994019C3EAC2
:1024140098EB99501279018010C3EA98EB9940F532
:10242400C3EC98ED9950EE7900D083D08222EAC3B0
:102434009CFAEB9DFB2200008521878522C622C0E1
:10244400E074EF1220B7759B00906182E0A2E64031
:1024540003022504E591A2E640030225047591BF19
:10246400900404E0640570081213471213538003A8
:1024740012134D7521001213BFE9900405F0790081
:102484001213B31211197A017B00900403E0F912BC
:102494001683907803E06442600302254D9005A101
:1024A400E014F0600302254DC2AF1224B100782A73
:1024B400D0E0F618D0E0F6E59F5407F97005909047
:1024C4000C8003908FE87808121DD8E9C4C0E07826
:1024D40029E65508F50808E65509F509740B780846
:1024E400121EE6D0E02508F8906270E0A2E740F8FA
:1024F400E8C333906272F0906270E0D2E0F08049F9
:10250400E0A2E55024E591A2E5501E7591DF900408
:1025140004E0640D7013900426E004F06428700253
:10252400E4F07A00E0F9121431906181E0A2E35002
:1025340009E5E9A2E3500375E9F7A3E0A2E750092E
:10254400E591A2E7500375917F7F04022116C0E054
:10255400C0D0C082C083906183E0A2E05009E5BF8F
:10256400A2E0500375BFFEE0A2E15009E5BFA2E17D
:10257400500375BFFDE0A2E25009E5BFA2E250039B
:1025840075BFFBE0A2E35009E5BFA2E3500375BFAA
:10259400F7E0A2E45009E5BFA2E4500375BFEFE001
:1025A400A2E55009E5BFA2E5500375BFDFE0A2E64E
:1025B4005009E5BFA2E6500375BFBFD083D082D0D7
:1025C400D0D0E032C0E074F21220B7E5A7A2E45004
:1025D4000FE5A1A2E4500953A7EF75A1EF12261C41
:1025E400E5A7A2E5500CE5A1A2E5500653A7DF75C7
:1025F400A1DFE5A7A2E15009E5A1A2E1500375A17D
:10260400FDE5A7A2E2500CE5A1A2E2500653A7FB08
:1026140075A1FB7F0102211674F8121FCB752101ED
:10262400900404E0640670077A007B0012132FA262
:10263400AFE433FED2AF90040AE0640170187A204C
:102644007B00900403E0F912171F7A207B009004AA
:1026540003E0F9121689906182E0D2E6F09005A0B9
:10266400E0602185C6228016900409E064017008A8
:10267400E5C654F84405F5C653BEFC12243C740167
:10268400652160E4EEA2E092AF7F010220770000B2
:102694008E238F2485822885832785188285198334
:1026A400E0CEA3E0CF852882852783EBC9EAC8ED75
:1026B400CBECCA75F010C3E833C8E933C9EA33CAAE
:1026C400EB33CBC3EA9EF526EB9FF525B35004AB61
:1026D40025AA26EC33CCED33CDD5F0DAAE23AF24E6
:1026E4002274E9121FCB74FA121F08EAFEEBFF8C66
:1026F400088D09900404E024F7C394055006908FD4
:102704009402280C1212AB8A0A8B0BEA450B700355
:102714000228091213658A0C8B0D121365EA650CE5
:102724007003EB650D60ECEEFCEFFD8518828519F6
:1027340083AA82AB8312136B850A82850B83A3A3BE
:10274400780C121DD8908FF8780C121DB28518825F
:102754008519837814121DD8908FF87814121DB23D
:10276400780C7914121BEA501F780C7914121D8A04
:10277400908F74780C121C0A4047850C10850D113B
:10278400850E12850F138041851410851511851649
:10279400128517137810790C121D8A908F74781093
:1027A400121C0A501C751000751100751200751367
:1027B4000178107914121D8A7810790C121D518039
:1027C40008908F947810121DD874097810121D3255
:1027D400908FCC780C121DD87810790C121CA9900B
:1027E4000404E06408600AE064066005E0640570BF
:1027F4001C908F9C7810121C0A5012908F707810C5
:10280400121D648008908FE47810121DD885088208
:102814008509837810121DE77406121F1E7F1002AB
:10282400207774F7121FCB12137D90059EE064018C
:102834007010906245E4F0A3F053F4F343FE0C539C
:1028440090F312131DE5C654804449F5C6E59E5421
:102854007F644970F8906185740FF090059CE0F4F2
:102864007002A3E0602C75080175090090059CE0D6
:102874007808121EF5E508F4FAA3E0600814600A6B
:1028840014600C800DEA52808008EA52908003EABA
:1028940052A079007F0202207774F7121FCBE9FE61
:1028A400EAFF74016E700C7A807B00900403E0F9F7
:1028B400121683902C18E493F46008E493F9121030
:1028C400FB800953C680E59E547F70FA121323904F
:1028D400059EE06401700312113190059CE0F470D0
:1028E40002A3E0602A75080175090090059CE07850
:1028F40008121EF5AA08A3E0600814600A14600C0C
:10290400800DEA42808008EA42908003EA42A012E5
:1029140012AB8A088B09A808A909E8496017E5E100
:1029240070FCE82414F582E93400F583E0F874FFC0
:1029340068600288E174016F700A7A01900403E010
:10294400F91216E902289874F1121FCB8A088B0930
:102954008C0A8D0B740F121F53780C121DD8908F94
:10296400F87808121DB2908FF8780C121DB278080E
:10297400790C121BEA50157808790C121D8A908F75
:10298400747808121C0A401579018013780C7908B0
:10299400121D8A908F74780C121C0A40EB79007F08
:1029A4000802207774ED121FCB8A088B098C0A8DDC
:1029B4000B7413121F53780C121DD8908FF87808DB
:1029C400121DB2908FF8780C121DB2780C7908128F
:1029D4001BEA40117808790C121D8AAA08AB09ACCD
:1029E4000AAD0B8022751000751100751200751365
:1029F400017810790C121D8A78107908121D51AAD9
:102A040010AB11AC12AD137F0C022077908FF878C5
:102A140008121DD88A828B837808121DC57F040290
:102A2400207774F5121FCB8C828D837808121DD801
:102A34008A828B837808121D9E122A7AC3E098F04A
:102A4400A3E099122A6C401E908FA47808121DD816
:102A54008A828B837808121D778E828F83E02420EC
:102A6400F0A3E0344EF080A4F08E828F83C3E09410
:102A740020A3E0944E22EA2404F8EB3400F9E8FEA3
:102A8400E9FF8C828D83A3A3A3A3E0F8A3E0F98ECE
:102A9400828F832274F5121FCBE9FE900556E0FA6B
:102AA400A3E0FBEEC333F8E433F974E728F582744A
:102AB4008E39F583E02AF508A3E03BF5097808127E
:102AC4002172908FDC121DF61226947402121F1EBE
:102AD4008A088B098C0A8D0B74107808121D19AAA8
:102AE40008AB097F0402207774F1121FCB8A0C8B88
:102AF4000D8C0E8D0F740F121F53E0FAA3E0FB74BC
:102B040011121F53E0F508A3E0F5097413121F53C3
:102B1400E0FEA3E0FF7808122172EA2401F508EB35
:102B24003400F509E4F50AF50B780C7908121C2930
:102B3400908F7C7808121DD8780C7908121C29AA69
:102B44000CAB0DAC0EAD0F1226947402121F1E8B2B
:102B540009EA450960047A0180027A00EC2AFCED56
:102B64003400FDECF8EDF97A717B02121E7D8808C1
:102B74008909E4F50AF50B8E828F837808121DE724
:102B8400ECF8EDF97A717B02121E7D8A088B0974C8
:102B9400057808121EF58E828F83A3A3A3A3E508EC
:102BA400F0A3E509F07F08022077C082C083E99092
:102BB4006000F0D083D08222C0E074F21220B7A269
:102BC400AFE433FED2AFE589A2E04006E589A2E195
:102BD4005003121A43758900758900C2C5751A001D
:102BE400EEF8EEA2E092AF7F01022116C0E0C0D061
:102BF400E8C0E0E9C0E0A2AFE433F8D2AFC2C775E1
:102C04001A00E8F9E8A2E092AFD0E0F9D0E0F8D0F9
:102C1400D0D0E032FFFFFFFFFFFFFFFF74F0121F71
:102C24005F8A0A8B0B8909ECFEEDFF750800850AA3
:102C34000C850B0D780C1221B600040D5B2E5E2C56
:102C44007F2C9E2CBF2CE02C012D342D552D6C2D6A
:102C54009A2DC52DE62D062E302E740165097015AA
:102C64008E828F83E0C39403500B8E828F83E09017
:102C74001176F08003750818022E847402650970B9
:102C8400138E828F83E0F8A3E0F9901177E8F0A324
:102C9400E9F08003750818022E8474016509701523
:102CA4008E828F83E0C39402500B8E828F83E090D8
:102CB400088FF08003750818022E8474016509706A
:102CC400158E828F83E0C39405500B8E828F83E030
:102CD400900890F08003750818022E847401650929
:102CE40070158E828F83E0C39402500B8E828F8383
:102CF400E0900891F08003750818022E8474106522
:102D0400097027750C10750D00780C122172EEFCF9
:102D1400EFFD7A927B0812162F7402121F1E8A0C82
:102D24008B0D850C82850D838003750818022E8413
:102D34007401650970158E828F83E0C39402500B71
:102D44008E828F83E09008A2F08003750818022E0B
:102D54008474016509700B8E828F83E090117AF080
:102D64008003750818022E84740465097022908FFC
:102D7400DC780C121DD88E828F83780C121BFA50CB
:102D84000F8E828F83121DF69008A4121E028003F8
:102D9400750818022E84E5097021120C0FE97013CE
:102DA400121947E9F50C7950121B09E9F50D1219AE
:102DB40035800B9009377401F08003750818022ED2
:102DC400847401650970158E828F83E0C394025068
:102DD4000B8E828F83E09008A3F08003750818029D
:102DE4002E847401650970158E828F83E0C3940A62
:102DF400500B8E828F83E0901179F0800375081850
:102E0400807E74016509701F8E828F83E0C39407EE
:102E140040158E828F83E0C39411500B8E828F8372
:102E2400E090117BF080597508188054740165098D
:102E34007020900936E0F50C8E828F83E09009367D
:102E4400F0E50C703B900936E064017033121935DB
:102E5400802E7508188029C3E50A9424E50B940094
:102E6400501B7402650970158E828F83E0FCA3E009
:102E7400FDAA0AAB0B120AADE9F508800375080236
:102E8400A9087F0802203174EC121F5F74DA121F44
:102E940008890D8A128B138C0A8D0B743A121F53F6
:102EA400E0F50C908F5EC082C083851882851983FB
:102EB400AC82AD83D083D0827406121E1B85188227
:102EC400851983AC82AD83AA12AB13A90D1218DB4A
:102ED400E9FEEEC3940A400302302AEEF9121917F0
:102EE400E9FF901176E064027004740180027400BA
:102EF400F5087808122176AD0CEFFCEEF9AA0AABBE
:102F04000B1219897401121F1E7C147D0079007440
:102F140012121F53AA82AB831216478A0E8B0F8597
:102F24000E08850F097412121F53AC82AD837A10F8
:102F340075F006EEA42424F9121B03E970437C10F7
:102F440079FF7412121F53AA82AB831216A7E97079
:102F5400307422121F53AC82AD837A0475F006EEEE
:102F6400A42425F9121B03E9F5087412121F53ACAB
:102F740082AD83EFA2E0E433F9AA0AAB0B120B375C
:102F8400E97406121F53AC82AD837A0C74702EF967
:102F9400121B03E9707E7406121F53AA82AB8312BC
:102FA400190B750E00E50EC394045068E50EA80EC7
:102FB4007900E875F003A4C8AAF075F000A42AFA11
:102FC40075F003E9A42AF97406121F53E58228F563
:102FD40008E58339F509850882850983E0F8A3E0CB
:102FE400F9E849602B850882850983A3A3E0F510DD
:102FF4007511007810122172850882850983E0FC1E
:10300400A3E0FDAA0AAB0B120E257402121F1EE9DF
:10301400050E8091EFA2E1500D90088EE0F9AA0A06
:10302400AB0B120E2BE97404650C700F901176E053
:1030340064027007AA0AAB0B121983790074261272
:103044001F1E7F0C02203174F2121F5F890BEAFEEF
:10305400EBFF8C088D09750A0AE50B600C146009F6
:103064001460441460640230EFEEFAEFFB12192985
:10307400E9F50AE50AC3940A5071E5084509606B4D
:10308400750C06750D00780C122172EEFCEFFDAA8A
:1030940008AB0912162F7402121F1E8A0C8B0D85A1
:1030A4000C82850D838044EEFAEFFB121923E9F5B7
:1030B4000AE50AC3940A5033E5084509602DAA08B5
:1030C400AB09A90A12191DE98021EEFAEFFB1219C6
:1030D4002FE9F50AE50AC3940A5010E5084509608A
:1030E4000AAA08AB09A90A12191DE9A90A7F06024E
:1030F400203174F2121F5F8A0C8B0DE9FE7F157468
:10310400FF650C700474FF650D702A750800E508EE
:10311400C3940A5014EEFC7A027B00A9081218F931
:10312400E960027F00050880E5EE60637A717B192F
:10313400121041805AAA0CAB0D1210238A0A8B0B71
:10314400850A08850B09E508450960417C007D0076
:10315400E5082405FAE5093400FB8508828509831E
:10316400A3A3A3A3E0F91218DBE9F50AE50AC394C3
:103174000A500EEEFC7A027B00A90A1218F9E97FC4
:1031840000EE600BAA08AB0912197180027F14EFDC
:10319400F97F0602203174EE121F5F8A0E8B0F8CAA
:1031A4000A8D0B7412121F53E0F50CA3E0F50D7594
:1031B400081574FF650E700474FF650F701E7E00A1
:1031C400EEC3940A5062AC0CAD0DAA0AAB0BEEF937
:1031D4001218FFE960037508000E80E4AA0EAB0F15
:1031E4001210238A108B11AE10AF11EE4F60367C93
:1031F400007D00EE2405FAEF3400FB8E828F83A35A
:10320400A3A3A3E0F91218DBE9F509E509C3940ABD
:103214005016AC0CAD0DAA0AAB0BA9091218FFE9A4
:103224007508008003750814A9087F0A0220317408
:10323400F7121F5FEAFEEBFF9008A8EEF0A3EFF091
:1032440090088EE0FC7D007A237B00120AADE9F53C
:103254000890088EE0F9120DA17F0102203174EE6E
:10326400121F5F74EC121F088A0A8B0B850A828571
:103274000B83A3A3E024FA700302379B24FD70039D
:1032840002361114700302335514601024FD7003C8
:103294000235B91470030236510237BEAE0AAF0BC1
:1032A4009008A8E0F8A3E0F9E84960699008A8E06C
:1032B400F8A3E0F5838882E0F8A3E0F9E8496055D3
:1032C400EE240CF582EF3400F583E0F5087808125B
:1032D4002176EE240BF582EF3400F583E0F98E823B
:1032E4008F83A3A3A3A3A3A3A3A3A3E0FCA3E0FDB1
:1032F400EE2403FAEF3400FB9008A8E0F8A3E0F50D
:10330400838882E0F8A3E0F5838882121F5D74014C
:10331400121F1E80398E828F83A3A3A3A3A3A3A30A
:10332400A3A31221899008A4121DF6120B4974025A
:10333400121F1EE9601879018E828F83A3A3A3A3B1
:10334400A3A3A3A3A3E0FAA3E0FB120B43E9023770
:10335400BEAE0AAF0B8E828F83A3E0600302356793
:103364008E828F83A3A3A3A3A3E0A2E0400302352C
:10337400677C0E7D007900851882851983AA82AB4B
:10338400831216478A088B09AA08AB098E828F8399
:10339400A3A3A3A3A3A3A3A3E0F8A3E0F9E849602C
:1033A4003D75080675090078081221728E828F8394
:1033B400A3A3A3A3A3A3A3A3E02410FCA3E034002A
:1033C400FD7402121F53AA82AB8312162F740212C9
:1033D4001F1E8A088B0985088285098380548E8282
:1033E4008F83A3A3A3E0FAA3E0FB1210238A0C8B20
:1033F4000D850C08850D09E50845096032750C0634
:10340400750D00780C122172E5082405FCE50934D9
:1034140000FD7402121F53AA82AB8312162F74028A
:10342400121F1E8A0C8B0D850C82850D838003026E
:1034340037BE8E828F83A3A3A3A3A3E0A2E250048A
:10344400D2F08002C2F0A2F0E433F87900740C12D6
:103454001F53E048F0A3E049F08E828F83A3A3A317
:10346400A3A3A3A3A3A3A3E0F8A3E0F9E8496023DB
:103474008E828F83A3A3A3A3A3A3A3A3A3A3E0F8F0
:10348400A3E0C82410F582E83400F583780C121DFB
:10349400D8800C750CFF750DFF750EFF750FFF8E30
:1034A400828F83A3A3A3A3A3A3A3A3A3A3E0F8A3AB
:1034B400E0F9E84960178E828F83A3A3A3A3A3A393
:1034C400A3A3A3A3E0F508A3E0F50980067508000B
:1034D4007509008E828F83A3A3A3A3A3A3A3A3E050
:1034E400F8A3E0F9E84960158E828F83A3A3A3A310
:1034F400A3A3A3A3E0F510A3E0F5118006751000C3
:10350400751100780C12216E78081221727810124D
:103514002172EE240CF582EF3400F5831221898E9A
:10352400828F83A3A3A3A3A3A3E0FCA3E0FD740A57
:10353400121F53AA82AB83121911740A121F1EE9B7
:10354400F5088E828F83A3A3A3E0F8A3E0F9900982
:1035540038E8F0A3E9F07A017B0090088EE0F912D4
:103564001683E99008A8E0F8A3E0F9E849604390DD
:1035740008A8E0F8A3E0F5838882A3A3E0F8A3E019
:10358400F9E849602D8E828F83A3E0FC79018E8255
:103594008F83A3A3A3E0FAA3E0FB9008A8E0F8A319
:1035A400E0F5838882A3A3E0F8A3E0F58388821280
:1035B4001F5D0237BEAE0AAF0B9008A8E0F8A3E087
:1035C400F9E84960459008A8E0F8A3E0F58388820B
:1035D400A3A3E0F8A3E0F9E849602F850A82850BEC
:1035E40083A3E0FC79028E828F83A3A3A3E0FAA3D2
:1035F400E0FB9008A8E0F8A3E0F5838882A3A3E0A9
:10360400F8A3E0F5838882121F5D0237BEAE0AAFCD
:103614000B7C007D00EE2404FAEF3400FB8E828FD5
:1036240083A3A3A3E0F91218DBE9F508E508C39422
:103634000A5017EE240AFCEF3400FD7A0475F006F4
:10364400E508A42425F9121AFDE90237BEAE0AAF33
:103654000B9008A3E06018901179E0F98E828F83B3
:10366400A3A3A3E0FAA3E0FB120B43E90237BE9045
:103674001176E0701579058E828F83A3A3A3E0FAF7
:10368400A3E0FB120B43E90237BE8E828F83A3A310
:10369400A3E0FAA3E0FB1210238A0C8B0D850C081F
:1036A400850D098E828F83A3A3A3A3A3A3A3E0A262
:1036B400E05075E5084509606C850882850983A397
:1036C400A3A3A3E060628E828F83A3A3A3A3A3A377
:1036D400A3A3A3E0F8A3E0F9E8C4540FF8790054D5
:1036E40001F8E95400F9E8A2E0403D740E121F53BA
:1036F400AC82AD83E5082405FAE5093400FB8508AE
:1037040082850983A3A3A3A3E0F91218DBE9701847
:1037140079038E828F83A3A3A3E0FAA3E0FB120BA9
:1037240043E90237BE0237BEEE2405FCEF3400FD48
:10373400850882850983A3A3A3A3E0F98E828F83DE
:10374400A3A3A3E0FAA3E0FB12197D9008A8E0F874
:10375400A3E0F9E84960639008A8E0F8A3E0F583E2
:103764008882A3A3E0F8A3E0F9E849604D7C0079DE
:10377400008E828F83A3A3A3E0FAA3E0FB9008A8A2
:10378400E0F8A3E0F5838882A3A3E0F8A3E0F5833F
:103794008882121F5D8023120C0FE9701D90093777
:1037A400E06401700B121947E9F89009377400F0CE
:1037B4007950121B09E9FE1219357414121F1E7F69
:1037C4000A02203174F3121F5F74F2121F08890970
:1037D400EAFEEBFF8C0C851882851983AC82AD83DD
:1037E4007A0E75F006E509A42420F9121B03E9708A
:1037F400727C0679FF851882851983AA82AB8312AD
:1038040016A7E9705E740C121F53E0F8A3E0F9E800
:10381400F508E50C6005EE42088004EEF4520885D4
:10382400080A750B00740C121F53E0650A7004A398
:10383400E0650B602AE508A8087900740C121F5390
:10384400E508F0A3E9F0851882851983AC82AD837D
:103854007A0E75F006E509A42420F9121AFDE97917
:103864000180027900740E121F1E7F05022031743C
:10387400F0121F5F74E6121F08890B8A0C8B0DEC83
:10388400FEEDFF740C121F53AC82AD837A0E75F0FB
:1038940006E50BA42420F9121B03E960030239D7BF
:1038A4007C0679FF740C121F53AA82AB831216A7ED
:1038B400E960030239D7851882851983AC82AD8308
:1038C4007A0C7470250BF9121B03E960030239D3D7
:1038D400750A00851882851983AA82AB8312190B95
:1038E400E50C450D703A7C0C7900851882851983A6
:1038F400AA82AB831216A7E960030239AD7C0C7D62
:10390400007900851882851983AA82AB8312164731
:103914008A088B09850882850983750A010239ADF5
:10392400851882851983AC82AD83AA0CAB0D12195C
:10393400058A0E8B0F850E08850F09E50845097069
:1039440036EE4F6021851882851983AC82AD837A67
:10395400007B001219058A0E8B0FA80EA90F880888
:103964008909E84970047900806B85088285098398
:10397400E50CF0A3E50DF0850882850983A3A3E097
:10398400F87900EE687002EF69601EEE85088285A2
:103994000983A3A3F0EE4F700D8508828509837413
:1039A40000F0A37400F0750A01E50A60228518820C
:1039B400851983AA82AB8312190B85188285198312
:1039C400AC82AD837A0C7470250BF9121AFDE97977
:1039D4000180027900741A121F1E7F0802203174BC
:1039E400F7121F5FEAFEEBFF7B00EBC39404504E1B
:1039F400EBF87900E875F003A4C8AAF075F000A408
:103A04002AFA75F003E9A42AF9EC28F582ED39F5D0
:103A140083E06E7003A3E06F7021EBF87900E87522
:103A2400F003A4C8AAF075F000A42AFA75F003E91B
:103A3400A42AF9EC28FAED39FB80070B80AC7A0054
:103A44007B007F0102203174F7121F5F7F00EFC3F8
:103A540094044003023AFAEFF87900E875F003A4FD
:103A6400C8ACF075F000A42CFC75F003E9A42CF9A3
:103A7400EA28F582EB39F583E0F4FCA3E0F4FDEFEA
:103A8400F87900E875F003A4C8AEF075F000A42E30
:103A9400FE75F003E9A42EF9EA28F582EB39F583E3
:103AA400ECF0A3EDF0EFF87900E875F003A4C8ACEE
:103AB400F075F000A42CFC75F003E9A42CF9EA28B5
:103AC400F582EB39F583A3A3E0F4C0E0EFF87900C5
:103AD400E875F003A4C8ACF075F000A42CFC75F0F4
:103AE40003E9A42CF9EA28F582EB39F583A3A3D0E2
:103AF400E0F00F023A527F0102203174EA121F5F94
:103B040074F4121F08EAFEEBFF8C108D117422125C
:103B14001F53E0F50EA3E0F50F7424121F53E0F5D4
:103B24000CA3E0F50D7426121F53E0F50AA3E0F58B
:103B34000BEE4F7005790A023C75EEFAEFFB121991
:103B440029E9F508E508C3940A400612193BE9F58A
:103B540008E508C3940A4003023C73EEFCEFFD7AC7
:103B64000E75F006E508A42420F9121AFDE9F8E51B
:103B74001045116013AC10AD117A1B75F006E50801
:103B8400A42421F9121AFDE9E50E450F6013AC0EC9
:103B9400AD0F7A1B75F006E508A42422F9121AFD6C
:103BA400E9E50C450D6013AC0CAD0D7A1075F0060B
:103BB400E508A42423F9121AFDE9E50A450B602D52
:103BC400AC0AAD0B7A1075F006E508A42424F912AA
:103BD4001AFDE9F5097428121F53AC82AD837A04E7
:103BE40075F006E508A42425F9121AFDE97C0C7D7C
:103BF4000079FF851882851983AA82AB8312164740
:103C04008A128B13851214851315851882851983DE
:103C1400AC82AD837A0C74702508F9121AFDE9F5AB
:103C24000975120E7513007812122172EEFCEFFD65
:103C3400E508A8087900E875F00EA4C8AAF075F0A4
:103C440000A42AFA75F00EE9A42AF974AA28FA74D1
:103C54000839FB12162F7402121F1E8A128B13A826
:103C640012A913900936E0600312198F121977A96B
:103C740008740C121F1E7F0E02203174F7121F5F8E
:103C840074F2121F08E9FE851882851983AC82AD8F
:103C9400837A0E75F006A42420F9121B03E9700E32
:103CA400740C121F53E0F8A3E0F9E8F980027900DC
:103CB400740E121F1E7F0102203174F4121F5F74F0
:103CC400F2121F088909EAFEEBFFE509C3940A50C2
:103CD40004EE4F70047902804B851882851983ACF9
:103CE40082AD837A0E75F006E509A42420F9121B2F
:103CF40003E9F508E508702A750A06750B00780AC9
:103D04001221727402121F53AC82AD83EEFAEFFBE0
:103D140012162F7402121F1E8A0A8B0B850A8285C3
:103D24000B83A908740E121F1E7F0402203174F441
:103D3400121F5FEAFEEBFF750800E508C3940A5002
:103D440045750A06750B00780A122172EEFCEFFD28
:103D5400E508A8087900E875F00EA4C8AAF075F083
:103D640000A42AFA75F00EE9A42AF974B028FA74AA
:103D74000839FB1216417402121F1EE96004A908D7
:103D84008006050880B4790A7F0402203174F41295
:103D94001F5FEAFEEBFF750800E508C3940A50456F
:103DA400750A06750B00780A122172EEFCEFFDE528
:103DB40008A8087900E875F00EA4C8AAF075F00008
:103DC400A42AFA75F00EE9A42AF974AA28FA740848
:103DD40039FB1216417402121F1EE96004A90880FF
:103DE40006050880B4790A7F0402203174F7121F93
:103DF4005F74F0121F08EAFEEBFF750800E508C3C4
:103E0400940A504B851882851983AC82AD837A104D
:103E140075F006E508A42423F9121B03E9702C7C31
:103E24001079FF851882851983AA82AB831216A79D
:103E3400E97018EEFCEFFD851882851983AA82AB20
:103E440083120B19E97004A9088006050880AE796D
:103E54000A7410121F1E7F0102203174F4121F5FB6
:103E6400750800E508C3940A4003023F41E508A829
:103E7400087900E875F00EA4C8AAF075F000A42A29
:103E8400FA75F00EE9A42AF974AA28FC740839FD1D
:103E94007A0E75F006E508A42420F9121B03E970D4
:103EA40003023F3C7C067D0079FFE508AA087B00FD
:103EB400EA75F00EA4CAA8F075F000A428F875F00D
:103EC4000EEBA428FB74AA2AFA74083BFB121647CB
:103ED4008A0A8B0BAE0AAF0B7C067D0079FFE508DE
:103EE400AA087B00EA75F00EA4CAA8F075F000A435
:103EF40028F875F00EEBA428FB74B02AFA74083B7A
:103F0400FB1216478A0A8B0BAC0AAD0BE508A8080E
:103F14007900E875F00EA4C8AAF075F000A42AFA96
:103F240075F00EE9A42AF974B628F582740839F5F7
:103F3400837400F0A37400F00508023E679009360C
:103F4400E0600312198F1219777F0402203174F78D
:103F5400121F5F7E00EEC3940A50327C0679FFEE96
:103F6400FA7B00EA75F00EA4CAA8F075F000A42844
:103F7400F875F00EEBA428FB74AA2AFA74083BFB2C
:103F84001216A7E96004EEF980050E80C8790A7F4D
:103F94000102203174F7121F5F7E007F00EFC3948B
:103FA4000A502F7C0679FFEFFA7B00EA75F00EA425
:103FB400CAA8F075F000A428F875F00EEBA428FB4D
:103FC40074AA2AFA74083BFB1216A7E970010E0FB3
:103FD40080CBEEF97F0102203174F7121F5F7E005F
:103FE4007F00EFC3940A500DEE700AEFF912194DD9
:103FF400E9FE0F80EDEEF97F0102203174EE121F0D
:104004005F74CB121F08E9FE7427121F53AC82ADF4
:10401400837A0E75F006EEA42420F9121B03E960DE
:10402400030241417C0679FF7427121F53AA82AB15
:10403400831216A7E960030241417C0E7D0079FFDB
:104044007427121F53AA82AB831216478A0A8B0B5A
:10405400850A0E850B0F7C1B7D0079FF740C121FE3
:1040640053AA82AB831216478A0A8B0B850A0C85E6
:104074000B0D7C0C7D0079FF851882851983AA823B
:10408400AB831216478A108B1185100A85110B74A5
:1040940027121F53AC82AD837A0E75F006EEA4246A
:1040A40020F9121AFDE9F508740C121F53AC82AD05
:1040B400837A1B75F006EEA42421F9121AFDE94255
:1040C40008740C121F53AC82AD837A1B75F006EE94
:1040D400A42422F9121AFDE94208740C121F53ACED
:1040E40082AD837A1075F006EEA42423F9121AFD2A
:1040F400E94208740C121F53AC82AD837A1075F038
:1041040006EEA42424F9121AFDE94208740C121FC5
:1041140053AC82AD837A0475F006EEA42425F9121B
:104124001AFDE94208851882851983AC82AD837A29
:104134000C74702EF9121AFDE94208800375080008
:10414400A9087435121F1E7F0A02203174F7121F4A
:104154005FE9FE90088EF01219357F010220317458
:10416400F2121F5F890A8A088B09E5085400F8E5F2
:10417400095480F9E849603390088EE0F912166B0F
:104184008A0C8B0DA80CA90DE8FEE9FFE849600F25
:10419400EEFAEFFB12195FEEFAEFFB121659E9E59E
:1041A400086400FAE5096480FB8021E508A2E05078
:1041B40017900938E0FAA3E0FB121995E5086401A9
:1041C400FAE5096400FB80047A007B007F06022084
:1041D4003174F7121F5FEAFEEBFF8E828F83E024B7
:1041E40050601014601624E17019EEFAEFFB1218F7
:1041F400F38010EEFAEFFB1219658007EEFAEFFB7D
:1042040012196B7F0102203174F7121F5FEAFEEB73
:10421400FF8E828F83A3A3A3A3E0641E7011790091
:104224008E828F83A3A3E0FAA3E0FB1218E1E97F57
:104234000102203174F6121F5FEAFEEBFF8E828FBB
:1042440083A3A3A3A3E0703A8E088F09850882850F
:104254000983A3A3A3A3A3A3A31221898508828509
:104264000983A3A3A3A3A3E0FCA3E0FD850882859F
:104274000983A3A3E0FAA3E0FB1218E77402121F58
:104284001EE97F0202203174F7121F5FEAFEEBFF82
:1042940090088EE0F98E828F83A3E0FAA3E0FB12EC
:1042A4000E2BE97F01022031C082C08374FF121FEC
:1042B40008121941E9C39402400B851882851983B9
:1042C4007402F08009851882851983740AF08518B0
:1042D40082851983AC82AD837A017905120C27E9B2
:1042E4007401121F1ED083D08202013574F2121F92
:1042F4005F74E8121F08EAFEEBFF890A8C088D0937
:104304007C187D007900851882851983AA82AB8385
:104314001216478A0C8B0DAC0CAD0D8518828519CD
:1043240083EEF0A3EFF0900890E0C0E07402121F57
:1043340053D0E0F0900891E0C0E07403121F53D012
:10434400E0F090117BE0C0E07417121F53D0E0F04E
:104354007415121F53E054FEF8A3E054FFF99011B2
:104364007AE0A2E0E433FA7B00E84AF8E94BF97416
:1043740015121F53E8F0A3E9F090117AE0A2E1507E
:1043840004D2F08002C2F07415121F53E054FDFAF7
:10439400A3E054FFFBA2F0E433F87900C333F8E957
:1043A40033F9EA48F8EB49F97415121F53E8F0A3FE
:1043B400E9F090117AE0A2E35004D2F08002C2F056
:1043C4007415121F53E054F7FAA3E054FFFBA2F054
:1043D400E433F50C750D007403780C121EF5EA45F0
:1043E4000CF8EB450DF97415121F53E8F0A3E9F02E
:1043F40090117AE0A2E45004D2F08002C2F0741565
:10440400121F53E054EFFAA3E054FFFBA2F0E4338D
:10441400F50C750D007404780C121EF5EA450CF8C1
:10442400EB450DF97415121F53E8F0A3E9F0901150
:104434007AE0A2E55004D2F08002C2F07415121F93
:1044440053E054DFFAA3E054FFFBA2F0E433F50C8D
:10445400750D007405780C121EF5EA450CF8EB4551
:104464000DF97415121F53E8F0A3E9F090117AE0E6
:10447400A2E25004D2F08002C2F07415121F53E07D
:1044840054FBFAA3E054FFFBA2F0E433F50C750DE2
:10449400007402780C121EF5EA450CF8EB450DF990
:1044A4007415121F53E8F0A3E9F0900891E0602A14
:1044B400750C10750D00780C1221727C927D0874B5
:1044C40006121F53AA82AB8312162F7402121F1EE8
:1044D4008A0C8B0D850C82850D839008A2E06012F6
:1044E400E50A600E7415121F53E04402F0A3E04481
:1044F40000F09008A2E0600678017900800478005A
:1045040079007414121F53E048F090088FE060069D
:10451400780479008004780079007414121F53E041
:1045240048F0AC08AD09851882851983AA82AB834B
:10453400120B3DE97418121F1E7F0602203174F716
:10454400121F5FEAFEEBFF7508009008A2E0600608
:1045540078017900800478007900E8420890088F97
:10456400E0600678047900800478007900E8420865
:10457400A908EEFAEFFB120BF7E97F010220317470
:10458400EE121F5F74E5121F088A0C8B0DE9FF8C75
:10459400088D09742D121F53E0F50A74086509701B
:1045A4000A75F006EFA42422FE800875F006EFA435
:1045B4002421FE7C1B7D007900851882851983AA3D
:1045C40082AB831216478A108B1185100E85110F4A
:1045D400851882851983AC82AD837A1BEEF9121B90
:1045E40003E9703C741A121F53E0C39407403174FA
:1045F4001A121F53E0C394115026E50AF50B780BE9
:104604001221767401121F53AC82AD83E508A2E037
:10461400E433F9AA0CAB0D120B4F7401121F1EE9FF
:10462400741B121F1E7F0A02203174F7121F5F12BF
:104634000E9DE97E00EEC3940A50557C0679FFEE88
:10464400FA7B00EA75F00EA4CAA8F075F000A4285D
:10465400F875F00EEBA428FB74AA2AFA74083BFB45
:104664001216A7E97027EEF87900E875F00EA4C8D1
:10467400AAF075F000A42AFA75F00EE9A42AF974D8
:10468400AA28FA740839FB7900120EA3E90E80A552
:104694007F0102203174F4121F5F74FB121F088A19
:1046A400088B097403121F5385820A85830B780AC9
:1046B400122172750A02750B00780A122172750AAA
:1046C40074750B90780A1221727CFF7DFF7A017B4E
:1046D40000120CF37406121F1E8A0A8B0BAE0AAF6B
:1046E4000BEE4F70030247A3E4F50AF50B780A12A8
:1046F40021727404121F5385820A85830B780A126F
:1047040021727404121F5385820A85830B780A125E
:1047140021727409121F531221897902EEFCEFFDF4
:10472400AA08AB09120E197408121F1EE9704385FA
:104734001882851983E0FA7B007401121F53E0F894
:104744007900E4C8F9EA28F50AEB39F50BE50A45DE
:104754000B601F780A1221728E828F83A3A3A3A3F6
:10476400E0FCA3E0FDAA08AB091218E77402121FCB
:104774001EE9E4F50AF50B780A1221727405121F7A
:10478400531221897CFF7DFFEEFAEFFB120CFF74BC
:1047940004121F1E8A0A8B0BAE0AAF0B0246E57485
:1047A40005121F1E7F04022031C082C083E9900BD2
:1047B40033F0024A3174F7121F5FE9900322F07C50
:1047C4005A7D037AFF7BFF120E3190032374FFF0AE
:1047D400A3F0A3E4F0A3F07905120DB9900322E04D
:1047E400F9120CDB7A4F7B0E12101102573F74F44E
:1047F400121F5F8A088B09EB54806030900322E01B
:10480400F912166B8A0A8B0BAE0AAF0BEE4F6013CC
:104814008E828F83E064B07003120DD1EEFAEFFB49
:10482400121659AA08E5096480FB80047A007B000B
:10483400024A0074F2121F5F74FC121F08EAFEEBB6
:10484400FF7412121F53125C26EE4F70030248DAF3
:104854007402121F53EEF0A3EF124C3BECF0A3EDE5
:10486400124C3BAA82AB83120CD5E9F50A706AE5B7
:1048740008450960648E828F83125C0CEE4F60568B
:104884007A067B001216D18A0C8B0DA80CA90DE8B0
:10489400497005750A13804188828983E41248E7C8
:1048A400EEF0A3EF125C37E508F0A3E509F09003FE
:1048B4002812496E90032870051256E9801B12567F
:1048C400D78003EAFCEBFD8C828D8312496E70F372
:1048D4008C828D8380E3750A02A90A7404121F1E58
:1048E400025E26F0A3125BDDA32274F2121F5F891D
:1048F4000AE975F017A4FEAFF0900327E4F09003E3
:104904002512496E600A1216D7900325E4F0A3F02D
:10491400EEFAEFFB1216D18A088B09EA4509602FDB
:10492400EEFCEFFD7900121647900325E508F0A38D
:10493400E509F07B008008124958E4F0A3F00BEB82
:10494400C3950A40F2E50A900327F07900800279C2
:1049540013025E26EB75F017A4F8A9F0900325E086
:1049640028FAA3E0398A82F5832212537BEA4B2288
:1049740074F4121F5F740C121F53125C01FEE9FFE2
:10498400750800750900800CE5082401F508E5099F
:104994003400F509C3E5089CE5099D503285080AF1
:1049A40085090B7403780A121EF5EA250AF8EB351B
:1049B4000BF988828983A3A3A3A3A3A31257BEEEF2
:1049C400650A7003EF650B70BFE8FAE9FB80047AAF
:1049D400007B00802774F4121F5F7900EAA2E05084
:1049E4001B75082E75098F78081221727C047D00CE
:1049F4007A357B0B120DB37402121F1E7F04022042
:104A040031C082C083900328124A38601C8882898E
:104A140083A3A3E06A7003A3E06B8882898370E8B0
:104A2400A3A3A3A312537780047A007B00D083D07E
:104A340082020135125F0CE8492274EE121F5F7482
:104A4400FC121F08EAFEEBFF851882851983E4F047
:104A5400A3F0EE24021256C9EE2405125BE4EE2400
:104A640004F50EEF124FF0E024FE603924FC60469A
:104A740024FE605224FE605E24FE7003024B512427
:104A8400FE7003024BB524FE7003024BC424FE7077
:104A940003024BD324FC7003024BE224FE70030296
:104AA4004BF1024C2E9003417417F0A3E4124C43D3
:104AB40012096F024C2E851882851983AC82AD834E
:104AC400120DD7024BFE851882851983AC82AD8303
:104AD400120DDD024BFE850C08850D097402121FB0
:104AE40053AC82AD83850882850983125377120CF7
:104AF400F98A0C8B0DAC0CAD0DEC4D603BE4F50C60
:104B0400F50D780C122172750C41750D03780C1299
:104B14002172750C42750D03780C122172740812FF
:104B24001F53122189126088121F1EE9F50C700BA5
:104B340012536D120987800F750C0185088285094F
:104B440083124C311256E9850C08024C017402128E
:104B54001F53AC82AD83850C82850D831251426054
:104B64003C850C82850D83A3A312218975104175A0
:104B74001103781012217275104275110378101206
:104B840021727408121F53122189126088121F1E89
:104B9400E9F509700B12536D12098D800F75090127
:104BA400850C82850D83124C311256E985090880E3
:104BB4004C851882851983AC82AD83120DE3803A4B
:104BC400851882851983AC82AD83120DE9802B850B
:104BD4001882851983AC82AD83120DEF801C851871
:104BE40082851983AC82AD83120DF5800D85188200
:104BF400851983AC82AD83120DFBE9F508E50860E5
:104C0400298E828F83A3E06414601F850E82850F32
:104C140083E0900341124C3B125F0890034212560A
:104C2400E9E508A3124C431209690255D8125F0C36
:104C340085188285198322F085188285198322F0CC
:104C44007C417D03850A82850B8312537B2274EE9B
:104C5400121F5F74FC121F088A0A8B0B8C0E8D0FB7
:104C6400EA2405F508EB3400F5097C157D0079008C
:104C74007A417B03121647E5082402F50CE5091274
:104C84005BE78518828519838582108583117810E6
:104C9400122172850882850983A3A3A3A312513923
:104CA400122172E5082405F510E5093400F51178A0
:104CB40010122172850C82850D8312548E120CF30E
:104CC4007406121F1E8A108B11AE10AF11E50A2450
:104CD40002F50AE50B1256CCEE4F7003024E10801B
:104CE400177402121F5312537788828983EAF0A340
:104CF400EBF0900341E004F0900341E0C3940540DD
:104D040003024E10E4F510F511781012217275109B
:104D14002A751103781012217275102B75110378FE
:104D2400101221727406121F531221897910EEFC9D
:104D3400EFFD12608A121F1EE9705E8508828509E4
:104D440083A3A3A3A3A3A3A3E0F890032AE068701A
:104D5400481251391221727C2B7D03E5082408FA8C
:104D6400E5093400FB1216417402121F1EE9602982
:104D74008E828F83A3A3A3A3125377900341E0F5FC
:104D84001074027810121EF574422510F582740313
:104D94003511F583EAF0A3EBF07402121F538582F8
:104DA4001085831178101221727402121F5312217C
:104DB40089850C82850D8312539D121F1E8A108BC8
:104DC40011AE10AF11900341E0F51075110074029B
:104DD4007810121EF574412510F874033511F98802
:104DE400828983A312496E7003024CDCE824030811
:104DF4000808E93400F9EE4F6003024CE588828923
:104E04008374FFF0A3F0900341E004F0900341E0C9
:104E1400600A12536D12097B7900800B8508828524
:104E240009831256E0790A0255D874EA121F5F7496
:104E3400FE121F088C128D13EA2405F50CEB126088
:104E440072125C10750800750900EA2402F510EB73
:104E54003400F51185188285198385820A85830BB0
:104E6400780A122172850C82850D83A3A3A3A31251
:104E74005006122172E50C2405F50AE50D1256CCF4
:104E8400780A122172850C82850D8312500A120C45
:104E9400F37406121F1E8A0A8B0BEA450B70030279
:104EA4004FABEA2404F50EEB124FF0125C108A8229
:104EB4008B83A3A3A3E0F985108285118312538108
:104EC4006003024FABE4F514F515781412217275E2
:104ED400142A751503781412217275142B75150391
:104EE40078141221727406121F531221897913AC9B
:104EF4000AAD0B851082851183126090121F1EE982
:104F0400F5096003024FAB90032AE0F8E508700945
:104F1400E02402900342F08014900342E0FCE82471
:104F240002FAE43400FBEA6C7001EB707E850882BF
:104F3400AA821251309414125128506B850E828526
:104F44000F83E0C0E074432A124FE7D0E0F0050875
:104F5400850E82850F83A3E0C0E085080A7443258B
:104F64000A124FE7D0E0F0050890032A1250061207
:104F740021727C2B7D0385080A7443250A124FFA9B
:104F8400121F1E90032AE02508F50874FF6E7003B3
:104F940074FF6F6012EE24010EEF3400FFE508C3C6
:104FA40094145003024E58E508601312538B851075
:104FB4008285118312537712098179008014E509DF
:104FC400700375090A851282851383EEF0A3EFF04E
:104FD400A9097402121F1E7F0E02203185080C7469
:104FE40043250CF58274033400F583223400F50F55
:104FF400850E82F58322FA74033400FB12162F7493
:105004000222125C4622A3A3125010221256D7FD8C
:10501400EEFAEFFB2274EE121F5F74FE121F088C6F
:105024000E8D0FEA2405F50CEB125BE7750B00906F
:105034000341E4F0F50AEA2402F508EB3400F5092B
:105044008044900341E0FA90032AE0F8125130942E
:1050540017125128400D900341E0F87416C398903C
:10506400032AF01251391221727C2B7D0374422AD7
:10507400FA7403124FFD121F1E90032AE0F89003E6
:1050840041E028F0050AE50C2416F582E50D124FDF
:10509400EBE0F8E50AC3985074900341E0C394161A
:1050A400506BE50AC333F8E433F9E50C28FEE50D4B
:1050B40039FF851882851983AC82AD838E828F83F4
:1050C4001251427008750B011256DC8050E4F51041
:1050D400F511781012217275102A751103781012C7
:1050E400217275102B751103781012217274061237
:1050F4001F531221897916850882850983126090CD
:10510400121F1EE9F50B700302504680BB7C417DE3
:1051140003850882850983125377120993A90B74B6
:10512400020255DAE99400C365D03322EA28F8E490
:105134003400F9E822E0F5107511007810221255B8
:10514400CF8A108B11AC10AD11EC4D2274EA121FF2
:105154005F74FC121F088A0C8B0D8C128D13EA24C9
:1051640005F50AEB1256CC750800750900E50A240A
:1051740002F510E50B3400F5117402121F538582F9
:105184000E85830F780E122172850A82850B83A304
:10519400A3A3A3125BEC122172E50A2405F50EE524
:1051A4000B3400F50F780E1221728510828511835D
:1051B4001256D2125371120CF37406121F1E8A0E69
:1051C4008B0FAE0EAF0FE50C2402F50EE50D340087
:1051D400F50F80388882898374FFF00508124FE048
:1051E40074FFF0050890032AE0F50C750D00780CA7
:1051F4001221727C2B7D0385080C7443250C124FFD
:10520400FA121F1E90032AE02508F508EE4F6027C6
:105214008E828F83A3A3A3E0F9850E82850F831268
:105224005381EE2404125BE4E96027850C82850D2A
:10523400831253631256E9E508700302534912536B
:105244008B850E82850F8312537712099979000298
:10525400535EE4F514F515781412217275142A7549
:105264001503781412217275142B75150378141212
:1052740021727408121F531221897911EEFCEFFD7B
:10528400850E82850F83126090121F1EE9F5097046
:105294009A850882AA82EA90032A7009E02404907D
:1052A4000342F08025E0F8900342E0F514E824047A
:1052B400FCE43400FDEC65147001ED708112513092
:1052C40094121251284003025242850C82850D83A8
:1052D400E0C0E074432A124FE7D0E0F00508850CE3
:1052E40082850D83A3E0C0E0124FE0D0E01253A604
:1052F40085820C85830D780C1221727404121F535D
:1053040012218985108285118312539D121F1E8AD2
:105314000C8B0DAE0CAF0D85080C7443250CF87482
:10532400033400F9EE4F70030251D88518828519B1
:1053340083E0888289831253A6A3E0C0E0124FE081
:10534400D0E00251E6E509700375090A850A8285F1
:105354000B831253631256E9A9097404024FD8123D
:105364005F0C851282851383227C417D03850A822A
:10537400850B8312537B22E0FAA3E0FB2212537BBA
:10538400120CE1E9F50922900342E0F5F0E5088406
:10539400900341F07C417D0322125010120CFF74E3
:1053A4000422F005088518828519832274EC121FE3
:1053B4005F74FE121F088A088B098C0E8D0FEA2475
:1053C40005FEEB3400FF1255B9EE2418125BE4EA33
:1053D400450B700302545C1255A250291254818A61
:1053E400108B11EA4511606B7912AC0AAD0B85087C
:1053F40082850983125377851082851183121F5D7C
:10540400E9F50A7058E4F50AF50B780A1221728E50
:10541400828F83A3A3E0F50A780A122172EE240393
:105424001256C9780A1221728E828F8312548E12F8
:105434000E1F7406121F1EE9F50A7021850C828561
:105444000D83E0701F850882850983125377120942
:105454009F8011750A0E8009750A018004E50A60AF
:10546400031256DC850C82850D83E060047900808C
:1054740002A90A7402121F1E7F0C022031851882B1
:1054840085198312537B120E0D221256D7FD8508FF
:105494008285098312537B2274EE121F5F74FE12FD
:1054A4001F088A088B098C0C8D0DEA2405FEEB3449
:1054B40000FF750E001255B9EA450B7003025580C2
:1054C4001255A2502C1254818A0E8B0FEA450F609C
:1054D4004A7912AC0AAD0B85088285098312537789
:1054E400850E82850F83121F5DE9F50E6003025558
:1054F400838508828509831257BEAA0AFB12559434
:1055040070147AFF7BFF125594606C88828983E55E
:105514000AF0A3E50BF0750A008007750E0E805F94
:10552400050A900327E0FAE50AC39A504AE50A758A
:10553400F017A4FAABF088828983A3A3E02AFAA324
:10554400E03BFB8A828B831256D2EC4D70D2750AF3
:1055540017750B00780A122172EEFCEFFD12162F5C
:105564007402121F1EEEFCEFFD850882850983126A
:1055740053771209A58014750E098003750E011264
:105584005F04850C82850D831256E9A90E0251230E
:10559400120E018A108B11A810A911E84922E508FE
:1055A4002402F508E5093400F5098A828B83A3A354
:1055B400A3E0A2E522851882851983AC82AD838E8F
:1055C400828F831255CF8A0A8B0B22E0FAA3E0FB69
:1055D400120CF9227404121F1E7F0A02203174EC8B
:1055E400121F5F8C108D11EA2405F50CEB125BE79A
:1055F400750F00EA2402F50AEB1256CC850A82F5EF
:105604008312537712611670030256BE750E008022
:1056140071850C82850D83E06401704F8E828F83C7
:10562400A3A31221898E828F83A3A3A3A3E0F512DF
:105634007513007812122172EE2405F512EF34006E
:10564400F5137812122172125371120E1F7406127E
:105654001F1EE9F50F6014850C82850D83E4F0129A
:105664005F048510828511831256E97C177D0079C9
:1056740000EEFAEFFB1216478E828F83E4F0A3F05C
:10568400050E900327E0F8E50EC398501EE50E754D
:10569400F017A4F8A9F0850882850983A3A31260F2
:1056A4007C1256D2EC4D600302561585088285099A
:1056B4008374FFF0A3F0E50F70061253711209AB67
:1056C400A90F02547CF50AEF3400F50B22A31256FD
:1056D400D7FD22E0FCA3E0228E828F83125F0C852B
:1056E4000E82850F83E8F0A3E9F022C082C0839084
:1056F4000323E06A7003A3E06B70067A237B0380C4
:10570400047A007B00024A3174F7121F5F7F00EFB6
:1057140075F003A4F8A9F0EC28F8ED39F98882892A
:1057240083E06A7003A3E06B7006E8FAE9FB800B80
:105734000FEFC3940240D87A007B007F010220312E
:1057440074F6121F5F125CF570067A007B00800706
:10575400A3A3A3A3125377025DB674F2121F5FE9E9
:10576400FE740E121F531257BE7410121F53125C94
:10577400268C828D83E06402703BA3125F088882CA
:105784008983E0F50CA3E0F9A80C74026870037433
:1057940029697021750C02750D00780C122172783C
:1057A40008122172780A122172EEF9120E4374065D
:1057B400121F1E80027901025E26E0F50AA3E0F5BD
:1057C4000B2274E8121F5F74FB121F08E98518820C
:1057D400851983F08A168B178C0E8D0F741F121F78
:1057E40053125C267421121F531257BE7423121FC6
:1057F40053125C107510008C828D83A3A3A3E0A2C6
:10580400E4502A741D121F531254878A828B83E535
:1058140082458370030258D2790AAC0EAD0FAA16E2
:10582400AB17121F5DE9F51060030258D5850E828F
:10583400850F83E064026003025B8BA3125F08851B
:105844000882850983A3858212858313E50E2406C5
:10585400F50CE50F125BE788828983E0FAA3E0F98F
:10586400EA2400F514E439F51578141221FC01003A
:10587400002801289A580700022871590328E15882
:1058840000299B5A0129C35A02296A5A03299B5A9F
:1058940004292C5B8B5BEE4F703E850C82850D8357
:1058A400125C01FAE9FB8A828B83E0850A82850B0C
:1058B40083125C3D1221728A828B83A31256D7FD18
:1058C400AA08AB0912162F7402121F1E800375104A
:1058D4000EA910740502606A75100B80F4EE4F7007
:1058E400F7850A82850B837401F0125C16850882A1
:1058F400850983F07C007D00850E82850F83A3A338
:10590400A3A3E02401FAA3E03400FB120CF9EA4B50
:1059140060418A828B83E02402F8850A82850B83A6
:10592400E028F0EA2404F8EB3400F988828983E063
:10593400851282851383125C4F125C3D1221728A98
:10594400828B831256D1E5082403FAE5093400FB5F
:105954000258C8850A82850B83E02404F07C047D08
:10596400007900AA12AB131216470258D5EE4F6005
:10597400030258DC125C16FEA3E0FF850A82850B45
:10598400837404F0EE850882850983F0EF85128222
:10599400851383F07403121F53AC82AD83EEFAEFC8
:1059A400FB125CE37003025A478A828B83A3A3121F
:1059B4005C0C7401121F5385820E85830F780E12BE
:1059C40021727405121F531221897CFF7DFF120C72
:1059D400FF7404121F1E8B0FEA450F7033850C826F
:1059E400850D83125BEC122172850C82850D83A3D5
:1059F4001221897C027D007A6C7B90120AA17404C6
:105A0400121F1EE9700A7401121F5374FFF0A3F0F1
:105A14008E828F83E064027034750C02750D0078F9
:105A24000C1221728E828F831256D1E5082404FA57
:105A3400E509124FFD121F1E850A82850B83E0249F
:105A44000280097401121F53EEF0A3EFF0740112E7
:105A54001F53125BFDF07401121F53A3125BF5A3D5
:105A6400A3A3F00258D5EE4F60030258DC850C82E4
:105A7400850D831256D2AA16AB17120E37850A82E9
:105A8400850B837402F0EA850882850983F0851208
:105A940082851383EB80CBEE4F60030258DC125CEB
:105AA40016F8A3E0F9850A82850B837402F0E88571
:105AB4000882850983F0E985128285138380A38592
:105AC4000C82850D83125377121629EAFC8C82A866
:105AD40082C39EE49F404BE86E7001EF70047C002B
:105AE400801F851882851983E0FAEE2AFAEF3400C4
:105AF400FBC3EA98EB94005003E08004EECCC39C13
:105B0400FCEC850A82850B83F08C0A750B00780AFD
:105B1400122172850C82850D83E02EFCA3E03F02E6
:105B240058C37510070258D5EE4F60030258DC8540
:105B34000C82850D83125F08850A82850B837407A6
