:020000040000FA
:0600000002011D0225EFC4
:03002B00022D1F84
:0300530002266220
:03006B00022CEB79
:100083000224A3E5C754F84401F5C779012200000F
:100093000080FB120086B90003020107E47921788E
:1000A30008B800028004F709D8FCE479297802B87B
:1000B30000028004F709D8FCE490028178FB7908F8
:1000C3008002F0A3D8FCD9FA781A90014D7A01BACC
:1000D30000028007E493A3F608DAF9900A7BAA8268
:1000E300AB8390014E78E679088015E493A3AC8244
:1000F300AD838A828B83F0A3AA82AB838C828D83A8
:10010300D8E9D9E7758226758396740412012F7591
:100113008291758300740012012F75D00075813FA1
:10012300751881751902759F00020096C09FF59F8F
:10013300E473D09F22D083D082C09FE493C0E07445
:100143000193C0E0740293F59F2201FF0000B40005
:100153000028002800283075A000A000A000A000FF
:1001630000080008E001F00010001000100010006B
:100173001000100050005000500010001000D00775
:100183000000000000000F003075070010000100A0
:1001930081FF0000FFC10BDF0BC70BFF02020A0A3E
:1001A300025000A0000000E8030270820100001D5D
:1001B30082027682010000CC0A027C82010000B236
:1001C30002027682010000CD0A027E82010000C88D
:1001D30002027682010000CE0A028082030000CA76
:1001E30002027682010000CF0A028282030000CB62
:1001F30002027682010000D00A028482010000D14B
:100203000AFFFF0100FF200270820100002082022A
:100213007682010000360B02868200000000000295
:100223007A820300005A032D122D122D122D122D46
:10023300122D122D122D122D122D122D122D122DC3
:1002430012BB14D314B514BD1DA299E625588CD93D
:100253004201630D12BF9FFB7B7CCE6AB344BEB5E4
:100263004BD624E9C6EA22D9D9AAFDBD9B2198A879
:1002730049E145F3D8D169FFFF0A416363656C2007
:10028300456E61626C650000021400416363656C36
:100293002052616E67650000101010416363656C46
:1002A30020582D436F6F7264696E6174650000415D
:1002B3006363656C20592D436F6F7264696E61745B
:1002C300650000416363656C205A2D436F6F726450
:1002D300696E61746500000A320000004163636562
:1002E3006C2053616D706C6520506572696F64009A
:1002F300000270820100001782027682010000A9C9
:100303000B029C82030000CF07027882010000AA3F
:100313000B027682010000B80B029A82010000B939
:100323000B027882010000BB0B027682010000C839
:100333000B029682000000D007027A82030000D3EA
:1003430007027882010000CB0B027682010000C90C
:100353000B029482000000D107027A82030000D9C5
:1003630007027882010000DF0B027682010000CAD7
:100373000B029282000000D207027A82030000DFA0
:1003830007027882010000F30B0276820100000766
:100393000C029882030000080C0278820100000C12
:1003A3000C4A414E435320456E61626C6500001058
:1003B300414E4353204D65737361676500004A44A2
:1003C30061746120536F7572636520456E61626C61
:1003D3006500104461746120536F75726365204D2D
:1003E300657373616765004A414E435320436F6EE3
:1003F30074726F6C20506F696E740002708201001A
:10040300001A82027682010000D10C028C820B005A
:1004130000E707027882010000D20C027682010015
:1004230000DF0C028A82000000E807027A820300E0
:1004330000FD07027882010000E00C0276820100D1
:1004430000EE0C0288820B00000308027882010090
:1004530000EF0C027682010000020D026A820000A6
:10046300000408027A82030000190802788201005E
:1004730000030D027682010000170D0268820B0053
:10048300001F08027882010000180D110199010F65
:10049300126402708201000023820276820100004E
:1004A300C00D025E82010000C10D027A82030000CA
:1004B3003C0810424C454354524C205374617475AC
:1004C30073000010424C454354524C20556E636CEC
:1004D3006173736966696564000A424C454354520B
:1004E3004C20436F6D6D616E64000A10424C4543AE
:1004F30054524C20536572762055554944204C651F
:100503006E000AD0002D121E4B0FA4994ECEB531AA
:10051300F40579424C454354524C2053657276207E
:1005230055554944000A0100424C454354524C205E
:10053300536572762053746172742048646C000AA8
:10054300FFFF424C454354524C205365727620457D
:100553006E642048646C000A10424C454354524C6C
:1005630020436861722055554944204C656E000A4A
:10057300BD1DA299E625588CD94201630D12BF9F78
:10058300424C454354524C204368617220555549AF
:1005930044000A424C454354524C20436861722044
:1005A30048616E646C6572000A424C454354524C78
:1005B3002044617461204C656E000A424C454354EB
:1005C300524C204461746100027082010000268253
:1005D300027682010000E20D025882000000450805
:1005E300027A820300004808027882010000E30DCA
:1005F300027682010000F30D0240820000004E08E3
:10060300027A820300006308027882010000F40D7D
:10061300027682010000090E023882030000690895
:100623000278820100000A0E0276820100001A0E8F
:100633000256820300001B0E0278820100001C0E8A
:10064300027682010000320E026282030000330E42
:10065300027882010000430E027682010000550EEB
:1006630002A482030000560E027882010000580E95
:100673000276820100006F0E02A082030000700E5A
:10068300027882010000720E027682010000870E5A
:10069300029082030000880E027882010000890E16
:1006A3000276820100009F0E026682030000A00E04
:1006B300027882010000B00E027682010000C20EB1
:1006C30002AA820300006A08027882010000C30EB6
:1006D300027682010000D80E0260820300006C08DB
:1006E300027882010000D90E027682010000EA0E30
:1006F300025C820300006D08027882010000EB0EA9
:100703000A41505020436F6E6E656374000252536A
:1007130053492056616C75650010414E4353205375
:100723007461746500000A47656E6572616C2043ED
:100733006C6F636B000270820100002F820276826D
:100743000100003010023682030000830802788221
:1007530001000031100276820100003D10022A815F
:1007630001000084080278820100003E10027682B4
:1007730001000049100232820000008508027A82DB
:1007830003000086080278820100004A1002768284
:1007930001000056100234820300008C08027882A4
:1007A3000100005710084C6564204374726C00000C
:1007B3000270820100002C82027682010000D510B3
:1007C300023C820200009208027882010000D610E7
:1007D300020202020202020202010D0000001001E5
:1007E300027082010000298202768201000000115A
:1007F300024482010000990802768201000001117F
:100803000246820100001581027682010000021176
:100813000248820100000781027682010000031171
:10082300024A8201000081800276820100000411E5
:10083300024C82010000A5800276820100000511AE
:10084300024E82010000B780027682010000061189
:10085300025082010000938002768201000007119A
:10086300025282010000F980027682010000081121
:10087300025482010000091101E803053F10FF0043
:1008830001307503020106000000000000000000B3
:100893000000000000000000000000000000000055
:1008A300000000FFFF0600800CE803140953696D84
:1008B300706C65424C455065726970686572616C15
:1008C300051250002003020A000201050302F0FF93
:1008D3004A756467656D656E742042696E64696EFE
:1008E300677320200032000000F11AF71A091B0376
:1008F3001B0F1B151B1B1B104B6579205072657357
:1009030073205374617465000270820100001482C5
:10091300027682010000271202A882000000740AF6
:10092300027A82030000750A02788201000028120D
:100933001201381D8A04120138338A041201386007
:100943008A04120138908A04120138A78A0412011A
:1009530038C88A04120138F98A041201384A8B0410
:10096300120138618B041201385F88041201387652
:100973008804120138A58804120138DE88041201A4
:10098300380689041201383489041201384B89046A
:100993001201386289041201387889041201389FE0
:1009A3008904120138B28904120138C8890412017A
:1009B30038DB8904120138008A0412013858A9026D
:1009C30012013857AA0212013881AA02120138D63D
:1009D300AA02120138F7AA0212013810AB0212015F
:1009E3003812AB0212013833AB0212013836AC02B3
:1009F300120138F3AC02120138C0AD0212013824DF
:100A0300AE02120138BBAE02120138BEAE021201B1
:100A13003844AF0212013887AF02120138D9AF024E
:100A2300120138DCAF0212013813B0021201383A56
:100A3300B002120138D0B00212013859B1021201CA
:100A430038A2B102120138AFB102120138B2B102B9
:100A530012013810B20212013828B202120138A270
:100A6300B202120138A5B202120138C8B202120151
:100A730038CBB20212013872B30212013895B302B5
:100A8300120138ADB302120138DDB302120138EAA4
:100A9300B302120138EDB30212013859B402120144
:100AA3003847B502120138FDB5021201381FD303CE
:100AB30012013847D30312013875D303120138AC3E
:100AC300D30312013814D4031201385DD403120185
:100AD30038A8D403120138E6D40312013823D5030E
:100AE30012013851D503120138F8D5031201380227
:100AF300D6031201380FD60312013842D60312016E
:100B03003804D70312013810D70312013828D7034A
:100B130012013832D703120138D89204120138E691
:100B23009204120138FE9204120138169304120142
:100B33003837E101120138D5E1011201384DE201E4
:100B430012013862E3011201389CE30112013845B6
:100B5300E4011201381AE5011201387EE60112019F
:100B630038D5E6011201385CE70112013843E80188
:100B730012013890E8011201381EE90112013842CE
:100B8300E90112013817EB0112013858EB01120188
:100B9300387AEB01120138FBEB01120138E5EC0165
:100BA300120138ABED01120138BBA7031201388DD6
:100BB300A80312013836A90312013879A9031201D7
:100BC3003806AA0312013892AA0312013873AB0341
:100BD300120138A2AB031201389EAC03120138E6AE
:100BE300AC03120138E8AD031201382CAE03120135
:100BF3003852AE03120138209504120138EAE30398
:100C030012013800E40312013826E4031201384EBE
:100C1300E50312013858E503120138B1E603120166
:100C230038B1E7031201382CCE0312013839CF0350
:100C33001201386DCF03120138AFCF0312013869A7
:100C4300D10312013897BF0112013820C0011201EC
:100C53003830C0011201380BC10112013822C10121
:100C630012013848C10112013853C1011201382C55
:100C7300C2011201388EC2011201382AC3011201C6
:100C8300382EC501120138E5C60112013861C701CA
:100C93001201383EC8011201386CCB011201380A27
:100CA300CC0112013867CD01120138DACE011201ED
:100CB3003883CF01120138CCCF0112013803D001A0
:100CC300120138A8D00112013826D101120138DAF5
:100CD300D1011201383DD20112013882D301120130
:100CE3003892D301120138B5D30112013800D4016F
:100CF300120138A5D4011201389BD50112013865C0
:100D0300D601120138DDD7011201381FD8011201B3
:100D130038BDD8011201380AD90112013830D9017E
:100D23001201381EDB0112013823DB0112013804E2
:100D3300DD0112013858DD01120138BADD0112015B
:100D430038E2DD0112013886DE0112013848DF0185
:100D530012013879DF011201387CDF01120138C436
:100D6300DF0112013806E0011201386DE0011201C2
:100D7300386282041201387582041201387E8204BB
:100D8300120138978204120138E28204120138BD3D
:100D930083041201384C840412013897840412012D
:100DA30038DD4800120138E94800120138224900B1
:100DB3001201386749001201381E4A00120138A493
:100DC3004A00120138094B00120138354B00120159
:100DD300386E4B00120138824D001201385E4F000D
:100DE300120138495100120138805200120138E0D3
:100DF3005400120138CC5500120138125700120169
:100E0300381F58001201383C58001201387458003A
:100E13001201388E5800120138F65800120138902A
:100E23005D00120138315E00120138825E0012014A
:100E330038A95E00120138F75E00120138155F0011
:100E4300120138695F00120138426000120138C98B
:100E5300610012013851620012013894C203120179
:100E6300389EC20312013869C303120138ADC303AC
:100E7300120138D3C3031201381FC40312013857B8
:100E8300C40312013880C403120138BDC503120123
:100E930038EAC50312013817C60312013862C603C4
:100EA3001201387DC603120138C8C6031201380285
:100EB300C7031201383CC70312013891C70312015B
:100EC30038FCC70312013845C8031201386FC80341
:100ED30012013894C8031201381CDC03120138E6EE
:100EE300DC03120138C9DD031201383FDE031201AE
:100EF3003881DE03120138AEDF0312013875B60202
:100F03001201389EB602120138B7B602120138FC3C
:100F1300B702120138DAB802120138F9B802120125
:100F23003886B902120138C9B90212013816BB0258
:100F3300120138B5BB0212013834BE02120138CB9C
:100F4300BE021201389FBF0212013881C002120192
:100F530038EDC10212013880C202120138CA90046E
:100F6300120138339104120138879104120138AE0B
:100F73009104120138C7D70312013834D803120180
:100F8300387FD80312013874D90312013870DA0399
:100F93001201385ADB03120138C5880312013807DE
:100FA3008903120138E18903120138BA8A03120155
:100FB30038B58B03120138948C03120138008D036A
:100FC300120138C78D03120138328E03120138998A
:100FD3008E03120138C48E03120138358F031201B8
:100FE30038C88F0312013831900312013846900339
:100FF3001201388E9003120138A790031201380CA6
:1010030091031201380F9103120138EDEE0312011F
:101013003815EF0312013853EF0312013811F003AF
:101023001201387CF00312013898F003120138C022
:10103300F003120138F0F003120138FFF00312013C
:101043003879F1031201389FF1031201380080024D
:10105300120138DD8102120138D88302120138AB44
:101063008402120138F6840212013841850212010A
:10107300385F8502120138A18502120138BC85024E
:1010830012013808860212013842860212013865BD
:101093008602120138B28602120138258702120134
:1010A30038378902120138E18A02120138318B0282
:1010B300120138968C02120138EC8C021201385A54
:1010C3008D02120138A58D02120138CF8D02120153
:1010D300386DCF0212013898CF021201387FD60241
:1010E300120138A3D8021201385EDA02120138BBAA
:1010F300DB02120138B862001201384F630012019B
:10110300387C6300120138C26300120138016500A4
:10111300120138986600120138ED66001201386238
:101123006700120138916800120138EC690012015E
:1011330038EE6A001201384B6C00120138646C00FF
:10114300120138C16C00120138A36D00120138D6A8
:101153006D00120138466E00120138C06E00120194
:10116300380F6F00120138DB6F00120138E0700096
:10117300120138BF71001201384A7200120138B8E7
:1011830072001201382C73001201385573001201DA
:10119300381474001201388E7500120138AB7500D3
:1011A300120138CA75001201385B760012013880CB
:1011B3007600120138A87600120138237700120155
:1011C300387D7700120138D178001201388E79000A
:1011D300120138617A00120138FA8D021201384A7D
:1011E3008E02120138568E02120138338F02120119
:1011F30038638F021201389B8F021201381A900252
:10120300120138529002120138A49002120138E1FF
:10121300900212013806930212013832950212012C
:10122300382D9702120138089902120138F57F0010
:10123300120138F298011201383C99011201381B4E
:101243009F011201389CA001120138FBA601120173
:1012530038F6A70112013833A80112013856A80144
:1012630012013898A801120138A1A801120138AB64
:10127300A80112013897A9011201388BAA011201A2
:1012830038AD8201120138258D011201382B8D01F1
:10129300120138379401120138BBE70312013851A8
:1012A300E80312013867E803120138E1E803120189
:1012B3003837E90312013875E903120138D2E9031B
:1012C3001201384FEA0312013858EA031201386455
:1012D300EA0312013877EA03120138B3EA03120171
:1012E30038C9EA0312013828EB03120138AEFB02B6
:1012F300120138BBFB02120138D5FB02120138146C
:10130300FC0212013852FC02120138B7FC0212012E
:1013130038CCFC02120138D7FC02120138E4FC027B
:10132300120138FBFC0212013809FD0212013814C4
:10133300FD0212013820FD021201382FFD021201B5
:10134300383AFD021201385DFD0212013806FE0231
:1013530012013816FE0212013830FE021201384D16
:10136300FE0212013869FE021201388EFE021201DA
:101373003898FE02120138ACFE02120138CBFE028D
:101383001201382CFF0212013832FF0212013838E1
:10139300FF021201383EFF021201384AFF02120116
:1013A300387DFF02120138CE9B02120138509C0295
:1013B300120138F99C02120138419E021201384F82
:1013C300A00212013835A1021201386AA1021201EA
:1013D300388CA10212013835A20212013805A40289
:1013E3001201382EA402120138A6A402120138D821
:1013F300A402120138E5A40212013830A502120139
:101403003854A502120138A5A702120138AFA80269
:101413001201380BA902120138E0EF01120138F171
:10142300F001120138D5F101120138DFF101120187
:101433003801F2011201380DF201120138B1F30142
:10144300120138DEF301120138F4F40112013849B4
:10145300F50112013898F6011201386DF7011201F6
:1014630038C9F70112013834F80112013869F8015B
:10147300120138ACF80112013876FB011201388EE3
:10148300FB011201381FFC011201382DFC0112016E
:10149300387AFC0112013888FC01120138F4FC018E
:1014A3001201386FFD01120138C6FD01120138DE49
:1014B300DB0212013800DC0212013811DE021201D4
:1014C30038D0E002120138FAE102120138B8E20220
:1014D300120138A4E302120138A68604120138CBA4
:1014E30086041201384187041201389EA0031201B9
:1014F30038A7A003120138B0A00312013888A10352
:1015030012013839A30312013869A3031201389475
:10151300A303120138C4A303120138EFA30312017A
:101523003823A4031201384FA40312013892A403F1
:10153300120138BDA40312013804A503120138595E
:10154300A5031201389BA503120138F5A503120167
:101553003820A6031201386FA6031201389FA60391
:10156300120138CAA603120138F8A6031201381B68
:10157300A703120138A99504120138D59504120165
:10158300380296041201380C96041201381C960492
:1015930012013833910312013843910312013812B7
:1015A3009303120138F19503120138639803120172
:1015B30038B09803120138FD9803120138129903C9
:1015C3001201386A9903120138D1990312013819AB
:1015D3009A031201388F9A03120138BE9A0312013B
:1015E30038CC9A03120138309B031201386E9B03E7
:1015F300120138899B03120138219C03120138CA56
:101603009C031201384D9D03120138869D0312017C
:1016130038119E03120138689E03120138C79E03D6
:10162300120138D99E03120138FF9E0312013808B4
:101633009F0312013867A003120138788B0412014B
:1016430038578C04120138B38C04120138CD8C0442
:101653001201380080041201384580041201388BCE
:1016630080041201381E8204120138AF9304120160
:1016730038CA9304120138DA9304120138319404FE
:101683001201387D940412013856BC0312013876D6
:10169300BC031201387ABD03120138C6BD0312011F
:1016A30038E6BD0312013839BE03120138A6BE0362
:1016B300120138ECBE0312013850BF031201380285
:1016C300C20312013883C203120138888F04120146
:1016D30038B88F04120138E88F04120138089004D7
:1016E300120138629004120138A5B5031201380EB5
:1016F300B6031201382BB60312013874B703120173
:1017030038EFB703120138B5B90312013803BC032C
:10171300120138C7AE0312013825AF031201384254
:10172300AF0312013893B00312013866B1031201FB
:101733003804B303120138D3B4031201381BB503C1
:1017430012013858EB031201388DEB03120138B044
:10175300EB0312013861EC0312013845ED0312016A
:1017630038D1ED03120138DBEE03120138F7C20260
:1017730012013855C30212013872C302120138F63E
:10178300C50212013886C70212013880C90212014C
:101793003853CC021201389BCC02120138EDCC0233
:1017A3001201381CCD02120138AACD02120138EB06
:1017B300CD0212013877CE02120138F0CE021201A7
:1017C30038BCC8031201380FC9031201382CC903EE
:1017D300120138C6C903120138F6C9031201388F42
:1017E300CB03120138D4CD0312013804CE03120106
:1017F3003818CE03120138E7F1031201382FF20330
:101803001201384CF203120138E6F20312013834A4
:10181300F40312013864F403120138378E04120101
:1018230038A28E04120138C08E04120138DE8E04F1
:101833001201380C8F041201385D8F041201386BCA
:101843008F041201388F7A00120138B47A00120122
:1018530038EF7A0012013868FF03120138502D0067
:10186300120138BB2F001201387B310012013826D8
:101873003200120138CA32001201386333001201F8
:1018830038923300120138F83800120138A33900B6
:10189300120138133B001201387B3B001201382F31
:1018A3003C00120138AF3D00120138EE3D00120139
:1018B30038623E00120138C13E00120138203F0059
:1018C3001201388F3F00120138824000120138C8DC
:1018D30040001201380D410012013830410012015D
:1018E3003880420012013893420012013805430048
:1018F3001201383C4300120138684300120138BB1F
:101903004300120138DC4300120138204400120165
:1019130038724600120138B346001201385E4700A0
:10192300120138C94700120138DF9104120138F05F
:101933009104120138C89204120138B5F703120159
:101943003850FA0312013800800312013822800351
:10195300120138588203120138078303120138B683
:101963008303120138658403120138FA84031201D8
:1019730038EA8503120138478803120138A7880320
:10198300120138857F00120138CA96041201385EAD
:10199300FE011201386EFE0112013888FE011201A8
:1019A30038F8FF01120138D8F4031201387EF50329
:1019B3001201389AF703120138DE8C041201380B36
:1019C3008D04120138768D041201388D8D041201B5
:1019D30038E98D04120138268E04120138298E0449
:1019E300120138F87F001201385EFA031201384BF6
:1019F300FC03120138B7FC03120138FEFC03120189
:101A030038C18404120138208504120138CE8504BC
:101A13001201384D860412013808E0031201383AE6
:101A2300E00312013842E10312013867E2031201B5
:101A33003823E303120138FCE602120138E2E7021D
:101A43001201382FE80212013872E802120138E756
:101A5300E80212013848E902120138BDE902120115
:101A63003899EA02120138A4EB0212013825EC027C
:101A7300120138CCED0212013862EE02120138D5A0
:101A8300EE0212013851EF0212013868EF0212011F
:101A9300389FF002120138F9F002120138A3AC01A9
:101AA3001201382DB101120138EFB30112013818B8
:101AB300B40112013847B401120138F9B40112011B
:101AC3003801B70112013802B80112013857BD01BC
:101AD30012013890BD0112013865F1021201380E6E
:101AE300F402120138EEF50212013826F602120151
:101AF30038BDF602120138F3F80212013822F90256
:101B030012013825F90212013882F902120138D381
:101B1300F902120138D6F90212013866FA021201EB
:101B230038B2FA0212013801FD0312013854FD03E1
:101B3300120138B9FD0312013881FE031201382B5B
:101B4300FF03120138809604120138AC9604E06654
:101B5300701008A3E066700A08A3E066700408A387
:101B6300E06622C3E7960809E7960809E79608099D
:101B7300E79622C3E09608A3E09608A3E09608A39D
:101B8300E09622C008C3E096F50808A3E096420851
:101B930008A3E096420808A3E09645087001D3D055
:101BA3000822080808EAC0E0EBC0E086F0E7A4FAE0
:101BB300180986F0E7A42AFA180986F0E7A42AFA96
:101BC300180986F0E7A42AFA1986F0E7A4FBE5F0E2
:101BD3002AFA190886F0E7A42BFBE5F03AFA19086C
:101BE30086F0E7A42BFBE5F03AFA18180986F0E72C
:101BF300A4C5F02BFBE43AFA1908E7C5F0C6A426FE
:101C0300F6E5F03BFBE43AFA1886F0E7A4F6E5F0D4
:101C13000826F6E43B08F6E43A08F6D0E0FBD0E009
:101C2300FA22E4CFC0E0E4CEC0E0E4CDC0E0E4CCEF
:101C3300C0E075F020C3E633F608E633F608E63372
:101C4300F608E633F6181818EC33FCED33FDEE33E3
:101C5300FEEF33FFC3EC9709ED9709EE9709EF9772
:101C6300191919400FFFEC97FC09ED97FD09EE9741
:101C7300FE191906D5F0BEECF709EDF709EEF709E1
:101C8300EFF7191919D0E0FCD0E0FDD0E0FED0E069
:101C9300FF226016080808C6C313C618C613C61861
:101CA300C613C618C613C6D5E0EA22700908080889
:101CB300226016181818C6C333C608C633C608C62A
:101CC30033C608C633C6D5E0EA22E627F60809E696
:101CD30037F60809E637F60809E637F622E026F66E
:101CE30008A3E036F608A3E036F608A3E036F622AA
:101CF300E026F008A3E036F008A3E036F008A3E0FE
:101D030036F022C3E697F60809E697F60809E69740
:101D1300F60809E697F622C3E096F008A3E096F0EA
:101D230008A3E096F008A3E096F022E056F608A395
:101D3300E056F608A3E056F608A3E056F622E0566E
:101D4300F008A3E056F008A3E056F008A3E056F02D
:101D530022E0F608A3E0F608A3E0F608A3E0F622E3
:101D6300E6F008A3E6F008A3E6F008A3E6F022E015
:101D7300FAA3E0FBA3E0FCA3E0FD22EAF0A3EBF06F
:101D8300A3ECF0A3EDF022CAC0E0E6F0A308DAFA70
:101D9300D0E0FA22CAC0E0E0A3C582CCC582C583E5
:101DA300CDC583F0A3C582CCC582C583CDC583DAF7
:101DB300E6D0E0CA22C3E498F8E499F9121DF98049
:101DC30026C3E49AFAE49BFBE920E7E9121DF9E450
:101DD30098F8E499F922C3E498F8E499F9121DF903
:101DE300E498F8E499F9C3E49AFAE49BFB22EB2024
:101DF300E7CFE920E7E0B90010BB0008E88AF084E8
:101E0300F8AAF022E4FBC8FA22EB70227B10C83355
:101E1300C8C933C9335007C39AC3DBF280069A504B
:101E2300012ADBEAC833F4C8C933F4C9FA2275F0CE
:101E330008E4C833C8C933C933C99AC99B5004C914
:101E43002AC93BD5F0ECFBC833F4C8E4C9FA2260D5
:101E53000D08C6A2E713C618C613C6D5E0F3226061
:101E63000C08C6C313C618C613C6D5E0F422700403
:101E730022600D18C6C333C608C633C6D5E0F418AE
:101E830022251810AF08F518400215198008F51817
:101E930040021519D2AF22C0D0251810AF08F5188B
:101EA300500205198008F51850020519D2AFD0D099
:101EB300222518F58210AF08F5184002151980087D
:101EC300F51840021519D2AF851983222518F5821A
:101ED300E43519F58322E4732518C582C0E0E519BA
:101EE30034FFC583C0E0E518C3958224F810AF081A
:101EF3008583198582188008858319858218D2AF56
:101F0300CEF0A3E520F0A37808E608F0A3DEFAEF0D
:101F1300F0A3E58124FAF8E608F0A3E608F0A3E6C7
:101F230008F0A30808E608F0A3E608F0A315811556
:101F330081D0E0FED0E0F8158115811581E8C0E07D
:101F4300EEC0E0222518C582C0E0E51934FFC58341
:101F5300C0E0E518C3958224F910AF08858319857D
:101F630082188008858319858218D2AFCEF0A3E545
:101F730020F0A37808E608F0A3DEFAEFF0A3E581EA
:101F830024FBF8E608F0A3E608F0A30808E608F047
:101F9300A3E608F0A315811581D0E0FED0E0F81583
:101FA300811581E8C0E0EEC0E0228519838518829F
:101FB300E0A3FEE0A3F5207808E0A3F608DFFAE04B
:101FC300A3FFE0A3C0E0E0A3C0E0E0A3C0E0E0A380
:101FD300C0E0E0A3C0E010AF0885821885831980B4
:101FE30008858218858319D2AFD083D08202013548
:101FF300851983851882E0A3FEE0A3F5207808E025
:10200300A3F608DFFAE0A3FFE0A3C0E0E0A3C0E08B
:10201300E0A3C0E0E0A3C0E010AF08858218858389
:10202300198008858218858319D2AFD083D0822284
:10203300C0D02518C582C0E0E51934FFC583C0E0D0
:10204300E518C3958224F310AF0885831985821898
:102053008008858319858218D2AFC8F0A3E9F0A35D
:10206300EAF0A3EBF0A37908E709F0A3D8FAECF0C0
:10207300A3EDF0A3EEF0A3EFF0A3D0E0F0A3D0E044
:10208300F0A3D0E0F0A3E520F0A3E5F0F0A32285D0
:102093001983851882E0C0E0A3E0F9A3E0FAA3E086
:1020A300FBA37808E0F608A3DFFAE0FCA3E0FDA3B6
:1020B300E0FEA3E0FFA3E0C0E0A3E0C0E0A3E0F5FF
:1020C300D0A3E0F520A3E0A3F5F010AF08858319B2
:1020D3008582188008858319858218D2AFD082D073
:1020E30083D0E0F8D0E03274048006740280027476
:1020F30001C0E0F404121EB4D0E0121D8A2274045D
:10210300800474028000CCC0E0EDC0E0E518C39CFD
:10211300CCAD1950011D10AF068C188D1980068C9B
:10212300188D19D2AF121D97D0E0FDD0E0FC22D05C
:1021330083D082E9C0E0E493A3C386F0C5F095F0B1
:10214300F908E493A386F0C5F095F0700BE493A32C
:10215300C3994005E9048002A3E475F002A4258233
:10216300F582E5F03583F583D0E0F9E493A3C0E08D
:10217300E493C0E022D083D082ECC0E0EDC0E0E481
:1021830093A3FCE493A3FDED4C600D1221C4EC2456
:10219300FFFCED34FFFD80EFE493A3FCE493A3FD88
:1021A300ED4C600D122203EC24FFFCED34FFFD80A7
:1021B300EFD0E0FDD0E0FCE493A3C0E0E493C0E003
:1021C30022C0E0C3E49396087401939618400FE489
:1021D3009366700808740193661870007019A3A3BE
:1021E300C3E49396087401939618A3A3400DD0E01B
:1021F300D0E0D0E00221B4A3A3A3A3A3A3D0E02201
:10220300C0E0C0F088F0E493667008087401936638
:10221300187000A8F0A3A3700BD0F0D0E0D0E0D0EA
:0B222300E00221B4A3A3D0F0D0E02221
:1022300074F5121F47EAFEEBFFEE2434F8EF34008A
:10224000F988088909EE2435F582EF3400F583E03A
:10225000F8EE2437F582EF3400F583E0F50AEC85DB
:102260000AF0A4FCAAF0850AF0EDA42AFDE82CF8F7
:10227000E43DF97A257B00121DF9EA85088285097B
:1022800083F05407F87401B800028004C333D8FC0B
:10229000C0E0E0131313541FF8EE28F8EF3400F9F0
:1022A000E8245DF582E93400F583D0E0F8E0586079
:1022B00008EE2434F582EF801EEE2436F582EF34EA
:1022C00000F583E0F5F0EA84A8F0EE28F8EF34009A
:1022D000F9E82438F582E93400F583E0F97F040257
:1022E0001FF374F5121F47EAFEEBFFEE2434F5826C
:1022F000EF3400F583E0C0E0EE2435F582EF3400E2
:10230000F583D0E0F08E828F83A3A3A3A3A3A3A31E
:10231000C082C0838E828F83A3A3A3A3A3E0F8A36C
:10232000E0F9D083D082E0C398F508A3E099F509DD
:10233000EE2480F582EF3400F583E064017069EEED
:102340002481F582EF3400F583E0F8A3E0F98E8272
:102350008F83A3A3A3A3A3A3A3E0FCA3E0FD8E828A
:102360008F83A3A3A3A3A3E0FAA3E0FBC3EA9CEBA0
:102370009D5027C3EC98ED99402EC3EA98EB9950F5
:10238000277C3F7D05EEFAEFFB12118BEE2480F5E2
:1023900082EF3400F583E4F0800EC3EA98EB9940B5
:1023A000E0C3EC98ED9950D9EE2434F8EF3400F9FD
:1023B000E8FCE9FDEE2435F582EF3400F583E0F822
:1023C000EE2437F582EF3400F583E0F50AE5088561
:1023D0000AF0A4F508AAF0850AF0E509A42AF5098F
:1023E000E82508F8E43509F97A257B00121DF9EA99
:1023F0008C828D83F05407F87401B800028004C306
:1024000033D8FCC0E0E0131313541FF8EE28F8EFA4
:102410003400F9E8245DF582E93400F583D0E0F872
:10242000E0586008EE2434F582EF801EEE2436F585
:1024300082EF3400F583E0F5F0EA84A8F0EE28F8A6
:10244000EF3400F9E82438F582E93400F583E0F947
:10245000122CDD0222DDC082C0838518828519839B
:10246000E0F8A3E0F9C3EA9CEB9D5012C3EC98EDB1
:10247000994019C3EA98EB99501279018010C3EA88
:1024800098EB9940F5C3EC98ED9950EE7900D08324
:10249000D08222EAC39CFAEB9DFB2200852187852E
:1024A00022C622C0E0C0D0E8C0E0E9C0E0EAC0E057
:1024B000EBC0E0ECC0E0EDC0E0C008C009C00AC05D
:1024C0000BC082C083C0F0759B00906182E0A2E6E1
:1024D0004003022581E591A2E64003022581759122
:1024E000BF900404E0640570081212C31212CF807A
:1024F000031212C9752100121329E9900405F0791D
:102500000012131D1211077A017B00900403E0F9F9
:10251000121611907803E0644260030225CA900508
:10252000A1E014F060030225CAC2AF12252E007884
:102530002AD0E0F618D0E0F6E59F5407F970059030
:10254000820C80039081F47808121D54E9C4C0E025
:102550007829E65508F50808E65509F509740B7859
:1025600008121E62D0E02508F8906270E0A2E740F1
:10257000F8E8C333906272F0906270E0D2E0F080CD
:1025800049E0A2E55024E591A2E5501E7591DF9047
:102590000404E0640D7013900426E004F0642870D5
:1025A00002E4F07A00E0F912139B906181E0A2E36B
:1025B0005009E5E9A2E3500375E9F7A3E0A2E7506B
:1025C00009E591A2E7500375917FD0F0D083D082C6
:1025D000D00BD00AD009D008D0E0FDD0E0FCD0E08C
:1025E000FBD0E0FAD0E0F9D0E0F8D0D0D0E032C0B3
:1025F000E0C0D0C082C083906183E0A2E05009E5D2
:10260000BFA2E0500375BFFEE0A2E15009E5BFA202
:10261000E1500375BFFDE0A2E25009E5BFA2E25020
:102620000375BFFBE0A2E35009E5BFA2E3500375C9
:10263000BFF7E0A2E45009E5BFA2E4500375BFEF85
:10264000E0A2E55009E5BFA2E5500375BFDFE0A2B7
:10265000E65009E5BFA2E6500375BFBFD083D08224
:102660008088C0E0C0D0E8C0E0E9C0E0EAC0E0EBAC
:10267000C0E0ECC0E0EDC0E0C0F0E5A7A2E6500F7E
:10268000E5A1A2E6500953A7BF75A1BF1226C7E571
:10269000A7A2E5500CE5A1A2E5500653A7DF75A15E
:1026A000DFE5A7A2E15009E5A1A2E1500375A1FD74
:1026B000E5A7A2E2500CE5A1A2E2500653A7FB75E4
:1026C000A1FBD0F00225D874F8121F4775210190A4
:1026D0000404E0640670151212578A828B83A3A348
:1026E000A3A3A3A3E0FAA3E0FB1212B1A2AFE433C9
:1026F000FED2AF90040AE0640170187A207B00904B
:102700000403E0F91216AD7A207B00900403E0F98F
:10271000121617906182E0D2E6F09005A0E06021E9
:1027200085C6228016900409E064017008E5C6544D
:10273000F84405F5C653BEFC12249C740165216063
:10274000E4EEA2E092AF7F01021FF3008E238F24FC
:10275000858228858327851882851983E0CEA3E0AA
:10276000CF852882852783EBC9EAC8EDCBECCA75F3
:10277000F010C3E833C8E933C9EA33CAEB33CBC33B
:10278000EA9EF526EB9FF525B35004AB25AA26EC6F
:1027900033CCED33CDD5F0DAAE23AF242274EB1277
:1027A0001F4774FA121E848A088B098C148D1590A9
:1027B0000404E024F7C3940550069081A00228FF8A
:1027C0001212578A0A8B0BAE0AAF0BEE4F70030240
:1027D00028FCAC08AD09851882851983AA82AB83D1
:1027E0001212E18E828F83A3A37808121D54908168
:1027F000F87808121D2E851882851983780C121D11
:10280000549081F8780C121D2E7808790C121B66F2
:10281000501F7808790C121D0690817C7808121BD5
:10282000864047850810850911850A12850B13809B
:1028300041850C10850D11850E12850F13781079C6
:1028400008121D0690817C7810121B86501C751092
:10285000007511007512007513017810790C121DA6
:102860000678107908121CCD80089081A07810128B
:102870001D5474097810121CAE9081CC7808121D7A
:102880005478107908121C258E828F83A3A3A3A3EA
:10289000A3A3E0F8A3E0F97AD07B03121DF988081E
:1028A0008909E4F50AF50B78107908121CCD740437
:1028B000121ECFE0F8A3E0F97AD07B03121DF9E8ED
:1028C000FA8A08E4F50978107908121B665007782F
:1028D000107908121D06900404E06408600AE064A0
:1028E000066005E06405701C9081747810121B86E8
:1028F00050129081787810121CE080089081E07866
:1029000010121D548514828515837810121D63746E
:1029100006121E9A7F0E021FF374F7121F4712123F
:10292000F390059EE064017010906245E4F0A3F01E
:1029300053F4F343FE0C5390F312129FE5C65480F8
:102940004449F5C6E59E547F644970F890618574EA
:102950000FF090059CE0F47002A3E0604E90059D9E
:10296000E0600814601B14602E8040750801750932
:102970000090059CE07808121E71E508F4528080F2
:102980002A75080175090090059CE07808121E71EF
:10299000E508F45290801475080175090090059CB3
:1029A000E07808121E71E508F452A079007F020257
:1029B0001FF374F7121F47E9FEEAFF74016E700CF3
:1029C0007A807B00900403E0F9121611902D48E400
:1029D00093F46008E493F91210FB800953C680E574
:1029E0009E547F70FA1212A590059EE06401700358
:1029F00012111390059CE0F47002A3E0604B900567
:102A00009DE0600814601A14602C803D7508017503
:102A1000090090059CE07808121E71E5084280804C
:102A20002875080175090090059CE07808121E7150
:102A3000E5084290801375080175090090059CE037
:102A40007808121E71E50842A01212F31212578A7A
:102A5000088B09A808A909E8496015E5E170FCE8B8
:102A60002414F582E93400F583E0F46003E0F5E135
:102A700074016F700A7A01900403E0F9121677026C
:102A800029AD74F1121F478A088B098C0A8D0B74CB
:102A90000F121ECF780C121D549081F87808121D69
:102AA0002E9081F8780C121D2E7808790C121B6676
:102AB00050157808790C121D0690817C7808121B3D
:102AC00086401579018013780C7908121D069081D3
:102AD0007C780C121B8640EB79007F08021FF37490
:102AE000ED121F478A088B098C0A8D0B7413121E76
:102AF000CF780C121D549081F87808121D2E908109
:102B0000F8780C121D2E780C7908121B664011788B
:102B100008790C121D06AA08AB09AC0AAD0B80227D
:102B20007510007511007512007513017810790C7D
:102B3000121D0678107908121CCDAA10AB11AC1228
:102B4000AD137F0C021FF39081F87808121D548A90
:102B5000828B837808121D417F04021FF374F512E3
:102B60001F478C828D837808121D548A828B83784C
:102B700008121D1AEA2404F8EB3400F98C828D83C4
:102B8000A3A3A3A3E0FCA3E0FD88828983C3E09C08
:102B9000F0A3E09DF088828983C3E09420A3E094B1
:102BA0004E40229081A47808121D548A828B83782B
:102BB00008121CF38A828B83A3A3A3A3E02420F032
:102BC000A3E0344EF0808074F5121F47E9FE9005B3
:102BD00056E0FAA3E0FBEEC333F8E433F974E928D6
:102BE000F582748039F583E02AF508A3E03BF50906
:102BF00078081220EE9081D8121D7212274C7402B0
:102C0000121E9A8A088B098C0A8D0B741078081290
:102C10001C95AA08AB097F04021FF374F1121F4729
:102C20008A0C8B0D8C0E8D0F740F121ECFE0FAA341
:102C3000E0FB7411121ECFE0F508A3E0F509741350
:102C4000121ECFE0FEA3E0FF78081220EEEA240176
:102C5000F508EB3400F509E4F50AF50B780C790872
:102C6000121BA59081847808121D54780C790812E3
:102C70001BA5AA0CAB0DAC0EAD0F12274C740212A3
:102C80001E9A8B09EA450960047A0180027A00ECF9
:102C90002AFCED3400FDECF8EDF97A717B02121D8F
:102CA000F988088909E4F50AF50B8E828F83780884
:102CB000121D63ECF8EDF97A717B02121DF98A0896
:102CC0008B0974057808121E718E828F83A3A3A3CB
:102CD000A3E508F0A3E509F07F08021FF3C082C056
:102CE00083E9906000F0D083D08222C0E074F212B9
:102CF0002033A2AFE433FED2AFE589A2E04006E57F
:102D000089A2E150031219D1758900758900C2C5E5
:102D1000751A00EEF8EEA2E092AF7F01022092C099
:102D2000E0C0D0E8C0E0E9C0E0A2AFE433F8D2AF41
:102D3000C2C7751A00E8F9E8A2E092AFD0E0F9D076
:072D4000E0F8D0D0D0E03232
:102D4800FFFFFFFFFFFFFFFF74F0121EDB8A0A8BF5
:102D58000B8909ECFEEDFF750800850A0C850B0D43
:102D6800780C12213200040D8B2F8E2DAF2DCE2D15
:102D7800EF2D102E312E642E852E9C2ECA2EF52E68
:102D8800162F362F602F7401650970158E828F8378
:102D9800E0C39403500B8E828F83E09011A8F080DB
:102DA80003750818022FB47402650970138E828F98
:102DB80083E0F8A3E0F99011A9E8F0A3E9F0800313
:102DC800750818022FB47401650970158E828F83F7
:102DD800E0C39402500B8E828F83E09008A2F080AB
:102DE80003750818022FB47401650970158E828F57
:102DF80083E0C39405500B8E828F83E09008A3F084
:102E08008003750818022FB47401650970158E8245
:102E18008F83E0C39402500B8E828F83E09008A4C6
:102E2800F08003750818022FB474106509702775AF
:102E38000C10750D00780C1220EEEEFCEFFD7AA553
:102E48007B081215BD7402121E9A8A0C8B0D850C14
:102E580082850D838003750818022FB474016509F3
:102E680070158E828F83E0C39402500B8E828F83FD
:102E7800E09008B5F08003750818022FB474016556
:102E880009700B8E828F83E09011ACF08003750877
:102E980018022FB47404650970229081D8780C1236
:102EA8001D548E828F83780C121B76500F8E828F62
:102EB80083121D729008B7121D7E800375081802D0
:102EC8002FB4E5097021120C0FE970131218D5E917
:102ED800F50C7950121A97E9F50D1218C3800B906A
:102EE800094A7401F08003750818022FB47401654B
:102EF8000970158E828F83E0C39402500B8E828FE7
:102F080083E09008B6F08003750818022FB47401A6
:102F1800650970158E828F83E0C3940A500B8E82E8
:102F28008F83E09011ABF08003750818807E7401E0
:102F38006509701F8E828F83E0C3940740158E82C7
:102F48008F83E0C39411500B8E828F83E09011AD74
:102F5800F08059750818805474016509702090092B
:102F680049E0F50C8E828F83E0900949F0E50C70FA
:102F78003B900949E0640170331218C3802E75082C
:102F8800188029C3E50A9424E50B9400501B7402A9
:102F9800650970158E828F83E0FCA3E0FDAA0AAB59
:102FA8000B120AADE9F5088003750802A9087F0825
:102FB800021FAD74EC121EDB74DA121E84890D8AAE
:102FC800128B138C0A8D0B743A121ECFE0F50C90FD
:102FD8008162C082C083851882851983AC82AD83E3
:102FE800D083D0827406121D97851882851983AC08
:102FF80082AD83AA12AB13A90D121869E9FEEEC3BC
:10300800940A400302315AEEF91218A5E9FF90110B
:10301800A8E064027004740180027400F50878085E
:103028001220F2AD0CEFFCEEF9AA0AAB0B1219173D
:103038007401121E9A7C147D0079007412121ECF3E
:10304800AA82AB831215D58A0E8B0F850E08850FC1
:10305800097412121ECFAC82AD837A1075F006EE99
:10306800A42424F9121A91E970437C1079FF741290
:10307800121ECFAA82AB83121635E9703074221261
:103088001ECFAC82AD837A0475F006EEA42425F930
:10309800121A91E9F5087412121ECFAC82AD83EFB3
:1030A800A2E0E433F9AA0AAB0B120B37E974061253
:1030B8001ECFAC82AD837A0C74702EF9121A91E986
:1030C800707E7406121ECFAA82AB83121899750EF1
:1030D80000E50EC394045068E50EA80E7900E87563
:1030E800F003A4C8AAF075F000A42AFA75F003E961
:1030F800A42AF97406121ECFE58228F508E583395B
:10310800F509850882850983E0F8A3E0F9E84960B4
:103118002B850882850983A3A3E0F5107511007833
:10312800101220EE850882850983E0FCA3E0FDAA41
:103138000AAB0B120E257402121E9AE9050E809135
:10314800EFA2E1500D9008A1E0F9AA0AAB0B120E0C
:103158002BE97404650C700F9011A8E064027007E5
:10316800AA0AAB0B12191179007426121E9A7F0C49
:10317800021FAD74F2121EDB890BEAFEEBFF8C080E
:103188008D09750A0AE50B600C1460091460441473
:10319800606402321FEEFAEFFB1218B7E9F50AE590
:1031A8000AC3940A5071E5084509606B750C0675E9
:1031B8000D00780C1220EEEEFCEFFDAA08AB091208
:1031C80015BD7402121E9A8A0C8B0D850C82850D12
:1031D800838044EEFAEFFB1218B1E9F50AE50AC359
:1031E800940A5033E5084509602DAA08AB09A90AD5
:1031F8001218ABE98021EEFAEFFB1218BDE9F50AC7
:10320800E50AC3940A5010E5084509600AAA08AB04
:1032180009A90A1218ABE9A90A7F06021FAD74F2C0
:10322800121EDB8A0C8B0DE9FE7F1574FF650C708E
:103238000474FF650D702A750800E508C3940A50E8
:1032480014EEFC7A027B00A908121887E960027F55
:1032580000050880E5EE60637AFF7B181210418054
:103268005AAA0CAB0D1210238A0A8B0B850A088503
:103278000B09E508450960417C007D00E508240547
:10328800FAE5093400FB850882850983A3A3A3A373
:10329800E0F9121869E9F50AE50AC3940A500EEE36
:1032A800FC7A027B00A90A121887E97F00EE600BFE
:1032B800AA08AB091218FF80027F14EFF97F0602F3
:1032C8001FAD74EE121EDB8A0E8B0F8C0A8D0B74E9
:1032D80012121ECFE0F50CA3E0F50D75081574FF6A
:1032E800650E700474FF650F701E7E00EEC3940AAD
:1032F8005062AC0CAD0DAA0AAB0BEEF912188DE9B1
:1033080060037508000E80E4AA0EAB0F1210238A22
:10331800108B11AE10AF11EE4F60367C007D00EEC1
:103328002405FAEF3400FB8E828F83A3A3A3A3E0C6
:10333800F9121869E9F509E509C3940A5016AC0CA5
:10334800AD0DAA0AAB0BA90912188DE97508008002
:1033580003750814A9087F0A021FAD74F7121EDB53
:10336800EAFEEBFF9008BBEEF0A3EFF09008A1E0B7
:10337800FC7D007A237B00120AADE9F5089008A1CC
:10338800E0F9120DA17F01021FAD74EE121EDB746D
:10339800EC121E848A0A8B0B850A82850B83A3A3F1
:1033A800E024FA70030238CB24FD7003023741147D
:1033B800700302348514601024FD70030236E9148A
:1033C80070030237810238EEAE0AAF0B9008BBE0FB
:1033D800F8A3E0F9E84960699008BBE0F8A3E0F5D4
:1033E800838882E0F8A3E0F9E8496055EE240CF5FB
:1033F80082EF3400F583E0F50878081220F2EE2415
:103408000BF582EF3400F583E0F98E828F83A3A356
:10341800A3A3A3A3A3A3A3E0FCA3E0FDEE2403FAC4
:10342800EF3400FB9008BBE0F8A3E0F5838882E066
:10343800F8A3E0F5838882121ED97401121E9A80BF
:10344800398E828F83A3A3A3A3A3A3A3A3A312212B
:10345800059008B7121D72120B497402121E9AE9E0
:10346800601879018E828F83A3A3A3A3A3A3A3A328
:10347800A3E0FAA3E0FB120B43E90238EEAE0AAF71
:103488000B8E828F83A3E060030236978E828F8330
:10349800A3A3A3A3A3E0A2E040030236977C0E7D7A
:1034A800007900851882851983AA82AB831215D505
:1034B8008A088B09AA08AB098E828F83A3A3A3A3CA
:1034C800A3A3A3A3E0F8A3E0F9E849603D750806C3
:1034D80075090078081220EE8E828F83A3A3A3A318
:1034E800A3A3A3A3E02410FCA3E03400FD740212FC
:1034F8001ECFAA82AB831215BD7402121E9A8A08C7
:103508008B0985088285098380548E828F83A3A3C3
:10351800A3E0FAA3E0FB1210238A0C8B0D850C089C
:10352800850D09E50845096032750C06750D0078AA
:103538000C1220EEE5082405FCE5093400FD7402B0
:10354800121ECFAA82AB831215BD7402121E9A8A6C
:103558000C8B0D850C82850D8380030238EE8E82DC
:103568008F83A3A3A3A3A3E0A2E25004D2F0800216
:10357800C2F0A2F0E433F87900740C121ECFE048D0
:10358800F0A3E049F08E828F83A3A3A3A3A3A3A3F0
:10359800A3A3A3E0F8A3E0F9E84960238E828F8310
:1035A800A3A3A3A3A3A3A3A3A3A3E0F8A3E0C8246E
:1035B80010F582E83400F583780C121D54800C75E0
:1035C8000CFF750DFF750EFF750FFF8E828F83A39D
:1035D800A3A3A3A3A3A3A3A3A3E0F8A3E0F9E849A3
:1035E80060178E828F83A3A3A3A3A3A3A3A3A3A3DC
:1035F800E0F508A3E0F50980067508007509008E56
:10360800828F83A3A3A3A3A3A3A3A3E0F8A3E0F9B2
:10361800E84960158E828F83A3A3A3A3A3A3A3A3C2
:10362800E0F510A3E0F5118006751000751100781B
:103638000C1220EA78081220EE78101220EEEE2400
:103648000CF582EF3400F5831221058E828F83A357
:10365800A3A3A3A3A3E0FCA3E0FD740A121ECFAAB0
:1036680082AB8312189F740A121E9AE9F5088E829B
:103678008F83A3A3A3E0F8A3E0F990094BE8F0A394
:10368800E9F07A017B009008A1E0F9121611E9909F
:1036980008BBE0F8A3E0F9E84960439008BBE0F80C
:1036A800A3E0F5838882A3A3E0F8A3E0F9E84960E2
:1036B8002D8E828F83A3E0FC79018E828F83A3A352
:1036C800A3E0FAA3E0FB9008BBE0F8A3E0F5838849
:1036D80082A3A3E0F8A3E0F5838882121ED90238FA
:1036E800EEAE0AAF0B9008BBE0F8A3E0F9E849603A
:1036F800459008BBE0F8A3E0F5838882A3A3E0F82F
:10370800A3E0F9E849602F850A82850B83A3E0FCD2
:1037180079028E828F83A3A3A3E0FAA3E0FB90082B
:10372800BBE0F8A3E0F5838882A3A3E0F8A3E0F563
:10373800838882121ED90238EEAE0AAF0B7C007D58
:1037480000EE2404FAEF3400FB8E828F83A3A3A338
:10375800E0F9121869E9F508E508C3940A5017EE6C
:10376800240AFCEF3400FD7A0475F006E508A42469
:1037780025F9121A8BE90238EEAE0AAF0B9008B69B
:10378800E060189011ABE0F98E828F83A3A3A3E0C9
:10379800FAA3E0FB120B43E90238EE9011A8E0709F
:1037A8001579058E828F83A3A3A3E0FAA3E0FB1209
:1037B8000B43E90238EE8E828F83A3A3A3E0FAA31A
:1037C800E0FB1210238A0C8B0D850C08850D098EE1
:1037D800828F83A3A3A3A3A3A3A3E0A2E05075E5CC
:1037E800084509606C850882850983A3A3A3A3E023
:1037F80060628E828F83A3A3A3A3A3A3A3A3A3E042
:10380800F8A3E0F9E8C4540FF879005401F8E95432
:1038180000F9E8A2E0403D740E121ECFAC82AD83E1
:10382800E5082405FAE5093400FB85088285098343
:10383800A3A3A3A3E0F9121869E9701879038E828B
:103848008F83A3A3A3E0FAA3E0FB120B43E902389A
:10385800EE0238EEEE2405FCEF3400FD8508828583
:103868000983A3A3A3A3E0F98E828F83A3A3A3E074
:10387800FAA3E0FB12190B9008BBE0F8A3E0F9E803
:103888004960639008BBE0F8A3E0F5838882A3A3AE
:10389800E0F8A3E0F9E849604D7C0079008E828F5A
:1038A80083A3A3A3E0FAA3E0FB9008BBE0F8A3E09E
:1038B800F5838882A3A3E0F8A3E0F5838882121E2B
:1038C800D98023120C0FE9701D90094AE064017039
:1038D8000B1218D5E9F890094A7400F07950121AB9
:1038E80097E9FE1218C37414121E9A7F0A021FADBC
:1038F80074F3121EDB74F2121E848909EAFEEBFFD0
:103908008C0C851882851983AC82AD837A0E75F08C
:1039180006E509A42420F9121A91E970727C067947
:10392800FF851882851983AA82AB83121635E97040
:103938005E740C121ECFE0F8A3E0F9E8F508E50C78
:103948006005EE42088004EEF4520885080A750BFB
:1039580000740C121ECFE0650A7004A3E0650B60CA
:103968002AE508A8087900740C121ECFE508F0A310
:10397800E9F0851882851983AC82AD837A0E75F0DB
:1039880006E509A42420F9121A8BE9790180027945
:1039980000740E121E9A7F05021FAD74F0121EDB12
:1039A80074E6121E84890B8A0C8B0DECFEEDFF74F5
:1039B8000C121ECFAC82AD837A0E75F006E50BA40F
:1039C8002420F9121A91E96003023B077C0679FF6B
:1039D800740C121ECFAA82AB83121635E96003025B
:1039E8003B07851882851983AC82AD837A0C747085
:1039F800250BF9121A91E96003023B03750A008549
:103A08001882851983AA82AB83121899E50C450D93
:103A1800703A7C0C7900851882851983AA82AB8359
:103A2800121635E96003023ADD7C0C7D00790085C9
:103A38001882851983AA82AB831215D58A088B0947
:103A4800850882850983750A01023ADD8518828511
:103A58001983AC82AD83AA0CAB0D1218938A0E8B16
:103A68000F850E08850F09E50845097036EE4F6089
:103A780021851882851983AC82AD837A007B001278
:103A880018938A0E8B0FA80EA90F88088909E84990
:103A980070047900806B850882850983E50CF0A3A2
:103AA800E50DF0850882850983A3A3E0F87900EE87
:103AB800687002EF69601EEE850882850983A3A3FA
:103AC800F0EE4F700D8508828509837400F0A374A9
:103AD80000F0750A01E50A6022851882851983AA13
:103AE80082AB83121899851882851983AC82AD83BD
:103AF8007A0C7470250BF9121A8BE9790180027916
:103B080000741A121E9A7F08021FAD74F7121EDB8A
:103B1800EAFEEBFF7B00EBC39404504EEBF8790010
:103B2800E875F003A4C8AAF075F000A42AFA75F0A5
:103B380003E9A42AF9EC28F582ED39F583E06E70E3
:103B480003A3E06F7021EBF87900E875F003A4C8CF
:103B5800AAF075F000A42AFA75F003E9A42AF9EC92
:103B680028FAED39FB80070B80AC7A007B007F01D7
:103B7800021FAD74F7121EDB7F00EFC394044003ED
:103B8800023C2AEFF87900E875F003A4C8ACF07598
:103B9800F000A42CFC75F003E9A42CF9EA28F582BE
:103BA800EB39F583E0F4FCA3E0F4FDEFF87900E8E5
:103BB80075F003A4C8AEF075F000A42EFE75F003EE
:103BC800E9A42EF9EA28F582EB39F583ECF0A3EDA8
:103BD800F0EFF87900E875F003A4C8ACF075F000D0
:103BE800A42CFC75F003E9A42CF9EA28F582EB393A
:103BF800F583A3A3E0F4C0E0EFF87900E875F003DB
:103C0800A4C8ACF075F000A42CFC75F003E9A42C52
:103C1800F9EA28F582EB39F583A3A3D0E0F00F0287
:103C28003B827F01021FAD74EA121EDB74F4121E80
:103C380084EAFEEBFF8C108D117422121ECFE0F582
:103C48000EA3E0F50F7424121ECFE0F50CA3E0F5E7
:103C58000D7426121ECFE0F50AA3E0F50BEE4F70A7
:103C680005790A023DA5EEFAEFFB1218B7E9F50847
:103C7800E508C3940A40061218C9E9F508E508C31F
:103C8800940A4003023DA3EEFCEFFD7A0E75F006A0
:103C9800E508A42420F9121A8BE9F8E5104511600B
:103CA80013AC10AD117A1B75F006E508A42421F9B0
:103CB800121A8BE9E50E450F6013AC0EAD0F7A1B97
:103CC80075F006E508A42422F9121A8BE9E50C45DB
:103CD8000D6013AC0CAD0D7A1075F006E508A42440
:103CE80023F9121A8BE9E50A450B602DAC0AAD0BD6
:103CF8007A1075F006E508A42424F9121A8BE9F560
:103D0800097428121ECFAC82AD837A0475F006E5DB
:103D180008A42425F9121A8BE97C0C7D0079FF850B
:103D28001882851983AA82AB831215D58A128B1340
:103D3800851214851315851882851983AC82AD8385
:103D48007A0C74702508F9121A8BE9F50975120EA8
:103D580075130078121220EEEEFCEFFDE508A808B6
:103D68007900E875F00EA4C8AAF075F000A42AFA44
:103D780075F00EE9A42AF974BD28FA740839FB1203
:103D880015BD7402121E9A8A128B13A812A91390D9
:103D98000949E0600312191D121905A908740C12CB
:103DA8001E9A7F0E021FAD74F7121EDB74F2121EEC
:103DB80084E9FE851882851983AC82AD837A0E75F5
:103DC800F006A42420F9121A91E9700E740C121E40
:103DD800CFE0F8A3E0F9E8F980027900740E121E2A
:103DE8009A7F01021FAD74F4121EDB74F2121E8456
:103DF8008909EAFEEBFFE509C3940A5004EE4F7007
:103E0800047902804B851882851983AC82AD837A48
:103E18000E75F006E509A42420F9121A91E9F508AF
:103E2800E508702A750A06750B00780A1220EE74E8
:103E380002121ECFAC82AD83EEFAEFFB1215BD74F1
:103E480002121E9A8A0A8B0B850A82850B83A9089F
:103E5800740E121E9A7F04021FAD74F4121EDBEA60
:103E6800FEEBFF750800E508C3940A5045750A067D
:103E7800750B00780A1220EEEEFCEFFDE508A808A5
:103E88007900E875F00EA4C8AAF075F000A42AFA23
:103E980075F00EE9A42AF974C328FA740839FB12DC
:103EA80015CF7402121E9AE96004A9088006050855
:103EB80080B4790A7F04021FAD74F4121EDBEAFE97
:103EC800EBFF750800E508C3940A5045750A0675A6
:103ED8000B00780A1220EEEEFCEFFDE508A8087941
:103EE80000E875F00EA4C8AAF075F000A42AFA75C7
:103EF800F00EE9A42AF974BD28FA740839FB1215E2
:103F0800CF7402121E9AE96004A908800605088089
:103F1800B4790A7F04021FAD74F7121EDB74F01225
:103F28001E84EAFEEBFF750800E508C3940A504BAF
:103F3800851882851983AC82AD837A1075F006E501
:103F480008A42423F9121A91E9702C7C1079FF85B2
:103F58001882851983AA82AB83121635E97018EE88
:103F6800FCEFFD851882851983AA82AB83120B1991
:103F7800E97004A9088006050880AE790A74101251
:103F88001E9A7F01021FAD74F4121EDB750800E54E
:103F980008C3940A4003024071E508A8087900E8BC
:103FA80075F00EA4C8AAF075F000A42AFA75F00EF0
:103FB800E9A42AF974BD28FC740839FD7A0E75F055
:103FC80006E508A42420F9121A91E9700302406C4E
:103FD8007C067D0079FFE508AA087B00EA75F00EEB
:103FE800A4CAA8F075F000A428F875F00EEBA42870
:103FF800FB74BD2AFA74083BFB1215D58A0A8B0B91
:10400800AE0AAF0B7C067D0079FFE508AA087B00A5
:10401800EA75F00EA4CAA8F075F000A428F875F0A7
:104028000EEBA428FB74C32AFA74083BFB1215D5BF
:104038008A0A8B0BAC0AAD0BE508A8087900E8756D
:10404800F00EA4C8AAF075F000A42AFA75F00EE9DB
:10405800A42AF974C928F582740839F5837400F024
:10406800A37400F00508023F97900949E060031225
:10407800191D1219057F04021FAD74F7121EDB7E8D
:1040880000EEC3940A50327C0679FFEEFA7B00EA10
:1040980075F00EA4CAA8F075F000A428F875F00E03
:1040A800EBA428FB74BD2AFA74083BFB121635E909
:1040B8006004EEF980050E80C8790A7F01021FAD01
:1040C80074F7121EDB7E007F00EFC3940A502F7C2A
:1040D8000679FFEFFA7B00EA75F00EA4CAA8F0751E
:1040E800F000A428F875F00EEBA428FB74BD2AFA9A
:1040F80074083BFB121635E970010E0F80CBEEF900
:104108007F01021FAD74F7121EDB7E007F00EFC334
:10411800940A500DEE700AEFF91218DBE9FE0F80D1
:10412800EDEEF97F01021FAD74EE121EDB74CB12A7
:104138001E84E9FE7427121ECFAC82AD837A0E75F9
:10414800F006EEA42420F9121A91E96003024271E4
:104158007C0679FF7427121ECFAA82AB831216350C
:10416800E960030242717C0E7D0079FF7427121EFC
:10417800CFAA82AB831215D58A0A8B0B850A0E85C6
:104188000B0F7C1B7D0079FF740C121ECFAA82AB2B
:10419800831215D58A0A8B0B850A0C850B0D7C0CAE
:1041A8007D0079FF851882851983AA82AB83121551
:1041B800D58A108B1185100A85110B7427121ECF12
:1041C800AC82AD837A0E75F006EEA42420F9121A9B
:1041D8008BE9F508740C121ECFAC82AD837A1B757F
:1041E800F006EEA42421F9121A8BE94208740C1285
:1041F8001ECFAC82AD837A1B75F006EEA42422F99B
:10420800121A8BE94208740C121ECFAC82AD837A65
:104218001075F006EEA42423F9121A8BE9420874EB
:104228000C121ECFAC82AD837A1075F006EEA42472
:1042380024F9121A8BE94208740C121ECFAC82AD15
:10424800837A0475F006EEA42425F9121A8BE94244
:1042580008851882851983AC82AD837A0C74702E18
:10426800F9121A8BE942088003750800A908743509
:10427800121E9A7F0A021FAD74F7121EDBE9FE9028
:1042880008A1F01218C37F01021FAD74F2121EDBE1
:10429800890A8A088B09E5085400F8E5095480F969
:1042A800E84960339008A1E0F91215F98A0C8B0DE2
:1042B800A80CA90DE8FEE9FFE849600FEEFAEFFB4C
:1042C8001218EDEEFAEFFB1215E7E9E5086400FABB
:1042D800E5096480FB8021E508A2E0501790094BAE
:1042E800E0FAA3E0FB121923E5086401FAE5096482
:1042F80000FB80047A007B007F06021FAD74F71272
:104308001EDBEAFEEBFF8E828F83E02450601014E0
:10431800601624E17019EEFAEFFB1218818010EE96
:10432800FAEFFB1218F38007EEFAEFFB1218F97F89
:1043380001021FAD74F7121EDBEAFEEBFF8E828FBF
:1043480083A3A3A3A3E0641E701179008E828F83D8
:10435800A3A3E0FAA3E0FB12186FE97F01021FADE7
:1043680074F6121EDBEAFEEBFF8E828F83A3A3A3F3
:10437800A3E0703A8E088F09850882850983A3A374
:10438800A3A3A3A3A3122105850882850983A3A358
:10439800A3A3A3E0FCA3E0FD850882850983A3A36A
:1043A800E0FAA3E0FB1218757402121E9AE97F0264
:1043B800021FAD74F7121EDBEAFEEBFF9008A1E0C6
:1043C800F98E828F83A3E0FAA3E0FB120E2BE97F1C
:1043D80001021FADC082C08374FF121E841218CF61
:1043E800E9C39402400B8518828519837402F08012
:1043F80009851882851983740AF0851882851983BE
:10440800AC82AD837A017905120C27E97401121E7A
:104418009AD083D08202013574F2121EDB74E8123E
:104428001E84EAFEEBFF890A8C088D097C187D0042
:104438007900851882851983AA82AB831215D58ADB
:104448000C8B0DAC0CAD0D851882851983EEF0A38D
:10445800EFF09008A3E0C0E07402121ECFD0E0F0A5
:104468009008A4E0C0E07403121ECFD0E0F09011D1
:10447800ADE0C0E07417121ECFD0E0F07415121E24
:10448800CFE054FEF8A3E054FFF99011ACE0A2E0AD
:10449800E433FA7B00E84AF8E94BF97415121ECFA9
:1044A800E8F0A3E9F09011ACE0A2E15004D2F0806A
:1044B80002C2F07415121ECFE054FDFAA3E054FFB7
:1044C800FBA2F0E433F87900C333F8E933F9EA489A
:1044D800F8EB49F97415121ECFE8F0A3E9F0901132
:1044E800ACE0A2E35004D2F08002C2F07415121EB0
:1044F800CFE054F7FAA3E054FFFBA2F0E433F50C45
:10450800750D007403780C121E71EA450CF8EB4522
:104518000DF97415121ECFE8F0A3E9F09011ACE084
:10452800A2E45004D2F08002C2F07415121ECFE04B
:1045380054EFFAA3E054FFFBA2F0E433F50C750D39
:10454800007404780C121E71EA450CF8EB450DF95D
:104558007415121ECFE8F0A3E9F09011ACE0A2E5C3
:104568005004D2F08002C2F07415121ECFE054DF5E
:10457800FAA3E054FFFBA2F0E433F50C750D0074C8
:1045880005780C121E71EA450CF8EB450DF9741507
:10459800121ECFE8F0A3E9F09011ACE0A2E25004BB
:1045A800D2F08002C2F07415121ECFE054FBFAA3B9
:1045B800E054FFFBA2F0E433F50C750D00740278AB
:1045C8000C121E71EA450CF8EB450DF97415121E14
:1045D800CFE8F0A3E9F09008A4E0602A750C107504
:1045E8000D00780C1220EE7CA57D087406121ECFF3
:1045F800AA82AB831215BD7402121E9A8A0C8B0D07
:10460800850C82850D839008B5E06012E50A600E7E
:104618007415121ECFE04402F0A3E04400F09008A5
:10462800B5E0600678017900800478007900741498
:10463800121ECFE048F09008A2E0600678047900E6
:104648008004780079007414121ECFE048F0AC089A
:10465800AD09851882851983AA82AB83120B3DE9BF
:104668007418121E9A7F06021FAD74F7121EDBEA39
:10467800FEEBFF7508009008B5E060067801790048
:10468800800478007900E842089008A2E060067883
:10469800047900800478007900E84208A908EEFA55
:1046A800EFFB120BF7E97F01021FAD74EE121EDB60
:1046B80074E5121E848A0C8B0DE9FF8C088D097431
:1046C8002D121ECFE0F50A74086509700A75F00608
:1046D800EFA42422FE800875F006EFA42421FE7CB6
:1046E8001B7D007900851882851983AA82AB831205
:1046F80015D58A108B1185100E85110F85188285A6
:104708001983AC82AD837A1BEEF9121A91E9703CD9
:10471800741A121ECFE0C394074031741A121ECFC8
:10472800E0C394115026E50AF50B780B1220F274B9
:1047380001121ECFAC82AD83E508A2E0E433F9AAEA
:104748000CAB0D120B4F7401121E9AE9741B121E4A
:104758009A7F0A021FAD74F7121EDB120E9DE97EC6
:1047680000EEC3940A50557C0679FFEEFA7B00EA06
:1047780075F00EA4CAA8F075F000A428F875F00E1C
:10478800EBA428FB74BD2AFA74083BFB121635E922
:104798007027EEF87900E875F00EA4C8AAF075F055
:1047A80000A42AFA75F00EE9A42AF974BD28FA744F
:1047B8000839FB7900120EA3E90E80A57F01021FBC
:1047C800AD74F4121EDB74FB121E848A088B097404
:1047D80003121ECF85820A85830B780A1220EE7594
:1047E8000A02750B00780A1220EE750A7A750B8298
:1047F800780A1220EE7CFF7DFF7A017B00120CF311
:104808007406121E9A8A0A8B0BAE0AAF0BEE4F7013
:10481800030248D3E4F50AF50B780A1220EE740473
:10482800121ECF85820A85830B780A1220EE740443
:10483800121ECF85820A85830B780A1220EE74092E
:10484800121ECF1221057902EEFCEFFDAA08AB0972
:10485800120E197408121E9AE97043851882851978
:1048680083E0FA7B007401121ECFE0F87900E4C8F7
:10487800F9EA28F50AEB39F50BE50A450B601F78CC
:104888000A1220EE8E828F83A3A3A3A3E0FCA3E0E9
:10489800FDAA08AB091218757402121E9AE9E4F50C
:1048A8000AF50B780A1220EE7405121ECF122105A4
:1048B8007CFF7DFFEEFAEFFB120CFF7404121E9AC8
:1048C8008A0A8B0BAE0AAF0B0248157405121E9AA2
:1048D8007F04021FADC082C083E9900B35F0024B04
:1048E8006174F7121EDBE9900322F07C5A7D037A8B
:1048F800FF7BFF120E3190032374FFF0A3F0A3E4B3
:10490800F0A3F07905120DB9900322E0F9120CDB3F
:104918007A4F7B0E12101102586F74F4121EDB8A44
:10492800088B09EB54806030900322E0F91215F9E6
:104938008A0A8B0BAE0AAF0BEE4F60138E828F8301
:10494800E064B07003120DD1EEFAEFFB1215E7AA7E
:1049580008E5096480FB80047A007B00024B307410
:10496800F2121EDB74FC121E84EAFEEBFF741212B4
:104978001ECF125D56EE4F7003024A0A7402121ED1
:10498800CFEEF0A3EF124D6BECF0A3ED124D6BAA36
:1049980082AB83120CD5E9F50A706AE5084509600F
:1049A800648E828F83125D3CEE4F60567A067B00E0
:1049B80012165F8A0C8B0DA80CA90DE849700575B5
:1049C8000A13804188828983E4124A17EEF0A3EF24
:1049D800125D67E508F0A3E509F0900328124A9EE6
:1049E8009003287005125819801B1258078003EA93
:1049F800FCEBFD8C828D83124A9E70F38C828D8332
:104A080080E3750A02A90A7404121E9A025F56F01E
:104A1800A3125D0DA32274F2121EDB890AE975F058
:104A280017A4FEAFF0900327E4F0900325124A9EE6
:104A3800600A121665900325E4F0A3F0EEFAEFFB86
:104A480012165F8A088B09EA4509602FEEFCEFFD14
:104A580079001215D5900325E508F0A3E509F07B48
:104A6800008008124A88E4F0A3F00BEBC3950A40D3
:104A7800F2E50A900327F0790080027913025F5665
:104A8800EB75F017A4F8A9F0900325E028FAA3E045
:104A9800398A82F583221254ABEA4B2274F4121E2F
:104AA800DB740C121ECF125D31FEE9FF750800752C
:104AB8000900800CE5082401F508E5093400F5092A
:104AC800C3E5089CE5099D503285080A85090B74E1
:104AD80003780A121E71EA250AF8EB350BF9888269
:104AE8008983A3A3A3A3A3A31258EEEE650A7003B8
:104AF800EF650B70BFE8FAE9FB80047A007B008061
:104B08002774F4121EDB7900EAA2E0501B750856E0
:104B180075098178081220EE7C047D007A377B0BBA
:104B2800120DB37402121E9A7F04021FADC082C018
:104B380083900328124B68601C88828983A3A3E0B2
:104B48006A7003A3E06B8882898370E8A3A3A3A398
:104B58001254A780047A007B00D083D082020135EA
:104B680012603CE8492274EE121EDB74FC121E84AB
:104B7800EAFEEBFF851882851983E4F0A3F0EE24A2
:104B8800021257F9EE2405125D14EE2404F50EEF17
:104B9800125120E024FE603924FC604624FE605255
:104BA80024FE605E24FE7003024C8124FE70030222
:104BB8004CE524FE7003024CF424FE7003024D03FE
:104BC80024FC7003024D1224FE7003024D21024D95
:104BD8005E9003417417F0A3E4124D7312096F023B
:104BE8004D5E851882851983AC82AD83120DD7027C
:104BF8004D2E851882851983AC82AD83120DDD0296
:104C08004D2E850C08850D097402121ECFAC82AD9D
:104C1800838508828509831254A7120CF98A0C8BA4
:104C28000DAC0CAD0DEC4D603BE4F50CF50D780CBE
:104C38001220EE750C41750D03780C1220EE750CE0
:104C480042750D03780C1220EE7408121ECF122143
:104C5800051261B8121E9AE9F50C700B12549D12D8
:104C68000987800F750C01850882850983124D61BB
:104C7800125819850C08024D317402121ECFAC82ED
:104C8800AD83850C82850D83125272603C850C823F
:104C9800850D83A3A31221057510417511037810A2
:104CA8001220EE75104275110378101220EE740868
:104CB800121ECF1221051261B8121E9AE9F5097069
:104CC8000B12549D12098D800F750901850C828580
:104CD8000D83124D61125819850908804C85188278
:104CE800851983AC82AD83120DE3803A85188285DD
:104CF8001983AC82AD83120DE9802B851882851942
:104D080083AC82AD83120DEF801C851882851983D0
:104D1800AC82AD83120DF5800D851882851983ACA0
:104D280082AD83120DFBE9F508E50860298E828FB4
:104D380083A3E06414601F850E82850F83E09003CF
:104D480041124D6B126038900342125819E508A3BE
:104D5800124D7312096902570812603C8518828542
:104D6800198322F085188285198322F07C417D03FE
:104D7800850A82850B831254AB2274EE121EDB74F3
:104D8800FC121E848A0A8B0B8C0E8D0FEA2405F503
:104D980008EB3400F5097C157D0079007A417B0326
:104DA8001215D5E5082402F50CE509125D178518DA
:104DB8008285198385821085831178101220EE85EB
:104DC8000882850983A3A3A3A31252691220EEE5E2
:104DD800082405F510E5093400F51178101220EEC5
:104DE800850C82850D831255BE120CF37406121EB3
:104DF8009A8A108B11AE10AF11E50A2402F50AE564
:104E08000B1257FCEE4F7003024F408017740212CA
:104E18001ECF1254A788828983EAF0A3EBF090038F
:104E280041E004F0900341E0C394054003024F4081
:104E3800E4F510F51178101220EE75102A7511039B
:104E480078101220EE75102B75110378101220EED1
:104E58007406121ECF1221057910EEFCEFFD1261C7
:104E6800BA121E9AE9705E850882850983A3A3A3F6
:104E7800A3A3A3A3E0F890032AE06870481252693C
:104E88001220EE7C2B7D03E5082408FAE50934009E
:104E9800FB1215CF7402121E9AE960298E828F8345
:104EA800A3A3A3A31254A7900341E0F510740278BA
:104EB80010121E7174422510F58274033511F583A2
:104EC800EAF0A3EBF07402121ECF858210858311DD
:104ED80078101220EE7402121ECF122105850C8262
:104EE800850D831254CD121E9A8A108B11AE10AF05
:104EF80011900341E0F51075110074027810121E2C
:104F08007174412510F874033511F988828983A3D7
:104F1800124A9E7003024E0CE82403080808E9347C
:104F280000F9EE4F6003024E158882898374FFF002
:104F3800A3F0900341E004F0900341E0600A1254AA
:104F48009D12097B7900800B850882850983125898
:104F580010790A02570874EA121EDB74FE121E84C6
:104F68008C128D13EA2405F50CEB1261A2125D4038
:104F7800750800750900EA2402F510EB3400F511F4
:104F880085188285198385820A85830B780A122001
:104F9800EE850C82850D83A3A3A3A312513612209C
:104FA800EEE50C2405F50AE50D1257FC780A1220E7
:104FB800EE850C82850D8312513A120CF374061299
:104FC8001E9A8A0A8B0BEA450B70030250DBEA240F
:104FD80004F50EEB125120125D408A828B83A3A345
:104FE800A3E0F98510828511831254B16003025041
:104FF800DBE4F514F51578141220EE75142A7515EE
:105008000378141220EE75142B75150378141220EA
:10501800EE7406121ECF1221057913AC0AAD0B856A
:1050280010828511831261C0121E9AE9F509600386
:105038000250DB90032AE0F8E5087009E0240290AA
:105048000342F08014900342E0FCE82402FAE434BE
:1050580000FBEA6C7001EB707E850882AA8212520E
:10506800609414125258506B850E82850F83E0C0ED
:10507800E074432A125117D0E0F00508850E8285A6
:105088000F83A3E0C0E085080A7443250A1251176C
:10509800D0E0F0050890032A1251361220EE7C2B3E
:1050A8007D0385080A7443250A12512A121E9A9014
:1050B800032AE02508F50874FF6E700374FF6F601B
:1050C80012EE24010EEF3400FFE508C394145003D8
:1050D800024F88E50860131254BB8510828511833E
:1050E8001254A712098179008014E5097003750923
:1050F8000A851282851383EEF0A3EFF0A9097402E2
:10510800121E9A7F0E021FAD85080C7443250CF5FC
:105118008274033400F583223400F50F850E82F57E
:105128008322FA74033400FB1215BD740222125D47
:105138007622A3A312514022125807FDEEFAEFFB84
:105148002274EE121EDB74FE121E848C0E8D0FEA82
:105158002405F50CEB125D17750B00900341E4F084
:10516800F50AEA2402F508EB3400F50980449003B7
:1051780041E0FA90032AE0F812526094171252584C
:10518800400D900341E0F87416C39890032AF0127A
:1051980052691220EE7C2B7D0374422AFA740312A2
:1051A800512D121E9A90032AE0F8900341E028F04E
:1051B800050AE50C2416F582E50D12511BE0F8E509
:1051C8000AC3985074900341E0C39416506BE50AE3
:1051D800C333F8E433F9E50C28FEE50D39FF8518EB
:1051E80082851983AC82AD838E828F83125272704E
:1051F80008750B0112580C8050E4F510F511781061
:105208001220EE75102A75110378101220EE751011
:105218002B75110378101220EE7406121ECF12217E
:105228000579168508828509831261C0121E9AE9DC
:10523800F50B700302517680BB7C417D03850882A3
:105248008509831254A7120993A90B740202570AFD
:10525800E99400C365D03322EA28F8E43400F9E879
:1052680022E0F5107511007810221256FF8A108B73
:1052780011AC10AD11EC4D2274EA121EDB74FC1255
:105288001E848A0C8B0D8C128D13EA2405F50AEB0B
:105298001257FC750800750900E50A2402F510E5A7
:1052A8000B3400F5117402121ECF85820E85830F10
:1052B800780E1220EE850A82850B83A3A3A3A3127E
:1052C8005D1C1220EEE50A2405F50EE50B3400F509
:1052D8000F780E1220EE8510828511831258021263
:1052E80054A1120CF37406121E9A8A0E8B0FAE0E7E
:1052F800AF0FE50C2402F50EE50D3400F50F8038EC
:105308008882898374FFF0050812511074FFF00534
:105318000890032AE0F50C750D00780C1220EE7C3D
:105328002B7D0385080C7443250C12512A121E9AF2
:1053380090032AE02508F508EE4F60278E828F83B8
:10534800A3A3A3E0F9850E82850F831254B1EE243E
:1053580004125D14E96027850C82850D831254932D
:10536800125819E50870030254791254BB850E824D
:10537800850F831254A7120999790002548EE4F517
:1053880014F51578141220EE75142A75150378147F
:105398001220EE75142B75150378141220EE74087C
:1053A800121ECF1221057911EEFCEFFD850E8285C4
:1053B8000F831261C0121E9AE9F509709A85088256
:1053C800AA82EA90032A7009E02404900342F0803C
:1053D80025E0F8900342E0F514E82404FCE43400E6
:1053E800FDEC65147001ED70811252609412125236
:1053F800584003025372850C82850D83E0C0E07427
:10540800432A125117D0E0F00508850C82850D83D8
:10541800A3E0C0E0125110D0E01254D685820C856A
:10542800830D780C1220EE7404121ECF122105850C
:1054380010828511831254CD121E9A8A0C8B0DAEE0
:105448000CAF0D85080C7443250CF874033400F96F
:10545800EE4F7003025308851882851983E088820D
:1054680089831254D6A3E0C0E0125110D0E0025351
:1054780016E509700375090A850A82850B8312549B
:1054880093125819A909740402510812603C851234
:1054980082851383227C417D03850A82850B8312D2
:1054A80054AB22E0FAA3E0FB221254AB120CE1E960
:1054B800F50922900342E0F5F0E50884900341F0F5
:1054C8007C417D0322125140120CFF740422F00526
:1054D800088518828519832274EC121EDB74FE126B
:1054E8001E848A088B098C0E8D0FEA2405FEEB3486
:1054F80000FF1256E9EE2418125D14EA450B7003FA
:1055080002558C1256D250291255B18A108B11EAC5
:105518004511606B7912AC0AAD0B85088285098349
:105528001254A7851082851183121ED9E9F50A70D5
:1055380058E4F50AF50B780A1220EE8E828F83A3C1
:10554800A3E0F50A780A1220EEEE24031257F97840
:105558000A1220EE8E828F831255BE120E1F740619
:10556800121E9AE9F50A7021850C82850D83E07078
:105578001F8508828509831254A712099F80117517
:105588000A0E8009750A018004E50A600312580CA6
:10559800850C82850D83E0600479008002A90A7475
:1055A80002121E9A7F0C021FAD851882851983127C
:1055B80054AB120E0D22125807FD85088285098307
:1055C8001254AB2274EE121EDB74FE121E848A087B
:1055D8008B098C0C8D0DEA2405FEEB3400FF750E4B
:1055E800001256E9EA450B70030256B01256D25023
:1055F8002C1255B18A0E8B0FEA450F604A7912AC0E
:105608000AAD0B8508828509831254A7850E828509
:105618000F83121ED9E9F50E60030256B38508827E
:105628008509831258EEAA0AFB1256C470147AFF31
:105638007BFF1256C4606C88828983E50AF0A3E573
:105648000BF0750A008007750E0E805F050A90033F
:1056580027E0FAE50AC39A504AE50A75F017A4FA52
:10566800ABF088828983A3A3E02AFAA3E03BFB8AF4
:10567800828B83125802EC4D70D2750A17750B0095
:10568800780A1220EEEEFCEFFD1215BD7402121E10
:105698009AEEFCEFFD8508828509831254A712094A
:1056A800A58014750E098003750E01126034850CEF
:1056B80082850D83125819A90E025253120E018ABF
:1056C800108B11A810A911E84922E5082402F50851
:1056D800E5093400F5098A828B83A3A3A3E0A2E538
:1056E80022851882851983AC82AD838E828F8312BE
:1056F80056FF8A0A8B0B22E0FAA3E0FB120CF92270
:105708007404121E9A7F0A021FAD74EC121EDB8C01
:10571800108D11EA2405F50CEB125D17750F00EAE0
:105728002402F50AEB1257FC850A82F5831254A766
:1057380012624670030257EE750E008071850C8266
:10574800850D83E06401704F8E828F83A3A312219D
:10575800058E828F83A3A3A3A3E0F51275130078A7
:10576800121220EEEE2405F512EF3400F51378122C
:105778001220EE1254A1120E1F7406121E9AE9F599
:105788000F6014850C82850D83E4F0126034851057
:10579800828511831258197C177D007900EEFAEF83
:1057A800FB1215D58E828F83E4F0A3F0050E9003CB
:1057B80027E0F8E50EC398501EE50E75F017A4F81B
:1057C800A9F0850882850983A3A31261AC12580247
:1057D800EC4D600302574585088285098374FFF004
:1057E800A3F0E50F70061254A11209ABA90F0255D8
:1057F800ACF50AEF3400F50B22A3125807FD22E09E
:10580800FCA3E0228E828F8312603C850E82850F76
:1058180083E8F0A3E9F022C082C083900323E06A02
:105828007003A3E06B70067A237B0380047A007B05
:1058380000024B6174F7121EDB7F00EF75F003A4C2
:10584800F8A9F0EC28F8ED39F988828983E06A70C4
:1058580003A3E06B7006E8FAE9FB800B0FEFC39433
:105868000240D87A007B007F01021FAD74F6121E39
:10587800DB125E2570067A007B008007A3A3A3A332
:105888001254A7025EE674F2121EDBE9FE740E12D1
:105898001ECF1258EE7410121ECF125D568C828DD8
:1058A80083E06402703BA312603888828983E0F544
:1058B8000CA3E0F9A80C74026870037429697021BC
:1058C800750C02750D00780C1220EE78081220EE87
:1058D800780A1220EEEEF9120E437406121E9A8010
:1058E800027901025F56E0F50AA3E0F50B2274E89D
:1058F800121EDB74FB121E84E9851882851983F059
:105908008A168B178C0E8D0F741F121ECF125D56C0
:105918007421121ECF1258EE7423121ECF125D404E
:105928007510008C828D83A3A3A3E0A2E4502A748F
:105938001D121ECF1255B78A828B83E5824583706C
:1059480003025A02790AAC0EAD0FAA16AB17121E43
:10595800D9E9F5106003025A05850E82850F83E0A8
:1059680064026003025CBBA3126038850882850963
:1059780083A3858212858313E50E2406F50CE50FB3
:10598800125D1788828983E0FAA3E0F9EA2400F51A
:1059980014E439F51578141221780100002801283B
:1059A800CA5907000228A15A0328115A0029CB5BBB
:1059B8000129F35B02299A5B0329CB5B04295C5C10
:1059C800BB5CEE4F703E850C82850D83125D31FA0B
:1059D800E9FB8A828B83E0850A82850B83125D6DE1
:1059E8001220EE8A828B83A3125807FDAA08AB09FE
:1059F8001215BD7402121E9A800375100EA9107438
:105A08000502619A75100B80F4EE4F70F7850A82D3
:105A1800850B837401F0125D46850882850983F041
:105A28007C007D00850E82850F83A3A3A3A3E024B9
:105A380001FAA3E03400FB120CF9EA4B60418A82B8
:105A48008B83E02402F8850A82850B83E028F0EA3C
:105A58002404F8EB3400F988828983E08512828572
:105A68001383125D7F125D6D1220EE8A828B831282
:105A78005801E5082403FAE5093400FB0259F885C2
:105A88000A82850B83E02404F07C047D007900AA57
:105A980012AB131215D5025A05EE4F6003025A0CC9
:105AA800125D46FEA3E0FF850A82850B837404F02D
:105AB800EE850882850983F0EF851282851383F0CD
:105AC8007403121ECFAC82AD83EEFAEFFB125E13A5
:105AD8007003025B778A828B83A3A3125D3C7401F7
:105AE800121ECF85820E85830F780E1220EE740564
:105AF800121ECF1221057CFF7DFF120CFF740412C9
:105B08001E9A8B0FEA450F7033850C82850D831220
:105B18005D1C1220EE850C82850D83A31221057C65
:105B2800027D007A727B82120AA17404121E9AE91D
:105B3800700A7401121ECF74FFF0A3F08E828F8357
