:020000040000FA
:0600000002011D020EF2D8
:03002B000213A419
:030033000213862F
:03005300020F6831
:03006B0002135D20
:10008300020DE3E5C754F84401F5C77901220000E6
:100093000080FB120086B90003020107E4791B7894
:1000A30002B800028004F709D8FCE4791D7802B88D
:1000B30000028004F709D8FCE490028178BC79023D
:1000C3008002F0A3D8FCD9FA781A90014D7A01BACC
:1000D30000028007E493A3F608DAF990043CAA82AD
:1000E300AB8390014E78B879018015E493A3AC8279
:1000F300AD838A828B83F0A3AA82AB838C828D83A8
:10010300D8E9D9E77582BE758366740012012F752D
:100113008291758300740012012F75D00075813FA1
:10012300751881751902759F00020096C09FF59F8F
:10013300E473D09F22D083D082C09FE493C0E07445
:100143000193C0E0740293F59F2201FF0000B40005
:100153000028002800283075A000A000A000A000FF
:1001630000080008E001F00010001000100010006B
:100173001000100050005000500010001000D00775
:100183000000000000000F003075070010000100A0
:1001930081FF0000FF590277025F02FFBB03BB032D
:1001A300BB03BB03BB03BB03BB03BB03BB03BB035C
:1001B300BB03BB03BB03FFFF013075030201040054
:1001C300000000000000000000000000000000002C
:1001D3000000000000000000000000FF00150953AC
:1001E300696D706C65424C4542726F616463617303
:1001F300746572020A0002010404FF0102033F074F
:100203000000120138015000120138295000120178
:1002130038575000120138945000120138DD500055
:1002230012013828510012013862510012013809B5
:100233005200120138A96300120138C16300120190
:1002430038D01300120138A214001201384B1500E4
:100253001201388E15001201381B1600120138A73F
:100263001600120138881700120138B7170012015F
:1002730038B31800120138FB1800120138FD1900B9
:10028300120138411A00120138671A00120138238B
:1002930057001201382E570012013840570012013F
:1002A300381E58001201382358001201381659001D
:1002B3001201384644001201387E4400120138B658
:1002C3004400120138F345001201382046001201A0
:1002D300384D4600120138BA460012013803470070
:1002E3001201382C470012013850470012013877A9
:1002F3004700120138AA470012013888480012014A
:1003030038AD4800120138DC1A00120138701C00A5
:10031300120138101D00120138AD1D0012013826DC
:100323001E001201387E1F00120138C41F00120183
:10033300381421001201389E52001201386753000D
:10034300120138C354001201389D2100120138E60E
:100353002100120138132200120138482200120131
:10036300385522001201386122001201387322002D
:10037300120138332300120138902300120138CEC2
:1003830023001201386A25001201389B250012014F
:1003930038F925001201388626001201385B270040
:1003A300120138B12700120138A35E00120138AFE1
:1003B3005E001201388D5F001201383568001201AA
:1003C300387932001201389E32001201388F33001F
:1003D3001201380235001201388C3600120138FD43
:1003E30036001201383A37001201385D3700120126
:1003F30038733700120138903700120138C04000BB
:100403001201383641001201384C4100120138897B
:100413004100120138C141001201383E420012016D
:1004230038794200120138F4420012013830430097
:100433001201383943001201384543001201386C68
:100443004300120138824300120138AB430012010A
:10045300380E44001201385E4A00120138714A0016
:100463001201388B4A00120138B44A00120138F7DE
:100473004A00120138364B001201389B4B0012011F
:1004830038B04B00120138BB4B00120138C84B0087
:10049300120138DF4B00120138ED4B00120138F81E
:1004A3004B001201380B4C00120138284C0012018A
:1004B30038384C001201384E4C001201386A4C0097
:1004C300120138744C00120138884C00120138A70D
:1004D3004C00120138084D00120138536600120116
:1004E300387F6600120138AC660012013899370074
:1004F300120138A33700120138EA370012013844D9
:100503003800120138653800120138B23800120180
:1005130038DB3800120138E5380012013851390050
:10052300120138E339001201382D3A001201386301
:100533003A00120138EF3A00120138303B00120141
:1005430038673B00120138793B00120138983B00B1
:10055300120138A13B00120138D561001201381095
:100563005B00120138465B001201387C5B0012010C
:1005730038C75C00120138BB6500120138D1650031
:10058300120138DB65001201382566001201385F5D
:1005930067001201386E3C00120138833C001201DF
:1005A30038333D00120138733D001201388C3D0091
:1005B300120138C73D00120138143E001201384DB4
:1005C3003E001201384E40001201380B6500120143
:1005D300383465001201387665001201384B2D005E
:1005E300120138032F00120138DC2F0012013825C5
:1005F3003000120138583000120138543100120112
:1006030038D167001201385A64001201386B640054
:100613001201381667001201385567001201382499
:100623006800120138CC6200120138DC620012014A
:1006330038F16200120138A36300120138D160005F
:10064300120138566100120138BC610012013801F1
:100653005D001201382A5D00120138905D0012011D
:1006630038B05D00120138015E001201385C5E0093
:10067300120138965E00120138995E001201383B70
:100683004D00120138504D001201386C4E0012011A
:1006930038E04E00120138FA4E00120138114F00B3
:1006A300120138244F001201383E4F001201385511
:1006B3004F001201387B4F00120138CC4F0012015A
:1006C30038116800120138216800120138F87F00E0
:1006D300120138E85400120138795600120138DA51
:1006E3005600120138205700120138CC5F00120166
:1006F30038F65F00120138DC2700120138A3280006
:10070300120138E0280012013840290012013896FE
:100713002900120138FB29001201389F2A00120117
:1007230038362C00120138C32C001201382A2D0050
:100733001201381F5900120138E3590012013823FE
:100743005A001201388E5A00120138A567001201AF
:1007530038F36700E066701008A3E066700A08A328
:10076300E066700408A3E06622C3E7960809E796EB
:100773000809E7960809E79622C3E09608A3E096DE
:1007830008A3E09608A3E09622C008C3E096F50804
:1007930008A3E096420808A3E096420808A3E0965F
:1007A30045087001D3D00822080808EAC0E0EBC06E
:1007B300E086F0E7A4FA180986F0E7A42AFA1809F4
:1007C30086F0E7A42AFA180986F0E7A42AFA19861C
:1007D300F0E7A4FBE5F02AFA190886F0E7A42BFB5F
:1007E300E5F03AFA190886F0E7A42BFBE5F03AFAAC
:1007F30018180986F0E7A4C5F02BFBE43AFA1908A8
:10080300E7C5F0C6A426F6E5F03BFBE43AFA188602
:10081300F0E7A4F6E5F00826F6E43B08F6E43A0828
:10082300F6D0E0FBD0E0FA22E4CFC0E0E4CEC0E0B3
:10083300E4CDC0E0E4CCC0E075F020C3E633F608B5
:10084300E633F608E633F608E633F6181818EC3301
:10085300FCED33FDEE33FEEF33FFC3EC9709ED9769
:1008630009EE9709EF97191919400FFFEC97FC0947
:10087300ED97FD09EE97FE191906D5F0BEECF709C1
:10088300EDF709EEF709EFF7191919D0E0FCD0E0FD
:10089300FDD0E0FED0E0FF226016080808C6C313AF
:1008A300C618C613C618C613C618C613C6D5E0EABB
:1008B300227009080808226016181818C6C333C620
:1008C30008C633C608C633C608C633C6D5E0EA220F
:1008D300E627F60809E637F60809E637F60809E6D3
:1008E30037F622E026F608A3E036F608A3E036F64C
:1008F30008A3E036F622E026F008A3E036F008A3CA
:10090300E036F008A3E036F022C3E697F60809E6DE
:1009130097F60809E697F60809E697F622C3E096E4
:10092300F008A3E096F008A3E096F008A3E096F0A1
:1009330022E056F608A3E056F608A3E056F608A30D
:10094300E056F622E0F608A3E0F608A3E0F608A3D3
:10095300E0F622E6F008A3E6F008A3E6F008A3E633
:10096300F022E0FAA3E0FBA3E0FCA3E0FD22EAF01F
:10097300A3EBF0A3ECF0A3EDF022CAC0E0E6F0A3F2
:1009830008DAFAD0E0FA22CAC0E0E0A3C582CCC5F7
:1009930082C583CDC583F0A3C582CCC582C583CD73
:1009A300C583DAE6D0E0CA22B90010BB0008E88AA2
:1009B300F084F8AAF022E4FBC8FA22EB70227B1041
:1009C300C833C8C933C9335007C39AC3DBF280069F
:1009D3009A50012ADBEAC833F4C8C933F4C9FA22AE
:1009E30075F008E4C833C8C933C933C99AC99B50E1
:1009F30004C92AC93BD5F0ECFBC833F4C8E4C9FAEF
:100A030022600D08C6A2E713C618C613C6D5E0F3C5
:100A130022600C08C6C313C618C613C6D5E0F42259
:100A2300700422600D18C6C333C608C633C6D5E0AA
:100A3300F41822251810AF08F5184002151980087C
:100A4300F51840021519D2AF22C0D0251810AF08EF
:100A5300F518500205198008F51850020519D2AF90
:100A6300D0D0222518F58210AF08F51840021519C9
:100A73008008F51840021519D2AF8519832225186D
:100A8300F582E43519F58322E4732518C582C0E0A5
:100A9300E51934FFC583C0E0E518C3958224F81037
:100AA300AF08858319858218800885831985821884
:100AB300D2AFCEF0A3E520F0A37808E608F0A3DEDA
:100AC300FAEFF0A3E58124FAF8E608F0A3E608F0CC
:100AD300A3E608F0A30808E608F0A3E608F0A315C8
:100AE300811581D0E0FED0E0F8158115811581E8EC
:100AF300C0E0EEC0E0222518C582C0E0E51934FF4E
:100B0300C583C0E0E518C3958224F910AF08858337
:100B1300198582188008858319858218D2AFCEF093
:100B2300A3E520F0A37808E608F0A3DEFAEFF0A32C
:100B3300E58124FBF8E608F0A3E608F0A30808E63D
:100B430008F0A3E608F0A315811581D0E0FED0E0FC
:100B5300F815811581E8C0E0EEC0E0228519838590
:100B63001882E0A3FEE0A3F5207808E0A3F608DFEF
:100B7300FAE0A3FFE0A3C0E0E0A3C0E0E0A3C0E08D
:100B8300E0A3C0E0E0A3C0E010AF0885821885832E
:100B9300198008858218858319D2AFD083D0820249
:100BA3000135851983851882E0A3FEE0A3F520783B
:100BB30008E0A3F608DFFAE0A3FFE0A3C0E0E0A3A8
:100BC300C0E0E0A3C0E0E0A3C0E010AF0885821856
:100BD3008583198008858218858319D2AFD083D085
:100BE3008222C0D02518C582C0E0E51934FFC58331
:100BF300C0E0E518C3958224F310AF0885831985F7
:100C030082188008858319858218D2AFC8F0A3E9BA
:100C1300F0A3EAF0A3EBF0A37908E709F0A3D8FA6D
:100C2300ECF0A3EDF0A3EEF0A3EFF0A3D0E0F0A37C
:100C3300D0E0F0A3D0E0F0A3E520F0A3E5F0F0A32B
:100C430022851983851882E0C0E0A3E0F9A3E0FAC6
:100C5300A3E0FBA37808E0F608A3DFFAE0FCA3E037
:100C6300FDA3E0FEA3E0FFA3E0C0E0A3E0C0E0A398
:100C7300E0F5D0A3E0F520A3E0A3F5F010AF0885DD
:100C830083198582188008858319858218D2AFD08D
:100C930082D083D0E0F8D0E03274048006740280FE
:100CA300027401C0E0F404120A66D0E012097D2246
:100CB30074048000CCC0E0EDC0E0E518C39CCCAD6B
:100CC3001950011D10AF068C188D1980068C188DD4
:100CD30019D2AF12098AD0E0FDD0E0FC22D083D034
:100CE30082E9C0E0E493A3C386F0C5F095F0F90868
:100CF300E493A386F0C5F095F0700BE493A3C39936
:100D03004005E9048002A3E475F002A42582F5827C
:100D1300E5F03583F583D0E0F9E493A3C0E0E493F1
:100D2300C0E022D083D082ECC0E0EDC0E0E493A326
:100D3300FCE493A3FDED4C600D120D72EC24FFFC5B
:100D4300ED34FFFD80EFE493A3FCE493A3FDED4CAE
:100D5300600D120DB1EC24FFFCED34FFFD80EFD0EC
:100D6300E0FDD0E0FCE493A3C0E0E493C0E022C044
:100D7300E0C3E49396087401939618400FE49366D6
:100D8300700808740193661870007019A3A3C3E474
:100D93009396087401939618A3A3400DD0E0D0E076
:100DA300D0E0020D62A3A3A3A3A3A3D0E022C0E0DB
:100DB300C0F088F0E49366700808740193661870B5
:100DC30000A8F0A3A3700BD0F0D0E0D0E0D0E002F5
:100DD3000D62A3A3D0F0D0E022851B87851CC62219
:100DE300C0E074EF120BE5759B00906182E0A2E610
:100DF3004003020EA4E591A2E64003020EA47591FE
:100E0300BF9002C7E06405700812042D12043980F4
:100E130003120433751B00120499E99002C8F07998
:100E23000012048D12036D7A017B009002C6E0F973
:100E3300120535907803E064426003020EED9003DF
:100E430041E014F06003020EEDC2AF120E510078C0
:100E53001ED0E0F618D0E0F6E59F5407F970059030
:100E63008E718003908E757808120947E9C4C0E03B
:100E7300781DE65508F50808E65509F509740B7859
:100E830008120A14D0E02508F8906270E0A2E74047
:100E9300F8E8C333906272F0906270E0D2E0F080C1
:100EA30049E0A2E55024E591A2E5501E7591DF903B
:100EB30002C7E0640D70139002DDE004F064287053
:100EC30002E4F07A00E0F91204D5906181E0A2E334
:100ED3005009E5E9A2E3500375E9F7A3E0A2E7505F
:100EE30009E591A2E7500375917F7F04020C44C08A
:100EF300E0C0D0C082C083906183E0A2E05009E5E6
:100F0300BFA2E0500375BFFEE0A2E15009E5BFA216
:100F1300E1500375BFFDE0A2E25009E5BFA2E25034
:100F23000375BFFBE0A2E35009E5BFA2E3500375DD
:100F3300BFF7E0A2E45009E5BFA2E4500375BFEF99
:100F4300E0A2E55009E5BFA2E5500375BFDFE0A2CB
:100F5300E65009E5BFA2E6500375BFBFD083D08238
:100F6300D0D0D0E032C0E074F2120BE5E5A7A2E4E2
:100F7300500FE5A1A2E4500953A7EF75A1EF120F9B
:100F8300BCE5A7A2E5500CE5A1A2E5500653A7DFF7
:100F930075A1DFE5A7A2E15009E5A1A2E150037520
:100FA300A1FDE5A7A2E2500CE5A1A2E2500653A7DA
:100FB300FB75A1FB7F01020C4474F8120AF9751B3F
:100FC300019002C7E0640670077A007B00120415E3
:100FD300A2AFE433FED2AF9002CDE0640170187A81
:100FE300207B009002C6E0F91205B97A207B0090BD
:100FF30002C6E0F912053B906182E0D2E6F090036D
:1010030040E0602185C61C80169002CCE06401702C
:1010130008E5C654F84405F5C653BEFC120DDC744E
:1010230001651B60E4EEA2E092AF7F01020BA574A1
:10103300E9120AF974FA120A36EAFEEBFF8C088DFC
:10104300099002C7E024F7C394055006908EA902C5
:1010530011591203E58A0A8B0BEA450B700302113F
:10106300561204458A0C8B0D120445EA650C700375
:10107300EB650D60ECEEFCEFFD851882851983AA04
:1010830082AB8312044B850A82850B83A3A3780C5E
:10109300120947908ECD780C120934851882851970
:1010A300837814120947908ECD7814120934780C82
:1010B300791412076C501F780C791412090C908E56
:1010C30089780C12078C4047850C10850D11850E0D
:1010D30012850F138041851410851511851612850D
:1010E30017137810790C12090C908E897810120757
:1010F3008C501C7510007511007512007513017862
:1011030010791412090C7810790C1208D380089006
:101113008EA97810120947740978101208B4908EBA
:10112300A5780C1209477810790C12082B9002C786
:10113300E06408600AE064066005E06405701C90E2
:101143008E8D781012078C5012908E9178101208A1
:10115300E68008908EDD781012094785088285099C
:101163008378101209567406120A4C7F10020BA5DD
:1011730074F7120AF912045D90033EE064017010E3
:10118300906245E4F0A3F053F4F343FE0C5390F361
:10119300120403E5C654804449F5C6E59E547F64B2
:1011A3004970F8906185740FF090033CE0F470028D
:1011B300A3E0602C75080175090090033CE07808F2
:1011C300120A23E508F4FAA3E0600814600A146025
:1011D3000C800DEA52808008EA52908003EA52A004
:1011E30079007F02020BA574F7120AF9E9FEEAFF00
:1011F30074016E700C7A807B009002C6E0F91205D0
:10120300359013C8E493F46008E493F912034F8014
:101213000953C680E59E547F70FA12040990033E79
:10122300E06401700312038590033CE0F47002A3B1
:10123300E0602A75080175090090033CE078081204
:101243000A23AA08A3E0600814600A14600C800D46
:10125300EA42808008EA42908003EA42A01203E552
:101263008A088B09A808A909E8496017E5E170FC19
:10127300E82414F582E93400F583E0F874FF68602C
:101283000288E174016F700A7A019002C6E0F912D4
:1012930005830211E574F1120AF98A088B098C0A95
:1012A3008D0B740F120A81780C120947908ECD783A
:1012B30008120934908ECD780C1209347808790C11
:1012C30012076C50157808790C12090C908E8978E6
:1012D3000812078C401579018013780C79081209DC
:1012E3000C908E89780C12078C40EB79007F0802F2
:1012F3000BA574ED120AF98A088B098C0A8D0B74FD
:1013030013120A81780C120947908ECD78081209BE
:1013130034908ECD780C120934780C790812076C4E
:1013230040117808790C12090CAA08AB09AC0AAD74
:101333000B8022751000751100751200751301786A
:1013430010790C12090C781079081208D3AA10AB83
:1013530011AC12AD137F0C020BA5C0E074F2120B9B
:10136300E5A2AFE433FED2AFE589A2E15003120652
:101373006D758900C2C5751A00EEA2E092AF7F01B8
:10138300020C44C0E074F2120BE5A2AFE433FED2C8
:10139300AFE58BA2E0500312066D758B00C2E880A7
:1013A300D5C0E0C0D0E8C0E0E9C0E0E5A8D2AFC254
:1013B300C7751A00A2E7A2E792AFD0E0F9D0E0F830
:1013C300D0D0D0E032FFFFFFFFFFFFFFFF74F41226
:1013D3000A8D121ACD6005791102149F900281E0E3
:1013E30054057005791202149F90029E121AD6605A
:1013F30005121AC87005791002149F900281E0A2A9
:10140300E040061202A1E960108E828F83E0F87437
:101413000368600574026870CB7A0C7B0012056B5D
:1014230090029CEAF0A3EBF0121AD3606B1218AD92
:10143300E5081218A1E4F0750A0AF50B780A120CF4
:10144300A0EEFCEFFD90029CE02402FAA3E0121947
:10145300C5120A4C12025FE9FE6005120283803A4C
:10146300900282E0640370327A1D7B0012020B90BB
:101473000283EAF0A3EBF0900283121AD6601B906A
:101483008E9D120CB37A047B009002A4E0F912053E
:10149300B37404120A4C80027E13EEF90219B1747C
:1014A300EE120A8D890C8A0A8B0B8C0E8D0F90021B
:1014B30081E0540570030215447401650A700D90B0
:1014C300029E121AD6607A90029E800B9002A0129E
:1014D3001AD6606D9002A0E0FEA3E0FFEBC3942058
:1014E30040047902805DEB6005EC450F60F4E50C88
:1014F300900485F08E828F83A38582088583097C7F
:101503001F7D007900AA08AB091204FF850B107533
:1015130011007810120CA0AC0EAD0FAA08AB091283
:1015230004F37402120A4C8E828F83E50BF0F9E503
:101533000AAA08AB0960051202C580071202CB8014
:101543000279127F0A020B5F74F7120A8DE9FE1209
:101553001AD3700479128029121AC86E60047903B1
:10156300801F1219997A04FB9002A4E0F91205B9BD
:10157300900283E4F0A31218A17403F0790012021D
:10158300D1021608D083D08202013574F7120A8D76
:1015930090029E121AD6600312160D9002A0121A20
:1015A300D6600D9002A0121A5A9002A0E4F0A3F0A4
:1015B300900281E0540560447A867B041202AD7E7A
:1015C30000900281E05405602F1219DE90029E12F2
:1015D3001AD660227C207D0079001204FF1219CEF6
:1015E3009002A0121AD6600B7C207D0079001204B1
:1015F300FF800512160D7E13EEF980097A007B0039
:101603001202AD79007F01020B5F90029E121A5EF7
:1016130090029EE4F0A3F02274F6120A8D7E018AF2
:10162300828B83A3A3A3E0FCA3E0FD8C088D097840
:1016330008120CE0062004A1164616A11681168195
:101643001659168A828B83A3A3A3A3A31219EE129E
:101653000265E9FE80498A828B83A3A3A3A3A31215
:1016630019BF88828983A3E0FC88828983A3A3E0CE
:10167300FBECFA88828983E0F912026B80D4740848
:101683006C700374206D70047901800279008A8282
:101693008B83A3A3A3121AC3FA12027180011EEE55
:1016A300F90218EE74F2120A8D121AD3700302179C
:1016B300661218A8A3E0F50A1202A1E960097A0AE2
:1016C30012176D7A0B8016120289E960097A0612E5
:1016D300176D7A0780077A0812176D7A097B001253
:1016E300020B8A088B09900282E07005750B00805B
:1016F30003750B0190029CE02404FAA3E03400FB81
:1017030012177BE0F9120223E9FA90029CE0240B02
:10171300F8A3E01219B6F50C780C120CA412177B7F
:10172300A3A3A3A3A3A3A3E0F50C780C120CA4908A
:10173300029CE02404F50CA3E03400F50D780C12B0
:101743000CA0EAF50C780C120CA4780B120CA4A9CB
:101753000AAC08AD09EEFAEFFB1202BF7406120AD7
:101763004C800279017F06020B5F7B0012020B8A19
:10177300088B09AE08AF092290029CE0F8A3121867
:10178300ADA3A3A32274F7120A8DE9FE121AD36044
:101793001EEE700C1218A87401F0F91202D1E9FEC2
:1017A300EE60087A007B00F912027D7901800279EC
:1017B3000002160874EC120A8D890A121ACF7003FC
:1017C30002188B1218A8E064016003021861120268
:1017D30089E9604A7A01121892C3EA9442EB9400B1
:1017E300402B908E9D120CB37A027B009002A4E0F2
:1017F300F91205B37404120A4CE50C24C4F8E50D80
:1018030034FFF99002A2E8F0A3E9F08036908E95B8
:101813007810120947780C79101207AB80057A000B
:10182300121892E50C450D450E450F6016780C1203
:101833000C9C7A027B009002A4E0F91205AD7404BB
:10184300120A4C1218A27402F0900285E0700BEE9B
:10185300FAEFFBA90A12027D802AE4F080269002A7
:1018630085E070207A037B00120505EA4B60128A3B
:10187300828B8374D0F0A3E50A1218F37404121A4E
:10188300361202837901800279007F0C020B5F7BA1
:101893000012020B8A0C8B0DE4F50EF50F22F0906B
:1018A300029CE0F8A31218ADA322E0F583888222FC
:1018B30074F6120A8DE9FEEAFF900485E0F4602BCA
:1018C3007A047B00120505EA4B60208A828B8374BD
:1018D300D0F0EFA31218F37402F0EE8A828B83A385
:1018E300A3A3F0900485E0F91205117F02020B5FB8
:1018F300F08A828B83A3A32274F4120A8DE9FE7407
:10190300016E707D9002A2121AD66006900285E0E5
:10191300600E121AD3607D121AC8F912024D807438
:101923009002A2C3E0943CA3E09400400E9002A274
:10193300E024C4F0A3E034FFF080591219A1E0F5CC
:1019430008A3E0F509E50875F0E8A4C508A8F07553
:10195300F003A428F875F0E8E509A428F509E4F5EF
:101963000AF50B7808120C9C7A027B009002A4E023
:10197300F91205AD7404120A4C9002A2E4F0A3809C
:10198300B7121AD3600E900281E0A2E25006121938
:101993009912028380181219A1E4F0A3F0227A02AB
:1019A3007B009002A4E0F91205B99002A2227F0401
:1019B300020B5F3400F988828983E022E0F8A3E018
:1019C300F9223400FB1204F37402227A207B001202
:1019D300056B9002A0EAF0A3EBF0227A207B0012C1
:1019E300056B90029EEAF0A3EBF0221219F222E0BB
:1019F300F8A3E0F5838882E0F92274F4120A8D12C9
:101A03001ACD602C7A057B00120505EA4B601A8A11
:101A1300828B8374D0F0A3E5081218F374031218B1
:101A2300F3A3EEF0A3EF121A36E508600312028364
:101A33000219B1F090029C1219F212051122C08210
:101A4300C083121AD3600D90029C121A5A90029C02
:101A5300E4F0A3F0021587121A5E22E0FAA3E0FB7A
:101A63001205712274F6120A8D74FF120A3690025F
:101A73009E121AD6604090029EE02401F508A3E06E
:101A83003400F5097808120CA090029E121AC5FCC6
:101A93007402120A81AA82AB83790112023B740297
:101AA300120A4C8A828B83E58245836009E0A2E0B7
:101AB30050047901800279007401120A4C0218EE75
:101AC300A3A3E0F8A31218ADE0228908EAFEEBFF16
:101AD30090029C1219BFE8492274F4120A8DE9900E
:101AE30002C6F0120457907800E0C4540F54076400
:101AF300037004793F8002797F75080675090078C1
:101B030008120CA07CB47D027AEA7B0712063D74AE
:101B130002120A4C9002B4E0F47049A3E0F470445A
:101B2300A3E0F4703FA3E0F4703AA3E0F47035A3AC
:101B3300E0F4703090780EE09002B4F090780FE00B
:101B43009002B5F0907810E09002B6F0907811E032
:101B53009002B7F0907812E09002B8F0907813E01A
:101B63009002B9F09002BA121C6712216C9002D84D
:101B73007406F0A3740D121E0D7431F0A37401F0FA
:101B83009002EA121C679002E9E4F09002F0F0A3DD
:101B930074A0121E0D7403F0A37407121E0D742893
:101BA300121E0D04F0A3E4F0900319F090033C74AB
:101BB300FFF0A3E4F090033EF090034004F012031F
:101BC3007F1203131203FD79017A417B031203AFE2
:101BD300900341E075F01484E5F004F01203B57A44
:101BE300009002C6E0F9120583907803E064427026
:101BF3005E900341E014F07056C2AF121C010078EE
:101C03001ED0E0F618D0E0F6E59F5407F970059072
:101C13008E718003908E757808120947E9C4C0E07D
:101C2300781DE65508F50808E65509F509740B789B
:101C330008120A14D0E02508F8906270E0A2E74089
:101C4300F8E8C333906272F0906270E0D2E0F090F3
:101C530002E5E4F0A3F07A80FB9002C6E0F91205F6
:101C630035021DF974FF121E13F0A3F02274F7124C
:101C73000A8DEAFEEBFFEEA2E050429002C8E0C3F9
:101C83009480E0500FC333F8E433F9748D28F58260
:101C93007404800EF4C333F8E433F9749B28F5829B
:101CA300740439F58312210B120A8B7A009002C651
:101CB300E0F9120583EE6401FAEFFB804D54806076
:101CC30021790012057D908ED9120CB37A007B0125
:101CD3009002C6E0F91205AD7404120A4CEE64805A
:101CE30080D6EF5401600C790112057DEEFAEF64A2
:101CF3000180C79002CDE06401700BEE54206006B2
:101D0300EE6420FA80047A007B00021DF4C082C0D6
:101D130083C2AF120433E5E170FC75E101121E1CAE
:101D230012046F79071204BD79011204C3790212F8
:101D330004931204A51204B179001204B7790112B5
:101D430004B7908ED512096512047B9002F0E4F07B
:101D5300A3F0A3F09002F47407F09002F37403F07D
:101D63009002F9E4F09002F8F0900319F01203C125
:101D73001203A379001204C9906012E4F0A3F09057
:101D83006063F0751B009002C7F09002C9F0A3F0E6
:101D93009002CCF09002CD04F09002D77403F0903F
:101DA300033FE4F0D2AFF9021E01C082C083900268
:101DB300B4121DEEF09002B5121DE1F09002B612BE
:101DC3001DE1A3F09002B7121DE1A3A3F09002B8A6
:101DD300121DE6F09002B9121DE6A3021DFE121DAC
:101DE300EEA322121DEEA3A3A3A322E08A828B8378
:101DF300227F01020B5F7F04020B5FF07900D08327
:101E0300D0820201357F03020B5FF0A3E4F0A3222B
:101E1300F0A3F0A3F0A3F0A3221203551203497514
:101E2300E1F12274F5120A8DEAFEEBFF8908740BC7
:101E3300120A81E0FA740C120A81E0FB740D120A93
:101E430081E0F8A3E0F9740F120A81E0F509741038
:101E5300120A81E0F50AE508601274016508600C56
:101E630074036508600674026508703FEA600574D0
:101E7300016A7037EB600574016B702FC3EC9EED44
:101E83009F4028740365086006740265087012C3D6
:101E9300EE94A0EF94004013C3EC94A0ED940040A3
:101EA3000A740165087009E84970057912021F7BFD
:101EB3009002F0E064017005790C021F7BE5089045
:101EC30002F3F060E67401650860E074075509A346
:101ED300F070087407F07930021F7BE50AA3F0EA7B
:101EE3009002E9702FE4F09002B4E09002EAF090DF
:101EF30002B5E09002EBF09002B6E09002ECF090B5
:101F030002B7E09002EDF09002B8E09002EEF0909C
:101F130002B9802E7401F09002BAE09002EAF090C8
:101F230002BBE09002EBF09002BCE09002ECF09078
:101F330002BDE09002EDF09002BEE09002EEF09060
:101F430002BFE09002EFF0E50A70047900801C7490
:101F530001650A7004790180127402650A700479BC
:101F63000280087403650A700579031204AB9002BA
:101F7300F1EEF0A3EFF07900021E08C082C083E9FE
:101F8300FDC39420400479128034ED9002F9F0608F
:101F930025EA4B60F17C008013122155C0E074FAEE
:101FA30028F5827402122167D0E0F00C9002F9E068
:101FB300F8ECC39840E39002F87401F07900021E34
:101FC3000174F4120A8DE9FE9002C7E064096014FB
:101FD300E0640A600FE0640B600AE0640C6005E0F3
:101FE300640D700579210220F29002F3E0F8600F8E
:101FF300740168600A740368600574026870239052
:1020030002E9E0F9600574016970177403686005FB
:1020130074026870129002F1C3E094A0A3E09400EC
:10202300500579120220F2E860F874016860F3EE5B
:1020330060661470ED9002F0E0640160A77901120C
:1020430003D99002E7EAF0A3EBF09002F07401F0F9
:102053009002C7E060030220F012043F8A088B0954
:102063008C0A8D0B908ED178081208E6908ECD786D
:10207300081209341221027808120956122102A308
:10208300A3A3A3E4F0A3F012038BE960061220F5E7
:10209300021FE71203C780559002F0E07003021F8E
:1020A300E7A2AFE433FFC2AF1220F51203F7E970E2
:1020B30037120433906182E0C2E6F0E5E170FC750B
:1020C300E1017591BF75E1F19002CDE064017018F3
:1020D3007A207B009002C6E0F91205B97A207B00D2
:1020E3009002C6E0F912053BEFA2E092AF7900023D
:1020F3001DF97AE77B021203DF9002F0E4F02290ED
:1021030002E712210BA3A322E0F8A3E0F583888260
:1021130022C082C083E9FDC3942040047912802F3A
:10212300ED900319F06020EA4B60F17C00801312FC
:102133002155C0E0741A28F5827403122167D0E098
:10214300F00CECC39D40E89002F87401F0790002B2
:102153001E018C82A88212215EE022EA28F582EB1E
:10216300122167223400F583229002B4E09002C06A
:10217300F09002B5E09002C1F09002B6E09002C286
:10218300F09002B7E09002C3F09002B8E09002C46E
:10219300F09002B9E09002C5F022C082C083906142
:1021A300907404F0A37448F0A3E4F0906180744049
:1021B300F09061BC7407F09061877469F09061B628
:1021C3007416F0790012037379021203799013C81D
:1021D300E493F46006E493F912034F79051204CFF4
:1021E3000223C7C082C083E9540FF9906185E06977
:1021F3006012E5C654804449F5C6E59E547F6449A0
:1022030070F8E9F053C680E59E547F70FA0223C745
:1022130074F7120A8DE5A8FE53A87E12035BC2BAB7
:10222300539AFEC289759B00C2C212036175A9113C
:1022330075B905120367D2BA439A0174805E42A846
:102243007F01020B5FC082C083906181E4F0A3022F
:1022530023C475E90075910075BF00020135C08282
:10226300C083906181E4F0A374C0F0A3E40223C6A9
:10227300C082C08374F8120A369002C912277FE81D
:102283004970030223159002C9E054406023790882
:10229300851882851983AA82AB831203AF851882BE
:1022A300851983AA82AB831202D79002C9E054BF77
:1022B300F0E0A2E05008790012231D54FEF0E05430
:1022C300026008790112231D54FDF0E054046008F4
:1022D300790012232854FBF0E054086008790112B6
:1022E300232854F7F0E0541060087902122328548D
:1022F300EFF0E054206008790312232854DFF0A3A1
:10230300E05401600D1203851202E99002CAE05401
:10231300FEF07408120A4C0223C71203731202DD83
:102323009002C9E0221203791202E39002C9E0226B
:10233300C082C083E9600514602A804F90619A745B
:1023430033F0A37455F09061A0743AF090033EE02B
:1023530064017009C2919002CB7467802D9002CB07
:102363007461802690619A743FF0A3745AF090616F
:10237300A0747FF090033EE064017009D291900253
:10238300CB747180059002CB746AF08037C082C031
:1023930083E9600B14600D14600F146011802090AA
:1023A30013CC80159013CD80109013CE800B900327
:1023B3003EE0640160F39013CFE493906186F08074
:1023C30003F0A3F0D083D08202013574EE120A8D9C
:1023D30074F4120A36851882851983AC82AD83752D
:1023E300838E758299740412098A9013CC93F460D6
:1023F30003022560907808E0C3940250030225404D
:102403007404120A81AC82AD8375838E758257740E
:102413000812098AF97AFF7BFF7FFF7E0089828594
:102423008210801874086E70030224F574096E70AC
:10243300030224F5740A6E70030224F5E510C33316
:10244300FCE433FD7404120A81E5822CF582E583F2
:102453003DF583E0F50EA3E0F50F8E0875090074D2
:10246300027808120A2374482508FC74783509FD9C
:102473008C828D8378081209477408780812089BA8
:1024830085080C85090D8C828D83780812094774A1
:1024930018780812089BE50C4508F508E50DF509C1
:1024A300C3E50E9508E50F95098C828D8378081294
:1024B30009478C828D83780812094774187808407D
:1024C3001412089BE50C4508FCAD0DE50EC39CFCFE
:1024D300E50F9D800F12089BE50C4508C3950EFC84
:1024E300E50D950FFDC3EC9AED9B5006ECFAEDFB61
:1024F300EEFF0EEEC39413500302242774FF6A7099
:102503000374FF6B602D8F0874027808120A23741A
:10251300481227D774783509F58378081209478557
:102523001882851983E5822510F582E58312279D9C
:10253300E508F009E9C3940450030224187508015F
:102543007509007808120CA07402120A81AC82ADDE
:10255300837AF37B041206437402120A4C740C123E
:102563000A4C7F0A020B5FC082C08390618674D5D8
:10257300F09061AE7468F0A3746AF090624574FBE6
:10258300F0A304F053F4FD43FE0290033E7401F004
:1025930079001203730223C7C082C08375E1F190EF
:1025A30002F3E024FE60461470481203919002E99E
:1025B300E0F97AEA7B02120475908E6D12096512B6
:1025C300049F908ED512096512047B9002F4E0F902
:1025D30012048779011204C39002E7E0241612263D
:1025E30061749DF0A37403F079000223C71203976B
:1025F30080BB791280F474F6120A8D122706440206
:10260300F5D9780012264B40FB780080081227D3B7
:102613007402122778E8C39940F375E19590048D0D
:10262300122670F0A312267012271A1209651226B9
:102633005B1209719002E7E024141226617414F00E
:102643009002C77404022793880874EA2508F58268
:1026530074021227899406229002E7E0240EF8A35D
:10266300E0122668223400F98882898322743D129D
:10267300267D12267DF0A3740322F0A37403F0A336
:10268300743D2274F6120A8D122706FA74064AF56F
:10269300D9780012264B40FB780080081227D374A8
:1026A30002122778E8C39940F3900319E0F97407FD
:1026B30029F5D974044AF5D9780012264B40FB78E2
:1026C30000800C8808741A1227D77403122778E83D
:1026D300C39940EF75E19590048D7437F0A37403AB
:1026E30012273812271A12096512265B12097190F4
:1026F30002E7E024141226617415F09002C77403F4
:102703000227939002F9E0F9740729F5D99002E9B9
:10271300E0C4333354C022F0A37443F0A374031210
:10272300272D12273CF0908EC922F090049B74BB96
:10273300F0A374032212273C22F0A374BB12274B8D
:1027430012274BF0A374032212275212275222F0AE
:10275300A37403F0A374BB22C082C0839002E71268
:10276300276DA3A3A3A3E40223C4E0F8A3E0F583A6
:102773008882A3A3221227ACF5D908221227832229
:10278300E0F8A3E0F9221227A7E0F5D908E8C3226D
:10279300F07F02020B5F1227A1221227A722122722
:1027A300A7E4F0223400F583221227A7E02274F66F
:1027B300120A8D7800880874CF1227D77402122763
:1027C3009908E8C3940840ED9002CF74010227935F
:1027D300880874FA2508F5822274F4120A8D74FCB1
:1027E300120A367E0090042BE4F0900428F07F7DDB
:1027F3007508047509007808120CA07402120A8186
:10280300AC82AD837A007B00EFF912063D740212AD
:102813000A4C908EC578081209478518828519835A
:1028230078081207577019900428E0600FF912070F
:1028330009EFF9120709900428E48001EFF0801EE4
:102843008518828519837808120947E508450945E3
:102853000A450B7004EFFE8005EFF91207090FEF2D
:10286300C3947F408B900428E07026EE7018797D26
:102873001206FD9004297404F0A3E4F090042BE005
:10288300601979008017F012070FEEF912071B8009
:102893000AEE6004F912070312070F7901022936C1
:1028A30074F7120A8D74FC120A36E9FE85188285C4
:1028B3001983E4F0A3F0A37410F0A3E41228DA124E
:1028C300072790042BE07005EE900428F07404129F
:1028D3000A4C7F01020B5F122A93FAFB2274F41253
:1028E3000A8D74FF120A36890890042BE0703312A4
:1028F30006497E007F00750A01750B00780A120CE9
:10290300A07402120A81AC82AD83EEFAEFFBA90830
:1029130012063D7402120A4C851882851983E0F46D
:10292300600890042B7401F0800512298A40C77453
:102933000180027404120A4C7F04020B5F74F412C8
:102943000A8D74FF120A3689087E007F00750A011A
:10295300750B00780A120CA07402120A81AC82ADC6
:1029630083EEFAEFFBA90812063D7402120A4C85A6
:102973001882851983E0F46007A90812070380050C
:1029830012298A40C880A8EE24010EEF3400FFC349
:1029930094082274F4120A8D74FC120A367EFC7FAA
:1029A300077508047509007808120CA07402120A4E
:1029B30081AC82AD83EEFAEFFB900428E0F91206B6
:1029C3003D7402120A4C908EC97808120947851883
:1029D300828519837808120757700AEE24FCFEEFEC
:1029E300122A8850BCEE2404F8EF3400F99004292D
:1029F300E8F0A3E9F002293674F4120A8D74FC128C
:102A03000A368909EAFEEBFF8C08EE24FCFEEF127E
:102A13002A88406A750A04750B00780A120CA074A0
:102A230002120A81AC82AD83EEFAEFFBA90912060A
:102A33003D7402120A4C7402120A81E0F8A3E0F911
:102A430085188285198385080AE0650A7002A3E068
:102A5300700AEEC398FAEF9400FB8026E954807065
:102A6300A9E82404FAE93400FBC3EE9AEF9B400E75
:102A7300EEC398F8EF99F9E824FCFEE980917A0017
:102A83007B0002293634FFFFC3EE9404EF94002247
:102A9300F0851882851983AC82AD832274EA120A09
:102AA3008D74F8120A368910750DFF747D651070E8
:102AB30005750C7E8003750C7D750A04750B0090FB
:102AC3000429E024FCFEA3E0022BAA8518828519C1
:102AD30083A3E054806003022B99851882851983B0
:102AE300850D08E065087002A3E07003022B998549
:102AF3001882851983E0F50DFCAA0AAB0BA90C1209
:102B030007158B09EA45096003022B997402120A1F
:102B130081122C2DF508EF99F50988148915750E86
:102B230000750F007512047513007812120CA0744F
:102B330006120A81AC82AD83E508250EFAE5093554
:102B43000FFB900428E0F912063D7402120A4C743C
:102B530004120A81AC82AD83E50A250EFAE50B3532
:102B63000FFBA90C120727E50E2404F50EE50F341D
:102B730000F50FC3E514950EE515950F50A67402E5
:102B8300120A81E02404F8A3E03400F9E50A28F5E9
:102B93000AE50B39F50B7402120A81122C2DF8EF9A
:102BA30099F9E824FCFEE9122A88405A90042BE0A4
:102BB300706E7508047509007808120CA07402126F
:102BC3000A81AC82AD83EEFAEFFBA91012063D74C5
:102BD30002120A4C851882851983E0F47003A3E07E
:102BE300F46003022ACE7402120A81E0F8A3E0F92A
:102BF30054806007EE24FCFEEF80AC122D41EE986A
:102C0300EF99401C8090A90C1206FD90042BE070F4
:102C13000A900429E50AF0A3E50BF0A910120703B3
:102C23007408120A4C7F0E020B5FE0F8A3E0F9EE82
:102C3300C3982274F0120A8D74FC120A36890B8A27
:102C4300088B09ECFEEDFF7414120A81E0F50A808B
:102C530014E5082404F508E5093400F509EE240415
:102C6300FEEF3400FF850A0C74FF250CF50A04609F
:102C730045750E04750F00780E120CA07402120A2B
:102C830081AC82AD83AA08AB09A90B12063D74027D
:102C9300120A4C780E120CA0EEFCEFFD7402120A1D
:102CA30081AA82AB831204F97402120A4CE970A15F
:102CB30090042B7401F07404120A4C7F08020B5F1A
:102CC30074F1120A8D890E8A088B09ECFEEDFF90D0
:102CD300042BE0704D750A01750B00780A120CA0E5
:102CE3008A0A8B0B7402780A120A14890CF50D7484
:102CF30009780C120A23E50A2400FAE50B350DFBCB
:102D03001206437402120A4C750A01780A120CA4C3
:102D1300EEFCEFFDAA08AB09A90E120721740112FC
:102D23000A4C7F07020B5FC082C0831206F7E9706B
:102D330004790180027900D083D082020135E8242E
:102D430004F8E93400F9C32274F2120A8D890BECFA
:102D5300FEEDFF750A0089828582087509008A0CD9
:102D63008B0D780C120CE0020308D92E812DDC2D7B
:102D7300F62D292E5B2E722E892EA52EBC2E7401C4
:102D8300650B6003022ED49004A9E0F88E828F8332
:102D9300E09004A9F0E8601CE06003022EFC9003BD
:102DA30084E064026003022EFC900383E0F91202C4
:102DB3004D022EFCE07003022EFC900384E06401BC
:102DC3006008E064036003022EFC7A017B00900339
:102DD30083E0F9120535022EFC7402650B600302D1
:102DE3002ED48E828F831232739004AAE8F0A3E963
:102DF300022ED1E9C394204003022ED47C1F7D0010
:102E030079007AAD7B041204FF7808120CA0EEFC63
:102E1300EFFD7AAD7B041204F37402120A4CE50B46
:102E23009004AC022ED1E9C394204003022ED47C3B
:102E33001F7D0079007A8D7B031204FF7808120C42
:102E4300A0EEFCEFFD7A8D7B031204F37402120AE9
:102E53004CE50B90038C80767401650B70738E8246
:102E63008F83E0F8C394045068E89003AC805F74E8
:102E730001650B705C8E828F83E0F8C3940450511C
:102E8300E89003AD80487406650B704575080678B5
:102E930008120CA07AAE7B031204F37402120A4CDC
:102EA30080577401650B70298E828F83E0F8C39479
:102EB30008501EE89003B480157401650B70128EE0
:102EC300828F83E0F8C394045007E89003B5F08041
:102ED30028750A188023C3EA9424EB9400501774CE
:102EE30002650B70118E828F83E0FCA3E0FD12025A
:102EF30005E9F50A8003750A02A90A7F06020B5F3A
:102F030074F5120A8DECFEEDFF750A008A088B0931
:102F13007808120CE000030AB22F332F382F492F01
:102F23004E2F5E2F6D2F7C2F812F862FA32FA82F3F
:102F330090038580737508067509007808120CA044
:102F43007C867D03804C9004A9805D9004AA123294
:102F5300738E828F83E8F0A3E980689004AC122F0C
:102F6300D3120CA07CAD7D04802890038C122FD348
:102F7300120CA07C8D7D0380199003AC802A9003F2
:102F8300AD80257508067509007808120CA07CAE83
:102F93007D03EEFAEFFB1204F37402120A4C80294C
:102FA3009003B480039003B5E08E828F838014C3B3
:102FB300EA9424EB9400500E12020B8E828F83EA64
:102FC300F0A3EBF08003750A02A90A7F03020B5FEB
:102FD300E0F50875090078082274F6120A8D90034B
:102FE30084E07037EA4B60089003B6EAF0A3EBF095
:102FF300E4F508F5097808120CA07808120CA07CF7
:10300300007D007B00900385E0FA900383E0F912D2
:1030130006017404120A4C7900800279117F0202BE
:103023000B5F74F7120A8DE9900383F0900384E435
:10303300F012028F9003857401F09003AC7403F0D7
:103043009003ADE4F09003B47407F09003B5E4F09B
:103053007F01020B5F74F4120A8D74F6120A368A2A
:10306300088B09EB54806031900383E0F912051D4E
:103073008A0A8B0BAE0AAF0BEE4F60138E828F83DF
:10308300E064D070031205FBEEFAEFFB12050BAA06
:1030930008E5096480FB023141EAA2E04003023102
:1030A3003D9004A9E070030231349003ACE085182D
:1030B30082851983F09003ADE0C0E07401120A81A8
:1030C300D0E0F0750A06750B00780A120CA07CAEEE
:1030D3007D037404120A81AA82AB831204F374027F
:1030E300120A4C9003B4E0C0E07408120A81D0E0E5
:1030F300F09003B5E0C0E07409120A81D0E0F085D6
:103103001882851983AA82AB83900383E0F91202A4
:1031130041E9601D9003847404F012314B60121274
:10312300326A88828983E582458360057904120ABD
:103133008BE5086401FAAB0980047A007B00740A0A
:10314300120A4C7F04020B5F9003B6123273E849F4
:103153002274F4120A8D8A828B83A3A3E0F8EA24F3
:1031630003FCEB3400FD8A828B83A3AE82AF83E83A
:10317300601224FE606914700302321C147003028F
:10318300321C8058E0703175080675090078081202
:103193000CA07A867B031204F37402120A4C900388
:1031A300847401F07CAD7D049004ACE0FB7A019063
:1031B3000383E0F9120247E960069003847404F084
:1031C30012314B601712326AE8FAE9FBEA4B600CE2
:1031D300900384E0F98A828B83120A8B023146E0E2
:1031E300702E8C828D83E0601B7C8D7D0390038C1D
:1031F300E0FB7A00900383E0F9120247E98E828FA5
:1032030083F0800C7A017B00900383E0F91205358B
:103213008E828F83E070A380C3E0709E7403687016
:1032230007900384740280979004AA12314E90048D
:10323300A9602AE060299004AAE0F508A3E0F50953
:10324300E4F50AF50B7808120C9C7A017B009003D5
:1032530083E0F91205AD7404120A4C8002E4F09085
:10326300038474030231C2E0F5838882123273222D
:10327300E0F8A3E0F922C082C083900348E4F09011
:10328300034774FFF0900344F0900343E4F090038A
:1032930042F0900345F0A3F002375674F0120A8D02
:1032A300900345E0F508A3E0F509E5084509700634
:1032B30012036D02338A850882850983E0F914605D
:1032C3000A14600724FE600302338A1203D38A0AB6
:1032D3008B0BAE0AAF0BEE65087003EF6509700345
:1032E3000233878E828F83E06401600302338A1284
:1032F300038B1234E41234D7908E79780C1208E6DB
:10330300780C120C9C85088289831209651234FC9F
:10331300120A4CE970641234E4908ED1780C1208CE
:10332300E6908ECD780C120934850882850983785E
:103333000C120956EE240EF8EF3400F9880A9002B5
:10334300C7E064027027850882850983780C120917
:1033530047908E7D780C1208E6908ECD780C12097A
:1033630034850A828983780C120956800D908EC9A0
:10337300120965888289831209719003447401F0EC
:10338300EEFAEFFB1203CD7F08020B5F74F0120A13
:103393008DEAFEEBFF8E828F83A3A3A3A3A3A3E0F7
:1033A300FAA3E0FB1204271234D78882F5831209AB
:1033B3006512041B85088285098312096512040FAF
:1033C300EE240E1234CF1209651204218E828F83EC
:1033D300E06440701CEE2412F8EF3400F98882890F
:1033E30083E0906064F088828983A3E090606580C5
:1033F30006906064E4F0A3F0900345EEF0A3EFF0D1
:10340300EE24161234CFE0F8A3E0F5838882120A83
:103413008B906054E41234F0A31234F0906182E094
:10342300C2E6F07591BFEE2415F8EF3400F9880A6F
:10343300890B8882F583E06401700312045DE5E182
:1034430070FCEE24141234CFE0F874FF6860028835
:10345300E1850A82850B837401F09002CDE064015B
:1034630070671234E4780C120C9C850882850983FA
:103473001209651212F57404120A4C8A088B098C1E
:103483000A8D0B908E81780C1209477808790C12FB
:1034930007AB7403780812089BE50824F4F508E5E4
:1034A300093401F509900340E06003120559E4F57E
:1034B3000AF50B7808120C9C7A207B009002C6E078
:1034C300F91205AD7404120A4C02338AF582EF3403
:1034D30000F58322EE2402F8EF3400F98808890905
:1034E3002212043F8A0C8B0D8C0E8D0F22F0A3F059
:1034F300A3F0A3F0A3F0A3F0221212987404227491
:10350300EE120A8D890874FF6508702E900343E05C
:1035130054076023123683700879041203F10236CC
:103523006E79011236857004790180EF79021236C3
:10353300857007790280E402366AA9081203F18ACA
:10354300108B11A908123685700575090180037562
:103553000900E5102402F50AE5113400F50BE5082E
:1035630014600F14700302360224FE700302364FF8
:1035730080C5790212368570387902123673506726
:103583008E828F83A3A3780C120947908E85780CC3
:103593001208E6780C120C9C850A82850B831209AB
:1035A300651234FC120A4CE9703DAA10AB110236C5
:1035B3006E12368370377904123673502A8E828FD7
:1035C30083A3A3780C120947908E85780C1208E622
:1035D300780C120C9C850A82850B831209651234C0
:1035E300FC120A4CE960C3EEFAEFFB807EE509A208
:1035F300E05006AA10AB1180727A007B00806C1237
:1036030036837034790412367350DC8E828F83A331
:10361300A3780C120947908E85780C1208E6780C73
:10362300120C9C850A82850B831209651234FC12E5
:103633000A4CE970B20235AD79011236857004790E
:103643000180C3E509A2E0501E0235AD79011236AF
:103653008560EC79021236857004790280A8E50949
:10366300A2E050030235AD7A007B007F0A020B5FB4
:103673001203F18A0C8B0DAE0CAF0DE509A2E0220B
:1036830079041203EBE964012274F7120A8DE9FE4F
:10369300900348E0705B7401F0EE900347F012046E
:1036A3003F90034912097190034DE4F0A3F0908E0B
:1036B300C912096590035512097190035B7401F0F7
:1036C300A3F0A3E4F0A3F0900343E04EF090034291
:1036D300E004F06401600A74806E600574406E70EB
:1036E3000A9003457447F0A37403F07A477B038081
:1036F300047A007B007F01020B5FC082C0838A8251
:103703008B83E0F8A3E0F98A828B83E4F0A3F0884B
:10371300828983A3F088828983E0F4F8900343E0ED
:1037230058F0900342E014F0700B900345E4F0A3CB
:10373300F09002C7F0801CC082C083900342E06017
:103743000A900345E0FAA3E0FB80047A007B008043
:1037530002E0F9D083D082020135C082C083E9F848
:10376300900347E0687005A3E0F98002790080E3E5
:10377300C082C083900347E069700CA3E0640170CA
:10378300067A477B0380047A007B0080C6C082C030
:103793008390034280BBC082C0831207510238D496
:1037A30074F7120A8D7409120A81123A5D801C8C17
:1037B300828D83E08A828B83F08C828D83A3AC829B
:1037C300AD838A828B83A3AA82AB83E8FEE9FFEEF3
:1037D30024FF18EF34FFF9EE4F70D4023A19EEFAD2
:1037E300EFFB7F06020B5F74F5120A8DECF8EDF91F
:1037F300740B120A81E0F508A3E0F509AC08AD09E2
:10380300EC24FFF508ED34FFF509EC4D602CEAFCE0
:10381300EBFD8C828D83A3AA82AB83E8FEE9FF8E46
:10382300828F83A3A882A9838C828D83E0FC8E82FE
:103833008F83E06C60C67900800279017F03020BFD
:103843005F74F6120A8DE9FE8C088D097808120C54
:10385300A08E08AC087D0012074B7402120A4C02BA
:103863003A1E74F6120A8DEAFEEBFFEE4F6039EE54
:103873002405FAEF3400FB12056B8A088B09A808AC
:10388300A909E849602288828983E4F0A3F0888249
:103893008983A3A3123A23A3A3A3A374FFF0E82469
:1038A30005FAE93400FB80047A007B00023A1EC06B
:1038B30082C083EA4B700479058016123944600490
:1038C3007904800DEA24FBFAEB34FFFB12057179CE
:1038D30000D083D08202013574F7120A8D7C000276
:1038E3003A1674F7120A8DE9FEECFFEA4B60219059
:1038F3008EE1E0F8EEC398400712050B7903803E92
:10390300123AD7123C667005123944600712050B50
:103913007905802AEEF074016F700DEAFCEBFD7AF5
:10392300667B03120529800BEAFCEBFD7A667B03B9
:103933001205237A007B80EEF91205357900023AED
:1039430019EA24FFF582EB34FFF583E0F42274F2E5
:10395300120A8D890A750C00750D007E007F00A286
:10396300AFE433F50BC2AF9003668015EE4F7006DC
:1039730085080C85090DE50824FBF582E509123A53
:10398300DDE0F508A3E0F509E50845096023E5084E
:1039930024FFF582E509123ADDE0650A70CEEE4FA9
:1039A3007006AE08AF0980CE7A007B8012053580A1
:1039B3000B7A007B8012053BEE4F6015780C120CDE
:1039C300A0EEFCEFFD7A667B0312052F7402120A48
:1039D3004CE50BA2E092AF0237E1E0FAA3E0FB2251
:1039E30074F7120A8DA2AFE433FEC2AFEC24FBF5E9
:1039F30082ED123ADDE4F0A3F08003123AE2123CC6
:103A03006270F88A828B83ECF0A3EDF0EEA2E09271
:103A1300AF80031205177F01020B5F7F02020B5F6A
:103A2300EEF0A3EFF0888289832274F7120A8DE502
:103A3300A8FEC2AF8A828B83123A5DEC24FBF58227
:103A4300ED123ADDE8F0A3E9F08A828B83ECF0A370
:103A5300EDF0EEA2E7A2E7023A12E0F8A3E0F922C2
:103A630074F3120A8DEAFEEBFF740D120A81123A07
:103A73005DE8FAE9FBA2AFE433F50CC2AFEC24FB3B
:103A8300F8ED34FFF9880889098882F583123A5DD5
:103A93008E828F83E0F50AA3E0F50BEC650A7003D1
:103AA300ED650B70068E828F838003123AD7E8F0A0
:103AB300A3E9F0850882850983E4F0A3F0EC24FFF1
:103AC300F582ED123ADD74FFF0E50CA2E092AF7FD0
:103AD30005020B5FEA24FBF582EB34FFF58322E852
:103AE30024FBF8E934FFF9E8FAE9FB2274F7120A38
:103AF3008DE9FD908EE1E0F8EDC398502BE5A8FE2B
:103B0300C2AFEDC333F8E433F990037AE028FCA3A2
:103B1300E0398C82F583E04AF0A3E04BF0EEA2E7B4
:103B2300A2E792AF790080027903023A1974F7127F
:103B33000A8DE9FE908EE1E0F8EEC3985021E5A8E6
:103B4300FFC2AFEAF4FCEBF4FDEE123C4EE05CF096
:103B5300A3E05DF0EFA2E7A2E792AF7900800279DC
:103B630003023A19E9F874FF687006C2AF7900805E
:103B7300027907020135C082C08312055F90036694
:103B8300E4F0A3F012059512057712058F1205656F
:103B930079000238D4C082C08312055380FB74F4C9
:103BA300120A8D750800120559120637E508123CF2
:103BB3004E123C66700D0508908EE1E0F8E508C3EF
:103BC3009840E9908EE1E0F8E508C398506CE5A8C9
:103BD300FCC2AFE508C333FEE433FF90037AE02E63
:103BE300F8A3E03FF9888289831239DD88828983CB
:103BF300E4F0A3F0ECA2E7A2E792AFE5089004A7F4
:103C0300F0F974312EF582748E3FF583123C451220
:103C13000A8B9004A774FFF0E5A8F9C2AF90037A6A
:103C2300E02EF8A3E03F8882F583E04AF0A3E04B5F
:103C3300F0E9A2E7A2E792AF80031205897F0402AD
:103C43000B5FE0F8A3E0F583888222C333F8E43303
:103C5300F990037AE028FAA3E0398A82F583228A6D
:103C6300828B83E0F8A3E0F9E8492274F7120A8D06
:103C730090037EE4F0A3F0A3F0A3F07F01020B5FB7
:103C830074F0120A8DE9FE8A088B091205A17410DB
:103C9300120A81780C120947EA4B600E8A828B83E1
:103CA300A3A3780C120956023D2E7A0D7B00120550
:103CB3006BEA4B6072EE8A828B83A3A3A3A3A3A3B5
:103CC300A3A3F08A828B83A3A3A3A3A3A3E508F0F2
:103CD300A3E509F08A828B83A3A3780C1209568A81
:103CE300828B83E4F0A3F0F508F509F50AF50B8A56
:103CF300828B83A3A3A3A3A3A3A3A3A378081209DB
:103D03005612404390037C6017E0FCA3E08003E875
:103D1300FCE9FD8C828D8312404670F38C828D8387
:103D2300EAF0A3EBF080047A007B007F08020B5FCC
:103D3300C082C08390037C80048C828D83E0FCA3CB
:103D4300E0FDEC4D60238C828D83A3A3A3A3A3A3E7
:103D5300E06A7003A3E06B70E08C828D83A3A3A35E
:103D6300A3A3A3A3A3E06970D0ECFAEDFB023E4644
:103D7300C082C083EA4B600E8A828B83A3A3A3A372
:103D8300A3A3E4F0A3F0023E4674F4120A8D740C6C
:103D9300120A817808120947E5A8FFC2AF78081212
:103DA3000C9C12059B7404120A4C8B09A909EFA2FF
:103DB300E7A2E792AFEA4960047900800279087FBD
:103DC30004020B5F74F2120A8DA2AFE433FFC2AF99
:103DD300740E120A8178081209477808120C9C1293
:103DE300059B7404120A4CEA4B60128A828B83A3EC
:103DF300A3A3A3A3A3A3A3A37808120956EFA2E046
:103E030092AFEA4B60047900800279087F06020BC7
:103E13005F74F4120A8DA2AFE433F509C2AF120541
:103E2300A18A0A8B0BAE0AAF0BEE4F60031205A7F4
:103E3300E509A2E092AFEE4F6004790080027906B3
:103E4300023DC2D083D08202013574E8120A8D7418
:103E5300FB120A368A088B098C0A8D0B7401120A2D
:103E6300817808120956E5A8F9C2AF90037E780855
:103E73001208F9E9A2E7A2E792AF124043700302E6
:103E8300403990037CE0FEA3E0FF75160075170030
:103E9300750800750900A2AFE4338518828519837C
:103EA300F0C2AFEE2402F514EF3400F515EE240250
:103EB300F510EF3400F5117403120A8112404670B5
:103EC3001F7402120A81E070177401120A81E0F86C
:103ED300851082851183E0C3984005E0C398803B39
:103EE300851482851583780C1209477401120A819F
:103EF300780C12077C50177401120A81780C12098E
:103F030047851482851583780C120920800E851449
:103F130082851583E4F0A3F0A3F0A3F0EE2404F567
:103F230012EF3400F5138510828511831240467019
:103F3300578512828513831240467057EE2409F584
:103F43000AEF3400F50B850A82F583780C120947D2
:103F5300E50C450D450E450F60538E828F8312404D
:103F6300B4EA4B60488E828F83A3A3A3A3A3A3A326
:103F7300A3E0F9120535850A82850B83120965854D
:103F8300148285158312097185108285118312406D
:103F930046700B851282851383124046600F8E8212
:103FA3008F83A3A3A3A3A3A312404670258E828F5E
:103FB30083E0F8A3E0F9E5164517700590037C80CC
:103FC30006851682851783E8F0A3E9F08E088F092A
:103FD30080048E168F178E828F83E0FEA3E0FF8509
:103FE3001882851983E0A2E092AFE5084509603F96
:103FF300850882850983A3A3124046702B85088216
:10400300850983A3A3A3A3124046701C8508828558
:1040130009831240B4850882850983A3A3A3A3A3BC
:10402300A3A3A3E0F9120535AA08AB09120571EEA3
:104033004F6003023E937405120A4C7F10020B5F1C
:1040430090037CE0F8A3E0F9E8492274F0120A8DAA
:10405300124043604590037C1240BA75088E75097F
:10406300C2750AF5750B288A828B83A3A3780C1279
:1040730009477808790C12076C500C850C08850DDC
:1040830009850E0A850F0B8A828B83E0F8A3E0F97A
:10409300E8FAE9FBEA4B600E80CD7508007509006C
:1040A300750A00750B00AA08AB09AC0AAD0B023DFB
:1040B3002EA3A3A3A3A3A3E0FAA3E0FB22C082C081
:1040C3008312040375A70075A100759C7775C3005F
:1040D30075A20075A30075A40075A50075A60075EB
:1040E300C31175A20075A30075A40075A50075A67C
:1040F3000075C33375A20075A30075A40075A500F0
:1041030075A60075C34475A20075A30075A4007558
:10411300A50075A60075C32275A22075A34E75A4CC
:104123000075A50075A6007594081204094394024E
:10413300024237A2AFE433F8C2AF5394FEE594A230
:10414300E240FAE8A2E002435AA2AFE433F8C2AF76
:10415300439401E594A2E250FA80E8E8A2E792AF23
:10416300801F75C303851882851983E0F5A2740146
:1041730022E8A2E792AF851882851983E0FAA3E0CB
:10418300FB7402024234C082C08374FC120A3612EA
:10419300426D1241B2120A81124267120A81E0F59E
:1041A300A675A1EF43A710E8A2E792AF02423275CA
:1041B300C330851882851983E0F5A4740122C08277
:1041C300C08374FE120A361241E475A1FD124165E3
:1041D300120A81E0F5A3E59C54F04401F59C0241E9
:1041E3005E1241EB53A7FD22851882851983EAF0FD
:1041F300A3EBF0E5A8F8C2AF22E5A48518828519E0
:1042030083F0E5A5C0E07401120A81D0E0F0E5A6D1
:10421300C0E07402120A81D0E0F07403120A81E450
:10422300F0E8A2E792AF85188285198312096574B5
:1042330004120A4CD083D082020135C082C0837439
:10424300FC120A3612426D75A1EF1241B2120A81B5
:10425300124267120A81E0F5A6E59C54F04404F586
:104263009C0241AAE0F5A57402221242E2E5A8F8F5
:10427300C2AF53A7EF2274F4120A8D74FC120A36EC
:104283001242DEA2AFE433F9C2AF53A7DF75A1DF59
:10429300851882851983C082C083908EC9780812DD
:1042A3000947D083D08278081207577005439C7062
:1042B300801A75C3401241B5120A81124267120A6D
:1042C30081E0F5A6E59C540F4450F59CE9A2E092E9
:1042D300AF7404120A4C7F04020B5F1242E2228580
:1042E3001882851983EAF0A3EBF0A3ECF0A3EDF0B9
:1042F30022C082C08374FE120A3685188285198310
:10430300EAF0A3EBF0851882851983E0F8A3E0F9BE
:10431300E8496016E5A8F8C2AF75C30012416812F8
:104323000A81E0F5A3E8A2E792AF024184E5A8C2BF
:10433300AF53A7C9801CE5A8C2AF53A7C9759C7723
:104343008010E5A8F8C2AFE59C54F04407F59CE85B
:10435300800375A1C9A2E792AF020135A3A3A3E429
:10436300F0E8A2E792AF024237C082C08374FC1226
:104373000A36E5A8F8C2AF75C300E5A20241FCC046
:1043830082C08374FE120A36E5A8F8C2AF75C30073
:10439300E5A2851882851983F0E5A3C0E0740112B4
:1043A3000A81D0E0F0024174C082C083E5A8F8C25C
:1043B300AF75C300E5A28A828B83A3A3A3A3F0E511
:1043C300958C828D83F0E5A38A828B83A3A3A3A319
:1043D3001243F3A3A3A3E4F0E5968C828D83A3F0A9
:1043E300E5978C828D83A3A3F08C828D8302435F38
:1043F300A3F0E5A48A828B83F0E5A5A3F0E5A68A62
:10440300828B83A3A3F08A828B8322C082C08374AE
:10441300FE120A36E5A8F8C2AFE5C3F975C300E595
:10442300A2E5A4851882851983F0E5A5C0E074018F
:10443300120A81D0E0F089C30241747B101202F5A5
:10444300790022C082C08374F9120A367401120AF9
:1044530081AA82AB8312031912467D79077A091266
:10446300443E740702469E12446E22124476AC8286
:10447300AD8322F085188285198322C082C083749C
:10448300FC120A36851882851983E4F004120A8126
:10449300741BF07402120A81E4F07403120A81742B
:1044A3000412446AF97A027B201202F5790074043B
:1044B30002469E74F4120A8D74FF120A36E9FE74E2
:1044C3000D120A81E0F9740E120A81E0FF740F12D3
:1044D3000A81E0F508A3E0F5097411120A81E0F5F9
:1044E3000A7412120A81E0F8EE602D74016E701ED8
:1044F300E5084509702285188285198374121246CE
:104503008A7A061245E9120A4C7F04020B5F740291
:104513006E600574036E70DEE9600574016970D620
:10452300EF600574016F70CEC3EC9AED9B40C774C6
:10453300036E600574026E7024C3EA94A0EB9400CA
:10454300401BC3EC94A0ED94004012C3EA9401EB2A
:1045530094405009C3EC9401ED9440403574016ECE
:104563006030EE7091C3EA9420EB94004088C3EC72
:104573009420ED940050030244F9C3EA9401EB94B0
:104583004040030244F9C3EC9401ED94404003021C
:1045930044F9E86012740168600D7402686008747D
:1045A300036860030244F97407550A70030244F96F
:1045B300E8F50B780B120CA4780A120CA4780812F5
:1045C3000CA0EFF5087808120CA4E9F50878081296
:1045D3000CA4EEF912031F7406120A4CE985188223
:1045E3008519830245017B201202F57900740122AB
:1045F30074F7120A8D74FF120A36E96004EA4B60FD
:104603000C120325E9851882851983800885188291
:10461300851983741212468A7A080246A874F7121F
:104623000A8D74FF120A36E96004EA4B600C120328
:1046330031E9851882851983800885188285198355
:10464300741212468A7A090246A874F7120A8D7404
:10465300FF120A36E9FE74016E6003EE700C12035A
:104663002BE985188285198380088518828519832B
:10467300741212468A7A0A0246A8E98518828519B5
:1046830083F0AC82AD8322F0AC82AD837901221238
:104693000A4C7F02020B5F74038000120A4CD08322
:1046A300D0820201351245E9120A4C7F01020B5FE9
:1046B300E412446E79032274F6120A8D74F7120A17
:1046C30036851882851983E4F0750808F50978089A
:1046D300120CA0EAFCEBFD7403120A81AA82AB83DD
:1046E3001204F37402120A4C851882851983AC8272
:1046F300AD8379097A187B201202F5740902469278
:10470300C082C08374FD120A36851882851983E43A
:10471300F004120A817404F07402120A811246B37F
:10472300FA7BFC1202FB02469AC082C08374FD121C
:104733000A368518828519837401F0120A8174047C
:10474300F07402120A811246B37A0180D4C082C087
:104753008374FD120A368518828519837416F074E2
:1047630001120A817404F07402120A811246B37AA8
:1047730016024724C082C0839002AC74FFF0A3F0FA
:10478300A3F0A3F0A3F0A3749FF0A3E4F0A3742019
:10479300F09002AB14F0D083D0820201357F020285
:1047A3000B5F7F0A020B5F74EE120A8D8A088B0976
:1047B300890B8C0E8D0F900362E07009900364E007
:1047C30070030248749002A9E0600302487489826E
:1047D30085820C750D00E92407FAE43400FB120509
:1047E300058A108B11AE10AF11EE4F70030248858E
:1047F30074186508700474206509600C74176508E3
:104803007004742065097010900364E0600AF50A6F
:104813008E828F837492800C900362E0F50A8E82FD
:104823008F837491F0A3740E1248A78E828F83A393
:10483300A3F08E828F83124A40EE2405F8EF3400F2
:10484300F9E8FAE9FBEE24070808EF124A11F078B9
:104853000C120CA0AC0EAD0F8A828B83E0FAA3E09E
:104863001249D8120A4CEEFAEFFBA90A120511807D
:1048730011780E120CA0AC0B790E12030174021204
:104883000A4C0247A574F6120A8DE9FE8C088D09BD
:104893007808120CA0EEFC79FF1203017402120ACD
:1048A3004C0247A0F09002AAE02274F0120A8D890C
:1048B300098A0A8B0B8C087410120A81E0F50CA389
:1048C300E0F50D74072508FA74FF650960047803A1
:1048D30080027802E82AFA7B001205058A0E8B0F04
:1048E300AE0EAF0FEE4F70030249AF8E828F83740B
:1048F30001F0A374FFF0EE24020A0AEF3400FBEE8A
:104903002404F8EF124A04E5091249FAE0240212DA
:104913004A31A90B74FF65096031740325081248F5
:10492300A7C0E01249BDD0E01249E8E50A1249E800
:10493300A3E9F085080A750B00780A120CA0AC0CE9
:10494300AD0D8A828B83E0240680557402250812FC
:1049530049B4C0E01249BDD0E01249DFE0C0E01223
:1049630049CAD0E01249DFA3E0C0E01249CAA3D08C
:10497300E01249F4E50A1249F4A3E9F085080AE5CF
:104983000A24FDF50AE434FFF50B780A120CA0E5BE
:104993000C2403FCE50D3400FD8A828B83E024089C
:1049A3001249CF120A4CEEFAEF124A547F08020B57
:1049B3005FF0850C82850D83E0221249C1228A8231
:1049C3008B83E0124A2A221249C1A322FAA3E034BC
:1049D300001249D822FB1204F3740222F0850C82E0
:1049E300850D83A3221249EC22124A21A3A3A3A378
:1049F300221249ECA3A3221249FE22F08A828B835E
:104A030022124A11124A1D7404124A1DA3223400B1
:104A1300F98A828B83E8F0A3E922124A2122F08AE1
:104A2300828B83124A4B22124A4CA3A3A322124A1B
:104A33003522F8A3E03400F98882898322A3A3A353
:104A4300E508F0A3E509F022E0F8A3E0F583888206
:104A530022FB900360E0F912051122C082C0831289
:104A6300046312046912046F12045D024CA0C08235
:104A7300C0839061B1E0C2E0F0E0D2E0F0906188E1
:104A8300E0640470F8024CA0C082C0839061B1E07E
:104A9300C2E0F09061F3E4F09061F2F0F8F9124AA9
:104AA300EB9061F0124B2694FEE9940D40F0024C1A
:104AB300A0C082C0839061F3E4F09061F2F0F8F952
:104AC3009061F0E0FA124AEB6A700A124B2B94FEE3
:104AD300E9940D40EB74FE687003740D69700479FA
:104AE3000080027901024CA0740028F58274803999
:104AF300F583E022C082C0839061C0E0FAE4F0F85D
:104B0300F9E82400F582E93460F583E4124B269436
:104B130080E9940140EBEA9061C0F090618A7401EE
:104B2300024C9BF0124B2B22E8240108E93400F9D4
:104B3300C3E822C082C0838A828B83E0906016120E
:104B43004C48A3E0906017124B74906018124B7D91
:104B5300906019124B8290601A124B8790601BF081
:104B6300E99060157005E0C2E08003E0D2E0024CFA
:104B73009FF08A828B83A3A3E022124B92E022123E
:104B83004B8DE022124B8DA3E022124B92A322F015
:104B93008A828B83A3A3A32274F0120A8DEA906006
:104BA30005F0EBA3F0ECA3F07F08020B5FC082C01B
:104BB30083906001E0024C24C082C0837407599043
:104BC3006001024C9FC082C08374016990600370CE
:104BD30005E0D2E08003E0C2E0024C9FC082C083C4
:104BE300906003E054F949024C9FC082C0839060F7
:104BF30061E0024C2474F0120A8D9061947420F0E9
:104C0300EAA3124C92024BA9C082C08390035FE4D3
:104C1300F0906022F0A3F0A37830F0A3D8FC024C0C
:104C2300A0F9024CA0C082C083906014E054FCF051
:104C3300E049024C9FC082C083906009E4024C9F0C
:104C43009061C07401F08A828B8322C082C0837A10
:104C5300007B60E970027A33124C43E4F0A3F0A3C3
:104C6300F09061C0024C9FC082C083E990600280D3
:104C73002BC082C083E99060027005E0D2E3800319
:104C8300E0C2E38017C082C083E99061C6800DF063
:104C9300EBA3F0ECA3F0ED22F0A3F0A3F0D083D0CC
:104CA30082020135C082C083E9601714601C14605E
:104CB3002114602614602B14603014603614603C99
:104CC30080419061E9E054FC80389061E9E0D2E0F2
:104CD30080309061E9E0C2E080289061E9E0D2E1B0
:104CE30080209061E9E0C2E180189061E9E0C2E1CF
:104CF300F080DA9061E9E0C2E0F080E19061E9E000
:104D03004403F08098C082C083E9C33324179061C1
:104D130084F074016A70079061A6740A8017E9C36E
:104D23009414E0500904F09061A67425800714F0F0
:104D33009061A6740F024C9FC082C0839003E7E486
:104D4300F0A3F012068BD083D08202013574EE12E9
:104D53000A8DEAFEEBFF890E9003E7E0F8A3E0F982
:104D6300E84970187A117B0012056B9003E7EAF0AB
:104D7300A3EBF079017AFE7B8D120685EEFAEFFB49
:104D83001204EDEAF508C394114003750810850871
:104D93008285820C8582107511007401650E702D59
:104DA3007810120CA0EEFCEFFD9003E7E0FAA3E00D
:104DB300FB1204F37402120A4C9003E7E0250CF88B
:104DC300A3E034008882F583E4F0024E569003E7B3
:104DD300E0FAA3E0FB1204EDEAF50F25082402FA3A
:104DE3007B0012056B8A088B09EA45096065850F0C
:104DF3000A750B00780A120CA09003E7E0FCA3E00D
:104E0300FD1204F37402120A4CE508250AF582E543
:104E130009124E64050F850F8285820A7810120CE1
:104E2300A0EEFCEFFDE508250AFAE5093400FB12C4
:104E330004F37402120A4CE50A250CF8E43400F971
:104E4300E50828F582E50939F583E4F0AA08AB09FA
:104E5300120571EEFAEFFBA90E1206B57F0A020BDB
:104E63005F3400F5837420F022C082C08353F3FEC5
:104E7300D28043FD0153F4FDD29143FE0253F4FB70
:104E8300D29243FE0443F10243F42043F44043F43B
:104E93008075FB8075F80075FC2F75FA00C2917A56
:104EA300987B3A1206BBD2917A0F7B001206BB792C
:104EB30015120691790F12069D790E120691792526
:104EC300120691791C1206917A087B521206BB12C4
:104ED30006A31206A97929120691024D49C292C26C
:104EE3008053F8F989F9A2F950FCA2F950FC0000AB
:104EF3000000D292020135C292D28053F8F989F9A7
:104F0300A2F950FCA2F950FC0000000080E474F701
:104F1300120A8DE9FE7950120691EEF91206978076
:104F23001574F7120A8D79801206917E307920125A
:104F330006971EEE70F77F01020B5F74F7120A8D5E
:104F430079C01206917E4079001206971EEE70F723
:104F530080E474F7120A8DE9FF8A08EBFEEAC39432
:104F630010501374FF2FC454F025084480F912061F
:104F730091EEF912069780BE74F5120A8D8909EA3B
:104F8300FEEBFF1204EDEAF50A75080080188E8225
:104F93008F83E0FBAA08A9091206AF8E828F83A331
:104FA300AE82AF830508E508C3950A40E1850A0888
:104FB300800B7B20AA08A9091206AF0508E508C3E0
:104FC300941040EE7F03020B5F802000000000007E
:104FD30000000000000000000000000000000000CE
:104FE3000000000000000000000000EAF8EBF9E810
:104FF30024FF1AE934FFFBE84970D0020135C0826F
:10500300C083C3EA9424EB9400501674FF6C7003BE
:1050130074FF6D600C125045ECF0A3EDF079008045
:1050230002790202515BC082C083C3EA9424EB94E9
:1050330000500812504512508E80047AFF7BFF0205
:10504300515BEAC333FAEB33FB743D2AF5827404F4
:105053003BF5832274F7120A8DE9FEEAFF7C107D8B
:105063000079007A867B021204FFEE90043CF0EF95
:10507300900281F01202B3E990028670057401F088
:105083008004E4F079127F01020B5FE0FAA3E0FBF6
:105093002274F6120A8DE9FF7E00701CEA4B601839
:1050A3007508068E097808120CA0EAFCEBFD7A8DD0
:1050B3007B0212528F120A4C900286E06401701335
:1050C3000EEF70087402F01202B98007E4F0EFF9F2
:1050D30012022FEEF97F02020B5F74F7120A8D7E24
:1050E30000EA4B603B8A828B83E070121251F0908E
:1050F3000293E8F0A3E9125295E0900295F0900232
:1051030086E06402701A0E8A828B83E090028670B6
:105113000474038001E4F08A828B83E0F912022F86
:10512300EEF9025089C082C083E9F87900EA4B6046
:1051330025E86022EA2405F582EB3400F583740147
:10514300687005E044C0800CE0543FF0740368705D
:1051530004E0D2E6F0098000D083D08202013574E6
:10516300F4120A8D890890043CE0F4603A7A0A123A
:10517300527760331251F77408F0900282E08E8206
:105183008F83A3A3A3F0750A06750B00780A120C8C
:10519300A07C967D02125287120A4CEEFAEFFB9026
:1051A300043CE0F9120511900285E0640170399026
:1051B30002A51251F1E8496018E0F5838882A3A3A0
:1051C300A31251F088828983E58245836003120A22
:1051D3008B908E9D120CB37A047B009002A4E0F9AD
:1051E3001205B37404120A4C7F04020B5FA3E0F8A8
:1051F300A3E0F9228E828F8374D0F0A3E508F08EAA
:10520300828F83A3A32274F4120A8D890890043C2D
:10521300E0F4605D7A0C12527760561251F7E4F0B5
:10522300750A06F50B780A120CA07C8D7D02EE241C
:10523300030A0A0A12528B120A4C9002931251F17A
:105243008E828F83A3A3A3A3A3A3A3A3A3E8F0A303
:10525300E9F0900295E0C0E0EE240BF582EF340014
:10526300F583D0E0F0EEFAEFFB90043CE0F9120591
:10527300110251EB7B001205058A0A8B0BAE0AAFB4
:105283000BEE4F22EE2404FAEF3400FB1204F37406
:105293000222F08A828B83A3A3A32274F0120A8DC5
:1052A30075E181120481E970089002F4E0F91204B7
:1052B300871253FA600302535F90033AE0FAA3E0C4
:1052C300FBEA4B6008900339E0F91205359002F8C8
:1052D300E06401705012542EFA74064AF5D978002E
:1052E30012548340FB78008003125403E8C39940AF
:1052F300F8900319E0F9740729F5D974044AF5D92C
:10530300780012548340FB7800800D8808741A25B6
:1053130008F5827403125411E8C39940EE75E195C0
:105323009002F8E4F01254951208E612541A120887
:10533300D3908ECD780C1209348A828B83780C1229
:10534300095612546A1209651254431209719002E4
:10535300E7E0241412544974151254581203C77FFA
:1053630008020B5F74F0120A8D75E181120481E962
:1053730070089002F4E0F91204871253FA707590E2
:10538300033AE0FAA3E0FBEA4B6008900339E0F943
:105393001205359002F8E06401702212542E440283
:1053A300F5D9780012548340FB780080031254032C
:1053B300E8C39940F875E1959002F8E4F01254952A
:1053C3001208E612541A1208D3908ECD780C1209E3
:1053D300348A828B83780C12095612546A12096537
:1053E3001254431209719002E7E0241412544974D1
:1053F3001412545802535F79011203EBE96401223A
:10540300880874FA2508F5827402125411223400B4
:10541300F583E0F5D908229002F1E0F508A3E0F561
:1054230009E4F50AF50B780C79082275E191A3E0FC
:10543300F9740729F5D99002E9E0C4333354C02243
:105443009002E7E0240E12544D22F8A3E03400F951
:105453008882898322F09002E7E0241612544D7467
:105463009DF0A37403F0229002E7E0F8A3E0F58334
:105473008882A3A3A3A3A3A3E4F0A3F0908EC922DD
:10548300880874EA2508F5827402125411E8C3945B
:1054930006221203A9E9FC9002E7E02402F8A3E044
:1054A3003400F9E8FAE9FB8A828B83EC75F0118406
:1054B30085F00885080CE4F50DF50EF50F780C2240
:1054C300C082C08353BFEF1253FA700C7AE77B029A
:1054D3001203DF9002F0E4F075E1F11203C7D08309
:1054E300D08202013574F0120A8D74F8120A368ADA
:1054F300088B098C0A8D0B908EAD780812078C509F
:105503000C75084075099C750A00750B0085188297
:10551300851983AC82AD837404120A81AA82AB839A
:1055230012103212567070628518828519837808BA
:10553300120947125670604B9003EB7401F090030D
:10554300EA7402F0908EB1780812078C4008125664
:10555300706003025666C2AF9003EAE0F91211735A
:10556300E960030256641206731256707003025602
:1055730009908EB5780812078C5076908EB9120C6C
:10558300B380739003EBE4F0805E740C7808120828
:10559300B4908EBD780C1209477808790C12082B49
:1055A300851882851983780C120947E50C450D454A
:1055B3000E450F601B851882851983780812077CB6
:1055C300500E851882851983780812094702553BC6
:1055D3001206DF7404120A811209719003EBE4F0DE
:1055E30012567060030255419003EA7403F00255AA
:1055F300517808120C9C7408120A8112096512066C
:10560300D97404120A4C53BEFC9003EAE042BEE58F
:10561300ADA2E050FA751A01E5A8FEE5B8FFE59AD8
:10562300F50853A82053B820539A12D2AF1206CDCF
:105633009003EBE064017006A2C74002E4F08EA879
:105643008FB885089A9003EAE064037004790180B7
:105653000279009003EBE0FA1211EA1206C7120670
:1056630079D2AF7408120A4C7F08020B5FE5084534
:1056730009450A450B2274F4120A8D74FC120A368A
:10568300851882851983EAF0A3EBF0A3ECF0A3ED70
:10569300F07410120A817808120947C2AD908EC1C6
:1056A30078081208E685188285198378081208F9A4
:1056B3007402120A81E0F5977401120A81E0F596EB
:1056C300851882851983E0F595C2C7D2AD7404129B
:1056D3000A4C7F04020B5FC082C08374FC120A363B
:1056E300E595851882851983F0E596C0E07401126B
:1056F3000A81D0E0F0E597C0E07402120A81D0E09D
:10570300F07403120A81E4F0851882851983120963
:10571300657404120A4CD083D0820201350201352C
:10572300C082C083E990048C02590E74F7120A8D6B
:10573300E99002A4F01204E77F01020B5F74F412F4
:105743000A8D8A088B09EB5480607F9002A4E0F9EC
:1057530012051D8A0A8B0BA80AA90BE8FEE9FFE8CC
:105763004960558E828F83E064917039A3E024F2FF
:10577300602924D0702F750B018E828F83A3A3E041
:105783006402700F1258FF600D1258116008120A5C
:105793008B8003750B00850B0A80061202A7E9F5BF
:1057A3000AE50A701C90048CE0F46015EEFAEFFB36
:1057B300E0F9120511E97009AA08E5096480FB8084
:1057C30048EEFAEFFB12050B80EEEAA2E0501A1244
:1057D30058FF600C12581160077A007B00120A8B85
:1057E300E5086401FAAB098020540260189002A511
:1057F300125902600A12581160057901120A8BE5E9
:1058030008640280DF7A007B007F04020B5F12587A
:10581300E8A3A31258DEE58245832279000201350D
:1058230074F5120A8D750A018A828B83A3A3A3E000
:10583300FEA3E0FF8E088F097808120D26010008E9
:10584300200A20C258070009108758022071580502
:105853002068580620C2580B20A8580C20A3580EC5
:1058630020D758D4581258EEF912022980668A823A
:105873008B83A3A3A3A3A3E0FAA3E0FB12021DE976
:10588300F50A80508A828B83A3A3A3A3A31258DEB5
:10589300A3AA82AB8388828983E0F912021780DF8F
:1058A3001258EE602F1258FF602A1258E812581649
:1058B3006022EAFCEBFDEEFAEFFB120A8B80C0904C
:1058C30002A5125902600D1258E81258166005809D
:1058D300E9750A00A90A7F03020B5FE0F8A3E0F968
:1058E3008882898322E0F5838882228A828B83A33C
:1058F300A3A3A3A3E0F8A31258E8E0229002A7E031
:10590300F8A3E0F9E84922EAF0A3EBF0D083D082D0
:10591300020135C082C0839002A580EB74F7120A9E
:105923008D74FC120A36E990042CF07401120A817A
:105933007401F004120A81E4F0A3F085188285193A
:10594300837403F07401120A81AC82AD8379017A06
:10595300027B031205DD7402120A81AC82AD8379E6
:10596300027A037B031205DD7CCE7D0479197A0567
:105973007B031205DD7CE77D0479087A047B03123F
:1059830005DD851882851983AC82AD8379017A069A
:105993007B031205DD7CA07D007A067B00120205E5
:1059A3007CA07D007A077B001202057CA07D007A33
:1059B300087B001202057CA07D007A097B0012029D
:1059C3000579017A217B8E1206857A017B0090048A
:1059D3002CE0F91205357404120A4C7F01020B5FA7
:1059E30074F6120A8DEAFEEBFF5480601690042CC5
:1059F300E0F912051DEA4B600312050BEEFAEF64A2
:105A0300808011EEA2E0500F7AEF7B041205E9EEDD
:105A13006401FAEFFB80047A007B007F02020B5FD4
:105A230074F7120A8D74FA120A36E914600B1460C3
:105A33003414603914603E8044851882851983AC20
:105A430082AD837A017B031205E38518828519836E
:105A5300AA82AB831207457402F912068579037A89
:105A63003F7B8E801E79037A4B7B8E801679037A77
:105A73005F7B8E800E79037A677B8E800679037A4B
:105A8300E27B8E12068574060259DB74F7120A8DC7
:105A930074EF120A36851882851983AC82AD83753B
:105AA300838E758210741112098A90042D7430F05C
:105AB300A37478F0782F7904EA2406FAEB3400FB18
:105AC3007E06EA24FF1AEB34FFFB8A828B83E0C451
:105AD300125AF4A882A9838A828B83E0125AF408AB
:105AE300A9831EEE70DCE4F07A2D7B047411025955
:105AF300DB540FFC851882851983E5822CF582E53A
:105B0300833400F583E088828983F0A322C082C0B6
:105B130083900CF1E4F0A3F0900CF374F3F0A3740E
:105B230004F09004F37448F0A37402F090073BF080
:105B3300A37480F0A374B4F0A37405F0D083D0826F
