:020000040000FA
:0600000002011D021F9E1B
:03002B00021CDED6
:0300530002201474
:03006B00021CACC8
:10008300021E8FE5C754F84401F5C7790122000029
:100093000080FB120086B90003020107E47921788E
:1000A30008B800028004F709D8FCE479297802B87B
:1000B30000028004F709D8FCE490028178FC7907F8
:1000C3008002F0A3D8FCD9FA781A90014D7A01BACC
:1000D30000028007E493A3F608DAF990097CAA8268
:1000E300AB8390014E78C079048015E493A3AC826E
:1000F300AD838A828B83F0A3AA82AB838C828D83A8
:10010300D8E9D9E77582C17583A6740312012F75E7
:100113008291758300740012012F75D00075813FA1
:10012300751881751902759F00020096C09FF59F8F
:10013300E473D09F22D083D082C09FE493C0E07445
:100143000193C0E0740293F59F2201FFFF0A41630C
:1001530063656C20456E61626C65000002140041AA
:100163006363656C2052616E676500001010104177
:100173006363656C20582D436F6F7264696E61749D
:10018300650000416363656C20592D436F6F726492
:10019300696E6174650000416363656C205A2D4389
:1001A3006F6F7264696E61746500000249900100AB
:1001B3000018900245900100007E0902759003002B
:1001C30000A002026B900100007F0902459001002C
:1001D300008D090273900100008E09026B900100EB
:1001E3000090090245900100009D090271900000F2
:1001F30000A102023F90030000A402026B900100E1
:1002030000A0090245900100009E09026F900000C2
:1002130000A202023F90030000AA02026B900100B9
:1002230000B4090245900100009F09026D9000008F
:1002330000A302023F90030000B002026B90010092
:1002430000C809110199010F1264040102499001C8
:1002530000001290024590010000790A02679001A4
:1002630000007A0A023F90030000BE02022F9001B1
:1002730000007B0A020202020202020202010D00D6
:100283000000100102499001000015900245900101
:100293000000A50A026190010000C5020245900119
:1002A3000000A60A025F90010000138F024590012F
:1002B3000000A70A025D90010000058F024590012E
:1002C3000000A80A025B90010000918E0245900194
:1002D3000000A90A025990010000B58E0245900161
:1002E3000000AA0A0257900100007F8E0245900188
:1002F3000000AB0A025590010000A38E0245900155
:100303000000AC0A025390010000F78E02459001F1
:100313000000AD0A025190010000AE0A01E8030596
:100323003F100B094B6579666F6264656D6F02015F
:10033300050702031802180418544920424C4520AB
:100343004B6579666F6200000000000000003D0805
:10035300000043084908FF0001307503020106004D
:10036300000000000000000000000000000000008A
:100373000000000000000000000000FFFF060080F6
:100383000CE8030A04120249900100001B90024585
:1003930090010000B40B024F900300009204024945
:1003A300900100001E90024590010000B50B024F22
:1003B300900200009304024990010000219002453D
:1003C30090010000B60B0243900100009404023F29
:1003D300900300009504104B657920507265737388
:1003E300205374617465000249900100002A900251
:1003F3004590010000070C022D900000009B0402B1
:100403003F900300009C04026B90010000080CFF66
:100413000000B4000028002800283075A000A000C8
:10042300A000A00000080008E001F0001000100088
:100433001000100010001000500050005000100079
:100443001000D0070000000000000F003075070007
:100453001000010081FF0000FF550B730B5B0BFFC6
:1004630002020A0A025000A0000000E803024990B9
:100473000100002790024590010000910C023D907D
:10048300010000D304024590010000920C02399050
:10049300010000E904024590010000930C0237902B
:1004A300030000EB04024590010000940C02359018
:1004B300030000EC04024590010000950C02339008
:1004C300010000960CFF0100FF200249900100008B
:1004D3002490024590010000FA0C023190000000C4
:1004E3000000023F9003000039057F117F117F1147
:1004F3007F117F117F117F117F117F117F117F1179
:100503007F117F1155146D144F14120138E17900D6
:10051300120138EB7900120138297A00120138727E
:100523007A00120138AC7A00120138067B001201FE
:1005330038277B00120138307B001201387D7B00A5
:10054300120138A67B00120138B07B001201381C5F
:100553007C00120138AE7C00120138F87C001201D5
:10056300382E7D00120138BA7D00120138FB7D0060
:10057300120138327E00120138447E0012013863C2
:100583007E001201386C7E00120138397F0012019F
:100593003886A10312013890FF01120138779303C3
:1005A300120138AD9303120138E393031201382E7D
:1005B3009503120138ACA503120138C2A503120139
:1005C30038CCA50312013816A603120138D7E4026A
:1005D300120138ECE4021201389CE502120138DC06
:1005E300E502120138F5E50212013830E602120184
:1005F300387DE602120138AFE602120138F1E60255
:10060300120138F2E80212013864E9021201388F4C
:10061300A003120138B8A003120138E7A0031201A6
:1006230038FFA00312013841A103120138B2F102CD
:100633001201380DF2021201382AF202120138397E
:10064300F30212013884F30212013842F402120158
:100653003837F502120138B68903120138ED8903E0
:100663001201380C8A03120138B78A031201384C7D
:100673008B03120138D48B0312013833A403120104
:100683003854A403120138E5A403120138799E03F8
:10069300120138D69E03120138EE9E031201380C64
:1006A3009F03120138279F03120138649F0312012D
:1006B30038729F0312013817FD021201383CFD0204
:1006C30012013866FD0212013819A703120138EB33
:1006D3003F00120138C841001201386E4300120175
:1006E30038224400120138AC44001201382D450071
:1006F3001201385645001201381449001201389A84
:100703004900120138C14A00120138FB4A001201A4
:10071300383C4B00120138844C00120138E14C0084
:100723001201382A4D00120138954D001201380686
:100733004E00120138384E00120138504E0012019B
:10074300387C4F001201388C4F00120138365100AB
:100753001201384D51001201387F51001201383314
:100763005300120138C05300120138F0A4031201E0
:100773003801A503120138A1A503120138F07F0047
:10078300120138EFFF011201387DA2031201388DE7
:10079300A203120138A2A20312013856A3031201C5
:1007A300388B9F0312013810A00312013876A0037F
:1007B300120138359C03120138579C03120138B8D3
:1007C3009C03120138CA9C031201381A9D031201BB
:1007D30038589D031201385B9D0312013855F90205
:1007E30012013869F902120138E3F902120138C71C
:1007F300FA021201389EFC0212013803FD021201B3
:1008030038F87F001201383C9103120138CD92036E
:100813001201382E93031201387493031201381412
:10082300BA0212013807BC02120138B7BD02120125
:10083300388CBE021201382DBF021201384CBF02A0
:1008430012013899C002120138D8C00212013820AF
:10085300C102120138A19A03120138F39A0312015B
:1008630038669B03120138CF9B03120138F78E03BE
:10087300120138218F03120138EF8F03120138CA96
:100883009003120138D2B10212013899B202120157
:1008930038D0B202120138FAB2021201385AB30246
:1008A300120138B0B30212013815B402120138AD87
:1008B300B402120138BCB50212013853B702120157
:1008C30038E0B70212013847B8021201385EB802A5
:1008D30012013878B902120138B6B902120138127E
:1008E300DA01120138A9DD0112013820DF011201FA
:1008F3003870DF011201388DDF011201380BE0017E
:100903001201382DE201120138F3E5011201389684
:100913008303120138148403120138318403120152
:1009230038BA8403120138E584031201387785034A
:10093300120138838603120138689503120138AD1A
:1009430095031201380196031201388496031201AC
:1009530038FC9603120138EE980312013805990307
:100963001201383499031201386D99031201389535
:100973009903120138C39903120138DA990312015A
:1009830038F19903120138079A031201382E9A039A
:10099300120138419A03120138579A031201386A37
:1009A3009A031201388F9A03120138828C021201C2
:1009B30038818D02120138B68D02120138D78D02AB
:1009C300120138E78D02120138088E021201381421
:1009D3008F02120138E18F02120138549002120182
:1009E30038DA90021201381D910212013854910233
:1009F300120138DA9102120138AC92021201380A5C
:100A030093021201382293021201389C93021201BD
:100A1300389F9302120138A29302120138499402BB
:100A2300120138619402120138919402120138B113
:100A330094021201389F9502120138559602120151
:100A4300382FE00212013857E00212013885E00224
:100A5300120138BCE00212013824E1021201386DA0
:100A6300E102120138B8E102120138F6E102120183
:100A73003833E20212013861E20212013808E3025C
:100A830012013812E3021201381FE3021201385235
:100A9300E30212013814E40212013820E4021201C5
:100AA3003838E40212013842E4021201385CA3032D
:100AB3001201386AA30312013882A3031201389A80
:100AC300A3031201385CAF01120138FAAF0112011E
:100AD3003872B00112013887B101120138C1B10176
:100AE3001201386AB2011201383FB301120138A36F
:100AF300B401120138FAB40112013881B5011201AF
:100B03003868B601120138B5B60112013843B7018E
:100B130012013867B7011201383CB9011201387D5F
:100B2300B9011201389FB90112013820BA0112012B
:100B3300380ABB01120138D0BB011201381FC902A8
:100B4300120138F1C9021201389ACA02120138DDC2
:100B5300CA021201386ACB02120138F6CB02120123
:100B630038D7CC0212013806CD0212013802CE0268
:100B73001201384ACE021201384CCF0212013890CA
:100B8300CF02120138B6CF02120138677F0012017B
:100B93003884F5021201389AF502120138C0F502C1
:100BA300120138E8F602120138F2F6021201384B4C
:100BB300F8021201384BF9021201387AD6021201F7
:100BC3003887D702120138BBD702120138FDD7028A
:100BD300120138B7D902120138FF9F01120138629E
:100BE300A001120138A7A101120138B7A101120116
:100BF30038DAA10112013825A201120138CAA20173
:100C0300120138C0A3011201388AA401120138026B
:100C1300A60112013844A601120138E2A60112010D
:100C2300382FA70112013855A70112013843A90132
:100C330012013848A90112013829AB011201387D8C
:100C4300AB01120138DFAB0112013807AC0112010D
:100C530038ABAC011201386DAD011201389EAD0104
:100C6300120138A1AD01120138E9AD011201382B8F
:100C7300AE0112013892AE01120138A18C031201A8
:100C830038B48C03120138CD8C03120138188D034C
:100C9300120138F38D03120138828E03120138CD0D
:100CA3008E031201381026001201381C260012018F
:100CB300385526001201389A2600120138512700B0
:100CC300120138D727001201383C28001201386876
:100CD3002800120138A12800120138B52A00120198
:100CE30038912C001201387C2E00120138B32F00EA
:100CF300120138133200120138FF32001201384555
:100D030034001201385235001201386F35001201D8
:100D130038A73500120138C13500120138293600D1
:100D2300120138C33A00120138643B00120138B58E
:100D33003B00120138DC3B001201382A3C0012014F
:100D430038483C001201389C3C00120138753D00C4
:100D5300120138FC3E00120138843F001201382B87
:100D6300D00212013835D00212013800D10212012B
:100D73003844D1021201386AD102120138B6D102C5
:100D8300120138EED10212013817D202120138547F
:100D9300D30212013881D302120138AED3021201F9
:100DA30038F9D30212013814D4021201385FD40285
:100DB30012013899D402120138D3D4021201380A2D
:100DC300D502120138BAD50212013803D602120134
:100DD300382DD60212013852D602120138C6ED025E
:100DE30012013890EE0212013873EF02120138E952
:100DF300EF021201382BF00212013858F1021201EE
:100E03003800800212013829800212013842800220
:100E13001201388781021201386582021201388477
:100E23008202120138118302120138548302120123
:100E330038A18402120138408502120138BF8702AB
:100E43001201385688021201382A89021201380C1D
:100E53008A02120138788B021201380B8C021201BC
:100E630038649D03120138CD9D03120138219E037E
:100E7300120138489E0312013871E902120138DE6B
:100E8300E90212013829EA021201381EEB021201AB
:100E9300381AEC0212013804ED0212013864A90277
:100EA300120138A6A90212013880AA021201385988
:100EB300AB0212013854AC0212013833AD021201F5
:100EC300389FAD0212013866AE02120138D1AE026C
:100ED30012013838AF0212013863AF02120138D45D
:100EE300AF0212013867B002120138D0B00212010A
:100EF30038E5B0021201382DB10212013846B102B1
:100F0300120138ABB102120138AEB102120138BC82
:100F13008603120138E48603120138228703120183
:100F230038E087031201384B8803120138678803BE
:100F33001201388F8803120138BF8803120138CE9B
:100F430088031201384889031201386E890312019C
:100F5300387C9001120138199201120138EE930185
:100F6300120138B89401120138FF94011201384676
:100F73009501120138649501120138A695011201F9
:100F830038BC9501120138089601120138409601C8
:100F9300120138739601120138C496011201382EDA
:100FA3009701120138289A01120138CA9B011201D4
:100FB30038109C011201386A9D01120138C79D0146
:100FC3001201383C9E01120138909E01120138B67D
:100FD3009E0112013861A0021201387EA0021201A3
:100FE3003818A6021201381AA70212013894A8026F
:100FF30012013842A902120138FF53001201384886
:101003005400120138755400120138A8540012011B
:1010130038B55400120138C15400120138D35400BA
:10102300120138A855001201380656001201383B48
:101033005600120138D75700120138115800120117
:10104300387F5800120138245900120138E0590042
:101053001201385F5A00120138235B001201383243
:101063005B00120138B35B00120138525C001201BD
:1010730038845C001201381F5D001201387D5D0069
:10108300120138B75D00120138385E0012013801D1
:101093005F00120138AA5F001201383160001201AB
:1010A30038896000120138EA6000120138136100C8
:1010B300120138C961001201381363001201385656
:1010C3006300120138736300120138926300120146
:1010D30038DD63001201380264001201382B64000A
:1010E3001201389A6400120138DC6400120138E0FE
:1010F30065001201387A6600120138466700120152
:10110300385F6700120138C0960212013813970244
:101113001201381F9702120138F497021201381B8B
:101123009802120138569802120138C2980212012D
:1011330038F698021201382F9902120138479902A2
:10114300120138A09902120138B99902120138022A
:101153009A02120138159A021201382F9A021201CB
:1011630038459A02120138619B02120138729C02BF
:10117300120138BF9D02120138A49E02120138F3F6
:101183007F001201388CE701120138C0E701120118
:10119300382BEB0112013875EC011201383FED01D8
:1011A300120138C9EE01120138A4EF01120138DE31
:1011B300EF0112013801F00112013843F00112016D
:1011C300384CF00112013896F001120138A0F001F9
:1011D3001201384CF10112013820F2011201387466
:1011E300F201120138D6F20112013829F30112017A
:1011F3003858F30112013897F3011201389167004F
:10120300120138EB6F00120138F16F00120138AC94
:10121300750012013892790012013800800312011F
:10122300387680031201388C8003120138C9800399
:101233001201380181031201387E8103120138B98A
:1012430081031201383482031201387082031201C0
:10125300387982031201388582031201389F820391
:10126300120138C48203120138DA820312013803EF
:1012730083031201386683031201386DDB02120106
:101283003880DB021201389ADB02120138C3DB0219
:1012930012013806DC0212013845DC0212013883E0
:1012A300DC02120138E8DC02120138FDDC02120113
:1012B3003808DD0212013815DD021201382CDD0277
:1012C3001201383ADD0212013845DD0212013851AC
:1012D300DD0212013864DD021201386FDD021201F2
:1012E3003892DD021201383BDE021201384BDE0276
:1012F30012013865DE0212013882DE021201389EC5
:10130300DE02120138C3DE02120138CDDE02120101
:1013130038E1DE0212013800DF0212013861DF0218
:1013230012013867DF021201386DDF0212013873D0
:10133300DF021201387FDF02120138B2DF0212012D
:101343003888CC011201380ACD01120138B3CD011E
:10135300120138FBCE0112013809D101120138EF15
:10136300D10112013824D20112013846D2011201EF
:1013730038EFD201120138BFD401120138E8D40189
:1013830012013860D50112013892D5011201389F3C
:10139300D501120138EAD5011201380ED601120126
:1013A300385FD80112013869D901120138C5D90152
:1013B30012013805BE0112013816BF01120138FAB5
:1013C300BF0112013804C00112013826C001120105
:1013D3003832C001120138D6C10112013803C201EB
:1013E30012013819C3011201386EC301120138BD4D
:1013F300C40112013892C501120138EEC501120170
:101403003859C6011201388EC601120138D1C601FE
:101413001201389BC901120138B3C90112013844C2
:10142300CA0112013852CA011201389FCA011201BE
:1014330038ADCA0112013819CB0112013894CB011E
:10144300120138EBCB0112013872F4011201389406
:10145300F401120138A5F60112013864F9011201F1
:10146300388EFA011201384CFB0112013838FC01A5
:101473001201383597031201385A9703120138D0F5
:10148300970312013802C2021201380BC202120181
:101493003814C202120138ECC2021201389DC40290
:1014A300120138CDC402120138F8C40212013828DF
:1014B300C50212013853C50212013887C502120151
:1014C30038B3C502120138F6C50212013821C6022B
:1014D30012013868C602120138BDC602120138FF74
:1014E300C60212013859C70212013884C702120119
:1014F30038D3C70212013803C8021201382EC802BA
:101503001201385CC8021201387FC8021201384444
:10151300A60312013870A6031201389DA603120117
:1015230038A7A603120138B7A6031201386FA70321
:101533001201389BA703E066701008A3E066700AE7
:1015430008A3E066700408A3E06622C3E7960809CF
:10155300E7960809E7960809E79622C3E09608A3E9
:10156300E09608A3E09608A3E09622C008C3E0969D
:10157300F50808A3E096420808A3E096420808A3EA
:10158300E09645087001D3D00822080808EAC0E0B5
:10159300EBC0E086F0E7A4FA180986F0E7A42AFA7C
:1015A300180986F0E7A42AFA180986F0E7A42AFAAC
:1015B3001986F0E7A4FBE5F02AFA190886F0E7A4F8
:1015C3002BFBE5F03AFA190886F0E7A42BFBE5F0CC
:1015D3003AFA18180986F0E7A4C5F02BFBE43AFAA7
:1015E3001908E7C5F0C6A426F6E5F03BFBE43AFA92
:1015F3001886F0E7A4F6E5F00826F6E43B08F6E4DF
:101603003A08F6D0E0FBD0E0FA22E4CFC0E0E4CE23
:10161300C0E0E4CDC0E0E4CCC0E075F020C3E63325
:10162300F608E633F608E633F608E633F618181834
:10163300EC33FCED33FDEE33FEEF33FFC3EC9709E0
:10164300ED9709EE9709EF97191919400FFFEC97DA
:10165300FC09ED97FD09EE97FE191906D5F0BEECCE
:10166300F709EDF709EEF709EFF7191919D0E0FCBF
:10167300D0E0FDD0E0FED0E0FF221216E5181818E6
:1016830012160D1216D4191919221216D419191972
:10169300080808E618181820E7E012160D1216E5D8
:1016A30018181822090909E719191920E7DC08088D
:1016B30008E618181820E70302160D1216E5181885
:1016C3001812160D1216E51818181216D41919192E
:1016D30022E4C397F709E497F709E497F709E49736
:1016E300F722E4C396F608E496F608E496F608E4CF
:1016F30096F6226017080808C6A2E713C618C61391
:10170300C618C613C618C613C6D5E0E92260160864
:101713000808C6C313C618C613C618C613C618C608
:1017230013C6D5E0EA2270090808082260161818C3
:1017330018C6C333C608C633C608C633C608C6337D
:10174300C6D5E0EA22E627F60809E637F60809E6F1
:1017530037F60809E637F622E026F608A3E036F660
:1017630008A3E036F608A3E036F622E026F008A345
:10177300E036F008A3E036F008A3E036F022C3E633
:1017830097F60809E697F60809E697F60809E69733
:10179300F622C3E096F008A3E096F008A3E096F0E3
:1017A30008A3E096F022E056F608A3E056F608A355
:1017B300E056F608A3E056F622E056F008A3E056FA
:1017C300F008A3E056F008A3E056F022E0F608A3E1
:1017D300E0F608A3E0F608A3E0F622E6F008A3E6A5
:1017E300F008A3E6F008A3E6F022E0FAA3E0FBA3E7
:1017F300E0FCA3E0FD22EAF0A3EBF0A3ECF0A3ED01
:10180300F022CAC0E0E6F0A308DAFAD0E0FA22CA6E
:10181300C0E0E0A3C582CCC582C583CDC583F0A358
:10182300C582CCC582C583CDC583DAE6D0E0CA22A2
:10183300C3E498F8E499F91218748026C3E49AFA79
:10184300E49BFBE920E7E9121874E498F8E499F9BA
:1018530022C3E498F8E499F9121874E498F8E49927
:10186300F9C3E49AFAE49BFB22EB20E7CFE920E7F4
:10187300E0B90010BB0008E88AF084F8AAF022E47B
:10188300FBC8FA22EB70227B10C833C8C933C933B3
:101893005007C39AC3DBF280069A50012ADBEAC8D9
:1018A30033F4C8C933F4C9FA2275F008E4C833C85D
:1018B300C933C933C99AC99B5004C92AC93BD5F056
:1018C300ECFBC833F4C8E4C9FA22600D08C6A2E7EA
:1018D30013C618C613C6D5E0F322600C08C6C3139B
:1018E300C618C613C6D5E0F422700422600D18C6CC
:1018F300C333C608C633C6D5E0F41822251810AF83
:1019030008F518400215198008F51840021519D278
:10191300AF22C0D0251810AF08F518500205198062
:1019230008F51850020519D2AFD0D0222518F58238
:1019330010AF08F518400215198008F51840021574
:1019430019D2AF851983222518F582E43519F58359
:1019530022E4732518C582C0E0E51934FFC583C0AE
:10196300E0E518C3958224F810AF088583198582B2
:10197300188008858319858218D2AFCEF0A3E5209D
:10198300F0A37808E608F0A3DEFAEFF0A3E58124DC
:10199300FAF8E608F0A3E608F0A3E608F0A30808BF
:1019A300E608F0A3E608F0A315811581D0E0FED088
:1019B300E0F8158115811581E8C0E0EEC0E022252D
:1019C30018C582C0E0E51934FFC583C0E0E518C33C
:1019D300958224F910AF08858319858218800885BC
:1019E3008319858218D2AFCEF0A3E520F0A378083F
:1019F300E608F0A3DEFAEFF0A3E58124FBF8E6089E
:101A0300F0A3E608F0A30808E608F0A3E608F0A3AD
:101A130015811581D0E0FED0E0F815811581E8C06D
:101A2300E0EEC0E022851983851882E0A3FEE0A3DF
:101A3300F5207808E0A3F608DFFAE0A3FFE0A3C0EF
:101A4300E0E0A3C0E0E0A3C0E0E0A3C0E0E0A3C007
:101A5300E010AF0885821885831980088582188570
:101A63008319D2AFD083D0820201358519838518BB
:101A730082E0A3FEE0A3F5207808E0A3F608DFFAEE
:101A8300E0A3FFE0A3C0E0E0A3C0E0E0A3C0E0E088
:101A9300A3C0E010AF08858218858319800885826A
:101AA30018858319D2AFD083D08222C0D02518C520
:101AB30082C0E0E51934FFC583C0E0E518C3958211
:101AC30024F310AF0885831985821880088583194C
:101AD300858218D2AFC8F0A3E9F0A3EAF0A3EBF034
:101AE300A37908E709F0A3D8FAECF0A3EDF0A3EE8D
:101AF300F0A3EFF0A3D0E0F0A3D0E0F0A3D0E0F0A8
:101B0300A3E520F0A3E5F0F0A322851983851882CD
:101B1300E0C0E0A3E0F9A3E0FAA3E0FBA37808E0C8
:101B2300F608A3DFFAE0FCA3E0FDA3E0FEA3E0FFD9
:101B3300A3E0C0E0A3E0C0E0A3E0F5D0A3E0F5207C
:101B4300A3E0A3F5F010AF088583198582188008F8
:101B5300858319858218D2AFD082D083D0E0F8D0A4
:101B6300E03274048006740280027401C0E0F4045D
:101B730012192FD0E0121805227404800474028015
:101B830000CCC0E0EDC0E0E518C39CCCAD1950011A
:101B93001D10AF068C188D1980068C188D19D2AFC5
:101BA300121812D0E0FDD0E0FC22D083D082E9C02D
:101BB300E0E493A3C386F0C5F095F0F908E493A39A
:101BC30086F0C5F095F0700BE493A3C3994005E943
:101BD300048002A3E475F002A42582F582E5F035C2
:101BE30083F583D0E0F9E493A3C0E0E493C0E0225B
:101BF300D083D082ECC0E0EDC0E0E493A3FCE49397
:101C0300A3FDED4C600D121C3FEC24FFFCED34FFF3
:101C1300FD80EFE493A3FCE493A3FDED4C600D1270
:101C23001C7EEC24FFFCED34FFFD80EFD0E0FDD003
:101C3300E0FCE493A3C0E0E493C0E022C0E0C3E48B
:101C43009396087401939618400FE49366700808FE
:101C5300740193661870007019A3A3C3E4939608E4
:101C63007401939618A3A3400DD0E0D0E0D0E00216
:101C73001C2FA3A3A3A3A3A3D0E022C0E0C0F0889A
:101C8300F0E4936670080874019366187000A8F076
:101C9300A3A3700BD0F0D0E0D0E0D0E0021C2FA3C0
:061CA300A3D0F0D0E02206
:101CAC00C0E074F2121AAEA2AFE433FED2AFE589F3
:101CBC00A2E04006E589A2E150031207CB7589002A
:101CCC00758900C2C5751A00EEA2E092AF7F0102C1
:101CDC001B0DC0E0C0D0E8C0E0E9C0E0E5A8D2AF81
:101CEC00C2C7751A00A2E7A2E792AFD0E0F9D0E024
:101CFC00F8D0D0D0E03274F51219C2EAFEEBFFEE48
:101D0C002434F8EF3400F988088909EE2435121EC2
:101D1C003AF8EE2437121E3AF50AEC850AF0A4FCC8
:101D2C00AAF0850AF0EDA42AFDE82CF8E43DF97A36
:101D3C00257B00121874EA850882850983F0540704
:101D4C00F87401B800028004C333D8FCC0E0E0137F
:101D5C001313541FF8EE28F8EF3400F9E8245DF55E
:101D6C0082E93400F583D0E0F8E0586008850882F9
:101D7C00850983801DEE2436121E3AF5F0EA84A8FC
:101D8C00F0EE28F8EF3400F9E82438F582E9340055
:101D9C00F583E0F97F04021A6E74F51219C2EAFE9B
:101DAC00EBFFEE2434121E3AC0E0EE2435F582EF40
:101DBC003400F583D0E0F08E828F83A3A3A3A3A37A
:101DCC00E0FAA3E0FB8E828F83A3A3A3A3A3A3A318
:101DDC00E0FCA3E0FDECC39AF50AED9BF50BEE24B9
:101DEC0080F508EF3400F509850882F583E064017D
:101DFC00702BEE2481F582EF3400F583121B8012D8
:101E0C001E437402121915E960137C1E7D07EEFA4D
:101E1C00EFFB1210AD850882850983E4F0AC0AADA6
:101E2C000BEEFAEFFB121D021225FA021DA0F58231
:101E3C00EF3400F583E022C082C0838518828519B7
:101E4C0083E0F8A3E0F9C3EA9CEB9D5012C3EC9835
:101E5C00ED994019C3EA98EB99501279018010C39F
:101E6C00EA98EB9940F5C3EC98ED9950EE7900D0D7
:101E7C0083D08222EAC39CFAEB9DFB2285218785C5
:101E8C0022C622C0E074EF121AAE759B00906182DC
:101E9C00E0A2E64003021F50E591A2E64003021FB8
:101EAC00507591BF9005E3E06405700812124B1257
:101EBC00125780031212517521001212C3E99005BA
:101ECC00E4F079001212B712101D7A017B00900514
:101EDC00E2E0F9120567907803E064426003021FA8
:101EEC0099900780E014F06003021F99C2AF121E94
:101EFC00FD00782AD0E0F618D0E0F6E59F5407F9FB
:101F0C007005908F6A8003908F6E78081217CFE956
:101F1C00C4C0E07829E65508F50808E65509F50926
:101F2C00740B78081218DDD0E02508F8906270E088
:101F3C00A2E740F8E8C333906272F0906270E0D28E
:101F4C00E0F08049E0A2E55024E591A2E5501E7531
:101F5C0091DF9005E3E0640D7013900605E004F04A
:101F6C0064287002E4F07A00E0F912133590618174
:101F7C00E0A2E35009E5E9A2E3500375E9F7A3E019
:101F8C00A2E75009E591A2E7500375917F7F040207
:101F9C001B0DC0E0C0D0C082C083906183E0A2E082
:101FAC005009E5BFA2E0500375BFFEE0A2E1500965
:101FBC00E5BFA2E1500375BFFDE0A2E25009E5BF09
:101FCC00A2E2500375BFFBE0A2E35009E5BFA2E318
:101FDC00500375BFF7E0A2E45009E5BFA2E450033B
:101FEC0075BFEFE0A2E55009E5BFA2E5500375BF50
:101FFC00DFE0A2E65009E5BFA2E6500375BFBFD0F3
:10200C0083D082D0D0D0E032C0E074F2121AAEE5A8
:10201C00A7A2E4500FE5A1A2E4500953A7EF75A1C4
:10202C00EF122068E5A7A2E5500CE5A1A2E5500649
:10203C0053A7DF75A1DFE5A7A2E15009E5A1A2E155
:10204C00500375A1FDE5A7A2E2500CE5A1A2E25058
:10205C000653A7FB75A1FB7F01021B0D74F8121927
:10206C00C27521019005E3E0640670077A007B00DD
:10207C00121233A2AFE433FED2AF9005E9E0640153
:10208C0070187A207B009005E2E0F91205F17A20B5
:10209C007B009005E2E0F912056D906182E0D2E6DA
:1020AC00F090077FE0602185C62280169005E8E05D
:1020BC0064017008E5C654F84405F5C653BEFC121D
:1020CC001E887401652160E4EEA2E092AF7F0102EC
:1020DC001A6E00008E238F2485822885832785180D
:1020EC0082851983E0CEA3E0CF852882852783EBF8
:1020FC00C9EAC8EDCBECCA75F010C3E833C8E933B4
:10210C00C9EA33CAEB33CBC3EA9EF526EB9FF52520
:10211C00B35004AB25AA26EC33CCED33CDD5F0DA95
:10212C00AE23AF242274E91219C274FA1218FFEA12
:10213C00FEEBFF8C088D099005E3E024F7C39405B2
:10214C005006908FB60222581211AF8A0A8B0BEAF6
:10215C00450B70030222551212698A0C8B0D121258
:10216C0069EA650C7003EB650D60ECEEFCEFFD8528
:10217C001882851983AA82AB8312126F850A828515
:10218C000B83A3A3780C1217CF908F96780C121791
:10219C00A985188285198378141217CF908F967899
:1021AC00141217A9780C791412154E501F780C794B
:1021BC0014121781908FAA780C12156E4047850C5B
:1021CC0010850D11850E12850F1380418514108515
:1021DC0015118516128517137810790C121781902A
:1021EC008FAA781012156E501C75100075110075A1
:1021FC001200751301781079141217817810790C6C
:10220C001217488008908FB678101217CF7409787F
:10221C0010121729908FCA780C1217CF7810790CDE
:10222C0012160D9005E3E06408600AE06406600590
:10223C00E06405701C909002781012156E5012908C
:10224C008FBE781012175B8008908FB2781012171F
:10225C00CF85088285098378101217DE740612194F
:10226C00157F10021A6E74F71219C21212819007A0
:10227C007DE064017010906245E4F0A3F053F4F338
:10228C0043FE0C5390F3121221E5C654804449F5D9
:10229C00C6E59E547F644970F8906185740FF09088
:1022AC00077BE0F47002A3E0602C7508017509004F
:1022BC0090077BE078081218ECE508F4FAA3E060CC
:1022CC000814600A14600C800DEA52808008EA52EF
:1022DC00908003EA52A079007F02021A6E74F71202
:1022EC0019C2E9FEEAFF74016E700C7A807B0090D3
:1022FC0005E2E0F9120567902608E493F46008E41F
:10230C0093F9120FFF800953C680E59E547F70FA33
:10231C0012122790077DE0640170031210359007AC
:10232C007BE0F47002A3E0602A7508017509009047
:10233C00077BE078081218ECAA08A3E06008146088
:10234C000A14600C800DEA42808008EA42908003F7
:10235C00EA42A01211AF8A088B09A808A909E8491A
:10236C006017E5E170FCE82414F582E93400F5838C
:10237C00E0F874FF68600288E174016F700A7A01FA
:10238C009005E2E0F91205C10222E474F11219C2BF
:10239C008A088B098C0A8D0B740F12194A780C124F
:1023AC0017CF908F9678081217A9908F96780C12E9
:1023BC0017A97808790C12154E50157808790C125B
:1023CC001781908FAA780812156E40157901801329
:1023DC00780C7908121781908FAA780C12156E4020
:1023EC00EB79007F08021A6E74ED1219C28A088B01
:1023FC00098C0A8D0B741312194A780C1217CF9092
:10240C008F9678081217A9908F96780C1217A978C6
:10241C000C790812154E40117808790C121781AA04
:10242C0008AB09AC0AAD0B80227510007511007554
:10243C0012007513017810790C1217817810790835
:10244C00121748AA10AB11AC12AD137F0C021A6E06
:10245C00908F9678081217CF8A828B837808121780
:10246C00BC7F04021A6E74F51219C28C828D8378AB
:10247C00081217CF8A828B8378081217951224C6FC
:10248C00C3E098F0A3E0991224B8401E908FE67830
:10249C00081217CF8A828B83780812176E8E828F60
:1024AC0083E02420F0A3E0344EF080A4F08E828FE1
:1024BC0083C3E09420A3E0944E22EA2404F8EB3486
:1024CC0000F9E8FEE9FF8C828D83A3A3A3A3E0F8B7
:1024DC00A3E0F98E828F832274F51219C2E9FE9063
:1024EC000735E0FAA3E0FBEEC333F8E433F974D715
:1024FC0028F582748E39F583E02AF508A3E03BF5C4
:10250C00097808121B69908F8A1217ED1220E0745B
:10251C00021219158A088B098C0A8D0B7410780815
:10252C00121710AA08AB097F04021A6E74F1121963
:10253C00C28A0C8B0D8C0E8D0F740F12194AE0FA97
:10254C00A3E0FB741112194AE0F508A3E0F5097435
:10255C001312194AE0FEA3E0FF7808121B69EA2463
:10256C0001F508EB3400F509E4F50AF50B780C7964
:10257C000812158D908FC278081217CF780C790835
:10258C0012158DAA0CAB0DAC0EAD0F1220E074021F
:10259C001219158B09EA450960047A0180027A0048
:1025AC00EC2AFCED3400FDECF8EDF97A717B0212AB
:1025BC00187488088909E4F50AF50B8E828F8378E4
:1025CC00081217DEECF8EDF97A717B021218748A96
:1025DC00088B09740578081218EC8E828F83A3A3DC
:1025EC00A3A3E508F0A3E509F07F08021A6EC082E8
:1025FC00C083E9906000F0D083D08222FFFFFFFF00
:10260C00FFFFFFFFC082C083E9900CF9F002289411
:10261C0074F7121956E9900501F07C397D057AFFA3
:10262C007BFF120D3590050274FFF0A3F0A3E4F0CC
:10263C00A3F07905120CBD900501E0F9120BE57AB7
:10264C00537B0D120F150235A274F41219568A0819
:10265C008B09EB54806030900501E0F912054F8A2C
:10266C000A8B0BAE0AAF0BEE4F60138E828F83E09A
:10267C0064B07003120CD5EEFAEFFB12053DAA08FC
:10268C00E5096480FB80047A007B0002286374F205
:10269C0012195674FC1218FFEAFEEBFF7412121991
:1026AC004A123A89EE4F700302273D740212194AFE
:1026BC00EEF0A3EF122A9EECF0A3ED122A9EAA8252
:1026CC00AB83120BDFE9F50A706AE5084509606413
:1026DC008E828F83123A6FEE4F60567A067B001211
:1026EC0005A98A0C8B0DA80CA90DE8497005750A73
:1026FC0013804188828983E412274AEEF0A3EF12FB
:10270C003A9AE508F0A3E509F09005071227D19055
:10271C000507700512354C801B12353A8003EAFC14
:10272C00EBFD8C828D831227D170F38C828D83808C
:10273C00E3750A02A90A7404121915023C89F0A364
:10274C00123A40A32274F2121956890AE975F0174D
:10275C00A4FEAFF0900506E4F09005041227D160BA
:10276C000A1205AF900504E4F0A3F0EEFAEFFB12A9
:10277C0005A98A088B09EA4509602FEEFCEFFD7963
:10278C000012052B900504E508F0A3E509F07B0089
:10279C0080081227BBE4F0A3F00BEBC3950A40F2C0
:1027AC00E50A900506F0790080027913023C89EB6A
:1027BC0075F017A4F8A9F0900504E028FAA3E03905
:1027CC008A82F583221231DEEA4B2274F4121956F6
:1027DC00740C12194A123A64FEE9FF750800750967
:1027EC0000800CE5082401F508E5093400F509C35F
:1027FC00E5089CE5099D503285080A85090B740390
:10280C00780A1218ECEA250AF8EB350BF98882895C
:10281C0083A3A3A3A3A3A3123621EE650A7003EF2F
:10282C00650B70BFE8FAE9FB80047A007B00802717
:10283C0074F41219567900EAA2E0501B750834752D
:10284C00098F7808121B697C047D007AFB7B0C12C3
:10285C000CB774021219157F04021A28C082C083A7
:10286C0090050712289B601C88828983A3A3E06AC9
:10287C007003A3E06B8882898370E8A3A3A3A312DF
:10288C0031DA80047A007B00D083D08202013512C9
:10289C003D6FE8492274EE12195674FC1218FFEAC7
:1028AC00FEEBFF851882851983E4F0A3F0EE240279
:1028BC0012352CEE2405123A47EE2404F50EEF12D5
:1028CC002E53E024FE603924FC604624FE60522422
:1028DC00FE605E24FE70030229B424FE7003022AFB
:1028EC001824FE7003022A2724FE7003022A3624C1
:1028FC00FC7003022A4524FE7003022A54022A911A
:10290C009005207417F0A3E4122AA612095D022A7E
:10291C0091851882851983AC82AD83120CDB022A57
:10292C0061851882851983AC82AD83120CE1022A71
:10293C0061850C08850D09740212194AAC82AD83AD
:10294C008508828509831231DA120C038A0C8B0DEF
:10295C00AC0CAD0DEC4D603BE4F50CF50D780C12A8
:10296C001B69750C20750D05780C121B69750C21F3
:10297C00750D05780C121B69740812194A121B800C
:10298C00123EEB121915E9F50C700B1231D012092D
:10299C0075800F750C01850882850983122A9412A3
:1029AC00354C850C08022A64740212194AAC82ADAB
:1029BC0083850C82850D83122FA5603C850C828546
:1029CC000D83A3A3121B80751020751105781012AE
:1029DC001B697510217511057810121B697408128A
:1029EC00194A121B80123EEB121915E9F509700BEE
:1029FC001231D012097B800F750901850C82850D6F
:102A0C0083122A9412354C850908804C85188285CE
:102A1C001983AC82AD83120CE7803A851882851934
:102A2C0083AC82AD83120CED802B851882851983C3
:102A3C00AC82AD83120CF3801C851882851983AC93
:102A4C0082AD83120CF9800D851882851983AC82B6
:102A5C00AD83120CFFE9F508E50860298E828F839F
:102A6C00A3E06414601F850E82850F83E09005201F
:102A7C00122A9E123D6B90052112354CE508A312CB
:102A8C002AA612095702343B123D6F85188285190C
:102A9C008322F085188285198322F07C207D0585A0
:102AAC000A82850B831231DE2274EE12195674FCE5
:102ABC001218FF8A0A8B0B8C0E8D0FEA2405F50871
:102ACC00EB3400F5097C157D0079007A207B05122A
:102ADC00052BE5082402F50CE509123A4A85188203
:102AEC008519838582108583117810121B698508DE
:102AFC0082850983A3A3A3A3122F9C121B69E5084B
:102B0C002405F510E5093400F5117810121B6985C0
:102B1C000C82850D831232F1120BFD7406121915FD
:102B2C008A108B11AE10AF11E50A2402F50AE50BE1
:102B3C0012352FEE4F7003022C738017740212198A
:102B4C004A1231DA88828983EAF0A3EBF0900520EF
:102B5C00E004F0900520E0C394054003022C73E4DC
:102B6C00F510F5117810121B69751009751105789F
:102B7C0010121B6975100A7511057810121B6974F7
:102B8C000612194A121B807910EEFCEFFD123EED75
:102B9C00121915E9705E850882850983A3A3A3A386
:102BAC00A3A3A3E0F8900509E0687048122F9C12CB
:102BBC001B697C0A7D05E5082408FAE5093400FB4D
:102BCC001205257402121915E960298E828F83A3D0
:102BDC00A3A3A31231DA900520E0F510740278104B
:102BEC001218EC74212510F58274053511F583EA61
:102BFC00F0A3EBF0740212194A85821085831178C8
:102C0C0010121B69740212194A121B80850C8285E2
:102C1C000D831232001219158A108B11AE10AF11E0
:102C2C00900520E0F510751100740278101218EC64
:102C3C0074202510F874053511F988828983A31244
:102C4C0027D17003022B3FE82403080808E934005D
:102C5C00F9EE4F6003022B488882898374FFF0A33E
:102C6C00F0900520E004F0900520E0600A1231D0CD
:102C7C001209697900800B85088285098312354316
:102C8C00790A02343B74EA12195674FE1218FF8C3E
:102C9C00128D13EA2405F50CEB123ED5123A73751E
:102CAC000800750900EA2402F510EB3400F51185D3
:102CBC00188285198385820A85830B780A121B6911
:102CCC00850C82850D83A3A3A3A3122E69121B6905
:102CDC00E50C2405F50AE50D12352F780A121B694F
:102CEC00850C82850D83122E6D120BFD7406121944
:102CFC00158A0A8B0BEA450B7003022E0EEA24048C
:102D0C00F50EEB122E53123A738A828B83A3A3A374
:102D1C00E0F98510828511831231E46003022E0ED6
:102D2C00E4F514F5157814121B697514097515055D
:102D3C007814121B6975140A7515057814121B6921
:102D4C00740612194A121B807913AC0AAD0B85104C
:102D5C0082851183123EF3121915E9F509600302FD
:102D6C002E0E900509E0F8E5087009E024029005A4
:102D7C0021F08014900521E0FCE82402FAE43400F0
:102D8C00FBEA6C7001EB707E850882AA82122F938D
:102D9C009414122F8B506B850E82850F83E0C0E04C
:102DAC0074222A122E4AD0E0F00508850E82850F77
:102DBC0083A3E0C0E085080A7422250A122E4AD0AB
:102DCC00E0F00508900509122E69121B697C0A7D3A
:102DDC000585080A7422250A122E5D121915900514
:102DEC0009E02508F50874FF6E700374FF6F60121C
:102DFC00EE24010EEF3400FFE508C39414500302D7
:102E0C002CBBE50860131231EE85108285118312FC
:102E1C0031DA12096F79008014E509700375090A1B
:102E2C00851282851383EEF0A3EFF0A909740212C8
:102E3C0019157F0E021A2885080C7422250CF582B0
:102E4C0074053400F583223400F50F850E82F5836A
:102E5C0022FA74053400FB120513740222123AA9EB
:102E6C0022A3A3122E732212353AFDEEFAEFFB22A7
:102E7C0074EE12195674FE1218FF8C0E8D0FEA2484
:102E8C0005F50CEB123A4A750B00900520E4F0F5B1
:102E9C000AEA2402F508EB3400F509804490052079
:102EAC00E0FA900509E0F8122F939417122F8B403B
:102EBC000D900520E0F87416C398900509F0122FB8
:102ECC009C121B697C0A7D0574212AFA7405122E4A
:102EDC0060121915900509E0F8900520E028F0051E
:102EEC000AE50C2416F582E50D122E4EE0F8E50AE3
:102EFC00C3985074900520E0C39416506BE50AC338
:102F0C0033F8E433F9E50C28FEE50D39FF8518821A
:102F1C00851983AC82AD838E828F83122FA57008A6
:102F2C00750B0112353F8050E4F510F51178101235
:102F3C001B697510097511057810121B6975100A3B
:102F4C007511057810121B69740612194A121B8030
:102F5C007916850882850983123EF3121915E9F555
:102F6C000B7003022EA980BB7C207D058508828511
:102F7C0009831231DA120981A90B740202343DE97A
:102F8C009400C365D03322EA28F8E43400F9E8222F
:102F9C00E0F5107511007810221234328A108B1162
:102FAC00AC10AD11EC4D2274EA12195674FC1218C7
:102FBC00FF8A0C8B0D8C128D13EA2405F50AEB128B
:102FCC00352F750800750900E50A2402F510E50B8C
:102FDC003400F511740212194A85820E85830F781C
:102FEC000E121B69850A82850B83A3A3A3A3123A35
:102FFC004F121B69E50A2405F50EE50B3400F50F9D
:10300C00780E121B698510828511831235351231A9
:10301C00D4120BFD74061219158A0E8B0FAE0EAF5F
:10302C000FE50C2402F50EE50D3400F50F80388801
:10303C0082898374FFF00508122E4374FFF0050893
:10304C00900509E0F50C750D00780C121B697C0AD3
:10305C007D0585080C7422250C122E5D1219159015
:10306C000509E02508F508EE4F60278E828F83A3B3
:10307C00A3A3E0F9850E82850F831231E4EE2404BC
:10308C00123A47E96027850C82850D831231C612EE
:10309C00354CE50870030231AC1231EE850E828599
:1030AC000F831231DA12098779000231C1E4F51469
:1030BC00F5157814121B6975140975150578141219
:1030CC001B6975140A7515057814121B697408129E
:1030DC00194A121B807911EEFCEFFD850E82850FCB
:1030EC0083123EF3121915E9F509709A850882AA24
:1030FC0082EA9005097009E02404900521F08025EE
:10310C00E0F8900521E0F514E82404FCE43400FD1B
:10311C00EC65147001ED7081122F939412122F8BA9
:10312C0040030230A5850C82850D83E0C0E074223B
:10313C002A122E4AD0E0F00508850C82850D83A357
:10314C00E0C0E0122E43D0E012320985820C858358
:10315C000D780C121B69740412194A121B8085100D
:10316C00828511831232001219158A0C8B0DAE0C4C
:10317C00AF0D85080C7422250CF874053400F9EE9B
:10318C004F700302303B851882851983E088828951
:10319C0083123209A3E0C0E0122E43D0E002304982
:1031AC00E509700375090A850A82850B831231C6FD
:1031BC0012354CA9097404022E3B123D6F85128204
:1031CC00851383227C207D05850A82850B83123131
:1031DC00DE22E0FAA3E0FB221231DE120BEBE9F562
:1031EC000922900521E0F5F0E50884900520F07C9B
:1031FC00207D0522122E73120C09740422F005088E
:10320C008518828519832274EC12195674FE1218D3
:10321C00FF8A088B098C0E8D0FEA2405FEEB340017
:10322C00FF12341CEE2418123A47EA450B700302C5
:10323C0032BF12340550291232E48A108B11EA4540
:10324C0011606B7912AC0AAD0B850882850983126B
:10325C0031DA851082851183121954E9F50A7058F8
:10326C00E4F50AF50B780A121B698E828F83A3A3EF
:10327C00E0F50A780A121B69EE240312352C780A41
:10328C00121B698E828F831232F1120D2374061277
:10329C001915E9F50A7021850C82850D83E0701FE4
:1032AC008508828509831231DA12098D8011750A1D
:1032BC000E8009750A018004E50A600312353F850A
:1032CC000C82850D83E0600479008002A90A7402E7
:1032DC001219157F0C021A28851882851983123150
:1032EC00DE120D112212353AFD85088285098312F2
:1032FC0031DE2274EE12195674FE1218FF8A088BF6
:10330C00098C0C8D0DEA2405FEEB3400FF750E00C4
:10331C0012341CEA450B70030233E3123405502CB3
:10332C001232E48A0E8B0FEA450F604A7912AC0A0E
:10333C00AD0B8508828509831231DA850E82850FE3
:10334C0083121954E9F50E60030233E68508828571
:10335C000983123621AA0AFB1233F770147AFF7B09
:10336C00FF1233F7606C88828983E50AF0A3E50BC2
:10337C00F0750A008007750E0E805F050A90050631
:10338C00E0FAE50AC39A504AE50A75F017A4FAABBD
:10339C00F088828983A3A3E02AFAA3E03BFB8A820C
:1033AC008B83123535EC4D70D2750A17750B00787E
:1033BC000A121B69EEFCEFFD1205137402121915AB
:1033CC00EEFCEFFD8508828509831231DA12099330
:1033DC008014750E098003750E01123D67850C82F1
:1033EC00850D8312354CA90E022F86120D058A10FD
:1033FC008B11A810A911E84922E5082402F508E56B
:10340C00093400F5098A828B83A3A3A3E0A2E522E9
:10341C00851882851983AC82AD838E828F8312349A
:10342C00328A0A8B0B22E0FAA3E0FB120C03227403
:10343C00041219157F0A021A2874EC1219568C10F2
:10344C008D11EA2405F50CEB123A4A750F00EA24AB
:10345C0002F50AEB12352F850A82F5831231DA1246
:10346C003F797003023521750E008071850C8285C1
:10347C000D83E06401704F8E828F83A3A3121B8097
:10348C008E828F83A3A3A3A3E0F512751300781289
:10349C00121B69EE2405F512EF3400F513781212A5
:1034AC001B691231D4120D237406121915E9F50F8C
:1034BC006014850C82850D83E4F0123D67851082C3
:1034CC0085118312354C7C177D007900EEFAEFFBE9
:1034DC0012052B8E828F83E4F0A3F0050E90050667
:1034EC00E0F8E50EC398501EE50E75F017A4F8A988
:1034FC00F0850882850983A3A3123EDF123535ECD3
:10350C004D600302347885088285098374FFF0A32B
:10351C00F0E50F70061231D4120999A90F0232DFAF
:10352C00F50AEF3400F50B22A312353AFD22E0FC2C
:10353C00A3E0228E828F83123D6F850E82850F83CE
:10354C00E8F0A3E9F022C082C083900502E06A7023
:10355C0003A3E06B70067A027B0580047A007B0083
:10356C0002289474F71219567F00EF75F003A4F833
:10357C00A9F0EC28F8ED39F988828983E06A7003A8
:10358C00A3E06B7006E8FAE9FB800B0FEFC3940223
:10359C0040D87A007B007F01021A2874F612195663
:1035AC00123B5870067A007B008007A3A3A3A312DA
:1035BC0031DA023C1974F2121956E9FE740E121922
:1035CC004A123621741012194A123A898C828D8350
:1035DC00E06402703BA3123D6B88828983E0F50C9A
:1035EC00A3E0F9A80C740268700374296970217542
:1035FC000C02750D00780C121B697808121B697887
:10360C000A121B69EEF9120D477406121915800285
:10361C007901023C89E0F50AA3E0F50B2274E8126B
:10362C00195674FB1218FFE9851882851983F08AE4
:10363C00168B178C0E8D0F741F12194A123A89743F
:10364C002112194A123621742312194A123A73752F
:10365C0010008C828D83A3A3A3E0A2E4502A741DD6
:10366C0012194A1232EA8A828B83E58245837003EF
:10367C00023735790AAC0EAD0FAA16AB17121954D6
:10368C00E9F5106003023738850E82850F83E064FC
:10369C000260030239EEA3123D6B85088285098313
:1036AC00A3858212858313E50E2406F50CE50F1213
:1036BC003A4A88828983E0FAA3E0F9EA2400F514F7
:1036CC00E439F5157814121BF3010000280128FDCC
:1036DC003607000228D437032844370029FE380166
:1036EC002926390229CD380329FE3804298F39EED1
:1036FC0039EE4F703E850C82850D83123A64FAE9DF
:10370C00FB8A828B83E0850A82850B83123AA01296
:10371C001B698A828B83A312353AFDAA08AB091266
:10372C0005137402121915800375100EA910740577
:10373C00023ECD75100B80F4EE4F70F7850A828532
:10374C000B837401F0123A79850882850983F07C29
:10375C00007D00850E82850F83A3A3A3A3E0240123
:10376C00FAA3E03400FB120C03EA4B60418A828B13
:10377C0083E02402F8850A82850B83E028F0EA2492
:10378C0004F8EB3400F988828983E0851282851372
:10379C0083123AB2123AA0121B698A828B831235B9
:1037AC0034E5082403FAE5093400FB02372B850ABB
:1037BC0082850B83E02404F07C047D007900AA123E
:1037CC00AB1312052B023738EE4F600302373F1252
:1037DC003A79FEA3E0FF850A82850B837404F0EE30
:1037EC00850882850983F0EF851282851383F07436
:1037FC000312194AAC82AD83EEFAEFFB123B467012
:10380C00030238AA8A828B83A3A3123A6F74011223
:10381C00194A85820E85830F780E121B6974051266
:10382C00194A121B807CFF7DFF120C0974041219BB
:10383C00158B0FEA450F7033850C82850D83123A78
:10384C004F121B69850C82850D83A3121B807C0291
:10385C007D007A477B90120A357404121915E970B1
:10386C000A740112194A74FFF0A3F08E828F83E060
:10387C0064027034750C02750D00780C121B698E85
:10388C00828F83123534E5082404FAE509122E6080
:10389C00121915850A82850B83E0240280097401B4
:1038AC0012194AEEF0A3EFF0740112194A123A60A1
:1038BC00F0740112194AA3123A58A3A3A3F00237C9
:1038CC0038EE4F600302373F850C82850D8312352D
:1038DC0035AA16AB17120D3B850A82850B83740231
:1038EC00F0EA850882850983F0851282851383EBC3
:1038FC0080CBEE4F600302373F123A79F8A3E0F920
:10390C00850A82850B837402F0E885088285098319
:10391C00F0E985128285138380A3850C82850D8343
:10392C001231DA12050DEAFC8C82A882C39EE49F48
:10393C00404BE86E7001EF70047C00801F8518828C
:10394C00851983E0FAEE2AFAEF3400FBC3EA98EB10
:10395C0094005003E08004EECCC39CFCEC850A82FE
:10396C00850B83F08C0A750B00780A121B69850C89
:10397C0082850D83E02EFCA3E03F023726751007ED
:10398C00023738EE4F600302373F850C82850D837A
:10399C00123D6B850A82850B837407F088828983BC
:1039AC00123A58123A40E0851282851383F0E824CB
:1039BC0002FAE93400FB8A828B83123A58123A914C
:1039CC00123A60A3123A9A123A69F0E82405F8E91F
:1039DC003400F988828983123A69A3123AB2A3029D
:1039EC0038C6741D12194A123B5170030237351236
:1039FC003D6B880C890DE8450D70030237358E1030
:103A0C008F117810121B69780A121B697808121B27
:103A1C0069740612194AE0F9AC0EAD0FAA16AB1771
:103A2C00850C82850D831219547406121915E9F54B
:103A3C0010023738F088828983A322F50CEF34000A
:103A4C00F50D22E0F50E750F00780E22E085088248
:103A5C0085098322123AB922123D6FE822123AB933
:103A6C00A3A322A3A3A3A3E0FEA3E0FF22850C82C1
:103A7C00850D83E0F8A3E0F5838882E022E0F50869
:103A8C00A3E0F50922A3A3F08A828B83A322122739
:103A9C004CA3A322F08A828B83123AA922E0F50A66
:103AAC00750B00780A22123A40123AB922E08508C6
:103ABC0082850983A3A32274EE12195674FE121880
:103ACC00FF8A0A8B0BECFAEDFB741412194AE0F521
:103ADC0010A3E0F511741612194AE0FE74181219AD
:103AEC004AE0F50EA3E0F50F851882851983AC82A8
:103AFC00AD83123B46603E851882851983123B517B
:103B0C00602FA3A3123A89E50845096024780E12A8
:103B1C001B697810121B69EEF9AC0CAD0DAA0AAB3F
:103B2C000B850882850983121954740412191580A7
:103B3C0006790E80027901022F86120C038A0C8BF7
:103B4C000DEA450D221231DE123B5822120CCF8A9F
:103B5C00828B83E58245832274F612195674FE1209
:103B6C0018FF740C12194A123A648518828519834D
:103B7C00F0740112194AE9F0E4F508F50978081215
:103B8C001B697508027808121B69740412194A859E
:103B9C0082088583097808121B69120D237406129A
:103BAC0019157402121915806474F7121956EAFE6D
:103BBC00EBFF89087C397D05120D3BEA5402600B42
:103BCC00A908EEFAEFFB120BF7800279010235A27D
:103BDC0074F612195674FF6A700374FF6B701C7BB9
:103BEC0000EB75F003A4F8A9F0EC28F8ED39F91204
:103BFC003C1E0BEBC39402501480E6120D0B8A088A
:103C0C008B09A808A909E8496003123C1E7F02022F
:103C1C001A288882898374FF12274AE4F02274F6EA
:103C2C00121956120D0B8A828B83E582458360062E
:103C3C00A3A3E0FA80027A007B0080D174F21219FF
:103C4C00568A088B09ECFEEDFF740E12194AE0F54A
:103C5C000A123C8E701CEEFCEFFD7AFF7BFF123CCF
:103C6C008E70047911801688828983E508F0A3E5AB
:103C7C0009F088828983A3A3E50AF079007F060204
:103C8C001A28120D0B8A0C8B0DA80CA90DE84922D1
:103C9C0074EE121956EAFEEBFF8C088D09890C7430
:103CAC001212194A123D6B741412194A12353574DA
:103CBC001612194A1231DA750D00EC4D6003023DF3
:103CCC005F7402650C6003023D5A88828983123549
:103CDC003AF9EC2400F50EE439F50FEAF4F8EBF4BC
:103CEC00F9EC58F8E50F59F9E849705DE508240638
:103CFC00F8E5093400F9880A890B8882F583122EBD
:103D0C006F120D3B8A108B11E50E65107004E50FD8
:103D1C0065116042780E121B69850A82850B83122D
:103D2C002E6F120D417402121915E9F50D702778DA
:103D3C000E121B69850882850983A3A3122E6D12AE
:103D4C000D597402121915800D750D808008750DB2
:103D5C000D8003750D0BA90D0234408E828F8312DA
:103D6C003D6F22E0F8A3E0F92274E812195674E7CB
:103D7C001218FF851882851983EAF0A3EBF08C16D4
:103D8C008D17890E743112194AE0F512A3E0F51360
:103D9C00743312194AE0F514A3E0F51574351219B1
:103DAC004AE0F50F750800750900E50975F003A4E4
:103DBC00F8A9F0851882851983123EDFE0F47003B0
:103DCC00A3E0F47003023EBDEE2402F50CEF123EAC
:103DDC00D5E07003023EBD85160A85170B780A12D2
:103DEC001B69AC14AD15AA12AB13120CC3740212DE
:103DFC0019158A0A8B0BEA450B7003023EBDE4F5DC
:103E0C0010F5117810121B69740612194A8582106C
:103E1C008583117810121B69740912194A85821056
:103E2C008583117810121B69851282851383A3A3D5
:103E3C00A3A3121B807914AC0AAD0B8E828F831254
:103E4C003EF3121915E97069850A82850B83A3A3C9
:103E5C00A3A3123D6B740212194A12354C850C82C5
:103E6C00850D83E0A2E05018A90E740212194AAC19
:103E7C0082AD838E828F831231DA120C1BE94208D9
:103E8C00850C82850D83E0A2E15026E50FF50A78BA
:103E9C000A121B6DA90E740312194AAC82AD838EE3
:103EAC00828F831231DA120C157401121915E94242
:103EBC00080509E509C394025003023DB6A908742C
:103ECC00191219157F10021A283400F50D850C8271
:103EDC00F58322E028FEA3E039FF8E828F832279BE
:103EEC0016850A82850B831231DE120D1D74082291
:103EFC0074F2121956EAFEEBFF890B7401650B6024
:103F0C000E7402650B70637901120F33E9705BEE6E
:103F1C00FAEFFB123F796047750A00800B7C177D26
:103F2C0000790012052B050A900506E0F8E50AC396
:103F3C00985021E50A75F017A4F8A9F08508828538
:103F4C000983A3A3E028FAA3E039FB8A828B8312AE
:103F5C00289B70C985088285098374FFF0A3F07CC7
:103F6C00397D05EEFAEFFB120D35023C89120D0579
:103F7C008A088B09EA45092274F21219568A088BB1
:103F8C0009ECFEEDFF740E12194A123621900CF951
:103F9C00E0F4603D7A097B00120537EA4B60328A07
:103FAC00828B8374B1F0A3E4123A93A3123A91A3D7
:103FBC00E508F0A3E509123FE0EEF0A3EF123FE0B5
:103FCC00A3A3E50AF0A3E50BF0900CF9E0F91205B8
:103FDC0043023C89F08A828B83A3A3A3A3A32274FC
:103FEC00F4121956E9FF7E008A088B097808121B17
:103FFC00AD00040D91411E403B4054406B40884045
:10400C009F40C040D740EA4013412D413D415341B0
:10401C006D4174016F600302418D8C828D83E0F8D9
:10402C00C39403400302418DE8900B4D02416A7426
:10403C00026F600302418D8C828D831248F0900BCD
:10404C004EE8F0A3E902416A74016F600302418DEE
:10405C001241B4400302418DE89002CE02416A74D1
:10406C00016F600302418D8C828D83E0F8C394054F
:10407C00400302418DE89002CF02416A74016F60E7
:10408C000302418D1241B4400302418DE89002D0ED
:10409C0002416A74106F600302418D7508108E091D
:1040AC007808121B697AD17B02120513740212195B
:1040BC00150241AF74016F600302418D1241B4408F
:1040CC000302418DE89002E102416A74016F6003C2
:1040DC0002418D8C828D83E0900B5102416A7404F5
:1040EC006F600302418D8C828D8378081217CF90FC
:1040FC008F8A780812156E500302418D9002E37876
:10410C00081217DE0241AFEF7077120BA3E9700AA9
:10411C0012073579501208D98062900376740180A9
:10412C003D74016F705B1241B45056E89002E2800E
:10413C002D74016F704B8C828D83E0F8C3940A5000
:10414C0040E8900B50801774016F70358C828D8312
:10415C00E0F874F928C3940A5027E8900B52F080C9
:10416C004274016F701B900375E0F88C828D83E0B4
:10417C00900375F0E8702CE0640170271207298019
:10418C00227E18801EC3EA9424EB94005013740210
:10419C006F700E8C828D831248EA120A41E9FE8000
:1041AC00020E0EEEF90241C38C828D83E0F8C394AB
:1041BC000222740E1219157F04021A2874F01219B7
:1041CC005674CC1218FF8C0A8D0B742012194AAC41
:1041DC0082AD8375838F75824C740612181274200D
:1041EC0012194AAC82AD831206DBE9F5087444124D
:1041FC00194AE0FEE9C3940A400302433675F006FF
:10420C00E9A4F509742612194AAC82AD837A0E74AE
:10421C00202509F91208D3E97009743212194AE001
:10422C00FF80027F00900B4DE064027004740180EB
:10423C0001E4F50D780D121B6DEEFDEFFCA908AA3B
:10424C000AAB0B12075F74011219157C147D0079EF
:10425C0000740C12194AAA82AB8312052B740C122F
:10426C00194AAC82AD837A1074242509F91208D34B
:10427C00E9703C7C1079FF740C12194AAA82AB834A
:10428C0012058BE97029741C12194AAC82AD837A21
:10429C000474252509F91208D3740C12194AAC823E
:1042AC00AD83EFA2E0E433F9AA0AAB0B120ACB857B
:1042BC001882851983AC82AD837A0C74702508F949
:1042CC001208D3E97053851882851983AA82AB83AF
:1042DC0012070B750800E50875F003A4F8A9F08522
:1042EC001882851983E58228F8E583124AF4124C6A
:1042FC007C601D88828983A3A3E0F50E750F00787E
:10430C000E121B69AA0AAB0B120D29740212191595
:10431C000508E508C3940440BDEFA2E1500C9002DF
:10432C00CDE0F9AA0AAB0B120D2F74046E70279016
:10433C000B4DE06402701F7A009002E1E060010A0C
:10434C009002CEE06004780480027800E84AF9AA72
:10435C000AAB0B120B8B790074341219157F0802FF
:10436C001A2874F0121956EAFEEBFF8C088D0975A9
:10437C000A0AE9600C14600914603714607902446D
:10438C001D12071DE9F50AC3940A400302441DE5FA
:10439C00084509607C750E06750F00780E121B69B6
:1043AC00EEFCEFFDAA08AB091205137402121915E5
:1043BC00805F750B00750E06750F00780E121B6969
:1043CC00EEFCEFFDE50B75F00EA4F8A9F074EF28E8
:1043DC00FA740239FB1205257402121915E9600CE6
:1043EC00850B0AE50AC3940A50278016050BE50BCA
:1043FC00C3940A501C80BE120723E9F50AC3940A21
:10440C00500FE50845096009AA08AB09A90A12076B
:10441C0017A90A02436974F412195689087509150B
:10442C0074FF6A700374FF6B70277E00AC087A020D
:10443C007B00EEF91206F9E960037509000EEEC374
:10444C00940A40E8E50860537A4D7B07120F4580CB
:10445C004A120F278A0A8B0BAE0AAF0BEE4F60384D
:10446C007C007D00EE2405FAEF3400FB8E828F83F6
:10447C00A3A3A3A3E0F91206DBE9C3940A500CAC86
:10448C00087A027B001206F9750900E508600CEE4B
:10449C00FAEFFB12074D8003750914A9090241C3F9
:1044AC0074F2121956ECFEEDFF750815740E121904
:1044BC004A1248DD74FF6A700374FF6B7021750932
:1044CC0000AC0AAD0BEEFAEFFBA9091206FFE9608E
:1044DC00037508000509E509C3940A503F80E212F0
:1044EC000F278A828B83E5824583602D7C007D00BB
:1044FC00E5822405FAE5833400FBA3A3A3A3E0F92A
:10450C001206DBE9C3940A5013AC0AAD0BEEFAEFBA
:10451C00FB1206FF7508008003750814A9080253E6
:10452C001DC082C0839002E7EAF0A3EBF09002CDAD
:10453C00E0FC7D007A237B00120A419002CDE0F969
:10454C00120CA5D083D08202013574EA121956746C
:10455C00EC1218FFEAFEEBFFEE240CF514EF34001E
:10456C00F515EE240AF50CEF3400F50DEE2405F5E7
:10457C000EEF3400F50FEE2409F50AEF3400F50BBD
:10458C00EE2403F508EF3400F5098E828F83A3A384
:10459C00E024FA70030248B524FD70030247D014DE
:1045AC00700302463B14601024FD70030247A014F4
:1045BC0070030248050248D31248F6604AE0F583BE
:1045CC0088821248F0880C890DE8450D60398514F5
:1045DC0082851583E0F50E780E121B6DEE240BF51B
:1045EC0082EF3400F583E0F9850A82850B8312484B
:1045FC00EA0A0A0AAB09850C82850D8312195474D8
:10460C00011219150248D3850A82850B83121B806F
:10461C009002E31217ED120ADD7402121915E970FB
:10462C00030248D37901850A82850B830248818E67
:10463C00828F83A3858212858313E06003024783F4
:10464C00850E82850F83E0A2E040030247837C0E37
:10465C007D007900851882851983AA82AB831205A7
:10466C002BEE2408F510EF3400F511851082F5833C
:10467C00125130EA4B6010750A06750B00780A125D
:10468C001B69EA2410801B12512A120F27EA4B7067
:10469C00030248D3750A06750B00780A121B69EAE7
:1046AC002405FCEB3400FD740212194AAA82AB8378
:1046BC001205137402121915850E82850F83E0A260
:1046CC00E25004D2F08002C2F0A2F0E433F8740C91
:1046DC0012194AE048F0850C82850D831248DDE5FD
:1046EC000A450B6013E50A2410F582E50B3400F53E
:1046FC0083780C1217CF800C750CFF750DFF750E9F
:10470C00FF750FFFE50A450B7006750A00750B0067
:10471C00851082851183E0F510A3E0F511E51045B5
:10472C00117006751000751100780C121B65780A53
:10473C00121B697810121B69851482851583121B54
:10474C00808E828F83A31248E5740A12194AAA82BA
:10475C00AB83120711740A12191585088285098317
:10476C001248F0900377E8F0A3E9F07A017B00900F
:10477C0002CDE0F91205671248F670030248D31215
:10478C00490170030248D3851282851383E0FC79BA
:10479C00010248A91248F670030248D3E0F5838859
:1047AC0082A3A31248F0890BE8450B70030248D38F
:1047BC008E828F83A3E0FC790212512A8882850BAA
:1047CC00830248B07C007D00EE2404FAEF3400FB39
:1047DC00850882850983E0F91206DBE9F8C3940A9F
:1047EC0040030248D3AC0CAD0D7A0475F006E8A476
:1047FC002425F91208CD0248D312512A9002E2E086
:10480C006007900B50E0F9806F900B4DE0700479CD
:10481C00058065120F278A0C8B0DA80CA90DE824B6
:10482C0004F50CE93400F50D8E828F83A3A3A3A3AA
:10483C00A3A3A3E0A2E05045E84970030248D38546
:10484C000C82850D83E0FE6034850A82850B83E043
:10485C0054107029740E12194AAC82AD83E82405E9
:10486C00FAE93400FBEEF91206DBE97010790385E6
:10487C000882850983125130120AD7804AAC0EADDA
:10488C000F850C82850D83E0F912512A12075912FB
:10489C0048F66033124901602E7C00790012512ACF
:1048AC008E828F83121954801E120BA3E9701890FC
:1048BC000376E064017008120735900376E4F07912
:1048CC00501208D912072974141219157F0E021AE6
:1048DC0028E0F50AA3E0F50B22A3A3A3A3A3E0FC15
:1048EC00A3E0FD22E0F8A3E0F9229002E7E0F8A3B0
:1048FC00E0F9E84922E0F5838882A3A3E0F8A3E07D
:10490C00F9E8FEE9FFEE4F2274F412195674F21214
:10491C0018FFEAFE8C0B75F006E9A42420F5088537
:10492C001882851983AC82AD837A0EF91208D3E90B
:10493C0070577C0679FF851882851983AA82AB8310
:10494C0012058BE97043740C12194A1248F0E8F501
:10495C0009E50B6005EE42098004EEF45209850965
:10496C0082AA82E86A7001E9601B740C12194AEA87
:10497C00F0A3E4F0851882851983AC82AD837A0E9E
:10498C00A9081208CD7901800279000241BE74F2A7
:10499C0012195674E61218FF890A8A088B09ECFE64
:1049AC00EDFF740C12194AAC82AD837A0E75F006C9
:1049BC00E9A42420F91208D3E96003024ABA7C0660
:1049CC0079FF740C12194AAA82AB8312058BE96029
:1049DC0003024ABA7470250AF50B8518828519836F
:1049EC00AC82AD837A0CF91208D3E96003024AB6A3
:1049FC00851882851983AA82AB8312070BE50845BB
:104A0C0009702C7C0C7900851882851983AA82ABDD
:104A1C008312058BE96003024AB67C0C7D00790099
:104A2C00851882851983AA82AB8312052B805D853C
:104A3C001882851983AC82AD83AA08AB09120705CD
:104A4C008A0C8B0DA80CA90DE8497028EE4F605EFE
:104A5C00851882851983AC82AD837A007B0012079E
:104A6C0005EAF8EBF9EA4B604588828983E508F0A2
:104A7C00A3E509F0124B30FAEE6A7001EF602BEEF1
:104A8C00F04F700888828983E4F0A3F08518828542
:104A9C001983AA82AB8312070B851882851983AC04
:104AAC0082AD837A0CA90B1208CD790180027900B2
:104ABC00741A02531A74F71219567F00EF75F0032B
:104ACC00A4F8A9F0EC28F8ED124AF4E06A7003A3FC
:104ADC00E06B7006E8FAE9FB800B0FEFC39404401F
:104AEC00DB7A007B00024E3339F988828983227489
:104AFC00F71219567E00EE75F003A4F8A9F0EA2817
:104B0C00F8EB124AF4E0F4FCA3E0F4FD888289830C
:104B1C00ECF0A3EDF0124B30F4F00EEEC394044025
:104B2C00D5024E33E82402F582E93400F583E02205
:104B3C0074F412195674F41218FFEAFEEBFF8C0889
:104B4C008D09EE4F7005790A024C6612071DE9F5C6
:104B5C000AC3940A4024750B007C0679FFE50B759B
:104B6C00F00EA4FAABF074E92AFA74023BFB1205BE
:104B7C008BE97003024C6B850B0AE50AC3940A405F
:104B8C0003024C6475F006E50AA4F50BEEFCEFFD90
:104B9C007A0E7420250BF91208CDE5084509600E34
:104BAC00AC08AD097A1B7421250BF91208CD7418C9
:104BBC0012194A124C7C600A7A1B7422250BF912CA
:104BCC0008CD741A12194A124C7C600A7A1074239C
:104BDC00250BF91208CD741C12194A124C7C601D5D
:104BEC007A107424250BF91208CD741E12194AACD4
:104BFC0082AD837A047425250BF91208CD7C0C7DCB
:104C0C000079FF851882851983AA82AB8312052B44
:104C1C00851882851983AC82AD837A0C7470250A51
:104C2C00F91208CD75080E7509007808121B69EE8B
:104C3C00FCEFFDE50A75F00EA4F8A9F074E928FA6A
:104C4C00740239FB1205137402121915900375E0E6
:104C5C006003120765120753A90A740C0241C005C0
:104C6C000BE50BC3940A5003024B65750A0A80E8E6
:104C7C00E0FCA3E0FDEC4D2274F412195674F21210
:104C8C0018FFEAFEEBFFE9C3940A5004EE4F7004E0
:104C9C007902803E851882851983AC82AD837A0EA9
:104CAC0075F006E9A42420F91208D3E9F508702060
:104CBC00750A06750B00780A121B69740212194AE0
:104CCC00AC82AD83EEFAEFFB1205137402121915C8
:104CDC00A9080241BE74F4121956EAFEEBFF7508DE
:104CEC0000750A06750B00780A121B69EEFCEFFDC5
:104CFC00E50875F00EA4F8A9F074E928FA740239E5
:104D0C00FB1205257402121915E96004A908800B21
:104D1C000508E508C3940A40C8790A0241C374F730
:104D2C0012195674F01218FFEAFEEBFF7508008595
:104D3C001882851983AC82AD837A1075F006E5086C
:104D4C00A42423F91208D3E9702C7C1079FF851860
:104D5C0082851983AA82AB8312058BE97018EEFC4D
:104D6C00EFFD851882851983AA82AB83120AADE9FF
:104D7C007004A908800B0508E508C3940A40B079B3
:104D8C000A7410121915024E3374F712195675085D
:104D9C0000E50875F00EA4F8A9F074E928FE740279
:104DAC0039FFEEFCEFFD7A0E75F006E508A4242021
:104DBC00F91208D3E9602C7C067D0079FFEEFAEF3E
:104DCC00FB12052B7C067D0079FFEE2406FAEF34EE
:104DDC0000FB12052BEE240CF582EF3400F583E476
:104DEC00F0A3F00508E508C3940A40A5900375E00C
:104DFC006003120765120753802D74F71219567E43
:104E0C00007F007C0679FFEF75F00EA4FAABF0740E
:104E1C00E92AFA74023BFB12058BE970010E0FEFC5
:104E2C00C3940A40DEEEF97F01021A2874F71219B6
:104E3C00567E00EEF912073B0EEEC3940A5003E9BE
:104E4C0060F180E374F312195674CB1218FFE9FF6A
:104E5C0075F006A4F50874202508FE742712194A6B
:104E6C00AC82AD837A0EEEF91208D3E96003024FDF
:104E7C006D7C0679FF742712194AAA82AB8312053E
:104E8C008BE96003024F6D7C0E7D0079FF74271255
:104E9C00194AAA82AB8312052B7C1B7D0079FF7407
:104EAC000C12194AAA82AB8312052B7C0C7D00795B
:104EBC00FF851882851983AA82AB8312052B742770
:104ECC0012194AAC82AD837A0EEEF91208CDE9F5CF
:104EDC0009740C12194AAC82AD837A1B7421250813
:104EEC00F91208CDE9FE740C12194AAC82AD837A22
:104EFC001B74222508F91208CDE9F50A740C121955
:104F0C004AAC82AD837A1074232508F91208CDE9D6
:104F1C00F50B740C12194AAC82AD837A10742425EB
:104F2C0008F91208CDE9F50C740C12194AAC82ADD3
:104F3C00837A0474252508F91208CDE9F50885183B
:104F4C0082851983AC82AD837A0C74702FF91208A8
:104F5C00CDE9F8EE450A450B450C45084842098059
:104F6C0003750900A90974351219157F05021A2851
:104F7C0074F7121956E99002CDF0120729024E333C
:104F8C0074F212195674FB1218FF8A088B09EB5431
:104F9C008070030250249002CDE0F912054F8A0A6A
:104FAC008B0BAE0AAF0BEE4F60648E828F83E024C6
:104FBC0050603814600624E1604A804BA3A3A3A37D
:104FCC00E070448E828F83A3A3A3A3A3A3A3121B7D
:104FDC00808E828F831248E58E828F83A3A3125119
:104FEC00301206E77402121915801CA3A3A3A3E0C8
:104FFC00641E701379008E828F83A3A3125130121A
:10500C0006E180031206F3EEFAEFFB12053DAA0847
:10501C00E5096480FB025125EAA2E040030251211C
:10502C009003771248DD740312194A85820C85832C
:10503C000D780C121B69750C02750D00780C121B87
:10504C0069750C3F750D90780C121B697CFF7DFF08
:10505C007A017B00120BFD7406121915025109E43A
:10506C00F50CF50D780C121B69740412194A858223
:10507C000C85830D780C121B69740412194A8582F5
:10508C000C85830D780C121B69740912194A121BBA
:10509C00807902EEFCEFFDAA0AAB0B120D1D740811
:1050AC00121915E97035851882851983E0FA740197
:1050BC0012194AE0F9EA2400F50CE439F50DEA4539
:1050CC000D6018780C121B698E828F831248E6AA29
:1050DC000AAB0B1206E77402121915E4F50CF50D68
:1050EC00780C121B69740512194A121B807CFF7D07
:1050FC00FFEEFAEFFB120C0974041219158A0C8BD3
:10510C000DAE0CAF0DEE4F600302506BE508640161
:10511C00FAAB0980047A007B00740502531A8508E7
:10512C0082850983E0FAA3E0FB22C082C08390024F
:10513C00CDE0F98A828B83A3125130120D2F0245D8
:10514C004FC082C08374FF1218FF12072FE9C3945B
:10515C0002851882851983400474028002740AF057
:10516C00AC82AD837A017905120BBB74011219154F
:10517C0002454F74F212195674E81218FFEAFEEB4E
:10518C00FF890A8C088D097C187D007900851882AE
:10519C00851983AA82AB8312052B85188285198306
:1051AC00EEF0A3EFF09002CFE0C0E0740212194AC7
:1051BC00D0E0F09002D0E0C0E0740312194AD0E0C5
:1051CC00F0900B52E0C0E0741712194AD0E0F07462
:1051DC001512194AE054FEF8A3E0F9900B51E0A225
:1051EC00E0E433FAE84AF8741512194A125329A26A
:1051FC00E15004D2F08002C2F0E854FDFAA2F0E4CF
:10520C003333F8EA48F8741512194A125329A2E3F9
:10521C005004D2F08002C2F0E854F7FAA2F0E43362
:10522C00F50C750D007403780C1218EC1253221245
:10523C00194A125329A2E45004D2F08002C2F0E8B9
:10524C0054EFFAA2F0E433F50C7404780C1218EC59
:10525C0012532212194A125329A2E55004D2F0809B
:10526C0002C2F0E854DFFAA2F0E433F50C740578CE
:10527C000C1218EC12532212194A125329A2E250A2
:10528C0004D2F08002C2F0E854FBFAA2F0E433F549
:10529C000C7402780C1218EC12532212194AE8F012
:1052AC00A3E9F09002D0E0601D750C10780C121B75
:1052BC00697CD17D02740612194AAA82AB8312054D
:1052CC001374021219159002E1E06011E50A6009ED
:1052DC00741512194AE04402F078018002780074C7
:1052EC001412194AE048F09002CEE0600478048071
:1052FC00027800741412194AE048F0AC08AD098524
:10530C001882851983AA82AB83120AD174181219D8
:10531C00157F06021A28EA450CF8741522E8F0A34A
:10532C00E9F0900B51E02274F312195674E512183F
:10533C00FFEAFEEBFF8C098D0A742812194AE0F57E
:10534C000C75F006E9A4F87408650A7004742280E0
:10535C0002742128F50B7C1B7D0079008518828551
:10536C001983AA82AB8312052B851882851983AC0D
:10537C0082AD837A1BA90B1208D3E97032741A120E
:10538C00194AE024F9C3940A5025E50CF50B780B67
:10539C00121B6D740112194AAC82AD83E509A2E0AF
:1053AC00E433F9EEFAEFFB120AE3740112191574E7
:1053BC001B024F7474F7121956120DA1750800E5F3
:1053CC000875F00EA4F8A9F074E928FE740239FFF0
:1053DC007C0679FFEEFAEFFB12058BE97009EEFA09
:1053EC00EFFB7900120DA70508E508C3940A40CF1E
:1053FC00024E33C082C0839061907404F0A3744851
:10540C00F0A3E4F09061807440F09061BC7407F0FC
:10541C009061877469F09061B67416F0790012107F
:10542C00237902121029902608E493F46006E49381
:10543C00F9120FFF790512131702580AC082C083A4
:10544C00E9540FF9906185E0696012E5C654804417
:10545C0049F5C6E59E547F644970F8E9F053C6805F
:10546C00E59E547F70FA02580A74F7121956E5A893
:10547C00FE53A87E12100BC2BA539AFEC289759BBA
:10548C0000C2C212101175A91175B905121017D2EC
:10549C00BA439A0174805E42A8025D98C082C083B0
:1054AC00906181E4F0A302580775E90075910075CD
:1054BC00BF00020135C082C083906181E4F0A37407
:1054CC00C0F0A3E4025809C082C08374F81218FF1C
:1054DC009005E5125C7AE849700302558A9005E55F
:1054EC00E0544060237908851882851983AA82AB21
:1054FC0083121113851882851983AA82AB83120D2E
:10550C00C59005E5E054BFF0E054806010790C7A4A
:10551C00A17B071211139005E5E0547FF0E0A2E0A7
:10552C005008790012559254FEF0E054026008794C
:10553C000112559254FDF0E05404600879001255A4
:10554C009D54FBF0E054086008790112559D54F706
:10555C00F0E054106008790212559D54EFF0E054BD
:10556C00206008790312559D54DFF0A3E0540160CC
:10557C000D121035120DD79005E6E054FEF07408AC
:10558C0012191502580A121023120DCB9005E5E0E2
:10559C0022121029120DD19005E5E022C082C083A1
:1055AC00E9600514602A804F90619A7433F0A374FB
:1055BC0055F09061A0743AF090077DE06401700999
:1055CC00C2919005E77467802D9005E77461802681
:1055DC0090619A743FF0A3745AF09061A0747FF0BC
:1055EC0090077DE064017009D2919005E774718099
:1055FC00059005E7746AF002580AC082C083E9601E
:10560C000B14600D14600F146011802090260C8018
:10561C001590260D801090260E800B90077DE0646F
:10562C000160F390260FE493906186F002580A749F
:10563C00EE12195674F41218FF851882851983AC72
:10564C0082AD8375838F7582627404121812902652
:10565C000C93F460030257CD907808E0C394025089
:10566C00030257AD740412194AAC82AD8375838F53
:10567C007582267408121812F97AFF7BFF7FFF7E61
:10568C00008982858210801874086E70030257623C
:10569C0074096E7003025762740A6E7003025762CB
:1056AC00E510C333FCE433FD740412194AE5822C73
:1056BC00F582E5833DF583E0F50EA3E0F50F8E084A
:1056CC00750900740278081218EC74482508FC74EB
:1056DC00783509FD8C828D8378081217CF74087881
:1056EC000812171085080C85090D8C828D8378089B
:1056FC001217CF74187808121710E50C4508F50826
:10570C00E50DF509C3E50E9508E50F95098C828D1D
:10571C008378081217CF8C828D8378081217CF7478
:10572C001878084014121710E50C4508FCAD0DE56F
:10573C000EC39CFCE50F9D800F121710E50C45085D
:10574C00C3950EFCE50D950FFDC3EC9AED9B500631
:10575C00ECFAEDFBEEFF0EEEC394135003025694DD
:10576C0074FF6A700374FF6B602D8F0874027808E5
:10577C001218EC744812642674783509F58378088D
:10578C001217CF851882851983E5822510F582E5DD
:10579C00831261B3E508F009E9C39404500302567F
:1057AC00857508017509007808121B6974021219B5
:1057BC004AAC82AD837A837B091207A77402121953
:1057CC0015740C1219157F0A021A28C082C0839016
:1057DC00618674D5F09061AE7468F0A3746AF09031
:1057EC00624574FBF0A304F053F4FD43FE029007F2
:1057FC007D7401F079001210238003F0A3F0D083A4
:10580C00D082020135C082C08375E1F1900732E08D
:10581C00604E14600814605214604A805212104199
:10582C00900728E0F97A297B0712129990900A12B6
:10583C0017ED1212CF908F9A1217ED1212A5900736
:10584C0033E0F91212B1790112130B900726E02400
:10585C00161259A07459F0A37410F0790002580A6A
:10586C0012104780BB12104D80B612105380B179C4
:10587C001280EA74F412195675D90D900717E0A22C
:10588C00E0E4331313F812590C484401F5D97800AD
:10589C0012598A40FB780088087418126426740721
:1058AC0012599440F275E195900717E0F97A187B3C
:1058BC000712129F900D1B74D5F0A3740F1259AFE1
:1058CC001259CF1259C6125B0712591678081217C3
:1058DC00CF908F5E780812175B908F96780812170E
:1058EC00A912599A78081217DE900726E024141290
:1058FC0059A07413F09005E37402F07F04021A2887
:10590C00900728E0C4333354C022900726E0F8A354
:10591C00E0F5838882A3A32274F6121956125AD882
:10592C008AD9780012598A40FB78008006125A3EB8
:10593C00125B8AE8C39940F5125ACA12598A40FB85
:10594C00780080081264227407125B8AE8C39940BD
:10595C00F375E195900D1B74E1F0A3740F1259AF20
:10596C001259B91217ED12599A1217F9900726E02D
:10597C0024141259A07412F09005E3025D75880886
:10598C0074292508F5827407125CE69406229007A8
:10599C0026E0240EF8A3E01259A7223400F98882DD
:1059AC00898322125AF074DBF0A3740F221259CFA0
:1059BC001259C6125B0B908FE622F0A374F3F0A37E
:1059CC00740F221259D3221259D722F0A3747FF0EC
:1059DC00A374112274F6121956125A3312590C442C
:1059EC0002F5D9780012598A40FB78008006125AC9
:1059FC003E125B8AE8C39940F575E195900D1B1238
:105A0C005A49F0A3125A491259BC1217ED12599A5D
:105A1C001217F9900726E024141259A07414F09070
:105A2C0005E37404025D77900738E0F9740729F5F3
:105A3C00D922880874392508F58274072274ED126E
:105A4C005A56125A56F0A3740F22F0A3740FF0A3F7
:105A5C0074ED2274F6121956125AD874064AF5D9F6
:105A6C00780012598A40FB78008006125A3E125B6D
:105A7C008AE8C39940F5125ACA12598A40FB780039
:105A8C0080081264227407125B8AE8C39940F3758C
:105A9C00E195900D1B74E7F0A3740F125AE612599E
:105AAC00B91217ED12599A1217F9900726E024141F
:105ABC001259A07415F09005E37403025D779007FA
:105ACC0058125A3674044AF5D9780022125A339077
:105ADC000728E0C4333354C0FA22125AF0747FF012
:105AEC00A3741122125AF422125B01747FF0A37476
:105AFC0011125B01221259D7F0A322125B0B22F078
:105B0C00900D29747FF0A37411125AF4747FF0A3D2
:105B1C0074111259D3F022C082C083125916A3A358
:105B2C00A3A3E402580774F7121956126668F874A6
